{
  "contractName": "NodeRegistry",
  "abi": [
    {
      "anonymous": false,
      "inputs": [
        {
          "indexed": true,
          "internalType": "string",
          "name": "nodeId",
          "type": "string"
        },
        {
          "indexed": false,
          "internalType": "string",
          "name": "nodeName",
          "type": "string"
        },
        {
          "indexed": false,
          "internalType": "enum NodeRegistry.NodeType",
          "name": "nodeType",
          "type": "uint8"
        },
        {
          "indexed": false,
          "internalType": "string",
          "name": "publicKey",
          "type": "string"
        },
        {
          "indexed": false,
          "internalType": "string",
          "name": "senderCapabilityToken",
          "type": "string"
        },
        {
          "indexed": false,
          "internalType": "string",
          "name": "receiverCapabilityToken",
          "type": "string"
        },
        {
          "indexed": false,
          "internalType": "address",
          "name": "registeredBy",
          "type": "address"
        },
        {
          "indexed": false,
          "internalType": "enum NodeRegistry.NodeType",
          "name": "registeredByNodeType",
          "type": "uint8"
        },
        {
          "indexed": false,
          "internalType": "string",
          "name": "nodeSignature",
          "type": "string"
        }
      ],
      "name": "NodeRegistered",
      "type": "event"
    },
    {
      "inputs": [
        {
          "internalType": "address",
          "name": "",
          "type": "address"
        }
      ],
      "name": "addressToNodeId",
      "outputs": [
        {
          "internalType": "string",
          "name": "",
          "type": "string"
        }
      ],
      "stateMutability": "view",
      "type": "function",
      "constant": true
    },
    {
      "inputs": [
        {
          "internalType": "string",
          "name": "",
          "type": "string"
        }
      ],
      "name": "iotNodes",
      "outputs": [
        {
          "internalType": "string",
          "name": "nodeName",
          "type": "string"
        },
        {
          "internalType": "enum NodeRegistry.NodeType",
          "name": "nodeType",
          "type": "uint8"
        },
        {
          "internalType": "string",
          "name": "publicKey",
          "type": "string"
        },
        {
          "internalType": "bool",
          "name": "isRegistered",
          "type": "bool"
        },
        {
          "internalType": "string",
          "name": "senderCapabilityToken",
          "type": "string"
        },
        {
          "internalType": "string",
          "name": "receiverCapabilityToken",
          "type": "string"
        },
        {
          "internalType": "address",
          "name": "registeredBy",
          "type": "address"
        },
        {
          "internalType": "enum NodeRegistry.NodeType",
          "name": "registeredByNodeType",
          "type": "uint8"
        },
        {
          "internalType": "string",
          "name": "nodeSignature",
          "type": "string"
        }
      ],
      "stateMutability": "view",
      "type": "function",
      "constant": true
    },
    {
      "inputs": [
        {
          "internalType": "string",
          "name": "",
          "type": "string"
        }
      ],
      "name": "nodeSignatureToNodeId",
      "outputs": [
        {
          "internalType": "string",
          "name": "",
          "type": "string"
        }
      ],
      "stateMutability": "view",
      "type": "function",
      "constant": true
    },
    {
      "inputs": [
        {
          "internalType": "string",
          "name": "nodeId",
          "type": "string"
        },
        {
          "internalType": "string",
          "name": "nodeName",
          "type": "string"
        },
        {
          "internalType": "string",
          "name": "nodeTypeStr",
          "type": "string"
        },
        {
          "internalType": "string",
          "name": "publicKey",
          "type": "string"
        },
        {
          "internalType": "address",
          "name": "registeredBy",
          "type": "address"
        },
        {
          "internalType": "string",
          "name": "registeredByNodeTypeStr",
          "type": "string"
        },
        {
          "internalType": "string",
          "name": "nodeSignature",
          "type": "string"
        }
      ],
      "name": "registerNode",
      "outputs": [],
      "stateMutability": "nonpayable",
      "type": "function"
    },
    {
      "inputs": [
        {
          "internalType": "string",
          "name": "nodeSignature",
          "type": "string"
        }
      ],
      "name": "isNodeRegistered",
      "outputs": [
        {
          "internalType": "bool",
          "name": "",
          "type": "bool"
        }
      ],
      "stateMutability": "view",
      "type": "function",
      "constant": true
    },
    {
      "inputs": [
        {
          "internalType": "string",
          "name": "nodeSignature",
          "type": "string"
        }
      ],
      "name": "getNodeDetailsBySignature",
      "outputs": [
        {
          "internalType": "string",
          "name": "",
          "type": "string"
        },
        {
          "internalType": "string",
          "name": "",
          "type": "string"
        },
        {
          "internalType": "enum NodeRegistry.NodeType",
          "name": "",
          "type": "uint8"
        },
        {
          "internalType": "string",
          "name": "",
          "type": "string"
        },
        {
          "internalType": "bool",
          "name": "",
          "type": "bool"
        },
        {
          "internalType": "string",
          "name": "",
          "type": "string"
        },
        {
          "internalType": "string",
          "name": "",
          "type": "string"
        },
        {
          "internalType": "address",
          "name": "",
          "type": "address"
        },
        {
          "internalType": "string",
          "name": "",
          "type": "string"
        },
        {
          "internalType": "enum NodeRegistry.NodeType",
          "name": "",
          "type": "uint8"
        }
      ],
      "stateMutability": "view",
      "type": "function",
      "constant": true
    }
  ],
  "bytecode": "0x608060405234801561001057600080fd5b506135f9806100206000396000f3fe608060405234801561001057600080fd5b50600436106100625760003560e01c806325d80f95146100675780639e6eb79514610097578063e5e1eeea146100b3578063ef36d16a146100e3578063f934df9114610113578063f991dde41461014c575b600080fd5b610081600480360381019061007c91906129ad565b610184565b60405161008e9190612fe6565b60405180910390f35b6100b160048036038101906100ac91906129ee565b6102de565b005b6100cd60048036038101906100c891906129ad565b610878565b6040516100da9190613001565b60405180910390f35b6100fd60048036038101906100f89190612984565b61092e565b60405161010a9190613001565b60405180910390f35b61012d600480360381019061012891906129ad565b6109ce565b6040516101439a99989796959493929190613174565b60405180910390f35b610166600480360381019061016191906129ad565b611047565b60405161017b99989796959493929190613023565b60405180910390f35b6000806001836040516101979190612f4f565b908152602001604051809103902080546101b090613450565b80601f01602080910402602001604051908101604052809291908181526020018280546101dc90613450565b80156102295780601f106101fe57610100808354040283529160200191610229565b820191906000526020600020905b81548152906001019060200180831161020c57829003601f168201915b505050505090506000816040516102409190612f4f565b908152602001604051809103902060030160009054906101000a900460ff1680156102d65750826040516020016102779190612f4f565b6040516020818303038152906040528051906020012060008260405161029d9190612f4f565b90815260200160405180910390206007016040516020016102be9190612f66565b60405160208183030381529060405280519060200120145b915050919050565b60006001826040516102f09190612f4f565b9081526020016040518091039020805461030990613450565b90501461034b576040517f08c379a00000000000000000000000000000000000000000000000000000000081526004016103429061323a565b60405180910390fd5b8660018260405161035c9190612f4f565b9081526020016040518091039020908051906020019061037d929190612864565b5060006103898661139a565b905060006103968461139a565b9050600060058111156103d2577f4e487b7100000000000000000000000000000000000000000000000000000000600052602160045260246000fd5b82600581111561040b577f4e487b7100000000000000000000000000000000000000000000000000000000600052602160045260246000fd5b141561044c576040517f08c379a00000000000000000000000000000000000000000000000000000000081526004016104439061327a565b60405180910390fd5b60006005811115610486577f4e487b7100000000000000000000000000000000000000000000000000000000600052602160045260246000fd5b8160058111156104bf577f4e487b7100000000000000000000000000000000000000000000000000000000600052602160045260246000fd5b1415610500576040517f08c379a00000000000000000000000000000000000000000000000000000000081526004016104f79061325a565b60405180910390fd5b60008061050d84846114df565b91509150600061051c8361279c565b905060006105298361279c565b90506040518061012001604052808d8152602001876005811115610576577f4e487b7100000000000000000000000000000000000000000000000000000000600052602160045260246000fd5b81526020018b81526020016001151581526020018381526020018281526020018a73ffffffffffffffffffffffffffffffffffffffff1681526020018660058111156105eb577f4e487b7100000000000000000000000000000000000000000000000000000000600052602160045260246000fd5b81526020018881525060008e6040516106049190612f4f565b9081526020016040518091039020600082015181600001908051906020019061062e929190612864565b5060208201518160010160006101000a81548160ff02191690836005811115610680577f4e487b7100000000000000000000000000000000000000000000000000000000600052602160045260246000fd5b021790555060408201518160020190805190602001906106a1929190612864565b5060608201518160030160006101000a81548160ff02191690831515021790555060808201518160040190805190602001906106de929190612864565b5060a08201518160050190805190602001906106fb929190612864565b5060c08201518160060160006101000a81548173ffffffffffffffffffffffffffffffffffffffff021916908373ffffffffffffffffffffffffffffffffffffffff16021790555060e08201518160060160146101000a81548160ff02191690836005811115610794577f4e487b7100000000000000000000000000000000000000000000000000000000600052602160045260246000fd5b02179055506101008201518160070190805190602001906107b6929190612864565b509050508c600260008b73ffffffffffffffffffffffffffffffffffffffff1673ffffffffffffffffffffffffffffffffffffffff168152602001908152602001600020908051906020019061080d929190612864565b508c60405161081c9190612f4f565b60405180910390207f12a9f0891653cbf5018a09249dfa46087cccb9b0765c686678c4c3f641bd5a138d888d86868f8c8f6040516108619897969594939291906130d3565b60405180910390a250505050505050505050505050565b60018180516020810182018051848252602083016020850120818352809550505050505060009150905080546108ad90613450565b80601f01602080910402602001604051908101604052809291908181526020018280546108d990613450565b80156109265780601f106108fb57610100808354040283529160200191610926565b820191906000526020600020905b81548152906001019060200180831161090957829003601f168201915b505050505081565b6002602052806000526040600020600091509050805461094d90613450565b80601f016020809104026020016040519081016040528092919081815260200182805461097990613450565b80156109c65780601f1061099b576101008083540402835291602001916109c6565b820191906000526020600020905b8154815290600101906020018083116109a957829003601f168201915b505050505081565b6060806000606060006060806000606060008060018c6040516109f19190612f4f565b90815260200160405180910390208054610a0a90613450565b80601f0160208091040260200160405190810160405280929190818152602001828054610a3690613450565b8015610a835780601f10610a5857610100808354040283529160200191610a83565b820191906000526020600020905b815481529060010190602001808311610a6657829003601f168201915b50505050509050600081604051610a9a9190612f4f565b908152602001604051809103902060030160009054906101000a900460ff168015610b3057508b604051602001610ad19190612f4f565b60405160208183030381529060405280519060200120600082604051610af79190612f4f565b9081526020016040518091039020600701604051602001610b189190612f66565b60405160208183030381529060405280519060200120145b610b6f576040517f08c379a0000000000000000000000000000000000000000000000000000000008152600401610b669061329a565b60405180910390fd5b60008082604051610b809190612f4f565b908152602001604051809103902060405180610120016040529081600082018054610baa90613450565b80601f0160208091040260200160405190810160405280929190818152602001828054610bd690613450565b8015610c235780601f10610bf857610100808354040283529160200191610c23565b820191906000526020600020905b815481529060010190602001808311610c0657829003601f168201915b505050505081526020016001820160009054906101000a900460ff166005811115610c77577f4e487b7100000000000000000000000000000000000000000000000000000000600052602160045260246000fd5b6005811115610caf577f4e487b7100000000000000000000000000000000000000000000000000000000600052602160045260246000fd5b8152602001600282018054610cc390613450565b80601f0160208091040260200160405190810160405280929190818152602001828054610cef90613450565b8015610d3c5780601f10610d1157610100808354040283529160200191610d3c565b820191906000526020600020905b815481529060010190602001808311610d1f57829003601f168201915b505050505081526020016003820160009054906101000a900460ff16151515158152602001600482018054610d7090613450565b80601f0160208091040260200160405190810160405280929190818152602001828054610d9c90613450565b8015610de95780601f10610dbe57610100808354040283529160200191610de9565b820191906000526020600020905b815481529060010190602001808311610dcc57829003601f168201915b50505050508152602001600582018054610e0290613450565b80601f0160208091040260200160405190810160405280929190818152602001828054610e2e90613450565b8015610e7b5780601f10610e5057610100808354040283529160200191610e7b565b820191906000526020600020905b815481529060010190602001808311610e5e57829003601f168201915b505050505081526020016006820160009054906101000a900473ffffffffffffffffffffffffffffffffffffffff1673ffffffffffffffffffffffffffffffffffffffff1673ffffffffffffffffffffffffffffffffffffffff1681526020016006820160149054906101000a900460ff166005811115610f25577f4e487b7100000000000000000000000000000000000000000000000000000000600052602160045260246000fd5b6005811115610f5d577f4e487b7100000000000000000000000000000000000000000000000000000000600052602160045260246000fd5b8152602001600782018054610f7190613450565b80601f0160208091040260200160405190810160405280929190818152602001828054610f9d90613450565b8015610fea5780601f10610fbf57610100808354040283529160200191610fea565b820191906000526020600020905b815481529060010190602001808311610fcd57829003601f168201915b505050505081525050905081816000015182602001518360400151846060015185608001518660a001518760c001518861010001518960e001519b509b509b509b509b509b509b509b509b509b5050509193959799509193959799565b60008180516020810182018051848252602083016020850120818352809550505050505060009150905080600001805461108090613450565b80601f01602080910402602001604051908101604052809291908181526020018280546110ac90613450565b80156110f95780601f106110ce576101008083540402835291602001916110f9565b820191906000526020600020905b8154815290600101906020018083116110dc57829003601f168201915b5050505050908060010160009054906101000a900460ff169080600201805461112190613450565b80601f016020809104026020016040519081016040528092919081815260200182805461114d90613450565b801561119a5780601f1061116f5761010080835404028352916020019161119a565b820191906000526020600020905b81548152906001019060200180831161117d57829003601f168201915b5050505050908060030160009054906101000a900460ff16908060040180546111c290613450565b80601f01602080910402602001604051908101604052809291908181526020018280546111ee90613450565b801561123b5780601f106112105761010080835404028352916020019161123b565b820191906000526020600020905b81548152906001019060200180831161121e57829003601f168201915b50505050509080600501805461125090613450565b80601f016020809104026020016040519081016040528092919081815260200182805461127c90613450565b80156112c95780601f1061129e576101008083540402835291602001916112c9565b820191906000526020600020905b8154815290600101906020018083116112ac57829003601f168201915b5050505050908060060160009054906101000a900473ffffffffffffffffffffffffffffffffffffffff16908060060160149054906101000a900460ff169080600701805461131790613450565b80601f016020809104026020016040519081016040528092919081815260200182805461134390613450565b80156113905780601f1061136557610100808354040283529160200191611390565b820191906000526020600020905b81548152906001019060200180831161137357829003601f168201915b5050505050905089565b600080826040516020016113ae9190612f4f565b6040516020818303038152906040528051906020012090506040516020016113d590612fd1565b604051602081830303815290604052805190602001208114156113fc5760019150506114da565b60405160200161140b90612fbc565b604051602081830303815290604052805190602001208114156114325760029150506114da565b60405160200161144190612f7d565b604051602081830303815290604052805190602001208114156114685760039150506114da565b60405160200161147790612fa7565b6040516020818303038152906040528051906020012081141561149e5760049150506114da565b6040516020016114ad90612f92565b604051602081830303815290604052805190602001208114156114d45760059150506114da565b60009150505b919050565b6060806060806002600581111561151f577f4e487b7100000000000000000000000000000000000000000000000000000000600052602160045260246000fd5b866005811115611558577f4e487b7100000000000000000000000000000000000000000000000000000000600052602160045260246000fd5b1480156115d557506001600581111561159a577f4e487b7100000000000000000000000000000000000000000000000000000000600052602160045260246000fd5b8560058111156115d3577f4e487b7100000000000000000000000000000000000000000000000000000000600052602160045260246000fd5b145b1561193457600367ffffffffffffffff81111561161b577f4e487b7100000000000000000000000000000000000000000000000000000000600052604160045260246000fd5b60405190808252806020026020018201604052801561164e57816020015b60608152602001906001900390816116395790505b5091506040518060400160405280600881526020017f466f673a52454144000000000000000000000000000000000000000000000000815250826000815181106116c1577f4e487b7100000000000000000000000000000000000000000000000000000000600052603260045260246000fd5b60200260200101819052506040518060400160405280600981526020017f466f673a575249544500000000000000000000000000000000000000000000008152508260018151811061173c577f4e487b7100000000000000000000000000000000000000000000000000000000600052603260045260246000fd5b60200260200101819052506040518060400160405280600c81526020017f466f673a5452414e534d49540000000000000000000000000000000000000000815250826002815181106117b7577f4e487b7100000000000000000000000000000000000000000000000000000000600052603260045260246000fd5b6020026020010181905250600267ffffffffffffffff811115611803577f4e487b7100000000000000000000000000000000000000000000000000000000600052604160045260246000fd5b60405190808252806020026020018201604052801561183657816020015b60608152602001906001900390816118215790505b5090506040518060400160405280600a81526020017f436c6f75643a5245414400000000000000000000000000000000000000000000815250816000815181106118a9577f4e487b7100000000000000000000000000000000000000000000000000000000600052603260045260246000fd5b60200260200101819052506040518060400160405280600d81526020017f436c6f75643a455845435554450000000000000000000000000000000000000081525081600181518110611924577f4e487b7100000000000000000000000000000000000000000000000000000000600052603260045260246000fd5b602002602001018190525061278d565b6003600581111561196e577f4e487b7100000000000000000000000000000000000000000000000000000000600052602160045260246000fd5b8660058111156119a7577f4e487b7100000000000000000000000000000000000000000000000000000000600052602160045260246000fd5b148015611a245750600260058111156119e9577f4e487b7100000000000000000000000000000000000000000000000000000000600052602160045260246000fd5b856005811115611a22577f4e487b7100000000000000000000000000000000000000000000000000000000600052602160045260246000fd5b145b15611d8357600367ffffffffffffffff811115611a6a577f4e487b7100000000000000000000000000000000000000000000000000000000600052604160045260246000fd5b604051908082528060200260200182016040528015611a9d57816020015b6060815260200190600190039081611a885790505b5091506040518060400160405280600981526020017f456467653a52454144000000000000000000000000000000000000000000000081525082600081518110611b10577f4e487b7100000000000000000000000000000000000000000000000000000000600052603260045260246000fd5b60200260200101819052506040518060400160405280600a81526020017f456467653a57524954450000000000000000000000000000000000000000000081525082600181518110611b8b577f4e487b7100000000000000000000000000000000000000000000000000000000600052603260045260246000fd5b60200260200101819052506040518060400160405280600d81526020017f456467653a5452414e534d49540000000000000000000000000000000000000081525082600281518110611c06577f4e487b7100000000000000000000000000000000000000000000000000000000600052603260045260246000fd5b6020026020010181905250600267ffffffffffffffff811115611c52577f4e487b7100000000000000000000000000000000000000000000000000000000600052604160045260246000fd5b604051908082528060200260200182016040528015611c8557816020015b6060815260200190600190039081611c705790505b5090506040518060400160405280600881526020017f466f673a5245414400000000000000000000000000000000000000000000000081525081600081518110611cf8577f4e487b7100000000000000000000000000000000000000000000000000000000600052603260045260246000fd5b60200260200101819052506040518060400160405280600b81526020017f466f673a4558454355544500000000000000000000000000000000000000000081525081600181518110611d73577f4e487b7100000000000000000000000000000000000000000000000000000000600052603260045260246000fd5b602002602001018190525061278c565b60046005811115611dbd577f4e487b7100000000000000000000000000000000000000000000000000000000600052602160045260246000fd5b866005811115611df6577f4e487b7100000000000000000000000000000000000000000000000000000000600052602160045260246000fd5b148015611e73575060036005811115611e38577f4e487b7100000000000000000000000000000000000000000000000000000000600052602160045260246000fd5b856005811115611e71577f4e487b7100000000000000000000000000000000000000000000000000000000600052602160045260246000fd5b145b1561215757600267ffffffffffffffff811115611eb9577f4e487b7100000000000000000000000000000000000000000000000000000000600052604160045260246000fd5b604051908082528060200260200182016040528015611eec57816020015b6060815260200190600190039081611ed75790505b5091506040518060400160405280600b81526020017f53656e736f723a5245414400000000000000000000000000000000000000000081525082600081518110611f5f577f4e487b7100000000000000000000000000000000000000000000000000000000600052603260045260246000fd5b60200260200101819052506040518060400160405280600f81526020017f53656e736f723a5452414e534d4954000000000000000000000000000000000081525082600181518110611fda577f4e487b7100000000000000000000000000000000000000000000000000000000600052603260045260246000fd5b6020026020010181905250600267ffffffffffffffff811115612026577f4e487b7100000000000000000000000000000000000000000000000000000000600052604160045260246000fd5b60405190808252806020026020018201604052801561205957816020015b60608152602001906001900390816120445790505b5090506040518060400160405280600981526020017f456467653a524541440000000000000000000000000000000000000000000000815250816000815181106120cc577f4e487b7100000000000000000000000000000000000000000000000000000000600052603260045260246000fd5b60200260200101819052506040518060400160405280600c81526020017f456467653a45584543555445000000000000000000000000000000000000000081525081600181518110612147577f4e487b7100000000000000000000000000000000000000000000000000000000600052603260045260246000fd5b602002602001018190525061278b565b600580811115612190577f4e487b7100000000000000000000000000000000000000000000000000000000600052602160045260246000fd5b8660058111156121c9577f4e487b7100000000000000000000000000000000000000000000000000000000600052602160045260246000fd5b14801561224657506003600581111561220b577f4e487b7100000000000000000000000000000000000000000000000000000000600052602160045260246000fd5b856005811115612244577f4e487b7100000000000000000000000000000000000000000000000000000000600052602160045260246000fd5b145b156125a557600367ffffffffffffffff81111561228c577f4e487b7100000000000000000000000000000000000000000000000000000000600052604160045260246000fd5b6040519080825280602002602001820160405280156122bf57816020015b60608152602001906001900390816122aa5790505b5091506040518060400160405280600d81526020017f4163747561746f723a524541440000000000000000000000000000000000000081525082600081518110612332577f4e487b7100000000000000000000000000000000000000000000000000000000600052603260045260246000fd5b60200260200101819052506040518060400160405280600e81526020017f4163747561746f723a5752495445000000000000000000000000000000000000815250826001815181106123ad577f4e487b7100000000000000000000000000000000000000000000000000000000600052603260045260246000fd5b60200260200101819052506040518060400160405280601081526020017f4163747561746f723a455845435554450000000000000000000000000000000081525082600281518110612428577f4e487b7100000000000000000000000000000000000000000000000000000000600052603260045260246000fd5b6020026020010181905250600267ffffffffffffffff811115612474577f4e487b7100000000000000000000000000000000000000000000000000000000600052604160045260246000fd5b6040519080825280602002602001820160405280156124a757816020015b60608152602001906001900390816124925790505b5090506040518060400160405280600981526020017f456467653a5245414400000000000000000000000000000000000000000000008152508160008151811061251a577f4e487b7100000000000000000000000000000000000000000000000000000000600052603260045260246000fd5b60200260200101819052506040518060400160405280600c81526020017f456467653a45584543555445000000000000000000000000000000000000000081525081600181518110612595577f4e487b7100000000000000000000000000000000000000000000000000000000600052603260045260246000fd5b602002602001018190525061278a565b600167ffffffffffffffff8111156125e6577f4e487b7100000000000000000000000000000000000000000000000000000000600052604160045260246000fd5b60405190808252806020026020018201604052801561261957816020015b60608152602001906001900390816126045790505b5091506040518060400160405280600d81526020017f494e56414c49445f544f4b454e000000000000000000000000000000000000008152508260008151811061268c577f4e487b7100000000000000000000000000000000000000000000000000000000600052603260045260246000fd5b6020026020010181905250600167ffffffffffffffff8111156126d8577f4e487b7100000000000000000000000000000000000000000000000000000000600052604160045260246000fd5b60405190808252806020026020018201604052801561270b57816020015b60608152602001906001900390816126f65790505b5090506040518060400160405280600d81526020017f494e56414c49445f544f4b454e000000000000000000000000000000000000008152508160008151811061277e577f4e487b7100000000000000000000000000000000000000000000000000000000600052603260045260246000fd5b60200260200101819052505b5b5b5b81819350935050509250929050565b60608060005b835181101561285a57818482815181106127e5577f4e487b7100000000000000000000000000000000000000000000000000000000600052603260045260246000fd5b60200260200101516040516020016127fe929190612f09565b60405160208183030381529060405291506001845161281d919061336d565b81101561284757816040516020016128359190612f2d565b60405160208183030381529060405291505b808061285290613482565b9150506127a2565b5080915050919050565b82805461287090613450565b90600052602060002090601f01602090048101928261289257600085556128d9565b82601f106128ab57805160ff19168380011785556128d9565b828001600101855582156128d9579182015b828111156128d85782518255916020019190600101906128bd565b5b5090506128e691906128ea565b5090565b5b808211156129035760008160009055506001016128eb565b5090565b600061291a612915846132eb565b6132ba565b90508281526020810184848401111561293257600080fd5b61293d84828561340e565b509392505050565b600081359050612954816135ac565b92915050565b600082601f83011261296b57600080fd5b813561297b848260208601612907565b91505092915050565b60006020828403121561299657600080fd5b60006129a484828501612945565b91505092915050565b6000602082840312156129bf57600080fd5b600082013567ffffffffffffffff8111156129d957600080fd5b6129e58482850161295a565b91505092915050565b600080600080600080600060e0888a031215612a0957600080fd5b600088013567ffffffffffffffff811115612a2357600080fd5b612a2f8a828b0161295a565b975050602088013567ffffffffffffffff811115612a4c57600080fd5b612a588a828b0161295a565b965050604088013567ffffffffffffffff811115612a7557600080fd5b612a818a828b0161295a565b955050606088013567ffffffffffffffff811115612a9e57600080fd5b612aaa8a828b0161295a565b9450506080612abb8a828b01612945565b93505060a088013567ffffffffffffffff811115612ad857600080fd5b612ae48a828b0161295a565b92505060c088013567ffffffffffffffff811115612b0157600080fd5b612b0d8a828b0161295a565b91505092959891949750929550565b612b25816133a1565b82525050565b612b34816133b3565b82525050565b6000612b4582613330565b612b4f8185613346565b9350612b5f81856020860161341d565b80840191505092915050565b612b74816133fc565b82525050565b6000612b858261333b565b612b8f8185613351565b9350612b9f81856020860161341d565b612ba881613587565b840191505092915050565b6000612bbe8261333b565b612bc88185613362565b9350612bd881856020860161341d565b80840191505092915050565b60008154612bf181613450565b612bfb8186613362565b94506001821660008114612c165760018114612c2757612c5a565b60ff19831686528186019350612c5a565b612c308561331b565b60005b83811015612c5257815481890152600182019150602081019050612c33565b838801955050505b50505092915050565b6000612c70600483613362565b91507f45646765000000000000000000000000000000000000000000000000000000006000830152600482019050919050565b6000612cb0601883613351565b91507f4e6f646520616c726561647920726567697374657265642100000000000000006000830152602082019050919050565b6000612cf0600883613362565b91507f4163747561746f720000000000000000000000000000000000000000000000006000830152600882019050919050565b6000612d30600683613362565b91507f53656e736f7200000000000000000000000000000000000000000000000000006000830152600682019050919050565b6000612d70600183613362565b91507f2c000000000000000000000000000000000000000000000000000000000000006000830152600182019050919050565b6000612db0602083613351565b91507f496e76616c696420726567697374657265642d6279206e6f64652074797065216000830152602082019050919050565b6000612df0600383613362565b91507f466f6700000000000000000000000000000000000000000000000000000000006000830152600382019050919050565b6000612e30600583613362565b91507f436c6f75640000000000000000000000000000000000000000000000000000006000830152600582019050919050565b6000612e70601283613351565b91507f496e76616c6964206e6f646520747970652100000000000000000000000000006000830152602082019050919050565b6000612eb0602f83613351565b91507f4e6f206d61746368696e67206e6f64652072656769737465726564207769746860008301527f2074686973207369676e617475726500000000000000000000000000000000006020830152604082019050919050565b6000612f158285612b3a565b9150612f218284612bb3565b91508190509392505050565b6000612f398284612b3a565b9150612f4482612d63565b915081905092915050565b6000612f5b8284612bb3565b915081905092915050565b6000612f728284612be4565b915081905092915050565b6000612f8882612c63565b9150819050919050565b6000612f9d82612ce3565b9150819050919050565b6000612fb282612d23565b9150819050919050565b6000612fc782612de3565b9150819050919050565b6000612fdc82612e23565b9150819050919050565b6000602082019050612ffb6000830184612b2b565b92915050565b6000602082019050818103600083015261301b8184612b7a565b905092915050565b600061012082019050818103600083015261303e818c612b7a565b905061304d602083018b612b6b565b818103604083015261305f818a612b7a565b905061306e6060830189612b2b565b81810360808301526130808188612b7a565b905081810360a08301526130948187612b7a565b90506130a360c0830186612b1c565b6130b060e0830185612b6b565b8181036101008301526130c38184612b7a565b90509a9950505050505050505050565b60006101008201905081810360008301526130ee818b612b7a565b90506130fd602083018a612b6b565b818103604083015261310f8189612b7a565b905081810360608301526131238188612b7a565b905081810360808301526131378187612b7a565b905061314660a0830186612b1c565b61315360c0830185612b6b565b81810360e08301526131658184612b7a565b90509998505050505050505050565b600061014082019050818103600083015261318f818d612b7a565b905081810360208301526131a3818c612b7a565b90506131b2604083018b612b6b565b81810360608301526131c4818a612b7a565b90506131d36080830189612b2b565b81810360a08301526131e58188612b7a565b905081810360c08301526131f98187612b7a565b905061320860e0830186612b1c565b81810361010083015261321b8185612b7a565b905061322b610120830184612b6b565b9b9a5050505050505050505050565b6000602082019050818103600083015261325381612ca3565b9050919050565b6000602082019050818103600083015261327381612da3565b9050919050565b6000602082019050818103600083015261329381612e63565b9050919050565b600060208201905081810360008301526132b381612ea3565b9050919050565b6000604051905081810181811067ffffffffffffffff821117156132e1576132e0613558565b5b8060405250919050565b600067ffffffffffffffff82111561330657613305613558565b5b601f19601f8301169050602081019050919050565b60008190508160005260206000209050919050565b600081519050919050565b600081519050919050565b600081905092915050565b600082825260208201905092915050565b600081905092915050565b6000613378826133f2565b9150613383836133f2565b925082821015613396576133956134cb565b5b828203905092915050565b60006133ac826133d2565b9050919050565b60008115159050919050565b60008190506133cd82613598565b919050565b600073ffffffffffffffffffffffffffffffffffffffff82169050919050565b6000819050919050565b6000613407826133bf565b9050919050565b82818337600083830152505050565b60005b8381101561343b578082015181840152602081019050613420565b8381111561344a576000848401525b50505050565b6000600282049050600182168061346857607f821691505b6020821081141561347c5761347b613529565b5b50919050565b600061348d826133f2565b91507fffffffffffffffffffffffffffffffffffffffffffffffffffffffffffffffff8214156134c0576134bf6134cb565b5b600182019050919050565b7f4e487b7100000000000000000000000000000000000000000000000000000000600052601160045260246000fd5b7f4e487b7100000000000000000000000000000000000000000000000000000000600052602160045260246000fd5b7f4e487b7100000000000000000000000000000000000000000000000000000000600052602260045260246000fd5b7f4e487b7100000000000000000000000000000000000000000000000000000000600052604160045260246000fd5b6000601f19601f8301169050919050565b600681106135a9576135a86134fa565b5b50565b6135b5816133a1565b81146135c057600080fd5b5056fea2646970667358221220f48992c87ed5a6e11484d38a26bee25ba828c6bff6707fdf91239d8e792b0b0564736f6c63430008000033",
  "immutableReferences": {},
  "source": "// SPDX-License-Identifier: MIT\npragma solidity ^0.8.0;\n\ncontract NodeRegistry {\n    \n    enum NodeType { Unknown, Cloud, Fog, Edge, Sensor, Actuator } // Define possible node types\n\n    struct IoTNode {\n        string nodeName;\n        NodeType nodeType;\n        string publicKey;\n        bool isRegistered;\n        string senderCapabilityToken;\n        string receiverCapabilityToken;\n        address registeredBy;\n        NodeType registeredByNodeType;\n        string nodeSignature; \n    }\n\n    mapping(string => IoTNode) public iotNodes;\n    mapping(string => string) public nodeSignatureToNodeId;\n    mapping(address => string) public addressToNodeId;\n    \n    // Updated event: tokens are now a single string each.\n    event NodeRegistered(\n        string indexed nodeId,\n        string nodeName,\n        NodeType nodeType,\n        string publicKey,\n        string senderCapabilityToken,\n        string receiverCapabilityToken,\n        address registeredBy,\n        NodeType registeredByNodeType,\n        string nodeSignature\n    );\n    \n    // Helper function to join an array of strings with commas.\n    function joinStringArray(string[] memory arr) internal pure returns (string memory) {\n        bytes memory result;\n        for (uint i = 0; i < arr.length; i++) {\n            result = abi.encodePacked(result, arr[i]);\n            if (i < arr.length - 1) {\n                result = abi.encodePacked(result, \",\");\n            }\n        }\n        return string(result);\n    }\n\n    function registerNode(\n        string memory nodeId,\n        string memory nodeName,\n        string memory nodeTypeStr,\n        string memory publicKey,\n        address registeredBy,\n        string memory registeredByNodeTypeStr,\n        string memory nodeSignature \n    ) public {\n        require(bytes(nodeSignatureToNodeId[nodeSignature]).length == 0, \"Node already registered!\");\n        nodeSignatureToNodeId[nodeSignature] = nodeId;\n        NodeType nodeType = getNodeType(nodeTypeStr);\n        NodeType regByNodeType = getNodeType(registeredByNodeTypeStr);\n        require(nodeType != NodeType.Unknown, \"Invalid node type!\");\n        require(regByNodeType != NodeType.Unknown, \"Invalid registered-by node type!\");\n\n        (string[] memory senderTokens, string[] memory receiverTokens) = generateToken(nodeType, regByNodeType);\n        string memory senderCapabilityToken = joinStringArray(senderTokens);\n        string memory receiverCapabilityToken = joinStringArray(receiverTokens);\n\n        iotNodes[nodeId] = IoTNode({\n            nodeName: nodeName,\n            nodeType: nodeType,\n            publicKey: publicKey,\n            isRegistered: true,\n            senderCapabilityToken: senderCapabilityToken,\n            receiverCapabilityToken: receiverCapabilityToken,\n            registeredBy: registeredBy,\n            registeredByNodeType: regByNodeType,\n            nodeSignature: nodeSignature\n        });\n\n        addressToNodeId[registeredBy] = nodeId;\n\n        emit NodeRegistered(\n            nodeId,\n            nodeName,\n            nodeType,\n            publicKey,\n            senderCapabilityToken,\n            receiverCapabilityToken,\n            registeredBy,\n            regByNodeType,\n            nodeSignature\n        );\n    }\n\n    function isNodeRegistered(string memory nodeSignature) public view returns (bool) {\n        string memory nodeId = nodeSignatureToNodeId[nodeSignature];\n        return (\n            iotNodes[nodeId].isRegistered &&\n            keccak256(abi.encodePacked(iotNodes[nodeId].nodeSignature)) == keccak256(abi.encodePacked(nodeSignature))\n        );\n    }\n\n    function getNodeDetailsBySignature(string memory nodeSignature)\n        public view returns (\n            string memory,\n            string memory,\n            NodeType,\n            string memory,\n            bool,\n            string memory,\n            string memory,\n            address,\n            string memory,\n            NodeType\n        )\n    {\n        string memory nodeId = nodeSignatureToNodeId[nodeSignature];\n        require(\n            iotNodes[nodeId].isRegistered &&\n            keccak256(abi.encodePacked(iotNodes[nodeId].nodeSignature)) == keccak256(abi.encodePacked(nodeSignature)),\n            \"No matching node registered with this signature\"\n        );\n\n        IoTNode memory node = iotNodes[nodeId];\n        return (\n            nodeId,\n            node.nodeName,\n            node.nodeType,\n            node.publicKey,\n            node.isRegistered,\n            node.senderCapabilityToken,\n            node.receiverCapabilityToken,\n            node.registeredBy,\n            node.nodeSignature,\n            node.registeredByNodeType\n        );\n    }\n\n    function getNodeType(string memory nodeTypeStr) internal pure returns (NodeType) {\n        bytes32 nodeTypeHash = keccak256(abi.encodePacked(nodeTypeStr));\n\n        if (nodeTypeHash == keccak256(abi.encodePacked(\"Cloud\"))) return NodeType.Cloud;\n        if (nodeTypeHash == keccak256(abi.encodePacked(\"Fog\"))) return NodeType.Fog;\n        if (nodeTypeHash == keccak256(abi.encodePacked(\"Edge\"))) return NodeType.Edge;\n        if (nodeTypeHash == keccak256(abi.encodePacked(\"Sensor\"))) return NodeType.Sensor;\n        if (nodeTypeHash == keccak256(abi.encodePacked(\"Actuator\"))) return NodeType.Actuator;\n\n        return NodeType.Unknown; // Invalid type\n    }\n\n    // Updated generateToken: returns arrays of strings.\n    function generateToken(NodeType nodeType, NodeType registeredByNodeType) \n        internal pure returns (string[] memory, string[] memory) \n    {\n        string[] memory nodeTypePermissions;\n        string[] memory registeredByNodeTypePermissions;\n        \n        if (nodeType == NodeType.Fog && registeredByNodeType == NodeType.Cloud) {\n            nodeTypePermissions = new string[](3);\n            nodeTypePermissions[0] = \"Fog:READ\";\n            nodeTypePermissions[1] = \"Fog:WRITE\";\n            nodeTypePermissions[2] = \"Fog:TRANSMIT\";\n            \n            registeredByNodeTypePermissions = new string[](2);\n            registeredByNodeTypePermissions[0] = \"Cloud:READ\";\n            registeredByNodeTypePermissions[1] = \"Cloud:EXECUTE\";\n        } else if (nodeType == NodeType.Edge && registeredByNodeType == NodeType.Fog) {\n            nodeTypePermissions = new string[](3);\n            nodeTypePermissions[0] = \"Edge:READ\";\n            nodeTypePermissions[1] = \"Edge:WRITE\";\n            nodeTypePermissions[2] = \"Edge:TRANSMIT\";\n            \n            registeredByNodeTypePermissions = new string[](2);\n            registeredByNodeTypePermissions[0] = \"Fog:READ\";\n            registeredByNodeTypePermissions[1] = \"Fog:EXECUTE\";\n        } else if (nodeType == NodeType.Sensor && registeredByNodeType == NodeType.Edge) {\n            nodeTypePermissions = new string[](2);\n            nodeTypePermissions[0] = \"Sensor:READ\";\n            nodeTypePermissions[1] = \"Sensor:TRANSMIT\";\n            \n            registeredByNodeTypePermissions = new string[](2);\n            registeredByNodeTypePermissions[0] = \"Edge:READ\";\n            registeredByNodeTypePermissions[1] = \"Edge:EXECUTE\";\n        } else if (nodeType == NodeType.Actuator && registeredByNodeType == NodeType.Edge) {\n            nodeTypePermissions = new string[](3);\n            nodeTypePermissions[0] = \"Actuator:READ\";\n            nodeTypePermissions[1] = \"Actuator:WRITE\";\n            nodeTypePermissions[2] = \"Actuator:EXECUTE\";\n            \n            registeredByNodeTypePermissions = new string[](2);\n            registeredByNodeTypePermissions[0] = \"Edge:READ\";\n            registeredByNodeTypePermissions[1] = \"Edge:EXECUTE\";\n        } else {\n            nodeTypePermissions = new string[](1);\n            nodeTypePermissions[0] = \"INVALID_TOKEN\";\n            registeredByNodeTypePermissions = new string[](1);\n            registeredByNodeTypePermissions[0] = \"INVALID_TOKEN\";\n        }\n\n        return (nodeTypePermissions, registeredByNodeTypePermissions);\n    }\n}",
  "sourcePath": "/Users/khannmohsin/VSCode_Projects/MyDisIoT_Project/smart_contract_deployment/contracts/NodeRegistry.sol",
  "compiler": {
    "name": "solc",
    "version": "0.8.0+commit.c7dfd78e.Emscripten.clang"
  },
  "schemaVersion": "3.4.16",
  "updatedAt": "2025-04-04T18:15:12.855Z",
  "networkType": "ethereum",
  "devdoc": {
    "kind": "dev",
    "methods": {},
    "version": 1
  },
  "userdoc": {
    "kind": "user",
    "methods": {},
    "version": 1
  }
}