{
  "contractName": "NodeRegistry",
  "abi": [
    {
      "anonymous": false,
      "inputs": [
        {
          "indexed": true,
          "internalType": "string",
          "name": "nodeId",
          "type": "string"
        },
        {
          "indexed": false,
          "internalType": "string",
          "name": "nodeName",
          "type": "string"
        },
        {
          "indexed": false,
          "internalType": "enum NodeRegistry.NodeType",
          "name": "nodeType",
          "type": "uint8"
        },
        {
          "indexed": false,
          "internalType": "string",
          "name": "publicKey",
          "type": "string"
        },
        {
          "indexed": false,
          "internalType": "address",
          "name": "registeredBy",
          "type": "address"
        },
        {
          "indexed": false,
          "internalType": "enum NodeRegistry.NodeType",
          "name": "registeredByNodeType",
          "type": "uint8"
        },
        {
          "indexed": false,
          "internalType": "string",
          "name": "nodeSignature",
          "type": "string"
        }
      ],
      "name": "NodeRegistered",
      "type": "event"
    },
    {
      "anonymous": false,
      "inputs": [
        {
          "indexed": false,
          "internalType": "string",
          "name": "fromNodeSignature",
          "type": "string"
        },
        {
          "indexed": false,
          "internalType": "string",
          "name": "toNodeSignature",
          "type": "string"
        }
      ],
      "name": "TokenChecked",
      "type": "event"
    },
    {
      "anonymous": false,
      "inputs": [
        {
          "indexed": false,
          "internalType": "string",
          "name": "fromNodeSignature",
          "type": "string"
        },
        {
          "indexed": false,
          "internalType": "string",
          "name": "toNodeSignature",
          "type": "string"
        },
        {
          "indexed": false,
          "internalType": "string",
          "name": "policy",
          "type": "string"
        },
        {
          "indexed": false,
          "internalType": "uint256",
          "name": "issuedAt",
          "type": "uint256"
        }
      ],
      "name": "TokenIssued",
      "type": "event"
    },
    {
      "anonymous": false,
      "inputs": [
        {
          "indexed": false,
          "internalType": "string",
          "name": "fromNodeSignature",
          "type": "string"
        },
        {
          "indexed": false,
          "internalType": "string",
          "name": "toNodeSignature",
          "type": "string"
        }
      ],
      "name": "TokenRevoked",
      "type": "event"
    },
    {
      "anonymous": false,
      "inputs": [
        {
          "indexed": true,
          "internalType": "address",
          "name": "proposedBy",
          "type": "address"
        },
        {
          "indexed": true,
          "internalType": "address",
          "name": "validator",
          "type": "address"
        }
      ],
      "name": "ValidatorProposed",
      "type": "event"
    },
    {
      "inputs": [
        {
          "internalType": "address",
          "name": "",
          "type": "address"
        }
      ],
      "name": "addressToNodeId",
      "outputs": [
        {
          "internalType": "string",
          "name": "",
          "type": "string"
        }
      ],
      "stateMutability": "view",
      "type": "function",
      "constant": true
    },
    {
      "inputs": [
        {
          "internalType": "bytes32",
          "name": "",
          "type": "bytes32"
        }
      ],
      "name": "capabilityTokens",
      "outputs": [
        {
          "internalType": "string",
          "name": "policy",
          "type": "string"
        },
        {
          "internalType": "uint256",
          "name": "issuedAt",
          "type": "uint256"
        },
        {
          "internalType": "bool",
          "name": "isIssued",
          "type": "bool"
        },
        {
          "internalType": "bool",
          "name": "isRevoked",
          "type": "bool"
        }
      ],
      "stateMutability": "view",
      "type": "function",
      "constant": true
    },
    {
      "inputs": [
        {
          "internalType": "string",
          "name": "",
          "type": "string"
        }
      ],
      "name": "iotNodes",
      "outputs": [
        {
          "internalType": "string",
          "name": "nodeName",
          "type": "string"
        },
        {
          "internalType": "enum NodeRegistry.NodeType",
          "name": "nodeType",
          "type": "uint8"
        },
        {
          "internalType": "string",
          "name": "publicKey",
          "type": "string"
        },
        {
          "internalType": "bool",
          "name": "isRegistered",
          "type": "bool"
        },
        {
          "internalType": "address",
          "name": "registeredBy",
          "type": "address"
        },
        {
          "internalType": "enum NodeRegistry.NodeType",
          "name": "registeredByNodeType",
          "type": "uint8"
        },
        {
          "internalType": "string",
          "name": "nodeSignature",
          "type": "string"
        }
      ],
      "stateMutability": "view",
      "type": "function",
      "constant": true
    },
    {
      "inputs": [
        {
          "internalType": "string",
          "name": "",
          "type": "string"
        }
      ],
      "name": "nodeSignatureToNodeId",
      "outputs": [
        {
          "internalType": "string",
          "name": "",
          "type": "string"
        }
      ],
      "stateMutability": "view",
      "type": "function",
      "constant": true
    },
    {
      "inputs": [
        {
          "internalType": "string",
          "name": "nodeId",
          "type": "string"
        },
        {
          "internalType": "string",
          "name": "nodeName",
          "type": "string"
        },
        {
          "internalType": "string",
          "name": "nodeTypeStr",
          "type": "string"
        },
        {
          "internalType": "string",
          "name": "publicKey",
          "type": "string"
        },
        {
          "internalType": "address",
          "name": "registeredBy",
          "type": "address"
        },
        {
          "internalType": "string",
          "name": "registeredByNodeTypeStr",
          "type": "string"
        },
        {
          "internalType": "string",
          "name": "nodeSignature",
          "type": "string"
        }
      ],
      "name": "registerNode",
      "outputs": [],
      "stateMutability": "nonpayable",
      "type": "function"
    },
    {
      "inputs": [
        {
          "internalType": "string",
          "name": "nodeSignature",
          "type": "string"
        }
      ],
      "name": "isNodeRegistered",
      "outputs": [
        {
          "internalType": "bool",
          "name": "",
          "type": "bool"
        }
      ],
      "stateMutability": "view",
      "type": "function",
      "constant": true
    },
    {
      "inputs": [
        {
          "internalType": "address",
          "name": "validator",
          "type": "address"
        }
      ],
      "name": "proposeValidator",
      "outputs": [],
      "stateMutability": "nonpayable",
      "type": "function"
    },
    {
      "inputs": [
        {
          "internalType": "string",
          "name": "nodeSignature",
          "type": "string"
        }
      ],
      "name": "getNodeDetailsBySignature",
      "outputs": [
        {
          "internalType": "string",
          "name": "",
          "type": "string"
        },
        {
          "internalType": "string",
          "name": "",
          "type": "string"
        },
        {
          "internalType": "enum NodeRegistry.NodeType",
          "name": "",
          "type": "uint8"
        },
        {
          "internalType": "string",
          "name": "",
          "type": "string"
        },
        {
          "internalType": "bool",
          "name": "",
          "type": "bool"
        },
        {
          "internalType": "address",
          "name": "",
          "type": "address"
        },
        {
          "internalType": "string",
          "name": "",
          "type": "string"
        },
        {
          "internalType": "enum NodeRegistry.NodeType",
          "name": "",
          "type": "uint8"
        }
      ],
      "stateMutability": "view",
      "type": "function",
      "constant": true
    },
    {
      "inputs": [
        {
          "internalType": "address",
          "name": "nodeAddress",
          "type": "address"
        }
      ],
      "name": "getNodeDetailsByAddress",
      "outputs": [
        {
          "internalType": "string",
          "name": "",
          "type": "string"
        },
        {
          "internalType": "string",
          "name": "",
          "type": "string"
        },
        {
          "internalType": "enum NodeRegistry.NodeType",
          "name": "",
          "type": "uint8"
        },
        {
          "internalType": "string",
          "name": "",
          "type": "string"
        },
        {
          "internalType": "bool",
          "name": "",
          "type": "bool"
        },
        {
          "internalType": "address",
          "name": "",
          "type": "address"
        },
        {
          "internalType": "string",
          "name": "",
          "type": "string"
        },
        {
          "internalType": "enum NodeRegistry.NodeType",
          "name": "",
          "type": "uint8"
        }
      ],
      "stateMutability": "view",
      "type": "function",
      "constant": true
    },
    {
      "inputs": [
        {
          "internalType": "string",
          "name": "fromNodeSignature",
          "type": "string"
        },
        {
          "internalType": "string",
          "name": "toNodeSignature",
          "type": "string"
        }
      ],
      "name": "issueToken",
      "outputs": [],
      "stateMutability": "nonpayable",
      "type": "function"
    },
    {
      "inputs": [
        {
          "internalType": "string",
          "name": "fromNodeSignature",
          "type": "string"
        },
        {
          "internalType": "string",
          "name": "toNodeSignature",
          "type": "string"
        }
      ],
      "name": "revokeToken",
      "outputs": [],
      "stateMutability": "nonpayable",
      "type": "function"
    },
    {
      "inputs": [
        {
          "internalType": "string",
          "name": "fromNodeSignature",
          "type": "string"
        },
        {
          "internalType": "string",
          "name": "toNodeSignature",
          "type": "string"
        }
      ],
      "name": "getToken",
      "outputs": [
        {
          "internalType": "string",
          "name": "policy",
          "type": "string"
        },
        {
          "internalType": "uint256",
          "name": "issuedAt",
          "type": "uint256"
        },
        {
          "internalType": "bool",
          "name": "isIssued",
          "type": "bool"
        },
        {
          "internalType": "bool",
          "name": "isRevoked",
          "type": "bool"
        }
      ],
      "stateMutability": "view",
      "type": "function",
      "constant": true
    },
    {
      "inputs": [
        {
          "internalType": "string",
          "name": "fromNodeSignature",
          "type": "string"
        },
        {
          "internalType": "string",
          "name": "toNodeSignature",
          "type": "string"
        }
      ],
      "name": "checkToken",
      "outputs": [
        {
          "internalType": "bool",
          "name": "",
          "type": "bool"
        }
      ],
      "stateMutability": "view",
      "type": "function",
      "constant": true
    },
    {
      "inputs": [
        {
          "internalType": "string",
          "name": "fromNodeSignature",
          "type": "string"
        },
        {
          "internalType": "string",
          "name": "toNodeSignature",
          "type": "string"
        },
        {
          "internalType": "uint256",
          "name": "validityPeriodInSeconds",
          "type": "uint256"
        }
      ],
      "name": "isTokenExpired",
      "outputs": [
        {
          "internalType": "bool",
          "name": "",
          "type": "bool"
        }
      ],
      "stateMutability": "view",
      "type": "function",
      "constant": true
    },
    {
      "inputs": [
        {
          "internalType": "string",
          "name": "nodeSignature",
          "type": "string"
        }
      ],
      "name": "isValidator",
      "outputs": [
        {
          "internalType": "bool",
          "name": "",
          "type": "bool"
        }
      ],
      "stateMutability": "view",
      "type": "function",
      "constant": true
    }
  ],
  "bytecode": "0x608060405234801561001057600080fd5b506140e5806100206000396000f3fe608060405234801561001057600080fd5b50600436106100f55760003560e01c80639e6eb79511610097578063e5e1eeea11610066578063e5e1eeea146102c7578063ef36d16a146102f7578063f934df9114610327578063f991dde41461035e576100f5565b80639e6eb79514610225578063a4b341cd14610241578063cb2ec2571461025d578063ce5539d214610294576100f5565b806345e6ad71116100d357806345e6ad71146101765780635e86f2b31461019257806384e6b890146101c5578063919bfb70146101f5576100f5565b806324e1e24f146100fa57806325d80f9514610116578063430ae63314610146575b600080fd5b610114600480360381019061010f91906131b8565b610394565b005b610130600480360381019061012b9190613177565b6104f5565b60405161013d91906139bd565b60405180910390f35b610160600480360381019061015b9190613177565b61064f565b60405161016d91906139bd565b60405180910390f35b610190600480360381019061018b91906131b8565b61091d565b005b6101ac60048036038101906101a7919061314e565b610c8e565b6040516101bc9493929190613c1f565b60405180910390f35b6101df60048036038101906101da9190613352565b610d60565b6040516101ec91906139bd565b60405180910390f35b61020f600480360381019061020a91906131b8565b610ec2565b60405161021c91906139bd565b60405180910390f35b61023f600480360381019061023a9190613224565b611001565b005b61025b60048036038101906102569190613125565b611520565b005b61027760048036038101906102729190613125565b6115ed565b60405161028b989796959493929190613b2b565b60405180910390f35b6102ae60048036038101906102a991906131b8565b611aac565b6040516102be9493929190613c1f565b60405180910390f35b6102e160048036038101906102dc9190613177565b611bfa565b6040516102ee91906139d8565b60405180910390f35b610311600480360381019061030c9190613125565b611cb0565b60405161031e91906139d8565b60405180910390f35b610341600480360381019061033c9190613177565b611d50565b604051610355989796959493929190613b2b565b60405180910390f35b61037860048036038101906103739190613177565b61228f565b60405161038b9796959493929190613a70565b60405180910390f35b600082826040516020016103a9929190613919565b6040516020818303038152906040528051906020012090506003600082815260200190815260200160002060020160009054906101000a900460ff16610424576040517f08c379a000000000000000000000000000000000000000000000000000000000815260040161041b90613ccb565b60405180910390fd5b6003600082815260200190815260200160002060020160019054906101000a900460ff1615610488576040517f08c379a000000000000000000000000000000000000000000000000000000000815260040161047f90613d6b565b60405180910390fd5b60016003600083815260200190815260200160002060020160016101000a81548160ff0219169083151502179055507f25b1bdd5e4adffe0572267dad23e6a1af68fbc866a9e62471341243de762e10683836040516104e8929190613af4565b60405180910390a1505050565b6000806001836040516105089190613902565b9081526020016040518091039020805461052190613f57565b80601f016020809104026020016040519081016040528092919081815260200182805461054d90613f57565b801561059a5780601f1061056f5761010080835404028352916020019161059a565b820191906000526020600020905b81548152906001019060200180831161057d57829003601f168201915b505050505090506000816040516105b19190613902565b908152602001604051809103902060030160009054906101000a900460ff1680156106475750826040516020016105e89190613902565b6040516020818303038152906040528051906020012060008260405161060e9190613902565b908152602001604051809103902060040160405160200161062f919061393d565b60405160208183030381529060405280519060200120145b915050919050565b6000806001836040516106629190613902565b9081526020016040518091039020805461067b90613f57565b80601f01602080910402602001604051908101604052809291908181526020018280546106a790613f57565b80156106f45780601f106106c9576101008083540402835291602001916106f4565b820191906000526020600020905b8154815290600101906020018083116106d757829003601f168201915b5050505050905060008160405161070b9190613902565b908152602001604051809103902060030160009054906101000a900460ff1680156107a15750826040516020016107429190613902565b604051602081830303815290604052805190602001206000826040516107689190613902565b9081526020016040518091039020600401604051602001610789919061393d565b60405160208183030381529060405280519060200120145b6107e0576040517f08c379a00000000000000000000000000000000000000000000000000000000081526004016107d790613d4b565b60405180910390fd5b600080826040516107f19190613902565b908152602001604051809103902060010160009054906101000a900460ff1690506001600581111561084c577f4e487b7100000000000000000000000000000000000000000000000000000000600052602160045260246000fd5b816005811115610885577f4e487b7100000000000000000000000000000000000000000000000000000000600052602160045260246000fd5b14806109015750600260058111156108c6577f4e487b7100000000000000000000000000000000000000000000000000000000600052602160045260246000fd5b8160058111156108ff577f4e487b7100000000000000000000000000000000000000000000000000000000600052602160045260246000fd5b145b1561091157600192505050610918565b6000925050505b919050565b600060018360405161092f9190613902565b9081526020016040518091039020805461094890613f57565b80601f016020809104026020016040519081016040528092919081815260200182805461097490613f57565b80156109c15780601f10610996576101008083540402835291602001916109c1565b820191906000526020600020905b8154815290600101906020018083116109a457829003601f168201915b5050505050905060006001836040516109da9190613902565b908152602001604051809103902080546109f390613f57565b80601f0160208091040260200160405190810160405280929190818152602001828054610a1f90613f57565b8015610a6c5780601f10610a4157610100808354040283529160200191610a6c565b820191906000526020600020905b815481529060010190602001808311610a4f57829003601f168201915b5050505050905060008083604051610a849190613902565b908152602001604051809103902060010160009054906101000a900460ff16905060008083604051610ab69190613902565b908152602001604051809103902060010160009054906101000a900460ff1690506000610ae383836124c6565b905060008787604051602001610afa929190613919565b6040516020818303038152906040528051906020012090506003600082815260200190815260200160002060020160009054906101000a900460ff168015610b6357506003600082815260200190815260200160002060020160019054906101000a900460ff16155b15610ba3576040517f08c379a0000000000000000000000000000000000000000000000000000000008152600401610b9a90613cab565b60405180910390fd5b604051806080016040528083815260200142815260200160011515815260200160001515815250600360008381526020019081526020016000206000820151816000019080519060200190610bf9929190612fdb565b506020820151816001015560408201518160020160006101000a81548160ff02191690831515021790555060608201518160020160016101000a81548160ff0219169083151502179055509050507f31f2a9a1648ad524dab76bf973a43a9ef82147d8a007802be67f77b17e16747488888442604051610c7c9493929190613bc5565b60405180910390a15050505050505050565b6003602052806000526040600020600091509050806000018054610cb190613f57565b80601f0160208091040260200160405190810160405280929190818152602001828054610cdd90613f57565b8015610d2a5780601f10610cff57610100808354040283529160200191610d2a565b820191906000526020600020905b815481529060010190602001808311610d0d57829003601f168201915b5050505050908060010154908060020160009054906101000a900460ff16908060020160019054906101000a900460ff16905084565b6000808484604051602001610d76929190613919565b604051602081830303815290604052805190602001209050600060036000838152602001908152602001600020604051806080016040529081600082018054610dbe90613f57565b80601f0160208091040260200160405190810160405280929190818152602001828054610dea90613f57565b8015610e375780601f10610e0c57610100808354040283529160200191610e37565b820191906000526020600020905b815481529060010190602001808311610e1a57829003601f168201915b50505050508152602001600182015481526020016002820160009054906101000a900460ff161515151581526020016002820160019054906101000a900460ff161515151581525050905080604001511580610e94575080606001515b15610ea457600192505050610ebb565b838160200151610eb49190613e48565b4211925050505b9392505050565b6000808383604051602001610ed8929190613919565b604051602081830303815290604052805190602001209050600060036000838152602001908152602001600020604051806080016040529081600082018054610f2090613f57565b80601f0160208091040260200160405190810160405280929190818152602001828054610f4c90613f57565b8015610f995780601f10610f6e57610100808354040283529160200191610f99565b820191906000526020600020905b815481529060010190602001808311610f7c57829003601f168201915b50505050508152602001600182015481526020016002820160009054906101000a900460ff161515151581526020016002820160019054906101000a900460ff161515151581525050905080604001518015610ff757508060600151155b9250505092915050565b60006001826040516110139190613902565b9081526020016040518091039020805461102c90613f57565b90501461106e576040517f08c379a000000000000000000000000000000000000000000000000000000000815260040161106590613c6b565b60405180910390fd5b8660018260405161107f9190613902565b908152602001604051809103902090805190602001906110a0929190612fdb565b5060006110ac86612e96565b905060006110b984612e96565b9050600060058111156110f5577f4e487b7100000000000000000000000000000000000000000000000000000000600052602160045260246000fd5b82600581111561112e577f4e487b7100000000000000000000000000000000000000000000000000000000600052602160045260246000fd5b141561116f576040517f08c379a000000000000000000000000000000000000000000000000000000000815260040161116690613d0b565b60405180910390fd5b600060058111156111a9577f4e487b7100000000000000000000000000000000000000000000000000000000600052602160045260246000fd5b8160058111156111e2577f4e487b7100000000000000000000000000000000000000000000000000000000600052602160045260246000fd5b1415611223576040517f08c379a000000000000000000000000000000000000000000000000000000000815260040161121a90613ceb565b60405180910390fd5b6040518060e0016040528089815260200183600581111561126d577f4e487b7100000000000000000000000000000000000000000000000000000000600052602160045260246000fd5b81526020018781526020016001151581526020018673ffffffffffffffffffffffffffffffffffffffff1681526020018260058111156112d6577f4e487b7100000000000000000000000000000000000000000000000000000000600052602160045260246000fd5b81526020018481525060008a6040516112ef9190613902565b90815260200160405180910390206000820151816000019080519060200190611319929190612fdb565b5060208201518160010160006101000a81548160ff0219169083600581111561136b577f4e487b7100000000000000000000000000000000000000000000000000000000600052602160045260246000fd5b0217905550604082015181600201908051906020019061138c929190612fdb565b5060608201518160030160006101000a81548160ff02191690831515021790555060808201518160030160016101000a81548173ffffffffffffffffffffffffffffffffffffffff021916908373ffffffffffffffffffffffffffffffffffffffff16021790555060a08201518160030160156101000a81548160ff02191690836005811115611445577f4e487b7100000000000000000000000000000000000000000000000000000000600052602160045260246000fd5b021790555060c0820151816004019080519060200190611466929190612fdb565b5090505088600260008773ffffffffffffffffffffffffffffffffffffffff1673ffffffffffffffffffffffffffffffffffffffff16815260200190815260200160002090805190602001906114bd929190612fdb565b50886040516114cc9190613902565b60405180910390207f843c0a15fad6e77d44e651864701404af506907aba531b7777bcd396e45b25c689848989868960405161150d969594939291906139fa565b60405180910390a2505050505050505050565b600073ffffffffffffffffffffffffffffffffffffffff168173ffffffffffffffffffffffffffffffffffffffff161415611590576040517f08c379a000000000000000000000000000000000000000000000000000000000815260040161158790613c8b565b60405180910390fd5b8073ffffffffffffffffffffffffffffffffffffffff163373ffffffffffffffffffffffffffffffffffffffff167f1e88818bc653698bb4bd01c0797cdf0c683be29f1171a3d3c345af8b18d10cfe60405160405180910390a350565b606080600060606000806060600080600260008b73ffffffffffffffffffffffffffffffffffffffff1673ffffffffffffffffffffffffffffffffffffffff168152602001908152602001600020805461164690613f57565b80601f016020809104026020016040519081016040528092919081815260200182805461167290613f57565b80156116bf5780601f10611694576101008083540402835291602001916116bf565b820191906000526020600020905b8154815290600101906020018083116116a257829003601f168201915b50505050509050600081511161170a576040517f08c379a000000000000000000000000000000000000000000000000000000000815260040161170190613d2b565b60405180910390fd5b6000808260405161171b9190613902565b90815260200160405180910390206040518060e001604052908160008201805461174490613f57565b80601f016020809104026020016040519081016040528092919081815260200182805461177090613f57565b80156117bd5780601f10611792576101008083540402835291602001916117bd565b820191906000526020600020905b8154815290600101906020018083116117a057829003601f168201915b505050505081526020016001820160009054906101000a900460ff166005811115611811577f4e487b7100000000000000000000000000000000000000000000000000000000600052602160045260246000fd5b6005811115611849577f4e487b7100000000000000000000000000000000000000000000000000000000600052602160045260246000fd5b815260200160028201805461185d90613f57565b80601f016020809104026020016040519081016040528092919081815260200182805461188990613f57565b80156118d65780601f106118ab576101008083540402835291602001916118d6565b820191906000526020600020905b8154815290600101906020018083116118b957829003601f168201915b505050505081526020016003820160009054906101000a900460ff161515151581526020016003820160019054906101000a900473ffffffffffffffffffffffffffffffffffffffff1673ffffffffffffffffffffffffffffffffffffffff1673ffffffffffffffffffffffffffffffffffffffff1681526020016003820160159054906101000a900460ff16600581111561199b577f4e487b7100000000000000000000000000000000000000000000000000000000600052602160045260246000fd5b60058111156119d3577f4e487b7100000000000000000000000000000000000000000000000000000000600052602160045260246000fd5b81526020016004820180546119e790613f57565b80601f0160208091040260200160405190810160405280929190818152602001828054611a1390613f57565b8015611a605780601f10611a3557610100808354040283529160200191611a60565b820191906000526020600020905b815481529060010190602001808311611a4357829003601f168201915b505050505081525050905081816000015182602001518360400151846060015185608001518660c001518760a00151995099509950995099509950995099505050919395975091939597565b60606000806000808686604051602001611ac7929190613919565b604051602081830303815290604052805190602001209050600060036000838152602001908152602001600020604051806080016040529081600082018054611b0f90613f57565b80601f0160208091040260200160405190810160405280929190818152602001828054611b3b90613f57565b8015611b885780601f10611b5d57610100808354040283529160200191611b88565b820191906000526020600020905b815481529060010190602001808311611b6b57829003601f168201915b50505050508152602001600182015481526020016002820160009054906101000a900460ff161515151581526020016002820160019054906101000a900460ff161515151581525050905080600001518160200151826040015183606001519550955095509550505092959194509250565b6001818051602081018201805184825260208301602085012081835280955050505050506000915090508054611c2f90613f57565b80601f0160208091040260200160405190810160405280929190818152602001828054611c5b90613f57565b8015611ca85780601f10611c7d57610100808354040283529160200191611ca8565b820191906000526020600020905b815481529060010190602001808311611c8b57829003601f168201915b505050505081565b60026020528060005260406000206000915090508054611ccf90613f57565b80601f0160208091040260200160405190810160405280929190818152602001828054611cfb90613f57565b8015611d485780601f10611d1d57610100808354040283529160200191611d48565b820191906000526020600020905b815481529060010190602001808311611d2b57829003601f168201915b505050505081565b60608060006060600080606060008060018a604051611d6f9190613902565b90815260200160405180910390208054611d8890613f57565b80601f0160208091040260200160405190810160405280929190818152602001828054611db490613f57565b8015611e015780601f10611dd657610100808354040283529160200191611e01565b820191906000526020600020905b815481529060010190602001808311611de457829003601f168201915b50505050509050600081604051611e189190613902565b908152602001604051809103902060030160009054906101000a900460ff168015611eae575089604051602001611e4f9190613902565b60405160208183030381529060405280519060200120600082604051611e759190613902565b9081526020016040518091039020600401604051602001611e96919061393d565b60405160208183030381529060405280519060200120145b611eed576040517f08c379a0000000000000000000000000000000000000000000000000000000008152600401611ee490613d8b565b60405180910390fd5b60008082604051611efe9190613902565b90815260200160405180910390206040518060e0016040529081600082018054611f2790613f57565b80601f0160208091040260200160405190810160405280929190818152602001828054611f5390613f57565b8015611fa05780601f10611f7557610100808354040283529160200191611fa0565b820191906000526020600020905b815481529060010190602001808311611f8357829003601f168201915b505050505081526020016001820160009054906101000a900460ff166005811115611ff4577f4e487b7100000000000000000000000000000000000000000000000000000000600052602160045260246000fd5b600581111561202c577f4e487b7100000000000000000000000000000000000000000000000000000000600052602160045260246000fd5b815260200160028201805461204090613f57565b80601f016020809104026020016040519081016040528092919081815260200182805461206c90613f57565b80156120b95780601f1061208e576101008083540402835291602001916120b9565b820191906000526020600020905b81548152906001019060200180831161209c57829003601f168201915b505050505081526020016003820160009054906101000a900460ff161515151581526020016003820160019054906101000a900473ffffffffffffffffffffffffffffffffffffffff1673ffffffffffffffffffffffffffffffffffffffff1673ffffffffffffffffffffffffffffffffffffffff1681526020016003820160159054906101000a900460ff16600581111561217e577f4e487b7100000000000000000000000000000000000000000000000000000000600052602160045260246000fd5b60058111156121b6577f4e487b7100000000000000000000000000000000000000000000000000000000600052602160045260246000fd5b81526020016004820180546121ca90613f57565b80601f01602080910402602001604051908101604052809291908181526020018280546121f690613f57565b80156122435780601f1061221857610100808354040283529160200191612243565b820191906000526020600020905b81548152906001019060200180831161222657829003601f168201915b505050505081525050905081816000015182602001518360400151846060015185608001518660c001518760a00151995099509950995099509950995099505050919395975091939597565b6000818051602081018201805184825260208301602085012081835280955050505050506000915090508060000180546122c890613f57565b80601f01602080910402602001604051908101604052809291908181526020018280546122f490613f57565b80156123415780601f1061231657610100808354040283529160200191612341565b820191906000526020600020905b81548152906001019060200180831161232457829003601f168201915b5050505050908060010160009054906101000a900460ff169080600201805461236990613f57565b80601f016020809104026020016040519081016040528092919081815260200182805461239590613f57565b80156123e25780601f106123b7576101008083540402835291602001916123e2565b820191906000526020600020905b8154815290600101906020018083116123c557829003601f168201915b5050505050908060030160009054906101000a900460ff16908060030160019054906101000a900473ffffffffffffffffffffffffffffffffffffffff16908060030160159054906101000a900460ff169080600401805461244390613f57565b80601f016020809104026020016040519081016040528092919081815260200182805461246f90613f57565b80156124bc5780601f10612491576101008083540402835291602001916124bc565b820191906000526020600020905b81548152906001019060200180831161249f57829003601f168201915b5050505050905087565b606060016005811115612502577f4e487b7100000000000000000000000000000000000000000000000000000000600052602160045260246000fd5b83600581111561253b577f4e487b7100000000000000000000000000000000000000000000000000000000600052602160045260246000fd5b1480156125b857506002600581111561257d577f4e487b7100000000000000000000000000000000000000000000000000000000600052602160045260246000fd5b8260058111156125b6577f4e487b7100000000000000000000000000000000000000000000000000000000600052602160045260246000fd5b145b156125fa576040518060400160405280601581526020017f436c6f75642d3e466f673a524541442c575249544500000000000000000000008152509050612e90565b60016005811115612634577f4e487b7100000000000000000000000000000000000000000000000000000000600052602160045260246000fd5b83600581111561266d577f4e487b7100000000000000000000000000000000000000000000000000000000600052602160045260246000fd5b1480156126ea5750600360058111156126af577f4e487b7100000000000000000000000000000000000000000000000000000000600052602160045260246000fd5b8260058111156126e8577f4e487b7100000000000000000000000000000000000000000000000000000000600052602160045260246000fd5b145b1561272c576040518060400160405280601081526020017f436c6f75642d3e456467653a52454144000000000000000000000000000000008152509050612e90565b60026005811115612766577f4e487b7100000000000000000000000000000000000000000000000000000000600052602160045260246000fd5b83600581111561279f577f4e487b7100000000000000000000000000000000000000000000000000000000600052602160045260246000fd5b14801561281c5750600160058111156127e1577f4e487b7100000000000000000000000000000000000000000000000000000000600052602160045260246000fd5b82600581111561281a577f4e487b7100000000000000000000000000000000000000000000000000000000600052602160045260246000fd5b145b1561285e576040518060400160405280601581526020017f466f672d3e436c6f75643a524541442c575249544500000000000000000000008152509050612e90565b60026005811115612898577f4e487b7100000000000000000000000000000000000000000000000000000000600052602160045260246000fd5b8360058111156128d1577f4e487b7100000000000000000000000000000000000000000000000000000000600052602160045260246000fd5b14801561294e575060036005811115612913577f4e487b7100000000000000000000000000000000000000000000000000000000600052602160045260246000fd5b82600581111561294c577f4e487b7100000000000000000000000000000000000000000000000000000000600052602160045260246000fd5b145b15612990576040518060400160405280600e81526020017f466f672d3e456467653a524541440000000000000000000000000000000000008152509050612e90565b600360058111156129ca577f4e487b7100000000000000000000000000000000000000000000000000000000600052602160045260246000fd5b836005811115612a03577f4e487b7100000000000000000000000000000000000000000000000000000000600052602160045260246000fd5b148015612a80575060016005811115612a45577f4e487b7100000000000000000000000000000000000000000000000000000000600052602160045260246000fd5b826005811115612a7e577f4e487b7100000000000000000000000000000000000000000000000000000000600052602160045260246000fd5b145b15612ac2576040518060400160405280601681526020017f456467652d3e436c6f75643a524541442c5752495445000000000000000000008152509050612e90565b60036005811115612afc577f4e487b7100000000000000000000000000000000000000000000000000000000600052602160045260246000fd5b836005811115612b35577f4e487b7100000000000000000000000000000000000000000000000000000000600052602160045260246000fd5b148015612bb2575060026005811115612b77577f4e487b7100000000000000000000000000000000000000000000000000000000600052602160045260246000fd5b826005811115612bb0577f4e487b7100000000000000000000000000000000000000000000000000000000600052602160045260246000fd5b145b15612bf4576040518060400160405280601481526020017f456467652d3e466f673a524541442c57524954450000000000000000000000008152509050612e90565b60046005811115612c2e577f4e487b7100000000000000000000000000000000000000000000000000000000600052602160045260246000fd5b836005811115612c67577f4e487b7100000000000000000000000000000000000000000000000000000000600052602160045260246000fd5b148015612ce4575060036005811115612ca9577f4e487b7100000000000000000000000000000000000000000000000000000000600052602160045260246000fd5b826005811115612ce2577f4e487b7100000000000000000000000000000000000000000000000000000000600052602160045260246000fd5b145b15612d26576040518060400160405280601781526020017f53656e736f722d3e456467653a524541442c57524954450000000000000000008152509050612e90565b600580811115612d5f577f4e487b7100000000000000000000000000000000000000000000000000000000600052602160045260246000fd5b836005811115612d98577f4e487b7100000000000000000000000000000000000000000000000000000000600052602160045260246000fd5b148015612e15575060026005811115612dda577f4e487b7100000000000000000000000000000000000000000000000000000000600052602160045260246000fd5b826005811115612e13577f4e487b7100000000000000000000000000000000000000000000000000000000600052602160045260246000fd5b145b15612e57576040518060400160405280601881526020017f4163747561746f722d3e466f673a524541442c575249544500000000000000008152509050612e90565b6040518060400160405280600981526020017f4e4f20504f4c494359000000000000000000000000000000000000000000000081525090505b92915050565b60008082604051602001612eaa9190613902565b604051602081830303815290604052805190602001209050604051602001612ed1906139a8565b60405160208183030381529060405280519060200120811415612ef8576001915050612fd6565b604051602001612f0790613993565b60405160208183030381529060405280519060200120811415612f2e576002915050612fd6565b604051602001612f3d90613954565b60405160208183030381529060405280519060200120811415612f64576003915050612fd6565b604051602001612f739061397e565b60405160208183030381529060405280519060200120811415612f9a576004915050612fd6565b604051602001612fa990613969565b60405160208183030381529060405280519060200120811415612fd0576005915050612fd6565b60009150505b919050565b828054612fe790613f57565b90600052602060002090601f0160209004810192826130095760008555613050565b82601f1061302257805160ff1916838001178555613050565b82800160010185558215613050579182015b8281111561304f578251825591602001919060010190613034565b5b50905061305d9190613061565b5090565b5b8082111561307a576000816000905550600101613062565b5090565b600061309161308c84613ddc565b613dab565b9050828152602081018484840111156130a957600080fd5b6130b4848285613f15565b509392505050565b6000813590506130cb8161406a565b92915050565b6000813590506130e081614081565b92915050565b600082601f8301126130f757600080fd5b813561310784826020860161307e565b91505092915050565b60008135905061311f81614098565b92915050565b60006020828403121561313757600080fd5b6000613145848285016130bc565b91505092915050565b60006020828403121561316057600080fd5b600061316e848285016130d1565b91505092915050565b60006020828403121561318957600080fd5b600082013567ffffffffffffffff8111156131a357600080fd5b6131af848285016130e6565b91505092915050565b600080604083850312156131cb57600080fd5b600083013567ffffffffffffffff8111156131e557600080fd5b6131f1858286016130e6565b925050602083013567ffffffffffffffff81111561320e57600080fd5b61321a858286016130e6565b9150509250929050565b600080600080600080600060e0888a03121561323f57600080fd5b600088013567ffffffffffffffff81111561325957600080fd5b6132658a828b016130e6565b975050602088013567ffffffffffffffff81111561328257600080fd5b61328e8a828b016130e6565b965050604088013567ffffffffffffffff8111156132ab57600080fd5b6132b78a828b016130e6565b955050606088013567ffffffffffffffff8111156132d457600080fd5b6132e08a828b016130e6565b94505060806132f18a828b016130bc565b93505060a088013567ffffffffffffffff81111561330e57600080fd5b61331a8a828b016130e6565b92505060c088013567ffffffffffffffff81111561333757600080fd5b6133438a828b016130e6565b91505092959891949750929550565b60008060006060848603121561336757600080fd5b600084013567ffffffffffffffff81111561338157600080fd5b61338d868287016130e6565b935050602084013567ffffffffffffffff8111156133aa57600080fd5b6133b6868287016130e6565b92505060406133c786828701613110565b9150509250925092565b6133da81613e9e565b82525050565b6133e981613eb0565b82525050565b6133f881613f03565b82525050565b600061340982613e21565b6134138185613e2c565b9350613423818560208601613f24565b61342c81614045565b840191505092915050565b600061344282613e21565b61344c8185613e3d565b935061345c818560208601613f24565b80840191505092915050565b6000815461347581613f57565b61347f8186613e3d565b9450600182166000811461349a57600181146134ab576134de565b60ff198316865281860193506134de565b6134b485613e0c565b60005b838110156134d6578154818901526001820191506020810190506134b7565b838801955050505b50505092915050565b60006134f4600483613e3d565b91507f45646765000000000000000000000000000000000000000000000000000000006000830152600482019050919050565b6000613534601883613e2c565b91507f4e6f646520616c726561647920726567697374657265642100000000000000006000830152602082019050919050565b6000613574600883613e3d565b91507f4163747561746f720000000000000000000000000000000000000000000000006000830152600882019050919050565b60006135b4601983613e2c565b91507f496e76616c69642076616c696461746f722061646472657373000000000000006000830152602082019050919050565b60006135f4601f83613e2c565b91507f546f6b656e20616c72656164792069737375656420616e6420616374697665006000830152602082019050919050565b6000613634600683613e3d565b91507f53656e736f7200000000000000000000000000000000000000000000000000006000830152600682019050919050565b6000613674601083613e2c565b91507f546f6b656e206e6f7420697373756564000000000000000000000000000000006000830152602082019050919050565b60006136b4602083613e2c565b91507f496e76616c696420726567697374657265642d6279206e6f64652074797065216000830152602082019050919050565b60006136f4600383613e3d565b91507f466f6700000000000000000000000000000000000000000000000000000000006000830152600382019050919050565b6000613734600583613e3d565b91507f436c6f75640000000000000000000000000000000000000000000000000000006000830152600582019050919050565b6000613774601283613e2c565b91507f496e76616c6964206e6f646520747970652100000000000000000000000000006000830152602082019050919050565b60006137b4601683613e2c565b91507f41646472657373206e6f742072656769737465726564000000000000000000006000830152602082019050919050565b60006137f4602383613e2c565b91507f4e6f6465206e6f7420666f756e64206f7220696e76616c6964207369676e617460008301527f75726500000000000000000000000000000000000000000000000000000000006020830152604082019050919050565b600061385a601583613e2c565b91507f546f6b656e20616c7265616479207265766f6b656400000000000000000000006000830152602082019050919050565b600061389a602f83613e2c565b91507f4e6f206d61746368696e67206e6f64652072656769737465726564207769746860008301527f2074686973207369676e617475726500000000000000000000000000000000006020830152604082019050919050565b6138fc81613ef9565b82525050565b600061390e8284613437565b915081905092915050565b60006139258285613437565b91506139318284613437565b91508190509392505050565b60006139498284613468565b915081905092915050565b600061395f826134e7565b9150819050919050565b600061397482613567565b9150819050919050565b600061398982613627565b9150819050919050565b600061399e826136e7565b9150819050919050565b60006139b382613727565b9150819050919050565b60006020820190506139d260008301846133e0565b92915050565b600060208201905081810360008301526139f281846133fe565b905092915050565b600060c0820190508181036000830152613a1481896133fe565b9050613a2360208301886133ef565b8181036040830152613a3581876133fe565b9050613a4460608301866133d1565b613a5160808301856133ef565b81810360a0830152613a6381846133fe565b9050979650505050505050565b600060e0820190508181036000830152613a8a818a6133fe565b9050613a9960208301896133ef565b8181036040830152613aab81886133fe565b9050613aba60608301876133e0565b613ac760808301866133d1565b613ad460a08301856133ef565b81810360c0830152613ae681846133fe565b905098975050505050505050565b60006040820190508181036000830152613b0e81856133fe565b90508181036020830152613b2281846133fe565b90509392505050565b6000610100820190508181036000830152613b46818b6133fe565b90508181036020830152613b5a818a6133fe565b9050613b6960408301896133ef565b8181036060830152613b7b81886133fe565b9050613b8a60808301876133e0565b613b9760a08301866133d1565b81810360c0830152613ba981856133fe565b9050613bb860e08301846133ef565b9998505050505050505050565b60006080820190508181036000830152613bdf81876133fe565b90508181036020830152613bf381866133fe565b90508181036040830152613c0781856133fe565b9050613c1660608301846138f3565b95945050505050565b60006080820190508181036000830152613c3981876133fe565b9050613c4860208301866138f3565b613c5560408301856133e0565b613c6260608301846133e0565b95945050505050565b60006020820190508181036000830152613c8481613527565b9050919050565b60006020820190508181036000830152613ca4816135a7565b9050919050565b60006020820190508181036000830152613cc4816135e7565b9050919050565b60006020820190508181036000830152613ce481613667565b9050919050565b60006020820190508181036000830152613d04816136a7565b9050919050565b60006020820190508181036000830152613d2481613767565b9050919050565b60006020820190508181036000830152613d44816137a7565b9050919050565b60006020820190508181036000830152613d64816137e7565b9050919050565b60006020820190508181036000830152613d848161384d565b9050919050565b60006020820190508181036000830152613da48161388d565b9050919050565b6000604051905081810181811067ffffffffffffffff82111715613dd257613dd1614016565b5b8060405250919050565b600067ffffffffffffffff821115613df757613df6614016565b5b601f19601f8301169050602081019050919050565b60008190508160005260206000209050919050565b600081519050919050565b600082825260208201905092915050565b600081905092915050565b6000613e5382613ef9565b9150613e5e83613ef9565b9250827fffffffffffffffffffffffffffffffffffffffffffffffffffffffffffffffff03821115613e9357613e92613f89565b5b828201905092915050565b6000613ea982613ed9565b9050919050565b60008115159050919050565b6000819050919050565b6000819050613ed482614056565b919050565b600073ffffffffffffffffffffffffffffffffffffffff82169050919050565b6000819050919050565b6000613f0e82613ec6565b9050919050565b82818337600083830152505050565b60005b83811015613f42578082015181840152602081019050613f27565b83811115613f51576000848401525b50505050565b60006002820490506001821680613f6f57607f821691505b60208210811415613f8357613f82613fe7565b5b50919050565b7f4e487b7100000000000000000000000000000000000000000000000000000000600052601160045260246000fd5b7f4e487b7100000000000000000000000000000000000000000000000000000000600052602160045260246000fd5b7f4e487b7100000000000000000000000000000000000000000000000000000000600052602260045260246000fd5b7f4e487b7100000000000000000000000000000000000000000000000000000000600052604160045260246000fd5b6000601f19601f8301169050919050565b6006811061406757614066613fb8565b5b50565b61407381613e9e565b811461407e57600080fd5b50565b61408a81613ebc565b811461409557600080fd5b50565b6140a181613ef9565b81146140ac57600080fd5b5056fea2646970667358221220809e341e0b1680f8b8709b8d425b4c8998c3678d8d38e6a7b027fa6611e8fadc64736f6c63430008000033",
  "immutableReferences": {},
  "source": "// SPDX-License-Identifier: MIT\npragma solidity ^0.8.0;\n\ncontract NodeRegistry {\n    \n    enum NodeType { Unknown, Cloud, Fog, Edge, Sensor, Actuator } // Define possible node types\n\n    struct IoTNode {\n        string nodeName;\n        NodeType nodeType;\n        string publicKey;\n        bool isRegistered;\n        // string senderCapabilityToken;\n        // string receiverCapabilityToken;\n        address registeredBy;\n        NodeType registeredByNodeType;\n        string nodeSignature; \n    }\n\n    struct CapabilityToken { \n        string policy;\n        uint256 issuedAt;\n        bool isIssued;\n        bool isRevoked; \n    }\n\n    mapping(string => IoTNode) public iotNodes;\n    mapping(string => string) public nodeSignatureToNodeId;\n    mapping(address => string) public addressToNodeId;\n    mapping(bytes32 => CapabilityToken) public capabilityTokens; \n\n    // Event to signal validator proposal for off-chain listeners\n    event ValidatorProposed(address indexed proposedBy, address indexed validator);   \n\n    // Updated event: tokens are now a single string each.\n    event NodeRegistered(\n        string indexed nodeId,\n        string nodeName,\n        NodeType nodeType,\n        string publicKey,\n        // string senderCapabilityToken,\n        // string receiverCapabilityToken,\n        address registeredBy,\n        NodeType registeredByNodeType,\n        string nodeSignature\n    );\n\n    event TokenIssued( \n        string fromNodeSignature,\n        string toNodeSignature,\n        string policy,\n        uint256 issuedAt\n    );\n\n    event TokenChecked( \n        string fromNodeSignature,\n        string toNodeSignature\n    );\n\n    event TokenRevoked( \n        string fromNodeSignature,\n        string toNodeSignature\n    );\n\n    function registerNode(\n        string memory nodeId,\n        string memory nodeName,\n        string memory nodeTypeStr,\n        string memory publicKey,\n        address registeredBy,\n        string memory registeredByNodeTypeStr,\n        string memory nodeSignature \n    ) public {\n        require(bytes(nodeSignatureToNodeId[nodeSignature]).length == 0, \"Node already registered!\");\n        nodeSignatureToNodeId[nodeSignature] = nodeId;\n        NodeType nodeType = getNodeType(nodeTypeStr);\n        NodeType regByNodeType = getNodeType(registeredByNodeTypeStr);\n        require(nodeType != NodeType.Unknown, \"Invalid node type!\");\n        require(regByNodeType != NodeType.Unknown, \"Invalid registered-by node type!\");\n\n        // (string[] memory senderTokens, string[] memory receiverTokens) = generateToken(nodeType, regByNodeType);\n        // string memory senderCapabilityToken = joinStringArray(senderTokens);\n        // string memory receiverCapabilityToken = joinStringArray(receiverTokens);\n\n        iotNodes[nodeId] = IoTNode({\n            nodeName: nodeName,\n            nodeType: nodeType,\n            publicKey: publicKey,\n            isRegistered: true,\n            // senderCapabilityToken: senderCapabilityToken,\n            // receiverCapabilityToken: receiverCapabilityToken,\n            registeredBy: registeredBy,\n            registeredByNodeType: regByNodeType,\n            nodeSignature: nodeSignature\n        });\n\n        addressToNodeId[registeredBy] = nodeId;\n\n        emit NodeRegistered(\n            nodeId,\n            nodeName,\n            nodeType,\n            publicKey,\n            // senderCapabilityToken,\n            // receiverCapabilityToken,\n            registeredBy,\n            regByNodeType,\n            nodeSignature\n        );\n    }\n\n    function isNodeRegistered(string memory nodeSignature) public view returns (bool) {\n        string memory nodeId = nodeSignatureToNodeId[nodeSignature];\n        return (\n            iotNodes[nodeId].isRegistered &&\n            keccak256(abi.encodePacked(iotNodes[nodeId].nodeSignature)) == keccak256(abi.encodePacked(nodeSignature))\n        );\n    }\n\n    function proposeValidator(address validator) public {\n        require(validator != address(0), \"Invalid validator address\");\n        emit ValidatorProposed(msg.sender, validator); \n    }\n\n    function getNodeDetailsBySignature(string memory nodeSignature)\n        public view returns (\n            string memory,\n            string memory,\n            NodeType,\n            string memory,\n            bool,\n            // string memory,\n            // string memory,\n            address,\n            string memory,\n            NodeType\n        )\n    {\n        string memory nodeId = nodeSignatureToNodeId[nodeSignature];\n        require(\n            iotNodes[nodeId].isRegistered &&\n            keccak256(abi.encodePacked(iotNodes[nodeId].nodeSignature)) == keccak256(abi.encodePacked(nodeSignature)),\n            \"No matching node registered with this signature\"\n        );\n\n        IoTNode memory node = iotNodes[nodeId];\n        return (\n            nodeId,\n            node.nodeName,\n            node.nodeType,\n            node.publicKey,\n            node.isRegistered,\n            // node.senderCapabilityToken,\n            // node.receiverCapabilityToken,\n            node.registeredBy,\n            node.nodeSignature,\n            node.registeredByNodeType\n        );\n    }\n\n    function getNodeDetailsByAddress(address nodeAddress)\n        public view returns (\n            string memory,\n            string memory,\n            NodeType,\n            string memory,\n            bool,\n            address,\n            string memory,\n            NodeType\n        )\n    {\n        string memory nodeId = addressToNodeId[nodeAddress];\n        require(bytes(nodeId).length > 0, \"Address not registered\");\n\n        IoTNode memory node = iotNodes[nodeId];\n        return (\n            nodeId,\n            node.nodeName,\n            node.nodeType,\n            node.publicKey,\n            node.isRegistered,\n            node.registeredBy,\n            node.nodeSignature,\n            node.registeredByNodeType\n        );\n    }\n\n    function issueToken(string memory fromNodeSignature, string memory toNodeSignature) public {\n        string memory fromNodeId = nodeSignatureToNodeId[fromNodeSignature];\n        string memory toNodeId = nodeSignatureToNodeId[toNodeSignature];\n\n        // require(iotNodes[fromNodeId].isRegistered, \"Sender not registered\");\n        // require(iotNodes[toNodeId].isRegistered, \"Receiver not registered\");\n\n        NodeType fromType = iotNodes[fromNodeId].nodeType;\n        NodeType toType = iotNodes[toNodeId].nodeType;\n\n        string memory policy = getPolicyString(fromType, toType);\n\n        bytes32 tokenId = keccak256(abi.encodePacked(fromNodeSignature, toNodeSignature));\n\n        // Modify this block to allow reissuing if previously revoked\n        if (capabilityTokens[tokenId].isIssued && !capabilityTokens[tokenId].isRevoked) {\n            revert(\"Token already issued and active\");\n        }\n\n        capabilityTokens[tokenId] = CapabilityToken({\n            policy: policy,\n            issuedAt: block.timestamp,\n            isIssued: true,\n            isRevoked: false \n        });\n\n        emit TokenIssued(fromNodeSignature, toNodeSignature, policy, block.timestamp);\n    }\n\n    function revokeToken(string memory fromNodeSignature, string memory toNodeSignature) public { \n        bytes32 tokenId = keccak256(abi.encodePacked(fromNodeSignature, toNodeSignature));\n        require(capabilityTokens[tokenId].isIssued, \"Token not issued\");\n        require(!capabilityTokens[tokenId].isRevoked, \"Token already revoked\");\n\n        capabilityTokens[tokenId].isRevoked = true;\n        emit TokenRevoked(fromNodeSignature, toNodeSignature);\n    }\n\n    function getToken(string memory fromNodeSignature, string memory toNodeSignature)\n        public view returns (string memory policy, uint256 issuedAt, bool isIssued, bool isRevoked)\n    {\n        bytes32 tokenId = keccak256(abi.encodePacked(fromNodeSignature, toNodeSignature));\n        CapabilityToken memory token = capabilityTokens[tokenId];\n        return (token.policy, token.issuedAt, token.isIssued, token.isRevoked);\n    }\n\n    function checkToken(string memory fromNodeSignature, string memory toNodeSignature) public view returns (bool) {\n        bytes32 tokenId = keccak256(abi.encodePacked(fromNodeSignature, toNodeSignature));\n        CapabilityToken memory token = capabilityTokens[tokenId];\n        return (token.isIssued && !token.isRevoked);\n    }\n\n    function isTokenExpired(string memory fromNodeSignature, string memory toNodeSignature, uint256 validityPeriodInSeconds)\n        public view returns (bool) \n    {\n        bytes32 tokenId = keccak256(abi.encodePacked(fromNodeSignature, toNodeSignature));\n        CapabilityToken memory token = capabilityTokens[tokenId];\n        if (!token.isIssued || token.isRevoked) {\n            return true;\n        }\n        return (block.timestamp > token.issuedAt + validityPeriodInSeconds);\n    }\n\n    \n\n    function getPolicyString(NodeType from, NodeType to) internal pure returns (string memory) { \n        if (from == NodeType.Cloud && to == NodeType.Fog) {\n            return \"Cloud->Fog:READ,WRITE\";\n        } else if (from == NodeType.Cloud && to == NodeType.Edge) {\n            return \"Cloud->Edge:READ\";\n\n        } else if (from == NodeType.Fog && to == NodeType.Cloud) {\n            return \"Fog->Cloud:READ,WRITE\";\n        } else if (from == NodeType.Fog && to == NodeType.Edge) {\n            return \"Fog->Edge:READ\";\n\n        } else if (from == NodeType.Edge && to == NodeType.Cloud) {\n            return \"Edge->Cloud:READ,WRITE\";\n        } else if (from == NodeType.Edge && to == NodeType.Fog) {\n            return \"Edge->Fog:READ,WRITE\";\n\n\n        } else if (from == NodeType.Sensor && to == NodeType.Edge) {\n            return \"Sensor->Edge:READ,WRITE\";\n  \n\n        } else if (from == NodeType.Actuator && to == NodeType.Fog) {\n            return \"Actuator->Fog:READ,WRITE\";\n\n        } else \n        return \"NO POLICY\"; // Default policy\n    }\n\n\n    function getNodeType(string memory nodeTypeStr) internal pure returns (NodeType) {\n        bytes32 nodeTypeHash = keccak256(abi.encodePacked(nodeTypeStr));\n\n        if (nodeTypeHash == keccak256(abi.encodePacked(\"Cloud\"))) return NodeType.Cloud;\n        if (nodeTypeHash == keccak256(abi.encodePacked(\"Fog\"))) return NodeType.Fog;\n        if (nodeTypeHash == keccak256(abi.encodePacked(\"Edge\"))) return NodeType.Edge;\n        if (nodeTypeHash == keccak256(abi.encodePacked(\"Sensor\"))) return NodeType.Sensor;\n        if (nodeTypeHash == keccak256(abi.encodePacked(\"Actuator\"))) return NodeType.Actuator;\n\n        return NodeType.Unknown; // Invalid type\n    }\n\n    // Helper function to join an array of strings with commas.\n    function joinStringArray(string[] memory arr) internal pure returns (string memory) {\n        bytes memory result;\n        for (uint i = 0; i < arr.length; i++) {\n            result = abi.encodePacked(result, arr[i]);\n            if (i < arr.length - 1) {\n                result = abi.encodePacked(result, \",\");\n            }\n        }\n        return string(result);\n    }\n\n    function isValidator(string memory nodeSignature) public view returns (bool) {\n        string memory nodeId = nodeSignatureToNodeId[nodeSignature];\n        require(\n            iotNodes[nodeId].isRegistered &&\n            keccak256(abi.encodePacked(iotNodes[nodeId].nodeSignature)) == keccak256(abi.encodePacked(nodeSignature)),\n            \"Node not found or invalid signature\"\n        );\n\n        NodeType nodeType = iotNodes[nodeId].nodeType;\n\n        if (nodeType == NodeType.Cloud || nodeType == NodeType.Fog) {\n            return true;\n        }\n\n        return false;\n    }\n\n}",
  "sourcePath": "/Users/khannmohsin/VSCode_Projects/MyDisIoT_Project/Node_cloud/smart_contract_deployment/contracts/NodeRegistry.sol",
  "compiler": {
    "name": "solc",
    "version": "0.8.0+commit.c7dfd78e.Emscripten.clang"
  },
  "schemaVersion": "3.4.16",
  "updatedAt": "2025-04-17T14:09:43.174Z",
  "networkType": "ethereum",
  "devdoc": {
    "kind": "dev",
    "methods": {},
    "version": 1
  },
  "userdoc": {
    "kind": "user",
    "methods": {},
    "version": 1
  }
}