{
  "contractName": "NodeRegistry",
  "abi": [
    {
      "anonymous": false,
      "inputs": [
        {
          "indexed": true,
          "internalType": "string",
          "name": "nodeId",
          "type": "string"
        },
        {
          "indexed": false,
          "internalType": "string",
          "name": "nodeName",
          "type": "string"
        },
        {
          "indexed": false,
          "internalType": "enum NodeRegistry.NodeType",
          "name": "nodeType",
          "type": "uint8"
        },
        {
          "indexed": false,
          "internalType": "string",
          "name": "publicKey",
          "type": "string"
        },
        {
          "indexed": false,
          "internalType": "address",
          "name": "registeredBy",
          "type": "address"
        },
        {
          "indexed": false,
          "internalType": "enum NodeRegistry.NodeType",
          "name": "registeredByNodeType",
          "type": "uint8"
        },
        {
          "indexed": false,
          "internalType": "string",
          "name": "nodeSignature",
          "type": "string"
        }
      ],
      "name": "NodeRegistered",
      "type": "event"
    },
    {
      "anonymous": false,
      "inputs": [
        {
          "indexed": false,
          "internalType": "string",
          "name": "fromNodeSignature",
          "type": "string"
        },
        {
          "indexed": false,
          "internalType": "string",
          "name": "toNodeSignature",
          "type": "string"
        }
      ],
      "name": "TokenChecked",
      "type": "event"
    },
    {
      "anonymous": false,
      "inputs": [
        {
          "indexed": false,
          "internalType": "string",
          "name": "fromNodeSignature",
          "type": "string"
        },
        {
          "indexed": false,
          "internalType": "string",
          "name": "toNodeSignature",
          "type": "string"
        },
        {
          "indexed": false,
          "internalType": "string",
          "name": "policy",
          "type": "string"
        },
        {
          "indexed": false,
          "internalType": "uint256",
          "name": "issuedAt",
          "type": "uint256"
        }
      ],
      "name": "TokenIssued",
      "type": "event"
    },
    {
      "anonymous": false,
      "inputs": [
        {
          "indexed": false,
          "internalType": "string",
          "name": "fromNodeSignature",
          "type": "string"
        },
        {
          "indexed": false,
          "internalType": "string",
          "name": "toNodeSignature",
          "type": "string"
        }
      ],
      "name": "TokenRevoked",
      "type": "event"
    },
    {
      "anonymous": false,
      "inputs": [
        {
          "indexed": true,
          "internalType": "address",
          "name": "proposedBy",
          "type": "address"
        },
        {
          "indexed": true,
          "internalType": "address",
          "name": "validator",
          "type": "address"
        }
      ],
      "name": "ValidatorProposed",
      "type": "event"
    },
    {
      "inputs": [
        {
          "internalType": "address",
          "name": "",
          "type": "address"
        }
      ],
      "name": "addressToNodeId",
      "outputs": [
        {
          "internalType": "string",
          "name": "",
          "type": "string"
        }
      ],
      "stateMutability": "view",
      "type": "function",
      "constant": true
    },
    {
      "inputs": [
        {
          "internalType": "bytes32",
          "name": "",
          "type": "bytes32"
        }
      ],
      "name": "capabilityTokens",
      "outputs": [
        {
          "internalType": "string",
          "name": "policy",
          "type": "string"
        },
        {
          "internalType": "uint256",
          "name": "issuedAt",
          "type": "uint256"
        },
        {
          "internalType": "bool",
          "name": "isIssued",
          "type": "bool"
        },
        {
          "internalType": "bool",
          "name": "isRevoked",
          "type": "bool"
        }
      ],
      "stateMutability": "view",
      "type": "function",
      "constant": true
    },
    {
      "inputs": [
        {
          "internalType": "string",
          "name": "",
          "type": "string"
        }
      ],
      "name": "iotNodes",
      "outputs": [
        {
          "internalType": "string",
          "name": "nodeName",
          "type": "string"
        },
        {
          "internalType": "enum NodeRegistry.NodeType",
          "name": "nodeType",
          "type": "uint8"
        },
        {
          "internalType": "string",
          "name": "publicKey",
          "type": "string"
        },
        {
          "internalType": "bool",
          "name": "isRegistered",
          "type": "bool"
        },
        {
          "internalType": "address",
          "name": "registeredBy",
          "type": "address"
        },
        {
          "internalType": "enum NodeRegistry.NodeType",
          "name": "registeredByNodeType",
          "type": "uint8"
        },
        {
          "internalType": "string",
          "name": "nodeSignature",
          "type": "string"
        }
      ],
      "stateMutability": "view",
      "type": "function",
      "constant": true
    },
    {
      "inputs": [
        {
          "internalType": "string",
          "name": "",
          "type": "string"
        }
      ],
      "name": "nodeSignatureToNodeId",
      "outputs": [
        {
          "internalType": "string",
          "name": "",
          "type": "string"
        }
      ],
      "stateMutability": "view",
      "type": "function",
      "constant": true
    },
    {
      "inputs": [
        {
          "internalType": "string",
          "name": "nodeId",
          "type": "string"
        },
        {
          "internalType": "string",
          "name": "nodeName",
          "type": "string"
        },
        {
          "internalType": "string",
          "name": "nodeTypeStr",
          "type": "string"
        },
        {
          "internalType": "string",
          "name": "publicKey",
          "type": "string"
        },
        {
          "internalType": "address",
          "name": "registeredBy",
          "type": "address"
        },
        {
          "internalType": "string",
          "name": "registeredByNodeTypeStr",
          "type": "string"
        },
        {
          "internalType": "string",
          "name": "nodeSignature",
          "type": "string"
        }
      ],
      "name": "registerNode",
      "outputs": [],
      "stateMutability": "nonpayable",
      "type": "function"
    },
    {
      "inputs": [
        {
          "internalType": "string",
          "name": "nodeSignature",
          "type": "string"
        }
      ],
      "name": "isNodeRegistered",
      "outputs": [
        {
          "internalType": "bool",
          "name": "",
          "type": "bool"
        }
      ],
      "stateMutability": "view",
      "type": "function",
      "constant": true
    },
    {
      "inputs": [
        {
          "internalType": "address",
          "name": "validator",
          "type": "address"
        }
      ],
      "name": "proposeValidator",
      "outputs": [],
      "stateMutability": "nonpayable",
      "type": "function"
    },
    {
      "inputs": [
        {
          "internalType": "string",
          "name": "nodeSignature",
          "type": "string"
        }
      ],
      "name": "getNodeDetailsBySignature",
      "outputs": [
        {
          "internalType": "string",
          "name": "",
          "type": "string"
        },
        {
          "internalType": "string",
          "name": "",
          "type": "string"
        },
        {
          "internalType": "enum NodeRegistry.NodeType",
          "name": "",
          "type": "uint8"
        },
        {
          "internalType": "string",
          "name": "",
          "type": "string"
        },
        {
          "internalType": "bool",
          "name": "",
          "type": "bool"
        },
        {
          "internalType": "address",
          "name": "",
          "type": "address"
        },
        {
          "internalType": "string",
          "name": "",
          "type": "string"
        },
        {
          "internalType": "enum NodeRegistry.NodeType",
          "name": "",
          "type": "uint8"
        }
      ],
      "stateMutability": "view",
      "type": "function",
      "constant": true
    },
    {
      "inputs": [
        {
          "internalType": "address",
          "name": "nodeAddress",
          "type": "address"
        }
      ],
      "name": "getNodeDetailsByAddress",
      "outputs": [
        {
          "internalType": "string",
          "name": "",
          "type": "string"
        },
        {
          "internalType": "string",
          "name": "",
          "type": "string"
        },
        {
          "internalType": "enum NodeRegistry.NodeType",
          "name": "",
          "type": "uint8"
        },
        {
          "internalType": "string",
          "name": "",
          "type": "string"
        },
        {
          "internalType": "bool",
          "name": "",
          "type": "bool"
        },
        {
          "internalType": "address",
          "name": "",
          "type": "address"
        },
        {
          "internalType": "string",
          "name": "",
          "type": "string"
        },
        {
          "internalType": "enum NodeRegistry.NodeType",
          "name": "",
          "type": "uint8"
        }
      ],
      "stateMutability": "view",
      "type": "function",
      "constant": true
    },
    {
      "inputs": [
        {
          "internalType": "string",
          "name": "fromNodeSignature",
          "type": "string"
        },
        {
          "internalType": "string",
          "name": "toNodeSignature",
          "type": "string"
        }
      ],
      "name": "issueToken",
      "outputs": [],
      "stateMutability": "nonpayable",
      "type": "function"
    },
    {
      "inputs": [
        {
          "internalType": "string",
          "name": "fromNodeSignature",
          "type": "string"
        },
        {
          "internalType": "string",
          "name": "toNodeSignature",
          "type": "string"
        }
      ],
      "name": "revokeToken",
      "outputs": [],
      "stateMutability": "nonpayable",
      "type": "function"
    },
    {
      "inputs": [
        {
          "internalType": "string",
          "name": "fromNodeSignature",
          "type": "string"
        },
        {
          "internalType": "string",
          "name": "toNodeSignature",
          "type": "string"
        }
      ],
      "name": "getToken",
      "outputs": [
        {
          "internalType": "string",
          "name": "policy",
          "type": "string"
        },
        {
          "internalType": "uint256",
          "name": "issuedAt",
          "type": "uint256"
        },
        {
          "internalType": "bool",
          "name": "isIssued",
          "type": "bool"
        },
        {
          "internalType": "bool",
          "name": "isRevoked",
          "type": "bool"
        }
      ],
      "stateMutability": "view",
      "type": "function",
      "constant": true
    },
    {
      "inputs": [
        {
          "internalType": "string",
          "name": "fromNodeSignature",
          "type": "string"
        },
        {
          "internalType": "string",
          "name": "toNodeSignature",
          "type": "string"
        }
      ],
      "name": "checkToken",
      "outputs": [
        {
          "internalType": "bool",
          "name": "",
          "type": "bool"
        }
      ],
      "stateMutability": "view",
      "type": "function",
      "constant": true
    },
    {
      "inputs": [
        {
          "internalType": "string",
          "name": "fromNodeSignature",
          "type": "string"
        },
        {
          "internalType": "string",
          "name": "toNodeSignature",
          "type": "string"
        },
        {
          "internalType": "uint256",
          "name": "validityPeriodInSeconds",
          "type": "uint256"
        }
      ],
      "name": "isTokenExpired",
      "outputs": [
        {
          "internalType": "bool",
          "name": "",
          "type": "bool"
        }
      ],
      "stateMutability": "view",
      "type": "function",
      "constant": true
    },
    {
      "inputs": [
        {
          "internalType": "string",
          "name": "nodeSignature",
          "type": "string"
        }
      ],
      "name": "isValidator",
      "outputs": [
        {
          "internalType": "bool",
          "name": "",
          "type": "bool"
        }
      ],
      "stateMutability": "view",
      "type": "function",
      "constant": true
    }
  ],
  "bytecode": "0x608060405234801561001057600080fd5b506149b9806100206000396000f3fe608060405234801561001057600080fd5b50600436106100f55760003560e01c80639e6eb79511610097578063e5e1eeea11610066578063e5e1eeea146102c7578063ef36d16a146102f7578063f934df9114610327578063f991dde41461035e576100f5565b80639e6eb79514610225578063a4b341cd14610241578063cb2ec2571461025d578063ce5539d214610294576100f5565b806345e6ad71116100d357806345e6ad71146101765780635e86f2b31461019257806384e6b890146101c5578063919bfb70146101f5576100f5565b806324e1e24f146100fa57806325d80f9514610116578063430ae63314610146575b600080fd5b610114600480360381019061010f9190613974565b610394565b005b610130600480360381019061012b9190613933565b6104f5565b60405161013d91906141f9565b60405180910390f35b610160600480360381019061015b9190613933565b61064f565b60405161016d91906141f9565b60405180910390f35b610190600480360381019061018b9190613974565b61091d565b005b6101ac60048036038101906101a7919061390a565b610d6a565b6040516101bc949392919061445b565b60405180910390f35b6101df60048036038101906101da9190613b0e565b610e3c565b6040516101ec91906141f9565b60405180910390f35b61020f600480360381019061020a9190613974565b610f9e565b60405161021c91906141f9565b60405180910390f35b61023f600480360381019061023a91906139e0565b6110dd565b005b61025b600480360381019061025691906138e1565b6115fc565b005b610277600480360381019061027291906138e1565b6116c9565b60405161028b989796959493929190614367565b60405180910390f35b6102ae60048036038101906102a99190613974565b611b88565b6040516102be949392919061445b565b60405180910390f35b6102e160048036038101906102dc9190613933565b611cd6565b6040516102ee9190614214565b60405180910390f35b610311600480360381019061030c91906138e1565b611d8c565b60405161031e9190614214565b60405180910390f35b610341600480360381019061033c9190613933565b611e2c565b604051610355989796959493929190614367565b60405180910390f35b61037860048036038101906103739190613933565b61236b565b60405161038b97969594939291906142ac565b60405180910390f35b600082826040516020016103a9929190614155565b6040516020818303038152906040528051906020012090506003600082815260200190815260200160002060020160009054906101000a900460ff16610424576040517f08c379a000000000000000000000000000000000000000000000000000000000815260040161041b90614527565b60405180910390fd5b6003600082815260200190815260200160002060020160019054906101000a900460ff1615610488576040517f08c379a000000000000000000000000000000000000000000000000000000000815260040161047f906145e7565b60405180910390fd5b60016003600083815260200190815260200160002060020160016101000a81548160ff0219169083151502179055507f25b1bdd5e4adffe0572267dad23e6a1af68fbc866a9e62471341243de762e10683836040516104e8929190614330565b60405180910390a1505050565b600080600183604051610508919061413e565b90815260200160405180910390208054610521906147d3565b80601f016020809104026020016040519081016040528092919081815260200182805461054d906147d3565b801561059a5780601f1061056f5761010080835404028352916020019161059a565b820191906000526020600020905b81548152906001019060200180831161057d57829003601f168201915b505050505090506000816040516105b1919061413e565b908152602001604051809103902060030160009054906101000a900460ff1680156106475750826040516020016105e8919061413e565b6040516020818303038152906040528051906020012060008260405161060e919061413e565b908152602001604051809103902060040160405160200161062f9190614179565b60405160208183030381529060405280519060200120145b915050919050565b600080600183604051610662919061413e565b9081526020016040518091039020805461067b906147d3565b80601f01602080910402602001604051908101604052809291908181526020018280546106a7906147d3565b80156106f45780601f106106c9576101008083540402835291602001916106f4565b820191906000526020600020905b8154815290600101906020018083116106d757829003601f168201915b5050505050905060008160405161070b919061413e565b908152602001604051809103902060030160009054906101000a900460ff1680156107a1575082604051602001610742919061413e565b60405160208183030381529060405280519060200120600082604051610768919061413e565b90815260200160405180910390206004016040516020016107899190614179565b60405160208183030381529060405280519060200120145b6107e0576040517f08c379a00000000000000000000000000000000000000000000000000000000081526004016107d7906145c7565b60405180910390fd5b600080826040516107f1919061413e565b908152602001604051809103902060010160009054906101000a900460ff1690506001600581111561084c577f4e487b7100000000000000000000000000000000000000000000000000000000600052602160045260246000fd5b816005811115610885577f4e487b7100000000000000000000000000000000000000000000000000000000600052602160045260246000fd5b14806109015750600260058111156108c6577f4e487b7100000000000000000000000000000000000000000000000000000000600052602160045260246000fd5b8160058111156108ff577f4e487b7100000000000000000000000000000000000000000000000000000000600052602160045260246000fd5b145b1561091157600192505050610918565b6000925050505b919050565b600060018360405161092f919061413e565b90815260200160405180910390208054610948906147d3565b80601f0160208091040260200160405190810160405280929190818152602001828054610974906147d3565b80156109c15780601f10610996576101008083540402835291602001916109c1565b820191906000526020600020905b8154815290600101906020018083116109a457829003601f168201915b5050505050905060006001836040516109da919061413e565b908152602001604051809103902080546109f3906147d3565b80601f0160208091040260200160405190810160405280929190818152602001828054610a1f906147d3565b8015610a6c5780601f10610a4157610100808354040283529160200191610a6c565b820191906000526020600020905b815481529060010190602001808311610a4f57829003601f168201915b50505050509050600082604051610a83919061413e565b908152602001604051809103902060030160009054906101000a900460ff16610ae1576040517f08c379a0000000000000000000000000000000000000000000000000000000008152600401610ad890614547565b60405180910390fd5b600081604051610af1919061413e565b908152602001604051809103902060030160009054906101000a900460ff16610b4f576040517f08c379a0000000000000000000000000000000000000000000000000000000008152600401610b46906144c7565b60405180910390fd5b60008083604051610b60919061413e565b908152602001604051809103902060010160009054906101000a900460ff16905060008083604051610b92919061413e565b908152602001604051809103902060010160009054906101000a900460ff1690506000610bbf83836125a2565b905060008787604051602001610bd6929190614155565b6040516020818303038152906040528051906020012090506003600082815260200190815260200160002060020160009054906101000a900460ff168015610c3f57506003600082815260200190815260200160002060020160019054906101000a900460ff16155b15610c7f576040517f08c379a0000000000000000000000000000000000000000000000000000000008152600401610c7690614507565b60405180910390fd5b604051806080016040528083815260200142815260200160011515815260200160001515815250600360008381526020019081526020016000206000820151816000019080519060200190610cd5929190613797565b506020820151816001015560408201518160020160006101000a81548160ff02191690831515021790555060608201518160020160016101000a81548160ff0219169083151502179055509050507f31f2a9a1648ad524dab76bf973a43a9ef82147d8a007802be67f77b17e16747488888442604051610d589493929190614401565b60405180910390a15050505050505050565b6003602052806000526040600020600091509050806000018054610d8d906147d3565b80601f0160208091040260200160405190810160405280929190818152602001828054610db9906147d3565b8015610e065780601f10610ddb57610100808354040283529160200191610e06565b820191906000526020600020905b815481529060010190602001808311610de957829003601f168201915b5050505050908060010154908060020160009054906101000a900460ff16908060020160019054906101000a900460ff16905084565b6000808484604051602001610e52929190614155565b604051602081830303815290604052805190602001209050600060036000838152602001908152602001600020604051806080016040529081600082018054610e9a906147d3565b80601f0160208091040260200160405190810160405280929190818152602001828054610ec6906147d3565b8015610f135780601f10610ee857610100808354040283529160200191610f13565b820191906000526020600020905b815481529060010190602001808311610ef657829003601f168201915b50505050508152602001600182015481526020016002820160009054906101000a900460ff161515151581526020016002820160019054906101000a900460ff161515151581525050905080604001511580610f70575080606001515b15610f8057600192505050610f97565b838160200151610f9091906146c4565b4211925050505b9392505050565b6000808383604051602001610fb4929190614155565b604051602081830303815290604052805190602001209050600060036000838152602001908152602001600020604051806080016040529081600082018054610ffc906147d3565b80601f0160208091040260200160405190810160405280929190818152602001828054611028906147d3565b80156110755780601f1061104a57610100808354040283529160200191611075565b820191906000526020600020905b81548152906001019060200180831161105857829003601f168201915b50505050508152602001600182015481526020016002820160009054906101000a900460ff161515151581526020016002820160019054906101000a900460ff1615151515815250509050806040015180156110d357508060600151155b9250505092915050565b60006001826040516110ef919061413e565b90815260200160405180910390208054611108906147d3565b90501461114a576040517f08c379a0000000000000000000000000000000000000000000000000000000008152600401611141906144a7565b60405180910390fd5b8660018260405161115b919061413e565b9081526020016040518091039020908051906020019061117c929190613797565b50600061118886613652565b9050600061119584613652565b9050600060058111156111d1577f4e487b7100000000000000000000000000000000000000000000000000000000600052602160045260246000fd5b82600581111561120a577f4e487b7100000000000000000000000000000000000000000000000000000000600052602160045260246000fd5b141561124b576040517f08c379a000000000000000000000000000000000000000000000000000000000815260040161124290614587565b60405180910390fd5b60006005811115611285577f4e487b7100000000000000000000000000000000000000000000000000000000600052602160045260246000fd5b8160058111156112be577f4e487b7100000000000000000000000000000000000000000000000000000000600052602160045260246000fd5b14156112ff576040517f08c379a00000000000000000000000000000000000000000000000000000000081526004016112f690614567565b60405180910390fd5b6040518060e00160405280898152602001836005811115611349577f4e487b7100000000000000000000000000000000000000000000000000000000600052602160045260246000fd5b81526020018781526020016001151581526020018673ffffffffffffffffffffffffffffffffffffffff1681526020018260058111156113b2577f4e487b7100000000000000000000000000000000000000000000000000000000600052602160045260246000fd5b81526020018481525060008a6040516113cb919061413e565b908152602001604051809103902060008201518160000190805190602001906113f5929190613797565b5060208201518160010160006101000a81548160ff02191690836005811115611447577f4e487b7100000000000000000000000000000000000000000000000000000000600052602160045260246000fd5b02179055506040820151816002019080519060200190611468929190613797565b5060608201518160030160006101000a81548160ff02191690831515021790555060808201518160030160016101000a81548173ffffffffffffffffffffffffffffffffffffffff021916908373ffffffffffffffffffffffffffffffffffffffff16021790555060a08201518160030160156101000a81548160ff02191690836005811115611521577f4e487b7100000000000000000000000000000000000000000000000000000000600052602160045260246000fd5b021790555060c0820151816004019080519060200190611542929190613797565b5090505088600260008773ffffffffffffffffffffffffffffffffffffffff1673ffffffffffffffffffffffffffffffffffffffff1681526020019081526020016000209080519060200190611599929190613797565b50886040516115a8919061413e565b60405180910390207f843c0a15fad6e77d44e651864701404af506907aba531b7777bcd396e45b25c68984898986896040516115e996959493929190614236565b60405180910390a2505050505050505050565b600073ffffffffffffffffffffffffffffffffffffffff168173ffffffffffffffffffffffffffffffffffffffff16141561166c576040517f08c379a0000000000000000000000000000000000000000000000000000000008152600401611663906144e7565b60405180910390fd5b8073ffffffffffffffffffffffffffffffffffffffff163373ffffffffffffffffffffffffffffffffffffffff167f1e88818bc653698bb4bd01c0797cdf0c683be29f1171a3d3c345af8b18d10cfe60405160405180910390a350565b606080600060606000806060600080600260008b73ffffffffffffffffffffffffffffffffffffffff1673ffffffffffffffffffffffffffffffffffffffff1681526020019081526020016000208054611722906147d3565b80601f016020809104026020016040519081016040528092919081815260200182805461174e906147d3565b801561179b5780601f106117705761010080835404028352916020019161179b565b820191906000526020600020905b81548152906001019060200180831161177e57829003601f168201915b5050505050905060008151116117e6576040517f08c379a00000000000000000000000000000000000000000000000000000000081526004016117dd906145a7565b60405180910390fd5b600080826040516117f7919061413e565b90815260200160405180910390206040518060e0016040529081600082018054611820906147d3565b80601f016020809104026020016040519081016040528092919081815260200182805461184c906147d3565b80156118995780601f1061186e57610100808354040283529160200191611899565b820191906000526020600020905b81548152906001019060200180831161187c57829003601f168201915b505050505081526020016001820160009054906101000a900460ff1660058111156118ed577f4e487b7100000000000000000000000000000000000000000000000000000000600052602160045260246000fd5b6005811115611925577f4e487b7100000000000000000000000000000000000000000000000000000000600052602160045260246000fd5b8152602001600282018054611939906147d3565b80601f0160208091040260200160405190810160405280929190818152602001828054611965906147d3565b80156119b25780601f10611987576101008083540402835291602001916119b2565b820191906000526020600020905b81548152906001019060200180831161199557829003601f168201915b505050505081526020016003820160009054906101000a900460ff161515151581526020016003820160019054906101000a900473ffffffffffffffffffffffffffffffffffffffff1673ffffffffffffffffffffffffffffffffffffffff1673ffffffffffffffffffffffffffffffffffffffff1681526020016003820160159054906101000a900460ff166005811115611a77577f4e487b7100000000000000000000000000000000000000000000000000000000600052602160045260246000fd5b6005811115611aaf577f4e487b7100000000000000000000000000000000000000000000000000000000600052602160045260246000fd5b8152602001600482018054611ac3906147d3565b80601f0160208091040260200160405190810160405280929190818152602001828054611aef906147d3565b8015611b3c5780601f10611b1157610100808354040283529160200191611b3c565b820191906000526020600020905b815481529060010190602001808311611b1f57829003601f168201915b505050505081525050905081816000015182602001518360400151846060015185608001518660c001518760a00151995099509950995099509950995099505050919395975091939597565b60606000806000808686604051602001611ba3929190614155565b604051602081830303815290604052805190602001209050600060036000838152602001908152602001600020604051806080016040529081600082018054611beb906147d3565b80601f0160208091040260200160405190810160405280929190818152602001828054611c17906147d3565b8015611c645780601f10611c3957610100808354040283529160200191611c64565b820191906000526020600020905b815481529060010190602001808311611c4757829003601f168201915b50505050508152602001600182015481526020016002820160009054906101000a900460ff161515151581526020016002820160019054906101000a900460ff161515151581525050905080600001518160200151826040015183606001519550955095509550505092959194509250565b6001818051602081018201805184825260208301602085012081835280955050505050506000915090508054611d0b906147d3565b80601f0160208091040260200160405190810160405280929190818152602001828054611d37906147d3565b8015611d845780601f10611d5957610100808354040283529160200191611d84565b820191906000526020600020905b815481529060010190602001808311611d6757829003601f168201915b505050505081565b60026020528060005260406000206000915090508054611dab906147d3565b80601f0160208091040260200160405190810160405280929190818152602001828054611dd7906147d3565b8015611e245780601f10611df957610100808354040283529160200191611e24565b820191906000526020600020905b815481529060010190602001808311611e0757829003601f168201915b505050505081565b60608060006060600080606060008060018a604051611e4b919061413e565b90815260200160405180910390208054611e64906147d3565b80601f0160208091040260200160405190810160405280929190818152602001828054611e90906147d3565b8015611edd5780601f10611eb257610100808354040283529160200191611edd565b820191906000526020600020905b815481529060010190602001808311611ec057829003601f168201915b50505050509050600081604051611ef4919061413e565b908152602001604051809103902060030160009054906101000a900460ff168015611f8a575089604051602001611f2b919061413e565b60405160208183030381529060405280519060200120600082604051611f51919061413e565b9081526020016040518091039020600401604051602001611f729190614179565b60405160208183030381529060405280519060200120145b611fc9576040517f08c379a0000000000000000000000000000000000000000000000000000000008152600401611fc090614607565b60405180910390fd5b60008082604051611fda919061413e565b90815260200160405180910390206040518060e0016040529081600082018054612003906147d3565b80601f016020809104026020016040519081016040528092919081815260200182805461202f906147d3565b801561207c5780601f106120515761010080835404028352916020019161207c565b820191906000526020600020905b81548152906001019060200180831161205f57829003601f168201915b505050505081526020016001820160009054906101000a900460ff1660058111156120d0577f4e487b7100000000000000000000000000000000000000000000000000000000600052602160045260246000fd5b6005811115612108577f4e487b7100000000000000000000000000000000000000000000000000000000600052602160045260246000fd5b815260200160028201805461211c906147d3565b80601f0160208091040260200160405190810160405280929190818152602001828054612148906147d3565b80156121955780601f1061216a57610100808354040283529160200191612195565b820191906000526020600020905b81548152906001019060200180831161217857829003601f168201915b505050505081526020016003820160009054906101000a900460ff161515151581526020016003820160019054906101000a900473ffffffffffffffffffffffffffffffffffffffff1673ffffffffffffffffffffffffffffffffffffffff1673ffffffffffffffffffffffffffffffffffffffff1681526020016003820160159054906101000a900460ff16600581111561225a577f4e487b7100000000000000000000000000000000000000000000000000000000600052602160045260246000fd5b6005811115612292577f4e487b7100000000000000000000000000000000000000000000000000000000600052602160045260246000fd5b81526020016004820180546122a6906147d3565b80601f01602080910402602001604051908101604052809291908181526020018280546122d2906147d3565b801561231f5780601f106122f45761010080835404028352916020019161231f565b820191906000526020600020905b81548152906001019060200180831161230257829003601f168201915b505050505081525050905081816000015182602001518360400151846060015185608001518660c001518760a00151995099509950995099509950995099505050919395975091939597565b6000818051602081018201805184825260208301602085012081835280955050505050506000915090508060000180546123a4906147d3565b80601f01602080910402602001604051908101604052809291908181526020018280546123d0906147d3565b801561241d5780601f106123f25761010080835404028352916020019161241d565b820191906000526020600020905b81548152906001019060200180831161240057829003601f168201915b5050505050908060010160009054906101000a900460ff1690806002018054612445906147d3565b80601f0160208091040260200160405190810160405280929190818152602001828054612471906147d3565b80156124be5780601f10612493576101008083540402835291602001916124be565b820191906000526020600020905b8154815290600101906020018083116124a157829003601f168201915b5050505050908060030160009054906101000a900460ff16908060030160019054906101000a900473ffffffffffffffffffffffffffffffffffffffff16908060030160159054906101000a900460ff169080600401805461251f906147d3565b80601f016020809104026020016040519081016040528092919081815260200182805461254b906147d3565b80156125985780601f1061256d57610100808354040283529160200191612598565b820191906000526020600020905b81548152906001019060200180831161257b57829003601f168201915b5050505050905087565b6060600160058111156125de577f4e487b7100000000000000000000000000000000000000000000000000000000600052602160045260246000fd5b836005811115612617577f4e487b7100000000000000000000000000000000000000000000000000000000600052602160045260246000fd5b14156128f95760026005811115612657577f4e487b7100000000000000000000000000000000000000000000000000000000600052602160045260246000fd5b826005811115612690577f4e487b7100000000000000000000000000000000000000000000000000000000600052602160045260246000fd5b14156126d3576040518060400160405280601581526020017f436c6f75642d3e466f673a524541442c57524954450000000000000000000000815250905061364c565b6003600581111561270d577f4e487b7100000000000000000000000000000000000000000000000000000000600052602160045260246000fd5b826005811115612746577f4e487b7100000000000000000000000000000000000000000000000000000000600052602160045260246000fd5b1415612789576040518060400160405280601181526020017f4e4f20504f4c49435920444546494e4544000000000000000000000000000000815250905061364c565b600460058111156127c3577f4e487b7100000000000000000000000000000000000000000000000000000000600052602160045260246000fd5b8260058111156127fc577f4e487b7100000000000000000000000000000000000000000000000000000000600052602160045260246000fd5b141561283f576040518060400160405280601181526020017f4e4f20504f4c49435920444546494e4544000000000000000000000000000000815250905061364c565b600580811115612878577f4e487b7100000000000000000000000000000000000000000000000000000000600052602160045260246000fd5b8260058111156128b1577f4e487b7100000000000000000000000000000000000000000000000000000000600052602160045260246000fd5b14156128f4576040518060400160405280601181526020017f4e4f20504f4c49435920444546494e4544000000000000000000000000000000815250905061364c565b613630565b60026005811115612933577f4e487b7100000000000000000000000000000000000000000000000000000000600052602160045260246000fd5b83600581111561296c577f4e487b7100000000000000000000000000000000000000000000000000000000600052602160045260246000fd5b1415612c4e57600160058111156129ac577f4e487b7100000000000000000000000000000000000000000000000000000000600052602160045260246000fd5b8260058111156129e5577f4e487b7100000000000000000000000000000000000000000000000000000000600052602160045260246000fd5b1415612a28576040518060400160405280601581526020017f466f672d3e436c6f75643a524541442c57524954450000000000000000000000815250905061364c565b60036005811115612a62577f4e487b7100000000000000000000000000000000000000000000000000000000600052602160045260246000fd5b826005811115612a9b577f4e487b7100000000000000000000000000000000000000000000000000000000600052602160045260246000fd5b1415612ade576040518060400160405280601481526020017f466f672d3e456467653a524541442c5752495445000000000000000000000000815250905061364c565b60046005811115612b18577f4e487b7100000000000000000000000000000000000000000000000000000000600052602160045260246000fd5b826005811115612b51577f4e487b7100000000000000000000000000000000000000000000000000000000600052602160045260246000fd5b1415612b94576040518060400160405280601181526020017f4e4f20504f4c49435920444546494e4544000000000000000000000000000000815250905061364c565b600580811115612bcd577f4e487b7100000000000000000000000000000000000000000000000000000000600052602160045260246000fd5b826005811115612c06577f4e487b7100000000000000000000000000000000000000000000000000000000600052602160045260246000fd5b1415612c49576040518060400160405280601181526020017f4e4f20504f4c49435920444546494e4544000000000000000000000000000000815250905061364c565b61362f565b60036005811115612c88577f4e487b7100000000000000000000000000000000000000000000000000000000600052602160045260246000fd5b836005811115612cc1577f4e487b7100000000000000000000000000000000000000000000000000000000600052602160045260246000fd5b1415612fa35760016005811115612d01577f4e487b7100000000000000000000000000000000000000000000000000000000600052602160045260246000fd5b826005811115612d3a577f4e487b7100000000000000000000000000000000000000000000000000000000600052602160045260246000fd5b1415612d7d576040518060400160405280601181526020017f4e4f20504f4c49435920444546494e4544000000000000000000000000000000815250905061364c565b60026005811115612db7577f4e487b7100000000000000000000000000000000000000000000000000000000600052602160045260246000fd5b826005811115612df0577f4e487b7100000000000000000000000000000000000000000000000000000000600052602160045260246000fd5b1415612e33576040518060400160405280601481526020017f456467652d3e466f673a524541442c5752495445000000000000000000000000815250905061364c565b60046005811115612e6d577f4e487b7100000000000000000000000000000000000000000000000000000000600052602160045260246000fd5b826005811115612ea6577f4e487b7100000000000000000000000000000000000000000000000000000000600052602160045260246000fd5b1415612ee9576040518060400160405280601481526020017f456467652d3e53656e736f723a45584543555445000000000000000000000000815250905061364c565b600580811115612f22577f4e487b7100000000000000000000000000000000000000000000000000000000600052602160045260246000fd5b826005811115612f5b577f4e487b7100000000000000000000000000000000000000000000000000000000600052602160045260246000fd5b1415612f9e576040518060400160405280601681526020017f456467652d3e4163747561746f723a4558454355544500000000000000000000815250905061364c565b61362e565b60046005811115612fdd577f4e487b7100000000000000000000000000000000000000000000000000000000600052602160045260246000fd5b836005811115613016577f4e487b7100000000000000000000000000000000000000000000000000000000600052602160045260246000fd5b14156132f85760016005811115613056577f4e487b7100000000000000000000000000000000000000000000000000000000600052602160045260246000fd5b82600581111561308f577f4e487b7100000000000000000000000000000000000000000000000000000000600052602160045260246000fd5b14156130d2576040518060400160405280601181526020017f4e4f20504f4c49435920444546494e4544000000000000000000000000000000815250905061364c565b6002600581111561310c577f4e487b7100000000000000000000000000000000000000000000000000000000600052602160045260246000fd5b826005811115613145577f4e487b7100000000000000000000000000000000000000000000000000000000600052602160045260246000fd5b1415613188576040518060400160405280601181526020017f4e4f20504f4c49435920444546494e4544000000000000000000000000000000815250905061364c565b600360058111156131c2577f4e487b7100000000000000000000000000000000000000000000000000000000600052602160045260246000fd5b8260058111156131fb577f4e487b7100000000000000000000000000000000000000000000000000000000600052602160045260246000fd5b141561323e576040518060400160405280601181526020017f53656e736f722d3e456467653a52454144000000000000000000000000000000815250905061364c565b600580811115613277577f4e487b7100000000000000000000000000000000000000000000000000000000600052602160045260246000fd5b8260058111156132b0577f4e487b7100000000000000000000000000000000000000000000000000000000600052602160045260246000fd5b14156132f3576040518060400160405280601181526020017f4e4f20504f4c49435920444546494e4544000000000000000000000000000000815250905061364c565b61362d565b600580811115613331577f4e487b7100000000000000000000000000000000000000000000000000000000600052602160045260246000fd5b83600581111561336a577f4e487b7100000000000000000000000000000000000000000000000000000000600052602160045260246000fd5b141561362c57600160058111156133aa577f4e487b7100000000000000000000000000000000000000000000000000000000600052602160045260246000fd5b8260058111156133e3577f4e487b7100000000000000000000000000000000000000000000000000000000600052602160045260246000fd5b1415613426576040518060400160405280601181526020017f4e4f20504f4c49435920444546494e4544000000000000000000000000000000815250905061364c565b60026005811115613460577f4e487b7100000000000000000000000000000000000000000000000000000000600052602160045260246000fd5b826005811115613499577f4e487b7100000000000000000000000000000000000000000000000000000000600052602160045260246000fd5b14156134dc576040518060400160405280601181526020017f4e4f20504f4c49435920444546494e4544000000000000000000000000000000815250905061364c565b60036005811115613516577f4e487b7100000000000000000000000000000000000000000000000000000000600052602160045260246000fd5b82600581111561354f577f4e487b7100000000000000000000000000000000000000000000000000000000600052602160045260246000fd5b14156135755760405180606001604052806021815260200161492c60219139905061364c565b600460058111156135af577f4e487b7100000000000000000000000000000000000000000000000000000000600052602160045260246000fd5b8260058111156135e8577f4e487b7100000000000000000000000000000000000000000000000000000000600052602160045260246000fd5b141561362b576040518060400160405280601181526020017f4e4f20504f4c49435920444546494e4544000000000000000000000000000000815250905061364c565b5b5b5b5b5b60405180606001604052806037815260200161494d6037913990505b92915050565b60008082604051602001613666919061413e565b60405160208183030381529060405280519060200120905060405160200161368d906141e4565b604051602081830303815290604052805190602001208114156136b4576001915050613792565b6040516020016136c3906141cf565b604051602081830303815290604052805190602001208114156136ea576002915050613792565b6040516020016136f990614190565b60405160208183030381529060405280519060200120811415613720576003915050613792565b60405160200161372f906141ba565b60405160208183030381529060405280519060200120811415613756576004915050613792565b604051602001613765906141a5565b6040516020818303038152906040528051906020012081141561378c576005915050613792565b60009150505b919050565b8280546137a3906147d3565b90600052602060002090601f0160209004810192826137c5576000855561380c565b82601f106137de57805160ff191683800117855561380c565b8280016001018555821561380c579182015b8281111561380b5782518255916020019190600101906137f0565b5b509050613819919061381d565b5090565b5b8082111561383657600081600090555060010161381e565b5090565b600061384d61384884614658565b614627565b90508281526020810184848401111561386557600080fd5b613870848285614791565b509392505050565b600081359050613887816148e6565b92915050565b60008135905061389c816148fd565b92915050565b600082601f8301126138b357600080fd5b81356138c384826020860161383a565b91505092915050565b6000813590506138db81614914565b92915050565b6000602082840312156138f357600080fd5b600061390184828501613878565b91505092915050565b60006020828403121561391c57600080fd5b600061392a8482850161388d565b91505092915050565b60006020828403121561394557600080fd5b600082013567ffffffffffffffff81111561395f57600080fd5b61396b848285016138a2565b91505092915050565b6000806040838503121561398757600080fd5b600083013567ffffffffffffffff8111156139a157600080fd5b6139ad858286016138a2565b925050602083013567ffffffffffffffff8111156139ca57600080fd5b6139d6858286016138a2565b9150509250929050565b600080600080600080600060e0888a0312156139fb57600080fd5b600088013567ffffffffffffffff811115613a1557600080fd5b613a218a828b016138a2565b975050602088013567ffffffffffffffff811115613a3e57600080fd5b613a4a8a828b016138a2565b965050604088013567ffffffffffffffff811115613a6757600080fd5b613a738a828b016138a2565b955050606088013567ffffffffffffffff811115613a9057600080fd5b613a9c8a828b016138a2565b9450506080613aad8a828b01613878565b93505060a088013567ffffffffffffffff811115613aca57600080fd5b613ad68a828b016138a2565b92505060c088013567ffffffffffffffff811115613af357600080fd5b613aff8a828b016138a2565b91505092959891949750929550565b600080600060608486031215613b2357600080fd5b600084013567ffffffffffffffff811115613b3d57600080fd5b613b49868287016138a2565b935050602084013567ffffffffffffffff811115613b6657600080fd5b613b72868287016138a2565b9250506040613b83868287016138cc565b9150509250925092565b613b968161471a565b82525050565b613ba58161472c565b82525050565b613bb48161477f565b82525050565b6000613bc58261469d565b613bcf81856146a8565b9350613bdf8185602086016147a0565b613be8816148c1565b840191505092915050565b6000613bfe8261469d565b613c0881856146b9565b9350613c188185602086016147a0565b80840191505092915050565b60008154613c31816147d3565b613c3b81866146b9565b94506001821660008114613c565760018114613c6757613c9a565b60ff19831686528186019350613c9a565b613c7085614688565b60005b83811015613c9257815481890152600182019150602081019050613c73565b838801955050505b50505092915050565b6000613cb06004836146b9565b91507f45646765000000000000000000000000000000000000000000000000000000006000830152600482019050919050565b6000613cf06018836146a8565b91507f4e6f646520616c726561647920726567697374657265642100000000000000006000830152602082019050919050565b6000613d306008836146b9565b91507f4163747561746f720000000000000000000000000000000000000000000000006000830152600882019050919050565b6000613d706017836146a8565b91507f5265636569766572206e6f7420726567697374657265640000000000000000006000830152602082019050919050565b6000613db06019836146a8565b91507f496e76616c69642076616c696461746f722061646472657373000000000000006000830152602082019050919050565b6000613df0601f836146a8565b91507f546f6b656e20616c72656164792069737375656420616e6420616374697665006000830152602082019050919050565b6000613e306006836146b9565b91507f53656e736f7200000000000000000000000000000000000000000000000000006000830152600682019050919050565b6000613e706010836146a8565b91507f546f6b656e206e6f7420697373756564000000000000000000000000000000006000830152602082019050919050565b6000613eb06015836146a8565b91507f53656e646572206e6f74207265676973746572656400000000000000000000006000830152602082019050919050565b6000613ef06020836146a8565b91507f496e76616c696420726567697374657265642d6279206e6f64652074797065216000830152602082019050919050565b6000613f306003836146b9565b91507f466f6700000000000000000000000000000000000000000000000000000000006000830152600382019050919050565b6000613f706005836146b9565b91507f436c6f75640000000000000000000000000000000000000000000000000000006000830152600582019050919050565b6000613fb06012836146a8565b91507f496e76616c6964206e6f646520747970652100000000000000000000000000006000830152602082019050919050565b6000613ff06016836146a8565b91507f41646472657373206e6f742072656769737465726564000000000000000000006000830152602082019050919050565b60006140306023836146a8565b91507f4e6f6465206e6f7420666f756e64206f7220696e76616c6964207369676e617460008301527f75726500000000000000000000000000000000000000000000000000000000006020830152604082019050919050565b60006140966015836146a8565b91507f546f6b656e20616c7265616479207265766f6b656400000000000000000000006000830152602082019050919050565b60006140d6602f836146a8565b91507f4e6f206d61746368696e67206e6f64652072656769737465726564207769746860008301527f2074686973207369676e617475726500000000000000000000000000000000006020830152604082019050919050565b61413881614775565b82525050565b600061414a8284613bf3565b915081905092915050565b60006141618285613bf3565b915061416d8284613bf3565b91508190509392505050565b60006141858284613c24565b915081905092915050565b600061419b82613ca3565b9150819050919050565b60006141b082613d23565b9150819050919050565b60006141c582613e23565b9150819050919050565b60006141da82613f23565b9150819050919050565b60006141ef82613f63565b9150819050919050565b600060208201905061420e6000830184613b9c565b92915050565b6000602082019050818103600083015261422e8184613bba565b905092915050565b600060c08201905081810360008301526142508189613bba565b905061425f6020830188613bab565b81810360408301526142718187613bba565b90506142806060830186613b8d565b61428d6080830185613bab565b81810360a083015261429f8184613bba565b9050979650505050505050565b600060e08201905081810360008301526142c6818a613bba565b90506142d56020830189613bab565b81810360408301526142e78188613bba565b90506142f66060830187613b9c565b6143036080830186613b8d565b61431060a0830185613bab565b81810360c08301526143228184613bba565b905098975050505050505050565b6000604082019050818103600083015261434a8185613bba565b9050818103602083015261435e8184613bba565b90509392505050565b6000610100820190508181036000830152614382818b613bba565b90508181036020830152614396818a613bba565b90506143a56040830189613bab565b81810360608301526143b78188613bba565b90506143c66080830187613b9c565b6143d360a0830186613b8d565b81810360c08301526143e58185613bba565b90506143f460e0830184613bab565b9998505050505050505050565b6000608082019050818103600083015261441b8187613bba565b9050818103602083015261442f8186613bba565b905081810360408301526144438185613bba565b9050614452606083018461412f565b95945050505050565b600060808201905081810360008301526144758187613bba565b9050614484602083018661412f565b6144916040830185613b9c565b61449e6060830184613b9c565b95945050505050565b600060208201905081810360008301526144c081613ce3565b9050919050565b600060208201905081810360008301526144e081613d63565b9050919050565b6000602082019050818103600083015261450081613da3565b9050919050565b6000602082019050818103600083015261452081613de3565b9050919050565b6000602082019050818103600083015261454081613e63565b9050919050565b6000602082019050818103600083015261456081613ea3565b9050919050565b6000602082019050818103600083015261458081613ee3565b9050919050565b600060208201905081810360008301526145a081613fa3565b9050919050565b600060208201905081810360008301526145c081613fe3565b9050919050565b600060208201905081810360008301526145e081614023565b9050919050565b6000602082019050818103600083015261460081614089565b9050919050565b60006020820190508181036000830152614620816140c9565b9050919050565b6000604051905081810181811067ffffffffffffffff8211171561464e5761464d614892565b5b8060405250919050565b600067ffffffffffffffff82111561467357614672614892565b5b601f19601f8301169050602081019050919050565b60008190508160005260206000209050919050565b600081519050919050565b600082825260208201905092915050565b600081905092915050565b60006146cf82614775565b91506146da83614775565b9250827fffffffffffffffffffffffffffffffffffffffffffffffffffffffffffffffff0382111561470f5761470e614805565b5b828201905092915050565b600061472582614755565b9050919050565b60008115159050919050565b6000819050919050565b6000819050614750826148d2565b919050565b600073ffffffffffffffffffffffffffffffffffffffff82169050919050565b6000819050919050565b600061478a82614742565b9050919050565b82818337600083830152505050565b60005b838110156147be5780820151818401526020810190506147a3565b838111156147cd576000848401525b50505050565b600060028204905060018216806147eb57607f821691505b602082108114156147ff576147fe614863565b5b50919050565b7f4e487b7100000000000000000000000000000000000000000000000000000000600052601160045260246000fd5b7f4e487b7100000000000000000000000000000000000000000000000000000000600052602160045260246000fd5b7f4e487b7100000000000000000000000000000000000000000000000000000000600052602260045260246000fd5b7f4e487b7100000000000000000000000000000000000000000000000000000000600052604160045260246000fd5b6000601f19601f8301169050919050565b600681106148e3576148e2614834565b5b50565b6148ef8161471a565b81146148fa57600080fd5b50565b61490681614738565b811461491157600080fd5b50565b61491d81614775565b811461492857600080fd5b5056fe4163747561746f722d3e456467653a524541442c57524954452c45584543555445494e56414c49445f504f4c4943593a204e4f20504f4c4943592041535349474e454420464f52205448495320434f4d42494e4154494f4ea2646970667358221220b2d4ba5f8d3a2a9df9201ace749ed74c07e2663e184d6106b007689388e1208164736f6c63430008000033",
  "immutableReferences": {},
  "source": "// SPDX-License-Identifier: MIT\npragma solidity ^0.8.0;\n\ncontract NodeRegistry {\n    \n    enum NodeType { Unknown, Cloud, Fog, Edge, Sensor, Actuator } // Define possible node types\n\n    struct IoTNode {\n        string nodeName;\n        NodeType nodeType;\n        string publicKey;\n        bool isRegistered;\n        // string senderCapabilityToken;\n        // string receiverCapabilityToken;\n        address registeredBy;\n        NodeType registeredByNodeType;\n        string nodeSignature; \n    }\n\n    struct CapabilityToken { \n        string policy;\n        uint256 issuedAt;\n        bool isIssued;\n        bool isRevoked; \n    }\n\n    mapping(string => IoTNode) public iotNodes;\n    mapping(string => string) public nodeSignatureToNodeId;\n    mapping(address => string) public addressToNodeId;\n    mapping(bytes32 => CapabilityToken) public capabilityTokens; \n\n    // Event to signal validator proposal for off-chain listeners\n    event ValidatorProposed(address indexed proposedBy, address indexed validator);   \n\n    // Updated event: tokens are now a single string each.\n    event NodeRegistered(\n        string indexed nodeId,\n        string nodeName,\n        NodeType nodeType,\n        string publicKey,\n        // string senderCapabilityToken,\n        // string receiverCapabilityToken,\n        address registeredBy,\n        NodeType registeredByNodeType,\n        string nodeSignature\n    );\n\n    event TokenIssued( \n        string fromNodeSignature,\n        string toNodeSignature,\n        string policy,\n        uint256 issuedAt\n    );\n\n    event TokenChecked( \n        string fromNodeSignature,\n        string toNodeSignature\n    );\n\n    event TokenRevoked( \n        string fromNodeSignature,\n        string toNodeSignature\n    );\n\n    function registerNode(\n        string memory nodeId,\n        string memory nodeName,\n        string memory nodeTypeStr,\n        string memory publicKey,\n        address registeredBy,\n        string memory registeredByNodeTypeStr,\n        string memory nodeSignature \n    ) public {\n        require(bytes(nodeSignatureToNodeId[nodeSignature]).length == 0, \"Node already registered!\");\n        nodeSignatureToNodeId[nodeSignature] = nodeId;\n        NodeType nodeType = getNodeType(nodeTypeStr);\n        NodeType regByNodeType = getNodeType(registeredByNodeTypeStr);\n        require(nodeType != NodeType.Unknown, \"Invalid node type!\");\n        require(regByNodeType != NodeType.Unknown, \"Invalid registered-by node type!\");\n\n        // (string[] memory senderTokens, string[] memory receiverTokens) = generateToken(nodeType, regByNodeType);\n        // string memory senderCapabilityToken = joinStringArray(senderTokens);\n        // string memory receiverCapabilityToken = joinStringArray(receiverTokens);\n\n        iotNodes[nodeId] = IoTNode({\n            nodeName: nodeName,\n            nodeType: nodeType,\n            publicKey: publicKey,\n            isRegistered: true,\n            // senderCapabilityToken: senderCapabilityToken,\n            // receiverCapabilityToken: receiverCapabilityToken,\n            registeredBy: registeredBy,\n            registeredByNodeType: regByNodeType,\n            nodeSignature: nodeSignature\n        });\n\n        addressToNodeId[registeredBy] = nodeId;\n\n        emit NodeRegistered(\n            nodeId,\n            nodeName,\n            nodeType,\n            publicKey,\n            // senderCapabilityToken,\n            // receiverCapabilityToken,\n            registeredBy,\n            regByNodeType,\n            nodeSignature\n        );\n    }\n\n    function isNodeRegistered(string memory nodeSignature) public view returns (bool) {\n        string memory nodeId = nodeSignatureToNodeId[nodeSignature];\n        return (\n            iotNodes[nodeId].isRegistered &&\n            keccak256(abi.encodePacked(iotNodes[nodeId].nodeSignature)) == keccak256(abi.encodePacked(nodeSignature))\n        );\n    }\n\n    function proposeValidator(address validator) public {\n        require(validator != address(0), \"Invalid validator address\");\n        emit ValidatorProposed(msg.sender, validator); \n    }\n\n    function getNodeDetailsBySignature(string memory nodeSignature)\n        public view returns (\n            string memory,\n            string memory,\n            NodeType,\n            string memory,\n            bool,\n            // string memory,\n            // string memory,\n            address,\n            string memory,\n            NodeType\n        )\n    {\n        string memory nodeId = nodeSignatureToNodeId[nodeSignature];\n        require(\n            iotNodes[nodeId].isRegistered &&\n            keccak256(abi.encodePacked(iotNodes[nodeId].nodeSignature)) == keccak256(abi.encodePacked(nodeSignature)),\n            \"No matching node registered with this signature\"\n        );\n\n        IoTNode memory node = iotNodes[nodeId];\n        return (\n            nodeId,\n            node.nodeName,\n            node.nodeType,\n            node.publicKey,\n            node.isRegistered,\n            // node.senderCapabilityToken,\n            // node.receiverCapabilityToken,\n            node.registeredBy,\n            node.nodeSignature,\n            node.registeredByNodeType\n        );\n    }\n\n    function getNodeDetailsByAddress(address nodeAddress)\n        public view returns (\n            string memory,\n            string memory,\n            NodeType,\n            string memory,\n            bool,\n            address,\n            string memory,\n            NodeType\n        )\n    {\n        string memory nodeId = addressToNodeId[nodeAddress];\n        require(bytes(nodeId).length > 0, \"Address not registered\");\n\n        IoTNode memory node = iotNodes[nodeId];\n        return (\n            nodeId,\n            node.nodeName,\n            node.nodeType,\n            node.publicKey,\n            node.isRegistered,\n            node.registeredBy,\n            node.nodeSignature,\n            node.registeredByNodeType\n        );\n    }\n\n    function issueToken(string memory fromNodeSignature, string memory toNodeSignature) public {\n        string memory fromNodeId = nodeSignatureToNodeId[fromNodeSignature];\n        string memory toNodeId = nodeSignatureToNodeId[toNodeSignature];\n\n        require(iotNodes[fromNodeId].isRegistered, \"Sender not registered\");\n        require(iotNodes[toNodeId].isRegistered, \"Receiver not registered\");\n\n        NodeType fromType = iotNodes[fromNodeId].nodeType;\n        NodeType toType = iotNodes[toNodeId].nodeType;\n\n        string memory policy = getPolicyString(fromType, toType);\n\n        bytes32 tokenId = keccak256(abi.encodePacked(fromNodeSignature, toNodeSignature));\n\n        // Modify this block to allow reissuing if previously revoked\n        if (capabilityTokens[tokenId].isIssued && !capabilityTokens[tokenId].isRevoked) {\n            revert(\"Token already issued and active\");\n        }\n\n        capabilityTokens[tokenId] = CapabilityToken({\n            policy: policy,\n            issuedAt: block.timestamp,\n            isIssued: true,\n            isRevoked: false \n        });\n\n        emit TokenIssued(fromNodeSignature, toNodeSignature, policy, block.timestamp);\n    }\n\n    function revokeToken(string memory fromNodeSignature, string memory toNodeSignature) public { \n        bytes32 tokenId = keccak256(abi.encodePacked(fromNodeSignature, toNodeSignature));\n        require(capabilityTokens[tokenId].isIssued, \"Token not issued\");\n        require(!capabilityTokens[tokenId].isRevoked, \"Token already revoked\");\n\n        capabilityTokens[tokenId].isRevoked = true;\n        emit TokenRevoked(fromNodeSignature, toNodeSignature);\n    }\n\n    function getToken(string memory fromNodeSignature, string memory toNodeSignature)\n        public view returns (string memory policy, uint256 issuedAt, bool isIssued, bool isRevoked)\n    {\n        bytes32 tokenId = keccak256(abi.encodePacked(fromNodeSignature, toNodeSignature));\n        CapabilityToken memory token = capabilityTokens[tokenId];\n        return (token.policy, token.issuedAt, token.isIssued, token.isRevoked);\n    }\n\n    function checkToken(string memory fromNodeSignature, string memory toNodeSignature) public view returns (bool) {\n        bytes32 tokenId = keccak256(abi.encodePacked(fromNodeSignature, toNodeSignature));\n        CapabilityToken memory token = capabilityTokens[tokenId];\n        return (token.isIssued && !token.isRevoked);\n    }\n\n    function isTokenExpired(string memory fromNodeSignature, string memory toNodeSignature, uint256 validityPeriodInSeconds)\n        public view returns (bool) \n    {\n        bytes32 tokenId = keccak256(abi.encodePacked(fromNodeSignature, toNodeSignature));\n        CapabilityToken memory token = capabilityTokens[tokenId];\n        if (!token.isIssued || token.isRevoked) {\n            return true;\n        }\n        return (block.timestamp > token.issuedAt + validityPeriodInSeconds);\n    }\n\n    \n\n    function getPolicyString(NodeType from, NodeType to) internal pure returns (string memory) { \n        if (from == NodeType.Cloud) {\n\n            if (to == NodeType.Fog) {\n                return \"Cloud->Fog:READ,WRITE\";\n            } else if (to == NodeType.Edge) {\n                return \"NO POLICY DEFINED\";\n            } else if (to == NodeType.Sensor) {\n                return \"NO POLICY DEFINED\";\n            } else if (to == NodeType.Actuator) {\n                return \"NO POLICY DEFINED\";\n            }\n        } else if (from == NodeType.Fog) {\n\n            if (to == NodeType.Cloud) {\n                return \"Fog->Cloud:READ,WRITE\";\n            } else if (to == NodeType.Edge) {\n                return \"Fog->Edge:READ,WRITE\";\n            } else if (to == NodeType.Sensor) {\n                return \"NO POLICY DEFINED\";\n            } else if (to == NodeType.Actuator) {\n                return \"NO POLICY DEFINED\";\n            }   \n        } else if (from == NodeType.Edge) {\n\n            if (to == NodeType.Cloud) {\n                return \"NO POLICY DEFINED\";\n            } else if (to == NodeType.Fog) {\n                return \"Edge->Fog:READ,WRITE\";\n            } else if (to == NodeType.Sensor) {\n                return \"Edge->Sensor:EXECUTE\";\n            } else if (to == NodeType.Actuator) {\n                return \"Edge->Actuator:EXECUTE\";\n            }\n        } else if (from == NodeType.Sensor) {\n\n            if (to == NodeType.Cloud) {\n                return \"NO POLICY DEFINED\";\n            } else if (to == NodeType.Fog) {\n                return \"NO POLICY DEFINED\";\n            } else if (to == NodeType.Edge) {\n                return \"Sensor->Edge:READ\";\n            } else if (to == NodeType.Actuator) {\n                return \"NO POLICY DEFINED\";\n            }\n        } else if (from == NodeType.Actuator) {\n\n            if (to == NodeType.Cloud) {\n                return \"NO POLICY DEFINED\";\n            } else if (to == NodeType.Fog) {\n                return \"NO POLICY DEFINED\";\n            } else if (to == NodeType.Edge) {\n                return \"Actuator->Edge:READ,WRITE,EXECUTE\";\n            } else if (to == NodeType.Sensor) {\n                return \"NO POLICY DEFINED\";\n            }\n        }\n        return \"INVALID_POLICY: NO POLICY ASSIGNED FOR THIS COMBINATION\";\n    }\n\n    function getNodeType(string memory nodeTypeStr) internal pure returns (NodeType) {\n        bytes32 nodeTypeHash = keccak256(abi.encodePacked(nodeTypeStr));\n\n        if (nodeTypeHash == keccak256(abi.encodePacked(\"Cloud\"))) return NodeType.Cloud;\n        if (nodeTypeHash == keccak256(abi.encodePacked(\"Fog\"))) return NodeType.Fog;\n        if (nodeTypeHash == keccak256(abi.encodePacked(\"Edge\"))) return NodeType.Edge;\n        if (nodeTypeHash == keccak256(abi.encodePacked(\"Sensor\"))) return NodeType.Sensor;\n        if (nodeTypeHash == keccak256(abi.encodePacked(\"Actuator\"))) return NodeType.Actuator;\n\n        return NodeType.Unknown; // Invalid type\n    }\n\n    // Helper function to join an array of strings with commas.\n    function joinStringArray(string[] memory arr) internal pure returns (string memory) {\n        bytes memory result;\n        for (uint i = 0; i < arr.length; i++) {\n            result = abi.encodePacked(result, arr[i]);\n            if (i < arr.length - 1) {\n                result = abi.encodePacked(result, \",\");\n            }\n        }\n        return string(result);\n    }\n\n    function isValidator(string memory nodeSignature) public view returns (bool) {\n        string memory nodeId = nodeSignatureToNodeId[nodeSignature];\n        require(\n            iotNodes[nodeId].isRegistered &&\n            keccak256(abi.encodePacked(iotNodes[nodeId].nodeSignature)) == keccak256(abi.encodePacked(nodeSignature)),\n            \"Node not found or invalid signature\"\n        );\n\n        NodeType nodeType = iotNodes[nodeId].nodeType;\n\n        if (nodeType == NodeType.Cloud || nodeType == NodeType.Fog) {\n            return true;\n        }\n\n        return false;\n    }\n\n}",
  "sourcePath": "/Users/khannmohsin/VSCode_Projects/MyDisIoT_Project/Node_cloud/smart_contract_deployment/contracts/NodeRegistry.sol",
  "compiler": {
    "name": "solc",
    "version": "0.8.0+commit.c7dfd78e.Emscripten.clang"
  },
  "schemaVersion": "3.4.16",
  "updatedAt": "2025-04-14T14:46:46.709Z",
  "networkType": "ethereum",
  "devdoc": {
    "kind": "dev",
    "methods": {},
    "version": 1
  },
  "userdoc": {
    "kind": "user",
    "methods": {},
    "version": 1
  }
}