{
  "contractName": "NodeRegistry",
  "abi": [
    {
      "anonymous": false,
      "inputs": [
        {
          "indexed": true,
          "internalType": "string",
          "name": "nodeId",
          "type": "string"
        },
        {
          "indexed": false,
          "internalType": "string",
          "name": "nodeName",
          "type": "string"
        },
        {
          "indexed": false,
          "internalType": "enum NodeRegistry.NodeType",
          "name": "nodeType",
          "type": "uint8"
        },
        {
          "indexed": false,
          "internalType": "string",
          "name": "publicKey",
          "type": "string"
        },
        {
          "indexed": false,
          "internalType": "string",
          "name": "senderCapabilityToken",
          "type": "string"
        },
        {
          "indexed": false,
          "internalType": "string",
          "name": "receiverCapabilityToken",
          "type": "string"
        },
        {
          "indexed": false,
          "internalType": "address",
          "name": "registeredBy",
          "type": "address"
        },
        {
          "indexed": false,
          "internalType": "enum NodeRegistry.NodeType",
          "name": "registeredByNodeType",
          "type": "uint8"
        },
        {
          "indexed": false,
          "internalType": "string",
          "name": "nodeSignature",
          "type": "string"
        }
      ],
      "name": "NodeRegistered",
      "type": "event"
    },
    {
      "anonymous": false,
      "inputs": [
        {
          "indexed": true,
          "internalType": "address",
          "name": "proposedBy",
          "type": "address"
        },
        {
          "indexed": true,
          "internalType": "address",
          "name": "validator",
          "type": "address"
        }
      ],
      "name": "ValidatorProposed",
      "type": "event"
    },
    {
      "inputs": [
        {
          "internalType": "address",
          "name": "",
          "type": "address"
        }
      ],
      "name": "addressToNodeId",
      "outputs": [
        {
          "internalType": "string",
          "name": "",
          "type": "string"
        }
      ],
      "stateMutability": "view",
      "type": "function",
      "constant": true
    },
    {
      "inputs": [
        {
          "internalType": "string",
          "name": "",
          "type": "string"
        }
      ],
      "name": "iotNodes",
      "outputs": [
        {
          "internalType": "string",
          "name": "nodeName",
          "type": "string"
        },
        {
          "internalType": "enum NodeRegistry.NodeType",
          "name": "nodeType",
          "type": "uint8"
        },
        {
          "internalType": "string",
          "name": "publicKey",
          "type": "string"
        },
        {
          "internalType": "bool",
          "name": "isRegistered",
          "type": "bool"
        },
        {
          "internalType": "string",
          "name": "senderCapabilityToken",
          "type": "string"
        },
        {
          "internalType": "string",
          "name": "receiverCapabilityToken",
          "type": "string"
        },
        {
          "internalType": "address",
          "name": "registeredBy",
          "type": "address"
        },
        {
          "internalType": "enum NodeRegistry.NodeType",
          "name": "registeredByNodeType",
          "type": "uint8"
        },
        {
          "internalType": "string",
          "name": "nodeSignature",
          "type": "string"
        }
      ],
      "stateMutability": "view",
      "type": "function",
      "constant": true
    },
    {
      "inputs": [
        {
          "internalType": "string",
          "name": "",
          "type": "string"
        }
      ],
      "name": "nodeSignatureToNodeId",
      "outputs": [
        {
          "internalType": "string",
          "name": "",
          "type": "string"
        }
      ],
      "stateMutability": "view",
      "type": "function",
      "constant": true
    },
    {
      "inputs": [
        {
          "internalType": "address",
          "name": "validator",
          "type": "address"
        }
      ],
      "name": "proposeValidator",
      "outputs": [],
      "stateMutability": "nonpayable",
      "type": "function"
    },
    {
      "inputs": [
        {
          "internalType": "string",
          "name": "nodeId",
          "type": "string"
        },
        {
          "internalType": "string",
          "name": "nodeName",
          "type": "string"
        },
        {
          "internalType": "string",
          "name": "nodeTypeStr",
          "type": "string"
        },
        {
          "internalType": "string",
          "name": "publicKey",
          "type": "string"
        },
        {
          "internalType": "address",
          "name": "registeredBy",
          "type": "address"
        },
        {
          "internalType": "string",
          "name": "registeredByNodeTypeStr",
          "type": "string"
        },
        {
          "internalType": "string",
          "name": "nodeSignature",
          "type": "string"
        }
      ],
      "name": "registerNode",
      "outputs": [],
      "stateMutability": "nonpayable",
      "type": "function"
    },
    {
      "inputs": [
        {
          "internalType": "string",
          "name": "nodeSignature",
          "type": "string"
        }
      ],
      "name": "isNodeRegistered",
      "outputs": [
        {
          "internalType": "bool",
          "name": "",
          "type": "bool"
        }
      ],
      "stateMutability": "view",
      "type": "function",
      "constant": true
    },
    {
      "inputs": [
        {
          "internalType": "string",
          "name": "nodeSignature",
          "type": "string"
        }
      ],
      "name": "getNodeDetailsBySignature",
      "outputs": [
        {
          "internalType": "string",
          "name": "",
          "type": "string"
        },
        {
          "internalType": "string",
          "name": "",
          "type": "string"
        },
        {
          "internalType": "enum NodeRegistry.NodeType",
          "name": "",
          "type": "uint8"
        },
        {
          "internalType": "string",
          "name": "",
          "type": "string"
        },
        {
          "internalType": "bool",
          "name": "",
          "type": "bool"
        },
        {
          "internalType": "string",
          "name": "",
          "type": "string"
        },
        {
          "internalType": "string",
          "name": "",
          "type": "string"
        },
        {
          "internalType": "address",
          "name": "",
          "type": "address"
        },
        {
          "internalType": "string",
          "name": "",
          "type": "string"
        },
        {
          "internalType": "enum NodeRegistry.NodeType",
          "name": "",
          "type": "uint8"
        }
      ],
      "stateMutability": "view",
      "type": "function",
      "constant": true
    },
    {
      "inputs": [
        {
          "internalType": "string",
          "name": "nodeSignature",
          "type": "string"
        }
      ],
      "name": "isValidator",
      "outputs": [
        {
          "internalType": "bool",
          "name": "",
          "type": "bool"
        }
      ],
      "stateMutability": "view",
      "type": "function",
      "constant": true
    }
  ],
  "bytecode": "0x608060405234801561001057600080fd5b50613aec806100206000396000f3fe608060405234801561001057600080fd5b50600436106100885760003560e01c8063e5e1eeea1161005b578063e5e1eeea14610125578063ef36d16a14610155578063f934df9114610185578063f991dde4146101be57610088565b806325d80f951461008d578063430ae633146100bd5780639e6eb795146100ed578063a4b341cd14610109575b600080fd5b6100a760048036038101906100a29190612dba565b6101f6565b6040516100b49190613499565b60405180910390f35b6100d760048036038101906100d29190612dba565b610350565b6040516100e49190613499565b60405180910390f35b61010760048036038101906101029190612dfb565b61061e565b005b610123600480360381019061011e9190612d91565b610bb8565b005b61013f600480360381019061013a9190612dba565b610c85565b60405161014c91906134b4565b60405180910390f35b61016f600480360381019061016a9190612d91565b610d3b565b60405161017c91906134b4565b60405180910390f35b61019f600480360381019061019a9190612dba565b610ddb565b6040516101b59a99989796959493929190613627565b60405180910390f35b6101d860048036038101906101d39190612dba565b611454565b6040516101ed999897969594939291906134d6565b60405180910390f35b6000806001836040516102099190613402565b9081526020016040518091039020805461022290613943565b80601f016020809104026020016040519081016040528092919081815260200182805461024e90613943565b801561029b5780601f106102705761010080835404028352916020019161029b565b820191906000526020600020905b81548152906001019060200180831161027e57829003601f168201915b505050505090506000816040516102b29190613402565b908152602001604051809103902060030160009054906101000a900460ff1680156103485750826040516020016102e99190613402565b6040516020818303038152906040528051906020012060008260405161030f9190613402565b90815260200160405180910390206007016040516020016103309190613419565b60405160208183030381529060405280519060200120145b915050919050565b6000806001836040516103639190613402565b9081526020016040518091039020805461037c90613943565b80601f01602080910402602001604051908101604052809291908181526020018280546103a890613943565b80156103f55780601f106103ca576101008083540402835291602001916103f5565b820191906000526020600020905b8154815290600101906020018083116103d857829003601f168201915b5050505050905060008160405161040c9190613402565b908152602001604051809103902060030160009054906101000a900460ff1680156104a25750826040516020016104439190613402565b604051602081830303815290604052805190602001206000826040516104699190613402565b908152602001604051809103902060070160405160200161048a9190613419565b60405160208183030381529060405280519060200120145b6104e1576040517f08c379a00000000000000000000000000000000000000000000000000000000081526004016104d89061376d565b60405180910390fd5b600080826040516104f29190613402565b908152602001604051809103902060010160009054906101000a900460ff1690506001600581111561054d577f4e487b7100000000000000000000000000000000000000000000000000000000600052602160045260246000fd5b816005811115610586577f4e487b7100000000000000000000000000000000000000000000000000000000600052602160045260246000fd5b14806106025750600260058111156105c7577f4e487b7100000000000000000000000000000000000000000000000000000000600052602160045260246000fd5b816005811115610600577f4e487b7100000000000000000000000000000000000000000000000000000000600052602160045260246000fd5b145b1561061257600192505050610619565b6000925050505b919050565b60006001826040516106309190613402565b9081526020016040518091039020805461064990613943565b90501461068b576040517f08c379a0000000000000000000000000000000000000000000000000000000008152600401610682906136ed565b60405180910390fd5b8660018260405161069c9190613402565b908152602001604051809103902090805190602001906106bd929190612c71565b5060006106c9866117a7565b905060006106d6846117a7565b905060006005811115610712577f4e487b7100000000000000000000000000000000000000000000000000000000600052602160045260246000fd5b82600581111561074b577f4e487b7100000000000000000000000000000000000000000000000000000000600052602160045260246000fd5b141561078c576040517f08c379a00000000000000000000000000000000000000000000000000000000081526004016107839061374d565b60405180910390fd5b600060058111156107c6577f4e487b7100000000000000000000000000000000000000000000000000000000600052602160045260246000fd5b8160058111156107ff577f4e487b7100000000000000000000000000000000000000000000000000000000600052602160045260246000fd5b1415610840576040517f08c379a00000000000000000000000000000000000000000000000000000000081526004016108379061372d565b60405180910390fd5b60008061084d84846118ec565b91509150600061085c83612ba9565b9050600061086983612ba9565b90506040518061012001604052808d81526020018760058111156108b6577f4e487b7100000000000000000000000000000000000000000000000000000000600052602160045260246000fd5b81526020018b81526020016001151581526020018381526020018281526020018a73ffffffffffffffffffffffffffffffffffffffff16815260200186600581111561092b577f4e487b7100000000000000000000000000000000000000000000000000000000600052602160045260246000fd5b81526020018881525060008e6040516109449190613402565b9081526020016040518091039020600082015181600001908051906020019061096e929190612c71565b5060208201518160010160006101000a81548160ff021916908360058111156109c0577f4e487b7100000000000000000000000000000000000000000000000000000000600052602160045260246000fd5b021790555060408201518160020190805190602001906109e1929190612c71565b5060608201518160030160006101000a81548160ff0219169083151502179055506080820151816004019080519060200190610a1e929190612c71565b5060a0820151816005019080519060200190610a3b929190612c71565b5060c08201518160060160006101000a81548173ffffffffffffffffffffffffffffffffffffffff021916908373ffffffffffffffffffffffffffffffffffffffff16021790555060e08201518160060160146101000a81548160ff02191690836005811115610ad4577f4e487b7100000000000000000000000000000000000000000000000000000000600052602160045260246000fd5b0217905550610100820151816007019080519060200190610af6929190612c71565b509050508c600260008b73ffffffffffffffffffffffffffffffffffffffff1673ffffffffffffffffffffffffffffffffffffffff1681526020019081526020016000209080519060200190610b4d929190612c71565b508c604051610b5c9190613402565b60405180910390207f12a9f0891653cbf5018a09249dfa46087cccb9b0765c686678c4c3f641bd5a138d888d86868f8c8f604051610ba1989796959493929190613586565b60405180910390a250505050505050505050505050565b600073ffffffffffffffffffffffffffffffffffffffff168173ffffffffffffffffffffffffffffffffffffffff161415610c28576040517f08c379a0000000000000000000000000000000000000000000000000000000008152600401610c1f9061370d565b60405180910390fd5b8073ffffffffffffffffffffffffffffffffffffffff163373ffffffffffffffffffffffffffffffffffffffff167f1e88818bc653698bb4bd01c0797cdf0c683be29f1171a3d3c345af8b18d10cfe60405160405180910390a350565b6001818051602081018201805184825260208301602085012081835280955050505050506000915090508054610cba90613943565b80601f0160208091040260200160405190810160405280929190818152602001828054610ce690613943565b8015610d335780601f10610d0857610100808354040283529160200191610d33565b820191906000526020600020905b815481529060010190602001808311610d1657829003601f168201915b505050505081565b60026020528060005260406000206000915090508054610d5a90613943565b80601f0160208091040260200160405190810160405280929190818152602001828054610d8690613943565b8015610dd35780601f10610da857610100808354040283529160200191610dd3565b820191906000526020600020905b815481529060010190602001808311610db657829003601f168201915b505050505081565b6060806000606060006060806000606060008060018c604051610dfe9190613402565b90815260200160405180910390208054610e1790613943565b80601f0160208091040260200160405190810160405280929190818152602001828054610e4390613943565b8015610e905780601f10610e6557610100808354040283529160200191610e90565b820191906000526020600020905b815481529060010190602001808311610e7357829003601f168201915b50505050509050600081604051610ea79190613402565b908152602001604051809103902060030160009054906101000a900460ff168015610f3d57508b604051602001610ede9190613402565b60405160208183030381529060405280519060200120600082604051610f049190613402565b9081526020016040518091039020600701604051602001610f259190613419565b60405160208183030381529060405280519060200120145b610f7c576040517f08c379a0000000000000000000000000000000000000000000000000000000008152600401610f739061378d565b60405180910390fd5b60008082604051610f8d9190613402565b908152602001604051809103902060405180610120016040529081600082018054610fb790613943565b80601f0160208091040260200160405190810160405280929190818152602001828054610fe390613943565b80156110305780601f1061100557610100808354040283529160200191611030565b820191906000526020600020905b81548152906001019060200180831161101357829003601f168201915b505050505081526020016001820160009054906101000a900460ff166005811115611084577f4e487b7100000000000000000000000000000000000000000000000000000000600052602160045260246000fd5b60058111156110bc577f4e487b7100000000000000000000000000000000000000000000000000000000600052602160045260246000fd5b81526020016002820180546110d090613943565b80601f01602080910402602001604051908101604052809291908181526020018280546110fc90613943565b80156111495780601f1061111e57610100808354040283529160200191611149565b820191906000526020600020905b81548152906001019060200180831161112c57829003601f168201915b505050505081526020016003820160009054906101000a900460ff1615151515815260200160048201805461117d90613943565b80601f01602080910402602001604051908101604052809291908181526020018280546111a990613943565b80156111f65780601f106111cb576101008083540402835291602001916111f6565b820191906000526020600020905b8154815290600101906020018083116111d957829003601f168201915b5050505050815260200160058201805461120f90613943565b80601f016020809104026020016040519081016040528092919081815260200182805461123b90613943565b80156112885780601f1061125d57610100808354040283529160200191611288565b820191906000526020600020905b81548152906001019060200180831161126b57829003601f168201915b505050505081526020016006820160009054906101000a900473ffffffffffffffffffffffffffffffffffffffff1673ffffffffffffffffffffffffffffffffffffffff1673ffffffffffffffffffffffffffffffffffffffff1681526020016006820160149054906101000a900460ff166005811115611332577f4e487b7100000000000000000000000000000000000000000000000000000000600052602160045260246000fd5b600581111561136a577f4e487b7100000000000000000000000000000000000000000000000000000000600052602160045260246000fd5b815260200160078201805461137e90613943565b80601f01602080910402602001604051908101604052809291908181526020018280546113aa90613943565b80156113f75780601f106113cc576101008083540402835291602001916113f7565b820191906000526020600020905b8154815290600101906020018083116113da57829003601f168201915b505050505081525050905081816000015182602001518360400151846060015185608001518660a001518760c001518861010001518960e001519b509b509b509b509b509b509b509b509b509b5050509193959799509193959799565b60008180516020810182018051848252602083016020850120818352809550505050505060009150905080600001805461148d90613943565b80601f01602080910402602001604051908101604052809291908181526020018280546114b990613943565b80156115065780601f106114db57610100808354040283529160200191611506565b820191906000526020600020905b8154815290600101906020018083116114e957829003601f168201915b5050505050908060010160009054906101000a900460ff169080600201805461152e90613943565b80601f016020809104026020016040519081016040528092919081815260200182805461155a90613943565b80156115a75780601f1061157c576101008083540402835291602001916115a7565b820191906000526020600020905b81548152906001019060200180831161158a57829003601f168201915b5050505050908060030160009054906101000a900460ff16908060040180546115cf90613943565b80601f01602080910402602001604051908101604052809291908181526020018280546115fb90613943565b80156116485780601f1061161d57610100808354040283529160200191611648565b820191906000526020600020905b81548152906001019060200180831161162b57829003601f168201915b50505050509080600501805461165d90613943565b80601f016020809104026020016040519081016040528092919081815260200182805461168990613943565b80156116d65780601f106116ab576101008083540402835291602001916116d6565b820191906000526020600020905b8154815290600101906020018083116116b957829003601f168201915b5050505050908060060160009054906101000a900473ffffffffffffffffffffffffffffffffffffffff16908060060160149054906101000a900460ff169080600701805461172490613943565b80601f016020809104026020016040519081016040528092919081815260200182805461175090613943565b801561179d5780601f106117725761010080835404028352916020019161179d565b820191906000526020600020905b81548152906001019060200180831161178057829003601f168201915b5050505050905089565b600080826040516020016117bb9190613402565b6040516020818303038152906040528051906020012090506040516020016117e290613484565b604051602081830303815290604052805190602001208114156118095760019150506118e7565b6040516020016118189061346f565b6040516020818303038152906040528051906020012081141561183f5760029150506118e7565b60405160200161184e90613430565b604051602081830303815290604052805190602001208114156118755760039150506118e7565b6040516020016118849061345a565b604051602081830303815290604052805190602001208114156118ab5760049150506118e7565b6040516020016118ba90613445565b604051602081830303815290604052805190602001208114156118e15760059150506118e7565b60009150505b919050565b6060806060806002600581111561192c577f4e487b7100000000000000000000000000000000000000000000000000000000600052602160045260246000fd5b866005811115611965577f4e487b7100000000000000000000000000000000000000000000000000000000600052602160045260246000fd5b1480156119e25750600160058111156119a7577f4e487b7100000000000000000000000000000000000000000000000000000000600052602160045260246000fd5b8560058111156119e0577f4e487b7100000000000000000000000000000000000000000000000000000000600052602160045260246000fd5b145b15611d4157600367ffffffffffffffff811115611a28577f4e487b7100000000000000000000000000000000000000000000000000000000600052604160045260246000fd5b604051908082528060200260200182016040528015611a5b57816020015b6060815260200190600190039081611a465790505b5091506040518060400160405280600881526020017f466f673a5245414400000000000000000000000000000000000000000000000081525082600081518110611ace577f4e487b7100000000000000000000000000000000000000000000000000000000600052603260045260246000fd5b60200260200101819052506040518060400160405280600981526020017f466f673a5752495445000000000000000000000000000000000000000000000081525082600181518110611b49577f4e487b7100000000000000000000000000000000000000000000000000000000600052603260045260246000fd5b60200260200101819052506040518060400160405280600c81526020017f466f673a5452414e534d4954000000000000000000000000000000000000000081525082600281518110611bc4577f4e487b7100000000000000000000000000000000000000000000000000000000600052603260045260246000fd5b6020026020010181905250600267ffffffffffffffff811115611c10577f4e487b7100000000000000000000000000000000000000000000000000000000600052604160045260246000fd5b604051908082528060200260200182016040528015611c4357816020015b6060815260200190600190039081611c2e5790505b5090506040518060400160405280600a81526020017f436c6f75643a524541440000000000000000000000000000000000000000000081525081600081518110611cb6577f4e487b7100000000000000000000000000000000000000000000000000000000600052603260045260246000fd5b60200260200101819052506040518060400160405280600d81526020017f436c6f75643a455845435554450000000000000000000000000000000000000081525081600181518110611d31577f4e487b7100000000000000000000000000000000000000000000000000000000600052603260045260246000fd5b6020026020010181905250612b9a565b60036005811115611d7b577f4e487b7100000000000000000000000000000000000000000000000000000000600052602160045260246000fd5b866005811115611db4577f4e487b7100000000000000000000000000000000000000000000000000000000600052602160045260246000fd5b148015611e31575060026005811115611df6577f4e487b7100000000000000000000000000000000000000000000000000000000600052602160045260246000fd5b856005811115611e2f577f4e487b7100000000000000000000000000000000000000000000000000000000600052602160045260246000fd5b145b1561219057600367ffffffffffffffff811115611e77577f4e487b7100000000000000000000000000000000000000000000000000000000600052604160045260246000fd5b604051908082528060200260200182016040528015611eaa57816020015b6060815260200190600190039081611e955790505b5091506040518060400160405280600981526020017f456467653a52454144000000000000000000000000000000000000000000000081525082600081518110611f1d577f4e487b7100000000000000000000000000000000000000000000000000000000600052603260045260246000fd5b60200260200101819052506040518060400160405280600a81526020017f456467653a57524954450000000000000000000000000000000000000000000081525082600181518110611f98577f4e487b7100000000000000000000000000000000000000000000000000000000600052603260045260246000fd5b60200260200101819052506040518060400160405280600d81526020017f456467653a5452414e534d49540000000000000000000000000000000000000081525082600281518110612013577f4e487b7100000000000000000000000000000000000000000000000000000000600052603260045260246000fd5b6020026020010181905250600267ffffffffffffffff81111561205f577f4e487b7100000000000000000000000000000000000000000000000000000000600052604160045260246000fd5b60405190808252806020026020018201604052801561209257816020015b606081526020019060019003908161207d5790505b5090506040518060400160405280600881526020017f466f673a5245414400000000000000000000000000000000000000000000000081525081600081518110612105577f4e487b7100000000000000000000000000000000000000000000000000000000600052603260045260246000fd5b60200260200101819052506040518060400160405280600b81526020017f466f673a4558454355544500000000000000000000000000000000000000000081525081600181518110612180577f4e487b7100000000000000000000000000000000000000000000000000000000600052603260045260246000fd5b6020026020010181905250612b99565b600460058111156121ca577f4e487b7100000000000000000000000000000000000000000000000000000000600052602160045260246000fd5b866005811115612203577f4e487b7100000000000000000000000000000000000000000000000000000000600052602160045260246000fd5b148015612280575060036005811115612245577f4e487b7100000000000000000000000000000000000000000000000000000000600052602160045260246000fd5b85600581111561227e577f4e487b7100000000000000000000000000000000000000000000000000000000600052602160045260246000fd5b145b1561256457600267ffffffffffffffff8111156122c6577f4e487b7100000000000000000000000000000000000000000000000000000000600052604160045260246000fd5b6040519080825280602002602001820160405280156122f957816020015b60608152602001906001900390816122e45790505b5091506040518060400160405280600b81526020017f53656e736f723a524541440000000000000000000000000000000000000000008152508260008151811061236c577f4e487b7100000000000000000000000000000000000000000000000000000000600052603260045260246000fd5b60200260200101819052506040518060400160405280600f81526020017f53656e736f723a5452414e534d49540000000000000000000000000000000000815250826001815181106123e7577f4e487b7100000000000000000000000000000000000000000000000000000000600052603260045260246000fd5b6020026020010181905250600267ffffffffffffffff811115612433577f4e487b7100000000000000000000000000000000000000000000000000000000600052604160045260246000fd5b60405190808252806020026020018201604052801561246657816020015b60608152602001906001900390816124515790505b5090506040518060400160405280600981526020017f456467653a524541440000000000000000000000000000000000000000000000815250816000815181106124d9577f4e487b7100000000000000000000000000000000000000000000000000000000600052603260045260246000fd5b60200260200101819052506040518060400160405280600c81526020017f456467653a45584543555445000000000000000000000000000000000000000081525081600181518110612554577f4e487b7100000000000000000000000000000000000000000000000000000000600052603260045260246000fd5b6020026020010181905250612b98565b60058081111561259d577f4e487b7100000000000000000000000000000000000000000000000000000000600052602160045260246000fd5b8660058111156125d6577f4e487b7100000000000000000000000000000000000000000000000000000000600052602160045260246000fd5b148015612653575060036005811115612618577f4e487b7100000000000000000000000000000000000000000000000000000000600052602160045260246000fd5b856005811115612651577f4e487b7100000000000000000000000000000000000000000000000000000000600052602160045260246000fd5b145b156129b257600367ffffffffffffffff811115612699577f4e487b7100000000000000000000000000000000000000000000000000000000600052604160045260246000fd5b6040519080825280602002602001820160405280156126cc57816020015b60608152602001906001900390816126b75790505b5091506040518060400160405280600d81526020017f4163747561746f723a52454144000000000000000000000000000000000000008152508260008151811061273f577f4e487b7100000000000000000000000000000000000000000000000000000000600052603260045260246000fd5b60200260200101819052506040518060400160405280600e81526020017f4163747561746f723a5752495445000000000000000000000000000000000000815250826001815181106127ba577f4e487b7100000000000000000000000000000000000000000000000000000000600052603260045260246000fd5b60200260200101819052506040518060400160405280601081526020017f4163747561746f723a455845435554450000000000000000000000000000000081525082600281518110612835577f4e487b7100000000000000000000000000000000000000000000000000000000600052603260045260246000fd5b6020026020010181905250600267ffffffffffffffff811115612881577f4e487b7100000000000000000000000000000000000000000000000000000000600052604160045260246000fd5b6040519080825280602002602001820160405280156128b457816020015b606081526020019060019003908161289f5790505b5090506040518060400160405280600981526020017f456467653a52454144000000000000000000000000000000000000000000000081525081600081518110612927577f4e487b7100000000000000000000000000000000000000000000000000000000600052603260045260246000fd5b60200260200101819052506040518060400160405280600c81526020017f456467653a455845435554450000000000000000000000000000000000000000815250816001815181106129a2577f4e487b7100000000000000000000000000000000000000000000000000000000600052603260045260246000fd5b6020026020010181905250612b97565b600167ffffffffffffffff8111156129f3577f4e487b7100000000000000000000000000000000000000000000000000000000600052604160045260246000fd5b604051908082528060200260200182016040528015612a2657816020015b6060815260200190600190039081612a115790505b5091506040518060400160405280600d81526020017f494e56414c49445f544f4b454e0000000000000000000000000000000000000081525082600081518110612a99577f4e487b7100000000000000000000000000000000000000000000000000000000600052603260045260246000fd5b6020026020010181905250600167ffffffffffffffff811115612ae5577f4e487b7100000000000000000000000000000000000000000000000000000000600052604160045260246000fd5b604051908082528060200260200182016040528015612b1857816020015b6060815260200190600190039081612b035790505b5090506040518060400160405280600d81526020017f494e56414c49445f544f4b454e0000000000000000000000000000000000000081525081600081518110612b8b577f4e487b7100000000000000000000000000000000000000000000000000000000600052603260045260246000fd5b60200260200101819052505b5b5b5b81819350935050509250929050565b60608060005b8351811015612c675781848281518110612bf2577f4e487b7100000000000000000000000000000000000000000000000000000000600052603260045260246000fd5b6020026020010151604051602001612c0b9291906133bc565b604051602081830303815290604052915060018451612c2a9190613860565b811015612c545781604051602001612c4291906133e0565b60405160208183030381529060405291505b8080612c5f90613975565b915050612baf565b5080915050919050565b828054612c7d90613943565b90600052602060002090601f016020900481019282612c9f5760008555612ce6565b82601f10612cb857805160ff1916838001178555612ce6565b82800160010185558215612ce6579182015b82811115612ce5578251825591602001919060010190612cca565b5b509050612cf39190612cf7565b5090565b5b80821115612d10576000816000905550600101612cf8565b5090565b6000612d27612d22846137de565b6137ad565b905082815260208101848484011115612d3f57600080fd5b612d4a848285613901565b509392505050565b600081359050612d6181613a9f565b92915050565b600082601f830112612d7857600080fd5b8135612d88848260208601612d14565b91505092915050565b600060208284031215612da357600080fd5b6000612db184828501612d52565b91505092915050565b600060208284031215612dcc57600080fd5b600082013567ffffffffffffffff811115612de657600080fd5b612df284828501612d67565b91505092915050565b600080600080600080600060e0888a031215612e1657600080fd5b600088013567ffffffffffffffff811115612e3057600080fd5b612e3c8a828b01612d67565b975050602088013567ffffffffffffffff811115612e5957600080fd5b612e658a828b01612d67565b965050604088013567ffffffffffffffff811115612e8257600080fd5b612e8e8a828b01612d67565b955050606088013567ffffffffffffffff811115612eab57600080fd5b612eb78a828b01612d67565b9450506080612ec88a828b01612d52565b93505060a088013567ffffffffffffffff811115612ee557600080fd5b612ef18a828b01612d67565b92505060c088013567ffffffffffffffff811115612f0e57600080fd5b612f1a8a828b01612d67565b91505092959891949750929550565b612f3281613894565b82525050565b612f41816138a6565b82525050565b6000612f5282613823565b612f5c8185613839565b9350612f6c818560208601613910565b80840191505092915050565b612f81816138ef565b82525050565b6000612f928261382e565b612f9c8185613844565b9350612fac818560208601613910565b612fb581613a7a565b840191505092915050565b6000612fcb8261382e565b612fd58185613855565b9350612fe5818560208601613910565b80840191505092915050565b60008154612ffe81613943565b6130088186613855565b94506001821660008114613023576001811461303457613067565b60ff19831686528186019350613067565b61303d8561380e565b60005b8381101561305f57815481890152600182019150602081019050613040565b838801955050505b50505092915050565b600061307d600483613855565b91507f45646765000000000000000000000000000000000000000000000000000000006000830152600482019050919050565b60006130bd601883613844565b91507f4e6f646520616c726561647920726567697374657265642100000000000000006000830152602082019050919050565b60006130fd600883613855565b91507f4163747561746f720000000000000000000000000000000000000000000000006000830152600882019050919050565b600061313d601983613844565b91507f496e76616c69642076616c696461746f722061646472657373000000000000006000830152602082019050919050565b600061317d600683613855565b91507f53656e736f7200000000000000000000000000000000000000000000000000006000830152600682019050919050565b60006131bd600183613855565b91507f2c000000000000000000000000000000000000000000000000000000000000006000830152600182019050919050565b60006131fd602083613844565b91507f496e76616c696420726567697374657265642d6279206e6f64652074797065216000830152602082019050919050565b600061323d600383613855565b91507f466f6700000000000000000000000000000000000000000000000000000000006000830152600382019050919050565b600061327d600583613855565b91507f436c6f75640000000000000000000000000000000000000000000000000000006000830152600582019050919050565b60006132bd601283613844565b91507f496e76616c6964206e6f646520747970652100000000000000000000000000006000830152602082019050919050565b60006132fd602383613844565b91507f4e6f6465206e6f7420666f756e64206f7220696e76616c6964207369676e617460008301527f75726500000000000000000000000000000000000000000000000000000000006020830152604082019050919050565b6000613363602f83613844565b91507f4e6f206d61746368696e67206e6f64652072656769737465726564207769746860008301527f2074686973207369676e617475726500000000000000000000000000000000006020830152604082019050919050565b60006133c88285612f47565b91506133d48284612fc0565b91508190509392505050565b60006133ec8284612f47565b91506133f7826131b0565b915081905092915050565b600061340e8284612fc0565b915081905092915050565b60006134258284612ff1565b915081905092915050565b600061343b82613070565b9150819050919050565b6000613450826130f0565b9150819050919050565b600061346582613170565b9150819050919050565b600061347a82613230565b9150819050919050565b600061348f82613270565b9150819050919050565b60006020820190506134ae6000830184612f38565b92915050565b600060208201905081810360008301526134ce8184612f87565b905092915050565b60006101208201905081810360008301526134f1818c612f87565b9050613500602083018b612f78565b8181036040830152613512818a612f87565b90506135216060830189612f38565b81810360808301526135338188612f87565b905081810360a08301526135478187612f87565b905061355660c0830186612f29565b61356360e0830185612f78565b8181036101008301526135768184612f87565b90509a9950505050505050505050565b60006101008201905081810360008301526135a1818b612f87565b90506135b0602083018a612f78565b81810360408301526135c28189612f87565b905081810360608301526135d68188612f87565b905081810360808301526135ea8187612f87565b90506135f960a0830186612f29565b61360660c0830185612f78565b81810360e08301526136188184612f87565b90509998505050505050505050565b6000610140820190508181036000830152613642818d612f87565b90508181036020830152613656818c612f87565b9050613665604083018b612f78565b8181036060830152613677818a612f87565b90506136866080830189612f38565b81810360a08301526136988188612f87565b905081810360c08301526136ac8187612f87565b90506136bb60e0830186612f29565b8181036101008301526136ce8185612f87565b90506136de610120830184612f78565b9b9a5050505050505050505050565b60006020820190508181036000830152613706816130b0565b9050919050565b6000602082019050818103600083015261372681613130565b9050919050565b60006020820190508181036000830152613746816131f0565b9050919050565b60006020820190508181036000830152613766816132b0565b9050919050565b60006020820190508181036000830152613786816132f0565b9050919050565b600060208201905081810360008301526137a681613356565b9050919050565b6000604051905081810181811067ffffffffffffffff821117156137d4576137d3613a4b565b5b8060405250919050565b600067ffffffffffffffff8211156137f9576137f8613a4b565b5b601f19601f8301169050602081019050919050565b60008190508160005260206000209050919050565b600081519050919050565b600081519050919050565b600081905092915050565b600082825260208201905092915050565b600081905092915050565b600061386b826138e5565b9150613876836138e5565b925082821015613889576138886139be565b5b828203905092915050565b600061389f826138c5565b9050919050565b60008115159050919050565b60008190506138c082613a8b565b919050565b600073ffffffffffffffffffffffffffffffffffffffff82169050919050565b6000819050919050565b60006138fa826138b2565b9050919050565b82818337600083830152505050565b60005b8381101561392e578082015181840152602081019050613913565b8381111561393d576000848401525b50505050565b6000600282049050600182168061395b57607f821691505b6020821081141561396f5761396e613a1c565b5b50919050565b6000613980826138e5565b91507fffffffffffffffffffffffffffffffffffffffffffffffffffffffffffffffff8214156139b3576139b26139be565b5b600182019050919050565b7f4e487b7100000000000000000000000000000000000000000000000000000000600052601160045260246000fd5b7f4e487b7100000000000000000000000000000000000000000000000000000000600052602160045260246000fd5b7f4e487b7100000000000000000000000000000000000000000000000000000000600052602260045260246000fd5b7f4e487b7100000000000000000000000000000000000000000000000000000000600052604160045260246000fd5b6000601f19601f8301169050919050565b60068110613a9c57613a9b6139ed565b5b50565b613aa881613894565b8114613ab357600080fd5b5056fea2646970667358221220ac5c20fefd1e2c4981c2318c9b141c2e8160f5bb61bf38d1cb0cc695012677c964736f6c63430008000033",
  "immutableReferences": {},
  "source": "// SPDX-License-Identifier: MIT\npragma solidity ^0.8.0;\n\ncontract NodeRegistry {\n    \n    enum NodeType { Unknown, Cloud, Fog, Edge, Sensor, Actuator } // Define possible node types\n\n    struct IoTNode {\n        string nodeName;\n        NodeType nodeType;\n        string publicKey;\n        bool isRegistered;\n        string senderCapabilityToken;\n        string receiverCapabilityToken;\n        address registeredBy;\n        NodeType registeredByNodeType;\n        string nodeSignature; \n    }\n\n    mapping(string => IoTNode) public iotNodes;\n    mapping(string => string) public nodeSignatureToNodeId;\n    mapping(address => string) public addressToNodeId;\n    \n    // Updated event: tokens are now a single string each.\n    event NodeRegistered(\n        string indexed nodeId,\n        string nodeName,\n        NodeType nodeType,\n        string publicKey,\n        string senderCapabilityToken,\n        string receiverCapabilityToken,\n        address registeredBy,\n        NodeType registeredByNodeType,\n        string nodeSignature\n    );\n\n    // Event to signal validator proposal for off-chain listeners\n    event ValidatorProposed(address indexed proposedBy, address indexed validator);\n\n    function proposeValidator(address validator) public {\n    require(validator != address(0), \"Invalid validator address\");\n    emit ValidatorProposed(msg.sender, validator);  \n    }\n\n    // Helper function to join an array of strings with commas.\n    function joinStringArray(string[] memory arr) internal pure returns (string memory) {\n        bytes memory result;\n        for (uint i = 0; i < arr.length; i++) {\n            result = abi.encodePacked(result, arr[i]);\n            if (i < arr.length - 1) {\n                result = abi.encodePacked(result, \",\");\n            }\n        }\n        return string(result);\n    }\n\n    function registerNode(\n        string memory nodeId,\n        string memory nodeName,\n        string memory nodeTypeStr,\n        string memory publicKey,\n        address registeredBy,\n        string memory registeredByNodeTypeStr,\n        string memory nodeSignature \n    ) public {\n        require(bytes(nodeSignatureToNodeId[nodeSignature]).length == 0, \"Node already registered!\");\n        nodeSignatureToNodeId[nodeSignature] = nodeId;\n        NodeType nodeType = getNodeType(nodeTypeStr);\n        NodeType regByNodeType = getNodeType(registeredByNodeTypeStr);\n        require(nodeType != NodeType.Unknown, \"Invalid node type!\");\n        require(regByNodeType != NodeType.Unknown, \"Invalid registered-by node type!\");\n\n        (string[] memory senderTokens, string[] memory receiverTokens) = generateToken(nodeType, regByNodeType);\n        string memory senderCapabilityToken = joinStringArray(senderTokens);\n        string memory receiverCapabilityToken = joinStringArray(receiverTokens);\n\n        iotNodes[nodeId] = IoTNode({\n            nodeName: nodeName,\n            nodeType: nodeType,\n            publicKey: publicKey,\n            isRegistered: true,\n            senderCapabilityToken: senderCapabilityToken,\n            receiverCapabilityToken: receiverCapabilityToken,\n            registeredBy: registeredBy,\n            registeredByNodeType: regByNodeType,\n            nodeSignature: nodeSignature\n        });\n\n        addressToNodeId[registeredBy] = nodeId;\n\n        emit NodeRegistered(\n            nodeId,\n            nodeName,\n            nodeType,\n            publicKey,\n            senderCapabilityToken,\n            receiverCapabilityToken,\n            registeredBy,\n            regByNodeType,\n            nodeSignature\n        );\n    }\n\n    function isNodeRegistered(string memory nodeSignature) public view returns (bool) {\n        string memory nodeId = nodeSignatureToNodeId[nodeSignature];\n        return (\n            iotNodes[nodeId].isRegistered &&\n            keccak256(abi.encodePacked(iotNodes[nodeId].nodeSignature)) == keccak256(abi.encodePacked(nodeSignature))\n        );\n    }\n\n    function getNodeDetailsBySignature(string memory nodeSignature)\n        public view returns (\n            string memory,\n            string memory,\n            NodeType,\n            string memory,\n            bool,\n            string memory,\n            string memory,\n            address,\n            string memory,\n            NodeType\n        )\n    {\n        string memory nodeId = nodeSignatureToNodeId[nodeSignature];\n        require(\n            iotNodes[nodeId].isRegistered &&\n            keccak256(abi.encodePacked(iotNodes[nodeId].nodeSignature)) == keccak256(abi.encodePacked(nodeSignature)),\n            \"No matching node registered with this signature\"\n        );\n\n        IoTNode memory node = iotNodes[nodeId];\n        return (\n            nodeId,\n            node.nodeName,\n            node.nodeType,\n            node.publicKey,\n            node.isRegistered,\n            node.senderCapabilityToken,\n            node.receiverCapabilityToken,\n            node.registeredBy,\n            node.nodeSignature,\n            node.registeredByNodeType\n        );\n    }\n\n    function getNodeType(string memory nodeTypeStr) internal pure returns (NodeType) {\n        bytes32 nodeTypeHash = keccak256(abi.encodePacked(nodeTypeStr));\n\n        if (nodeTypeHash == keccak256(abi.encodePacked(\"Cloud\"))) return NodeType.Cloud;\n        if (nodeTypeHash == keccak256(abi.encodePacked(\"Fog\"))) return NodeType.Fog;\n        if (nodeTypeHash == keccak256(abi.encodePacked(\"Edge\"))) return NodeType.Edge;\n        if (nodeTypeHash == keccak256(abi.encodePacked(\"Sensor\"))) return NodeType.Sensor;\n        if (nodeTypeHash == keccak256(abi.encodePacked(\"Actuator\"))) return NodeType.Actuator;\n\n        return NodeType.Unknown; // Invalid type\n    }\n\n    function isValidator(string memory nodeSignature) public view returns (bool) {\n        string memory nodeId = nodeSignatureToNodeId[nodeSignature];\n        require(\n            iotNodes[nodeId].isRegistered &&\n            keccak256(abi.encodePacked(iotNodes[nodeId].nodeSignature)) == keccak256(abi.encodePacked(nodeSignature)),\n            \"Node not found or invalid signature\"\n        );\n\n        NodeType nodeType = iotNodes[nodeId].nodeType;\n\n        if (nodeType == NodeType.Cloud || nodeType == NodeType.Fog) {\n            return true;\n        }\n\n        return false;\n    }\n\n    // Updated generateToken: returns arrays of strings.\n    function generateToken(NodeType nodeType, NodeType registeredByNodeType) \n        internal pure returns (string[] memory, string[] memory) \n    {\n        string[] memory nodeTypePermissions;\n        string[] memory registeredByNodeTypePermissions;\n        \n        if (nodeType == NodeType.Fog && registeredByNodeType == NodeType.Cloud) {\n            nodeTypePermissions = new string[](3);\n            nodeTypePermissions[0] = \"Fog:READ\";\n            nodeTypePermissions[1] = \"Fog:WRITE\";\n            nodeTypePermissions[2] = \"Fog:TRANSMIT\";\n            \n            registeredByNodeTypePermissions = new string[](2);\n            registeredByNodeTypePermissions[0] = \"Cloud:READ\";\n            registeredByNodeTypePermissions[1] = \"Cloud:EXECUTE\";\n        } else if (nodeType == NodeType.Edge && registeredByNodeType == NodeType.Fog) {\n            nodeTypePermissions = new string[](3);\n            nodeTypePermissions[0] = \"Edge:READ\";\n            nodeTypePermissions[1] = \"Edge:WRITE\";\n            nodeTypePermissions[2] = \"Edge:TRANSMIT\";\n            \n            registeredByNodeTypePermissions = new string[](2);\n            registeredByNodeTypePermissions[0] = \"Fog:READ\";\n            registeredByNodeTypePermissions[1] = \"Fog:EXECUTE\";\n        } else if (nodeType == NodeType.Sensor && registeredByNodeType == NodeType.Edge) {\n            nodeTypePermissions = new string[](2);\n            nodeTypePermissions[0] = \"Sensor:READ\";\n            nodeTypePermissions[1] = \"Sensor:TRANSMIT\";\n            \n            registeredByNodeTypePermissions = new string[](2);\n            registeredByNodeTypePermissions[0] = \"Edge:READ\";\n            registeredByNodeTypePermissions[1] = \"Edge:EXECUTE\";\n        } else if (nodeType == NodeType.Actuator && registeredByNodeType == NodeType.Edge) {\n            nodeTypePermissions = new string[](3);\n            nodeTypePermissions[0] = \"Actuator:READ\";\n            nodeTypePermissions[1] = \"Actuator:WRITE\";\n            nodeTypePermissions[2] = \"Actuator:EXECUTE\";\n            \n            registeredByNodeTypePermissions = new string[](2);\n            registeredByNodeTypePermissions[0] = \"Edge:READ\";\n            registeredByNodeTypePermissions[1] = \"Edge:EXECUTE\";\n        } else {\n            nodeTypePermissions = new string[](1);\n            nodeTypePermissions[0] = \"INVALID_TOKEN\";\n            registeredByNodeTypePermissions = new string[](1);\n            registeredByNodeTypePermissions[0] = \"INVALID_TOKEN\";\n        }\n\n        return (nodeTypePermissions, registeredByNodeTypePermissions);\n    }\n}",
  "sourcePath": "/Users/khannmohsin/VSCode_Projects/MyDisIoT_Project/smart_contract_deployment/contracts/NodeRegistry.sol",
  "compiler": {
    "name": "solc",
    "version": "0.8.0+commit.c7dfd78e.Emscripten.clang"
  },
  "schemaVersion": "3.4.16",
  "updatedAt": "2025-04-10T12:01:55.864Z",
  "networkType": "ethereum",
  "devdoc": {
    "kind": "dev",
    "methods": {},
    "version": 1
  },
  "userdoc": {
    "kind": "user",
    "methods": {},
    "version": 1
  }
}