{
  "contractName": "NodeRegistry",
  "abi": [
    {
      "anonymous": false,
      "inputs": [
        {
          "indexed": true,
          "internalType": "string",
          "name": "nodeId",
          "type": "string"
        },
        {
          "indexed": false,
          "internalType": "string",
          "name": "nodeName",
          "type": "string"
        },
        {
          "indexed": false,
          "internalType": "enum NodeRegistry.NodeType",
          "name": "nodeType",
          "type": "uint8"
        },
        {
          "indexed": false,
          "internalType": "string",
          "name": "publicKey",
          "type": "string"
        },
        {
          "indexed": false,
          "internalType": "string",
          "name": "senderCapabilityToken",
          "type": "string"
        },
        {
          "indexed": false,
          "internalType": "string",
          "name": "receiverCapabilityToken",
          "type": "string"
        },
        {
          "indexed": false,
          "internalType": "address",
          "name": "registeredBy",
          "type": "address"
        },
        {
          "indexed": false,
          "internalType": "enum NodeRegistry.NodeType",
          "name": "registeredByNodeType",
          "type": "uint8"
        },
        {
          "indexed": false,
          "internalType": "string",
          "name": "nodeSignature",
          "type": "string"
        }
      ],
      "name": "NodeRegistered",
      "type": "event"
    },
    {
      "inputs": [
        {
          "internalType": "address",
          "name": "",
          "type": "address"
        }
      ],
      "name": "addressToNodeId",
      "outputs": [
        {
          "internalType": "string",
          "name": "",
          "type": "string"
        }
      ],
      "stateMutability": "view",
      "type": "function",
      "constant": true
    },
    {
      "inputs": [
        {
          "internalType": "string",
          "name": "",
          "type": "string"
        }
      ],
      "name": "iotNodes",
      "outputs": [
        {
          "internalType": "string",
          "name": "nodeName",
          "type": "string"
        },
        {
          "internalType": "enum NodeRegistry.NodeType",
          "name": "nodeType",
          "type": "uint8"
        },
        {
          "internalType": "string",
          "name": "publicKey",
          "type": "string"
        },
        {
          "internalType": "bool",
          "name": "isRegistered",
          "type": "bool"
        },
        {
          "internalType": "string",
          "name": "senderCapabilityToken",
          "type": "string"
        },
        {
          "internalType": "string",
          "name": "receiverCapabilityToken",
          "type": "string"
        },
        {
          "internalType": "address",
          "name": "registeredBy",
          "type": "address"
        },
        {
          "internalType": "enum NodeRegistry.NodeType",
          "name": "registeredByNodeType",
          "type": "uint8"
        },
        {
          "internalType": "string",
          "name": "nodeSignature",
          "type": "string"
        }
      ],
      "stateMutability": "view",
      "type": "function",
      "constant": true
    },
    {
      "inputs": [
        {
          "internalType": "string",
          "name": "",
          "type": "string"
        }
      ],
      "name": "nodeSignatureToNodeId",
      "outputs": [
        {
          "internalType": "string",
          "name": "",
          "type": "string"
        }
      ],
      "stateMutability": "view",
      "type": "function",
      "constant": true
    },
    {
      "inputs": [
        {
          "internalType": "string",
          "name": "nodeId",
          "type": "string"
        },
        {
          "internalType": "string",
          "name": "nodeName",
          "type": "string"
        },
        {
          "internalType": "string",
          "name": "nodeTypeStr",
          "type": "string"
        },
        {
          "internalType": "string",
          "name": "publicKey",
          "type": "string"
        },
        {
          "internalType": "address",
          "name": "registeredBy",
          "type": "address"
        },
        {
          "internalType": "string",
          "name": "registeredByNodeTypeStr",
          "type": "string"
        },
        {
          "internalType": "string",
          "name": "nodeSignature",
          "type": "string"
        }
      ],
      "name": "registerNode",
      "outputs": [],
      "stateMutability": "nonpayable",
      "type": "function"
    },
    {
      "inputs": [
        {
          "internalType": "string",
          "name": "nodeSignature",
          "type": "string"
        }
      ],
      "name": "isNodeRegistered",
      "outputs": [
        {
          "internalType": "bool",
          "name": "",
          "type": "bool"
        }
      ],
      "stateMutability": "view",
      "type": "function",
      "constant": true
    },
    {
      "inputs": [
        {
          "internalType": "string",
          "name": "nodeSignature",
          "type": "string"
        }
      ],
      "name": "getNodeDetailsBySignature",
      "outputs": [
        {
          "internalType": "string",
          "name": "",
          "type": "string"
        },
        {
          "internalType": "string",
          "name": "",
          "type": "string"
        },
        {
          "internalType": "enum NodeRegistry.NodeType",
          "name": "",
          "type": "uint8"
        },
        {
          "internalType": "string",
          "name": "",
          "type": "string"
        },
        {
          "internalType": "bool",
          "name": "",
          "type": "bool"
        },
        {
          "internalType": "string",
          "name": "",
          "type": "string"
        },
        {
          "internalType": "string",
          "name": "",
          "type": "string"
        },
        {
          "internalType": "address",
          "name": "",
          "type": "address"
        },
        {
          "internalType": "string",
          "name": "",
          "type": "string"
        },
        {
          "internalType": "enum NodeRegistry.NodeType",
          "name": "",
          "type": "uint8"
        }
      ],
      "stateMutability": "view",
      "type": "function",
      "constant": true
    },
    {
      "inputs": [
        {
          "internalType": "string",
          "name": "nodeSignature",
          "type": "string"
        }
      ],
      "name": "isValidator",
      "outputs": [
        {
          "internalType": "bool",
          "name": "",
          "type": "bool"
        }
      ],
      "stateMutability": "view",
      "type": "function",
      "constant": true
    }
  ],
  "bytecode": "0x608060405234801561001057600080fd5b50613998806100206000396000f3fe608060405234801561001057600080fd5b506004361061007d5760003560e01c8063e5e1eeea1161005b578063e5e1eeea146100fe578063ef36d16a1461012e578063f934df911461015e578063f991dde4146101975761007d565b806325d80f9514610082578063430ae633146100b25780639e6eb795146100e2575b600080fd5b61009c60048036038101906100979190612cc6565b6101cf565b6040516100a99190613365565b60405180910390f35b6100cc60048036038101906100c79190612cc6565b610329565b6040516100d99190613365565b60405180910390f35b6100fc60048036038101906100f79190612d07565b6105f7565b005b61011860048036038101906101139190612cc6565b610b91565b6040516101259190613380565b60405180910390f35b61014860048036038101906101439190612c9d565b610c47565b6040516101559190613380565b60405180910390f35b61017860048036038101906101739190612cc6565b610ce7565b60405161018e9a999897969594939291906134f3565b60405180910390f35b6101b160048036038101906101ac9190612cc6565b611360565b6040516101c6999897969594939291906133a2565b60405180910390f35b6000806001836040516101e291906132ce565b908152602001604051809103902080546101fb906137ef565b80601f0160208091040260200160405190810160405280929190818152602001828054610227906137ef565b80156102745780601f1061024957610100808354040283529160200191610274565b820191906000526020600020905b81548152906001019060200180831161025757829003601f168201915b5050505050905060008160405161028b91906132ce565b908152602001604051809103902060030160009054906101000a900460ff1680156103215750826040516020016102c291906132ce565b604051602081830303815290604052805190602001206000826040516102e891906132ce565b908152602001604051809103902060070160405160200161030991906132e5565b60405160208183030381529060405280519060200120145b915050919050565b60008060018360405161033c91906132ce565b90815260200160405180910390208054610355906137ef565b80601f0160208091040260200160405190810160405280929190818152602001828054610381906137ef565b80156103ce5780601f106103a3576101008083540402835291602001916103ce565b820191906000526020600020905b8154815290600101906020018083116103b157829003601f168201915b505050505090506000816040516103e591906132ce565b908152602001604051809103902060030160009054906101000a900460ff16801561047b57508260405160200161041c91906132ce565b6040516020818303038152906040528051906020012060008260405161044291906132ce565b908152602001604051809103902060070160405160200161046391906132e5565b60405160208183030381529060405280519060200120145b6104ba576040517f08c379a00000000000000000000000000000000000000000000000000000000081526004016104b190613619565b60405180910390fd5b600080826040516104cb91906132ce565b908152602001604051809103902060010160009054906101000a900460ff16905060016005811115610526577f4e487b7100000000000000000000000000000000000000000000000000000000600052602160045260246000fd5b81600581111561055f577f4e487b7100000000000000000000000000000000000000000000000000000000600052602160045260246000fd5b14806105db5750600260058111156105a0577f4e487b7100000000000000000000000000000000000000000000000000000000600052602160045260246000fd5b8160058111156105d9577f4e487b7100000000000000000000000000000000000000000000000000000000600052602160045260246000fd5b145b156105eb576001925050506105f2565b6000925050505b919050565b600060018260405161060991906132ce565b90815260200160405180910390208054610622906137ef565b905014610664576040517f08c379a000000000000000000000000000000000000000000000000000000000815260040161065b906135b9565b60405180910390fd5b8660018260405161067591906132ce565b90815260200160405180910390209080519060200190610696929190612b7d565b5060006106a2866116b3565b905060006106af846116b3565b9050600060058111156106eb577f4e487b7100000000000000000000000000000000000000000000000000000000600052602160045260246000fd5b826005811115610724577f4e487b7100000000000000000000000000000000000000000000000000000000600052602160045260246000fd5b1415610765576040517f08c379a000000000000000000000000000000000000000000000000000000000815260040161075c906135f9565b60405180910390fd5b6000600581111561079f577f4e487b7100000000000000000000000000000000000000000000000000000000600052602160045260246000fd5b8160058111156107d8577f4e487b7100000000000000000000000000000000000000000000000000000000600052602160045260246000fd5b1415610819576040517f08c379a0000000000000000000000000000000000000000000000000000000008152600401610810906135d9565b60405180910390fd5b60008061082684846117f8565b91509150600061083583612ab5565b9050600061084283612ab5565b90506040518061012001604052808d815260200187600581111561088f577f4e487b7100000000000000000000000000000000000000000000000000000000600052602160045260246000fd5b81526020018b81526020016001151581526020018381526020018281526020018a73ffffffffffffffffffffffffffffffffffffffff168152602001866005811115610904577f4e487b7100000000000000000000000000000000000000000000000000000000600052602160045260246000fd5b81526020018881525060008e60405161091d91906132ce565b90815260200160405180910390206000820151816000019080519060200190610947929190612b7d565b5060208201518160010160006101000a81548160ff02191690836005811115610999577f4e487b7100000000000000000000000000000000000000000000000000000000600052602160045260246000fd5b021790555060408201518160020190805190602001906109ba929190612b7d565b5060608201518160030160006101000a81548160ff02191690831515021790555060808201518160040190805190602001906109f7929190612b7d565b5060a0820151816005019080519060200190610a14929190612b7d565b5060c08201518160060160006101000a81548173ffffffffffffffffffffffffffffffffffffffff021916908373ffffffffffffffffffffffffffffffffffffffff16021790555060e08201518160060160146101000a81548160ff02191690836005811115610aad577f4e487b7100000000000000000000000000000000000000000000000000000000600052602160045260246000fd5b0217905550610100820151816007019080519060200190610acf929190612b7d565b509050508c600260008b73ffffffffffffffffffffffffffffffffffffffff1673ffffffffffffffffffffffffffffffffffffffff1681526020019081526020016000209080519060200190610b26929190612b7d565b508c604051610b3591906132ce565b60405180910390207f12a9f0891653cbf5018a09249dfa46087cccb9b0765c686678c4c3f641bd5a138d888d86868f8c8f604051610b7a989796959493929190613452565b60405180910390a250505050505050505050505050565b6001818051602081018201805184825260208301602085012081835280955050505050506000915090508054610bc6906137ef565b80601f0160208091040260200160405190810160405280929190818152602001828054610bf2906137ef565b8015610c3f5780601f10610c1457610100808354040283529160200191610c3f565b820191906000526020600020905b815481529060010190602001808311610c2257829003601f168201915b505050505081565b60026020528060005260406000206000915090508054610c66906137ef565b80601f0160208091040260200160405190810160405280929190818152602001828054610c92906137ef565b8015610cdf5780601f10610cb457610100808354040283529160200191610cdf565b820191906000526020600020905b815481529060010190602001808311610cc257829003601f168201915b505050505081565b6060806000606060006060806000606060008060018c604051610d0a91906132ce565b90815260200160405180910390208054610d23906137ef565b80601f0160208091040260200160405190810160405280929190818152602001828054610d4f906137ef565b8015610d9c5780601f10610d7157610100808354040283529160200191610d9c565b820191906000526020600020905b815481529060010190602001808311610d7f57829003601f168201915b50505050509050600081604051610db391906132ce565b908152602001604051809103902060030160009054906101000a900460ff168015610e4957508b604051602001610dea91906132ce565b60405160208183030381529060405280519060200120600082604051610e1091906132ce565b9081526020016040518091039020600701604051602001610e3191906132e5565b60405160208183030381529060405280519060200120145b610e88576040517f08c379a0000000000000000000000000000000000000000000000000000000008152600401610e7f90613639565b60405180910390fd5b60008082604051610e9991906132ce565b908152602001604051809103902060405180610120016040529081600082018054610ec3906137ef565b80601f0160208091040260200160405190810160405280929190818152602001828054610eef906137ef565b8015610f3c5780601f10610f1157610100808354040283529160200191610f3c565b820191906000526020600020905b815481529060010190602001808311610f1f57829003601f168201915b505050505081526020016001820160009054906101000a900460ff166005811115610f90577f4e487b7100000000000000000000000000000000000000000000000000000000600052602160045260246000fd5b6005811115610fc8577f4e487b7100000000000000000000000000000000000000000000000000000000600052602160045260246000fd5b8152602001600282018054610fdc906137ef565b80601f0160208091040260200160405190810160405280929190818152602001828054611008906137ef565b80156110555780601f1061102a57610100808354040283529160200191611055565b820191906000526020600020905b81548152906001019060200180831161103857829003601f168201915b505050505081526020016003820160009054906101000a900460ff16151515158152602001600482018054611089906137ef565b80601f01602080910402602001604051908101604052809291908181526020018280546110b5906137ef565b80156111025780601f106110d757610100808354040283529160200191611102565b820191906000526020600020905b8154815290600101906020018083116110e557829003601f168201915b5050505050815260200160058201805461111b906137ef565b80601f0160208091040260200160405190810160405280929190818152602001828054611147906137ef565b80156111945780601f1061116957610100808354040283529160200191611194565b820191906000526020600020905b81548152906001019060200180831161117757829003601f168201915b505050505081526020016006820160009054906101000a900473ffffffffffffffffffffffffffffffffffffffff1673ffffffffffffffffffffffffffffffffffffffff1673ffffffffffffffffffffffffffffffffffffffff1681526020016006820160149054906101000a900460ff16600581111561123e577f4e487b7100000000000000000000000000000000000000000000000000000000600052602160045260246000fd5b6005811115611276577f4e487b7100000000000000000000000000000000000000000000000000000000600052602160045260246000fd5b815260200160078201805461128a906137ef565b80601f01602080910402602001604051908101604052809291908181526020018280546112b6906137ef565b80156113035780601f106112d857610100808354040283529160200191611303565b820191906000526020600020905b8154815290600101906020018083116112e657829003601f168201915b505050505081525050905081816000015182602001518360400151846060015185608001518660a001518760c001518861010001518960e001519b509b509b509b509b509b509b509b509b509b5050509193959799509193959799565b600081805160208101820180518482526020830160208501208183528095505050505050600091509050806000018054611399906137ef565b80601f01602080910402602001604051908101604052809291908181526020018280546113c5906137ef565b80156114125780601f106113e757610100808354040283529160200191611412565b820191906000526020600020905b8154815290600101906020018083116113f557829003601f168201915b5050505050908060010160009054906101000a900460ff169080600201805461143a906137ef565b80601f0160208091040260200160405190810160405280929190818152602001828054611466906137ef565b80156114b35780601f10611488576101008083540402835291602001916114b3565b820191906000526020600020905b81548152906001019060200180831161149657829003601f168201915b5050505050908060030160009054906101000a900460ff16908060040180546114db906137ef565b80601f0160208091040260200160405190810160405280929190818152602001828054611507906137ef565b80156115545780601f1061152957610100808354040283529160200191611554565b820191906000526020600020905b81548152906001019060200180831161153757829003601f168201915b505050505090806005018054611569906137ef565b80601f0160208091040260200160405190810160405280929190818152602001828054611595906137ef565b80156115e25780601f106115b7576101008083540402835291602001916115e2565b820191906000526020600020905b8154815290600101906020018083116115c557829003601f168201915b5050505050908060060160009054906101000a900473ffffffffffffffffffffffffffffffffffffffff16908060060160149054906101000a900460ff1690806007018054611630906137ef565b80601f016020809104026020016040519081016040528092919081815260200182805461165c906137ef565b80156116a95780601f1061167e576101008083540402835291602001916116a9565b820191906000526020600020905b81548152906001019060200180831161168c57829003601f168201915b5050505050905089565b600080826040516020016116c791906132ce565b6040516020818303038152906040528051906020012090506040516020016116ee90613350565b604051602081830303815290604052805190602001208114156117155760019150506117f3565b6040516020016117249061333b565b6040516020818303038152906040528051906020012081141561174b5760029150506117f3565b60405160200161175a906132fc565b604051602081830303815290604052805190602001208114156117815760039150506117f3565b60405160200161179090613326565b604051602081830303815290604052805190602001208114156117b75760049150506117f3565b6040516020016117c690613311565b604051602081830303815290604052805190602001208114156117ed5760059150506117f3565b60009150505b919050565b60608060608060026005811115611838577f4e487b7100000000000000000000000000000000000000000000000000000000600052602160045260246000fd5b866005811115611871577f4e487b7100000000000000000000000000000000000000000000000000000000600052602160045260246000fd5b1480156118ee5750600160058111156118b3577f4e487b7100000000000000000000000000000000000000000000000000000000600052602160045260246000fd5b8560058111156118ec577f4e487b7100000000000000000000000000000000000000000000000000000000600052602160045260246000fd5b145b15611c4d57600367ffffffffffffffff811115611934577f4e487b7100000000000000000000000000000000000000000000000000000000600052604160045260246000fd5b60405190808252806020026020018201604052801561196757816020015b60608152602001906001900390816119525790505b5091506040518060400160405280600881526020017f466f673a52454144000000000000000000000000000000000000000000000000815250826000815181106119da577f4e487b7100000000000000000000000000000000000000000000000000000000600052603260045260246000fd5b60200260200101819052506040518060400160405280600981526020017f466f673a5752495445000000000000000000000000000000000000000000000081525082600181518110611a55577f4e487b7100000000000000000000000000000000000000000000000000000000600052603260045260246000fd5b60200260200101819052506040518060400160405280600c81526020017f466f673a5452414e534d4954000000000000000000000000000000000000000081525082600281518110611ad0577f4e487b7100000000000000000000000000000000000000000000000000000000600052603260045260246000fd5b6020026020010181905250600267ffffffffffffffff811115611b1c577f4e487b7100000000000000000000000000000000000000000000000000000000600052604160045260246000fd5b604051908082528060200260200182016040528015611b4f57816020015b6060815260200190600190039081611b3a5790505b5090506040518060400160405280600a81526020017f436c6f75643a524541440000000000000000000000000000000000000000000081525081600081518110611bc2577f4e487b7100000000000000000000000000000000000000000000000000000000600052603260045260246000fd5b60200260200101819052506040518060400160405280600d81526020017f436c6f75643a455845435554450000000000000000000000000000000000000081525081600181518110611c3d577f4e487b7100000000000000000000000000000000000000000000000000000000600052603260045260246000fd5b6020026020010181905250612aa6565b60036005811115611c87577f4e487b7100000000000000000000000000000000000000000000000000000000600052602160045260246000fd5b866005811115611cc0577f4e487b7100000000000000000000000000000000000000000000000000000000600052602160045260246000fd5b148015611d3d575060026005811115611d02577f4e487b7100000000000000000000000000000000000000000000000000000000600052602160045260246000fd5b856005811115611d3b577f4e487b7100000000000000000000000000000000000000000000000000000000600052602160045260246000fd5b145b1561209c57600367ffffffffffffffff811115611d83577f4e487b7100000000000000000000000000000000000000000000000000000000600052604160045260246000fd5b604051908082528060200260200182016040528015611db657816020015b6060815260200190600190039081611da15790505b5091506040518060400160405280600981526020017f456467653a52454144000000000000000000000000000000000000000000000081525082600081518110611e29577f4e487b7100000000000000000000000000000000000000000000000000000000600052603260045260246000fd5b60200260200101819052506040518060400160405280600a81526020017f456467653a57524954450000000000000000000000000000000000000000000081525082600181518110611ea4577f4e487b7100000000000000000000000000000000000000000000000000000000600052603260045260246000fd5b60200260200101819052506040518060400160405280600d81526020017f456467653a5452414e534d49540000000000000000000000000000000000000081525082600281518110611f1f577f4e487b7100000000000000000000000000000000000000000000000000000000600052603260045260246000fd5b6020026020010181905250600267ffffffffffffffff811115611f6b577f4e487b7100000000000000000000000000000000000000000000000000000000600052604160045260246000fd5b604051908082528060200260200182016040528015611f9e57816020015b6060815260200190600190039081611f895790505b5090506040518060400160405280600881526020017f466f673a5245414400000000000000000000000000000000000000000000000081525081600081518110612011577f4e487b7100000000000000000000000000000000000000000000000000000000600052603260045260246000fd5b60200260200101819052506040518060400160405280600b81526020017f466f673a455845435554450000000000000000000000000000000000000000008152508160018151811061208c577f4e487b7100000000000000000000000000000000000000000000000000000000600052603260045260246000fd5b6020026020010181905250612aa5565b600460058111156120d6577f4e487b7100000000000000000000000000000000000000000000000000000000600052602160045260246000fd5b86600581111561210f577f4e487b7100000000000000000000000000000000000000000000000000000000600052602160045260246000fd5b14801561218c575060036005811115612151577f4e487b7100000000000000000000000000000000000000000000000000000000600052602160045260246000fd5b85600581111561218a577f4e487b7100000000000000000000000000000000000000000000000000000000600052602160045260246000fd5b145b1561247057600267ffffffffffffffff8111156121d2577f4e487b7100000000000000000000000000000000000000000000000000000000600052604160045260246000fd5b60405190808252806020026020018201604052801561220557816020015b60608152602001906001900390816121f05790505b5091506040518060400160405280600b81526020017f53656e736f723a5245414400000000000000000000000000000000000000000081525082600081518110612278577f4e487b7100000000000000000000000000000000000000000000000000000000600052603260045260246000fd5b60200260200101819052506040518060400160405280600f81526020017f53656e736f723a5452414e534d49540000000000000000000000000000000000815250826001815181106122f3577f4e487b7100000000000000000000000000000000000000000000000000000000600052603260045260246000fd5b6020026020010181905250600267ffffffffffffffff81111561233f577f4e487b7100000000000000000000000000000000000000000000000000000000600052604160045260246000fd5b60405190808252806020026020018201604052801561237257816020015b606081526020019060019003908161235d5790505b5090506040518060400160405280600981526020017f456467653a524541440000000000000000000000000000000000000000000000815250816000815181106123e5577f4e487b7100000000000000000000000000000000000000000000000000000000600052603260045260246000fd5b60200260200101819052506040518060400160405280600c81526020017f456467653a45584543555445000000000000000000000000000000000000000081525081600181518110612460577f4e487b7100000000000000000000000000000000000000000000000000000000600052603260045260246000fd5b6020026020010181905250612aa4565b6005808111156124a9577f4e487b7100000000000000000000000000000000000000000000000000000000600052602160045260246000fd5b8660058111156124e2577f4e487b7100000000000000000000000000000000000000000000000000000000600052602160045260246000fd5b14801561255f575060036005811115612524577f4e487b7100000000000000000000000000000000000000000000000000000000600052602160045260246000fd5b85600581111561255d577f4e487b7100000000000000000000000000000000000000000000000000000000600052602160045260246000fd5b145b156128be57600367ffffffffffffffff8111156125a5577f4e487b7100000000000000000000000000000000000000000000000000000000600052604160045260246000fd5b6040519080825280602002602001820160405280156125d857816020015b60608152602001906001900390816125c35790505b5091506040518060400160405280600d81526020017f4163747561746f723a52454144000000000000000000000000000000000000008152508260008151811061264b577f4e487b7100000000000000000000000000000000000000000000000000000000600052603260045260246000fd5b60200260200101819052506040518060400160405280600e81526020017f4163747561746f723a5752495445000000000000000000000000000000000000815250826001815181106126c6577f4e487b7100000000000000000000000000000000000000000000000000000000600052603260045260246000fd5b60200260200101819052506040518060400160405280601081526020017f4163747561746f723a455845435554450000000000000000000000000000000081525082600281518110612741577f4e487b7100000000000000000000000000000000000000000000000000000000600052603260045260246000fd5b6020026020010181905250600267ffffffffffffffff81111561278d577f4e487b7100000000000000000000000000000000000000000000000000000000600052604160045260246000fd5b6040519080825280602002602001820160405280156127c057816020015b60608152602001906001900390816127ab5790505b5090506040518060400160405280600981526020017f456467653a52454144000000000000000000000000000000000000000000000081525081600081518110612833577f4e487b7100000000000000000000000000000000000000000000000000000000600052603260045260246000fd5b60200260200101819052506040518060400160405280600c81526020017f456467653a455845435554450000000000000000000000000000000000000000815250816001815181106128ae577f4e487b7100000000000000000000000000000000000000000000000000000000600052603260045260246000fd5b6020026020010181905250612aa3565b600167ffffffffffffffff8111156128ff577f4e487b7100000000000000000000000000000000000000000000000000000000600052604160045260246000fd5b60405190808252806020026020018201604052801561293257816020015b606081526020019060019003908161291d5790505b5091506040518060400160405280600d81526020017f494e56414c49445f544f4b454e00000000000000000000000000000000000000815250826000815181106129a5577f4e487b7100000000000000000000000000000000000000000000000000000000600052603260045260246000fd5b6020026020010181905250600167ffffffffffffffff8111156129f1577f4e487b7100000000000000000000000000000000000000000000000000000000600052604160045260246000fd5b604051908082528060200260200182016040528015612a2457816020015b6060815260200190600190039081612a0f5790505b5090506040518060400160405280600d81526020017f494e56414c49445f544f4b454e0000000000000000000000000000000000000081525081600081518110612a97577f4e487b7100000000000000000000000000000000000000000000000000000000600052603260045260246000fd5b60200260200101819052505b5b5b5b81819350935050509250929050565b60608060005b8351811015612b735781848281518110612afe577f4e487b7100000000000000000000000000000000000000000000000000000000600052603260045260246000fd5b6020026020010151604051602001612b17929190613288565b604051602081830303815290604052915060018451612b36919061370c565b811015612b605781604051602001612b4e91906132ac565b60405160208183030381529060405291505b8080612b6b90613821565b915050612abb565b5080915050919050565b828054612b89906137ef565b90600052602060002090601f016020900481019282612bab5760008555612bf2565b82601f10612bc457805160ff1916838001178555612bf2565b82800160010185558215612bf2579182015b82811115612bf1578251825591602001919060010190612bd6565b5b509050612bff9190612c03565b5090565b5b80821115612c1c576000816000905550600101612c04565b5090565b6000612c33612c2e8461368a565b613659565b905082815260208101848484011115612c4b57600080fd5b612c568482856137ad565b509392505050565b600081359050612c6d8161394b565b92915050565b600082601f830112612c8457600080fd5b8135612c94848260208601612c20565b91505092915050565b600060208284031215612caf57600080fd5b6000612cbd84828501612c5e565b91505092915050565b600060208284031215612cd857600080fd5b600082013567ffffffffffffffff811115612cf257600080fd5b612cfe84828501612c73565b91505092915050565b600080600080600080600060e0888a031215612d2257600080fd5b600088013567ffffffffffffffff811115612d3c57600080fd5b612d488a828b01612c73565b975050602088013567ffffffffffffffff811115612d6557600080fd5b612d718a828b01612c73565b965050604088013567ffffffffffffffff811115612d8e57600080fd5b612d9a8a828b01612c73565b955050606088013567ffffffffffffffff811115612db757600080fd5b612dc38a828b01612c73565b9450506080612dd48a828b01612c5e565b93505060a088013567ffffffffffffffff811115612df157600080fd5b612dfd8a828b01612c73565b92505060c088013567ffffffffffffffff811115612e1a57600080fd5b612e268a828b01612c73565b91505092959891949750929550565b612e3e81613740565b82525050565b612e4d81613752565b82525050565b6000612e5e826136cf565b612e6881856136e5565b9350612e788185602086016137bc565b80840191505092915050565b612e8d8161379b565b82525050565b6000612e9e826136da565b612ea881856136f0565b9350612eb88185602086016137bc565b612ec181613926565b840191505092915050565b6000612ed7826136da565b612ee18185613701565b9350612ef18185602086016137bc565b80840191505092915050565b60008154612f0a816137ef565b612f148186613701565b94506001821660008114612f2f5760018114612f4057612f73565b60ff19831686528186019350612f73565b612f49856136ba565b60005b83811015612f6b57815481890152600182019150602081019050612f4c565b838801955050505b50505092915050565b6000612f89600483613701565b91507f45646765000000000000000000000000000000000000000000000000000000006000830152600482019050919050565b6000612fc96018836136f0565b91507f4e6f646520616c726561647920726567697374657265642100000000000000006000830152602082019050919050565b6000613009600883613701565b91507f4163747561746f720000000000000000000000000000000000000000000000006000830152600882019050919050565b6000613049600683613701565b91507f53656e736f7200000000000000000000000000000000000000000000000000006000830152600682019050919050565b6000613089600183613701565b91507f2c000000000000000000000000000000000000000000000000000000000000006000830152600182019050919050565b60006130c96020836136f0565b91507f496e76616c696420726567697374657265642d6279206e6f64652074797065216000830152602082019050919050565b6000613109600383613701565b91507f466f6700000000000000000000000000000000000000000000000000000000006000830152600382019050919050565b6000613149600583613701565b91507f436c6f75640000000000000000000000000000000000000000000000000000006000830152600582019050919050565b60006131896012836136f0565b91507f496e76616c6964206e6f646520747970652100000000000000000000000000006000830152602082019050919050565b60006131c96023836136f0565b91507f4e6f6465206e6f7420666f756e64206f7220696e76616c6964207369676e617460008301527f75726500000000000000000000000000000000000000000000000000000000006020830152604082019050919050565b600061322f602f836136f0565b91507f4e6f206d61746368696e67206e6f64652072656769737465726564207769746860008301527f2074686973207369676e617475726500000000000000000000000000000000006020830152604082019050919050565b60006132948285612e53565b91506132a08284612ecc565b91508190509392505050565b60006132b88284612e53565b91506132c38261307c565b915081905092915050565b60006132da8284612ecc565b915081905092915050565b60006132f18284612efd565b915081905092915050565b600061330782612f7c565b9150819050919050565b600061331c82612ffc565b9150819050919050565b60006133318261303c565b9150819050919050565b6000613346826130fc565b9150819050919050565b600061335b8261313c565b9150819050919050565b600060208201905061337a6000830184612e44565b92915050565b6000602082019050818103600083015261339a8184612e93565b905092915050565b60006101208201905081810360008301526133bd818c612e93565b90506133cc602083018b612e84565b81810360408301526133de818a612e93565b90506133ed6060830189612e44565b81810360808301526133ff8188612e93565b905081810360a08301526134138187612e93565b905061342260c0830186612e35565b61342f60e0830185612e84565b8181036101008301526134428184612e93565b90509a9950505050505050505050565b600061010082019050818103600083015261346d818b612e93565b905061347c602083018a612e84565b818103604083015261348e8189612e93565b905081810360608301526134a28188612e93565b905081810360808301526134b68187612e93565b90506134c560a0830186612e35565b6134d260c0830185612e84565b81810360e08301526134e48184612e93565b90509998505050505050505050565b600061014082019050818103600083015261350e818d612e93565b90508181036020830152613522818c612e93565b9050613531604083018b612e84565b8181036060830152613543818a612e93565b90506135526080830189612e44565b81810360a08301526135648188612e93565b905081810360c08301526135788187612e93565b905061358760e0830186612e35565b81810361010083015261359a8185612e93565b90506135aa610120830184612e84565b9b9a5050505050505050505050565b600060208201905081810360008301526135d281612fbc565b9050919050565b600060208201905081810360008301526135f2816130bc565b9050919050565b600060208201905081810360008301526136128161317c565b9050919050565b60006020820190508181036000830152613632816131bc565b9050919050565b6000602082019050818103600083015261365281613222565b9050919050565b6000604051905081810181811067ffffffffffffffff821117156136805761367f6138f7565b5b8060405250919050565b600067ffffffffffffffff8211156136a5576136a46138f7565b5b601f19601f8301169050602081019050919050565b60008190508160005260206000209050919050565b600081519050919050565b600081519050919050565b600081905092915050565b600082825260208201905092915050565b600081905092915050565b600061371782613791565b915061372283613791565b9250828210156137355761373461386a565b5b828203905092915050565b600061374b82613771565b9050919050565b60008115159050919050565b600081905061376c82613937565b919050565b600073ffffffffffffffffffffffffffffffffffffffff82169050919050565b6000819050919050565b60006137a68261375e565b9050919050565b82818337600083830152505050565b60005b838110156137da5780820151818401526020810190506137bf565b838111156137e9576000848401525b50505050565b6000600282049050600182168061380757607f821691505b6020821081141561381b5761381a6138c8565b5b50919050565b600061382c82613791565b91507fffffffffffffffffffffffffffffffffffffffffffffffffffffffffffffffff82141561385f5761385e61386a565b5b600182019050919050565b7f4e487b7100000000000000000000000000000000000000000000000000000000600052601160045260246000fd5b7f4e487b7100000000000000000000000000000000000000000000000000000000600052602160045260246000fd5b7f4e487b7100000000000000000000000000000000000000000000000000000000600052602260045260246000fd5b7f4e487b7100000000000000000000000000000000000000000000000000000000600052604160045260246000fd5b6000601f19601f8301169050919050565b6006811061394857613947613899565b5b50565b61395481613740565b811461395f57600080fd5b5056fea2646970667358221220760ef9b28a3cf3937028f640f8f8432dd0a04b5e568ec0879053005c6b284b6f64736f6c63430008000033",
  "immutableReferences": {},
  "source": "// SPDX-License-Identifier: MIT\npragma solidity ^0.8.0;\n\ncontract NodeRegistry {\n    \n    enum NodeType { Unknown, Cloud, Fog, Edge, Sensor, Actuator } // Define possible node types\n\n    struct IoTNode {\n        string nodeName;\n        NodeType nodeType;\n        string publicKey;\n        bool isRegistered;\n        string senderCapabilityToken;\n        string receiverCapabilityToken;\n        address registeredBy;\n        NodeType registeredByNodeType;\n        string nodeSignature; \n    }\n\n    mapping(string => IoTNode) public iotNodes;\n    mapping(string => string) public nodeSignatureToNodeId;\n    mapping(address => string) public addressToNodeId;\n    \n    // Updated event: tokens are now a single string each.\n    event NodeRegistered(\n        string indexed nodeId,\n        string nodeName,\n        NodeType nodeType,\n        string publicKey,\n        string senderCapabilityToken,\n        string receiverCapabilityToken,\n        address registeredBy,\n        NodeType registeredByNodeType,\n        string nodeSignature\n    );\n    \n    // Helper function to join an array of strings with commas.\n    function joinStringArray(string[] memory arr) internal pure returns (string memory) {\n        bytes memory result;\n        for (uint i = 0; i < arr.length; i++) {\n            result = abi.encodePacked(result, arr[i]);\n            if (i < arr.length - 1) {\n                result = abi.encodePacked(result, \",\");\n            }\n        }\n        return string(result);\n    }\n\n    function registerNode(\n        string memory nodeId,\n        string memory nodeName,\n        string memory nodeTypeStr,\n        string memory publicKey,\n        address registeredBy,\n        string memory registeredByNodeTypeStr,\n        string memory nodeSignature \n    ) public {\n        require(bytes(nodeSignatureToNodeId[nodeSignature]).length == 0, \"Node already registered!\");\n        nodeSignatureToNodeId[nodeSignature] = nodeId;\n        NodeType nodeType = getNodeType(nodeTypeStr);\n        NodeType regByNodeType = getNodeType(registeredByNodeTypeStr);\n        require(nodeType != NodeType.Unknown, \"Invalid node type!\");\n        require(regByNodeType != NodeType.Unknown, \"Invalid registered-by node type!\");\n\n        (string[] memory senderTokens, string[] memory receiverTokens) = generateToken(nodeType, regByNodeType);\n        string memory senderCapabilityToken = joinStringArray(senderTokens);\n        string memory receiverCapabilityToken = joinStringArray(receiverTokens);\n\n        iotNodes[nodeId] = IoTNode({\n            nodeName: nodeName,\n            nodeType: nodeType,\n            publicKey: publicKey,\n            isRegistered: true,\n            senderCapabilityToken: senderCapabilityToken,\n            receiverCapabilityToken: receiverCapabilityToken,\n            registeredBy: registeredBy,\n            registeredByNodeType: regByNodeType,\n            nodeSignature: nodeSignature\n        });\n\n        addressToNodeId[registeredBy] = nodeId;\n\n        emit NodeRegistered(\n            nodeId,\n            nodeName,\n            nodeType,\n            publicKey,\n            senderCapabilityToken,\n            receiverCapabilityToken,\n            registeredBy,\n            regByNodeType,\n            nodeSignature\n        );\n    }\n\n    function isNodeRegistered(string memory nodeSignature) public view returns (bool) {\n        string memory nodeId = nodeSignatureToNodeId[nodeSignature];\n        return (\n            iotNodes[nodeId].isRegistered &&\n            keccak256(abi.encodePacked(iotNodes[nodeId].nodeSignature)) == keccak256(abi.encodePacked(nodeSignature))\n        );\n    }\n\n    function getNodeDetailsBySignature(string memory nodeSignature)\n        public view returns (\n            string memory,\n            string memory,\n            NodeType,\n            string memory,\n            bool,\n            string memory,\n            string memory,\n            address,\n            string memory,\n            NodeType\n        )\n    {\n        string memory nodeId = nodeSignatureToNodeId[nodeSignature];\n        require(\n            iotNodes[nodeId].isRegistered &&\n            keccak256(abi.encodePacked(iotNodes[nodeId].nodeSignature)) == keccak256(abi.encodePacked(nodeSignature)),\n            \"No matching node registered with this signature\"\n        );\n\n        IoTNode memory node = iotNodes[nodeId];\n        return (\n            nodeId,\n            node.nodeName,\n            node.nodeType,\n            node.publicKey,\n            node.isRegistered,\n            node.senderCapabilityToken,\n            node.receiverCapabilityToken,\n            node.registeredBy,\n            node.nodeSignature,\n            node.registeredByNodeType\n        );\n    }\n\n    function getNodeType(string memory nodeTypeStr) internal pure returns (NodeType) {\n        bytes32 nodeTypeHash = keccak256(abi.encodePacked(nodeTypeStr));\n\n        if (nodeTypeHash == keccak256(abi.encodePacked(\"Cloud\"))) return NodeType.Cloud;\n        if (nodeTypeHash == keccak256(abi.encodePacked(\"Fog\"))) return NodeType.Fog;\n        if (nodeTypeHash == keccak256(abi.encodePacked(\"Edge\"))) return NodeType.Edge;\n        if (nodeTypeHash == keccak256(abi.encodePacked(\"Sensor\"))) return NodeType.Sensor;\n        if (nodeTypeHash == keccak256(abi.encodePacked(\"Actuator\"))) return NodeType.Actuator;\n\n        return NodeType.Unknown; // Invalid type\n    }\n\n    function isValidator(string memory nodeSignature) public view returns (bool) {\n        string memory nodeId = nodeSignatureToNodeId[nodeSignature];\n        require(\n            iotNodes[nodeId].isRegistered &&\n            keccak256(abi.encodePacked(iotNodes[nodeId].nodeSignature)) == keccak256(abi.encodePacked(nodeSignature)),\n            \"Node not found or invalid signature\"\n        );\n\n        NodeType nodeType = iotNodes[nodeId].nodeType;\n\n        if (nodeType == NodeType.Cloud || nodeType == NodeType.Fog) {\n            return true;\n        }\n\n        return false;\n    }\n    \n    // Updated generateToken: returns arrays of strings.\n    function generateToken(NodeType nodeType, NodeType registeredByNodeType) \n        internal pure returns (string[] memory, string[] memory) \n    {\n        string[] memory nodeTypePermissions;\n        string[] memory registeredByNodeTypePermissions;\n        \n        if (nodeType == NodeType.Fog && registeredByNodeType == NodeType.Cloud) {\n            nodeTypePermissions = new string[](3);\n            nodeTypePermissions[0] = \"Fog:READ\";\n            nodeTypePermissions[1] = \"Fog:WRITE\";\n            nodeTypePermissions[2] = \"Fog:TRANSMIT\";\n            \n            registeredByNodeTypePermissions = new string[](2);\n            registeredByNodeTypePermissions[0] = \"Cloud:READ\";\n            registeredByNodeTypePermissions[1] = \"Cloud:EXECUTE\";\n        } else if (nodeType == NodeType.Edge && registeredByNodeType == NodeType.Fog) {\n            nodeTypePermissions = new string[](3);\n            nodeTypePermissions[0] = \"Edge:READ\";\n            nodeTypePermissions[1] = \"Edge:WRITE\";\n            nodeTypePermissions[2] = \"Edge:TRANSMIT\";\n            \n            registeredByNodeTypePermissions = new string[](2);\n            registeredByNodeTypePermissions[0] = \"Fog:READ\";\n            registeredByNodeTypePermissions[1] = \"Fog:EXECUTE\";\n        } else if (nodeType == NodeType.Sensor && registeredByNodeType == NodeType.Edge) {\n            nodeTypePermissions = new string[](2);\n            nodeTypePermissions[0] = \"Sensor:READ\";\n            nodeTypePermissions[1] = \"Sensor:TRANSMIT\";\n            \n            registeredByNodeTypePermissions = new string[](2);\n            registeredByNodeTypePermissions[0] = \"Edge:READ\";\n            registeredByNodeTypePermissions[1] = \"Edge:EXECUTE\";\n        } else if (nodeType == NodeType.Actuator && registeredByNodeType == NodeType.Edge) {\n            nodeTypePermissions = new string[](3);\n            nodeTypePermissions[0] = \"Actuator:READ\";\n            nodeTypePermissions[1] = \"Actuator:WRITE\";\n            nodeTypePermissions[2] = \"Actuator:EXECUTE\";\n            \n            registeredByNodeTypePermissions = new string[](2);\n            registeredByNodeTypePermissions[0] = \"Edge:READ\";\n            registeredByNodeTypePermissions[1] = \"Edge:EXECUTE\";\n        } else {\n            nodeTypePermissions = new string[](1);\n            nodeTypePermissions[0] = \"INVALID_TOKEN\";\n            registeredByNodeTypePermissions = new string[](1);\n            registeredByNodeTypePermissions[0] = \"INVALID_TOKEN\";\n        }\n\n        return (nodeTypePermissions, registeredByNodeTypePermissions);\n    }\n}",
  "sourcePath": "/Users/khannmohsin/VSCode_Projects/MyDisIoT_Project/smart_contract_deployment/contracts/NodeRegistry.sol",
  "compiler": {
    "name": "solc",
    "version": "0.8.0+commit.c7dfd78e.Emscripten.clang"
  },
  "schemaVersion": "3.4.16",
  "updatedAt": "2025-04-08T20:20:12.895Z",
  "networkType": "ethereum",
  "devdoc": {
    "kind": "dev",
    "methods": {},
    "version": 1
  },
  "userdoc": {
    "kind": "user",
    "methods": {},
    "version": 1
  }
}