{
  "contractName": "NodeRegistry",
  "abi": [
    {
      "anonymous": false,
      "inputs": [
        {
          "indexed": true,
          "internalType": "string",
          "name": "nodeId",
          "type": "string"
        },
        {
          "indexed": false,
          "internalType": "string",
          "name": "nodeName",
          "type": "string"
        },
        {
          "indexed": false,
          "internalType": "enum NodeRegistry.NodeType",
          "name": "nodeType",
          "type": "uint8"
        },
        {
          "indexed": false,
          "internalType": "string",
          "name": "publicKey",
          "type": "string"
        },
        {
          "indexed": false,
          "internalType": "string",
          "name": "senderCapabilityToken",
          "type": "string"
        },
        {
          "indexed": false,
          "internalType": "string",
          "name": "receiverCapabilityToken",
          "type": "string"
        },
        {
          "indexed": false,
          "internalType": "address",
          "name": "registeredBy",
          "type": "address"
        },
        {
          "indexed": false,
          "internalType": "enum NodeRegistry.NodeType",
          "name": "registeredByNodeType",
          "type": "uint8"
        }
      ],
      "name": "NodeRegistered",
      "type": "event"
    },
    {
      "inputs": [
        {
          "internalType": "string",
          "name": "",
          "type": "string"
        }
      ],
      "name": "iotNodes",
      "outputs": [
        {
          "internalType": "string",
          "name": "nodeName",
          "type": "string"
        },
        {
          "internalType": "enum NodeRegistry.NodeType",
          "name": "nodeType",
          "type": "uint8"
        },
        {
          "internalType": "string",
          "name": "publicKey",
          "type": "string"
        },
        {
          "internalType": "bool",
          "name": "isRegistered",
          "type": "bool"
        },
        {
          "internalType": "string",
          "name": "senderCapabilityToken",
          "type": "string"
        },
        {
          "internalType": "string",
          "name": "receiverCapabilityToken",
          "type": "string"
        },
        {
          "internalType": "address",
          "name": "registeredBy",
          "type": "address"
        },
        {
          "internalType": "enum NodeRegistry.NodeType",
          "name": "registeredByNodeType",
          "type": "uint8"
        }
      ],
      "stateMutability": "view",
      "type": "function",
      "constant": true
    },
    {
      "inputs": [
        {
          "internalType": "string",
          "name": "nodeId",
          "type": "string"
        },
        {
          "internalType": "string",
          "name": "nodeName",
          "type": "string"
        },
        {
          "internalType": "string",
          "name": "nodeTypeStr",
          "type": "string"
        },
        {
          "internalType": "string",
          "name": "publicKey",
          "type": "string"
        },
        {
          "internalType": "address",
          "name": "registeredBy",
          "type": "address"
        },
        {
          "internalType": "string",
          "name": "registeredByNodeTypeStr",
          "type": "string"
        }
      ],
      "name": "registerNode",
      "outputs": [],
      "stateMutability": "nonpayable",
      "type": "function"
    },
    {
      "inputs": [
        {
          "internalType": "string",
          "name": "nodeId",
          "type": "string"
        }
      ],
      "name": "isNodeRegistered",
      "outputs": [
        {
          "internalType": "bool",
          "name": "",
          "type": "bool"
        }
      ],
      "stateMutability": "view",
      "type": "function",
      "constant": true
    },
    {
      "inputs": [
        {
          "internalType": "string",
          "name": "nodeId",
          "type": "string"
        }
      ],
      "name": "getNodeDetails",
      "outputs": [
        {
          "internalType": "string",
          "name": "",
          "type": "string"
        },
        {
          "internalType": "enum NodeRegistry.NodeType",
          "name": "",
          "type": "uint8"
        },
        {
          "internalType": "string",
          "name": "",
          "type": "string"
        },
        {
          "internalType": "bool",
          "name": "",
          "type": "bool"
        },
        {
          "internalType": "string",
          "name": "",
          "type": "string"
        },
        {
          "internalType": "string",
          "name": "",
          "type": "string"
        },
        {
          "internalType": "address",
          "name": "",
          "type": "address"
        }
      ],
      "stateMutability": "view",
      "type": "function",
      "constant": true
    }
  ],
  "bytecode": "0x608060405234801561001057600080fd5b50612e4e806100206000396000f3fe608060405234801561001057600080fd5b506004361061004c5760003560e01c806325d80f95146100515780633f0e0e4714610081578063a04b0bc1146100b7578063f991dde4146100d3575b600080fd5b61006b60048036038101906100669190612389565b61010a565b60405161007891906128d9565b60405180910390f35b61009b60048036038101906100969190612389565b610141565b6040516100ae97969594939291906128f4565b60405180910390f35b6100d160048036038101906100cc91906123ca565b6105ec565b005b6100ed60048036038101906100e89190612389565b610ada565b60405161010198979695949392919061297f565b60405180910390f35b6000808260405161011b9190612859565b908152602001604051809103902060030160009054906101000a900460ff169050919050565b60606000606060006060806000808860405161015d9190612859565b908152602001604051809103902060030160009054906101000a900460ff166101bb576040517f08c379a00000000000000000000000000000000000000000000000000000000081526004016101b290612ac4565b60405180910390fd5b600080896040516101cc9190612859565b9081526020016040518091039020604051806101000160405290816000820180546101f690612ca5565b80601f016020809104026020016040519081016040528092919081815260200182805461022290612ca5565b801561026f5780601f106102445761010080835404028352916020019161026f565b820191906000526020600020905b81548152906001019060200180831161025257829003601f168201915b505050505081526020016001820160009054906101000a900460ff1660058111156102c3577f4e487b7100000000000000000000000000000000000000000000000000000000600052602160045260246000fd5b60058111156102fb577f4e487b7100000000000000000000000000000000000000000000000000000000600052602160045260246000fd5b815260200160028201805461030f90612ca5565b80601f016020809104026020016040519081016040528092919081815260200182805461033b90612ca5565b80156103885780601f1061035d57610100808354040283529160200191610388565b820191906000526020600020905b81548152906001019060200180831161036b57829003601f168201915b505050505081526020016003820160009054906101000a900460ff161515151581526020016004820180546103bc90612ca5565b80601f01602080910402602001604051908101604052809291908181526020018280546103e890612ca5565b80156104355780601f1061040a57610100808354040283529160200191610435565b820191906000526020600020905b81548152906001019060200180831161041857829003601f168201915b5050505050815260200160058201805461044e90612ca5565b80601f016020809104026020016040519081016040528092919081815260200182805461047a90612ca5565b80156104c75780601f1061049c576101008083540402835291602001916104c7565b820191906000526020600020905b8154815290600101906020018083116104aa57829003601f168201915b505050505081526020016006820160009054906101000a900473ffffffffffffffffffffffffffffffffffffffff1673ffffffffffffffffffffffffffffffffffffffff1673ffffffffffffffffffffffffffffffffffffffff1681526020016006820160149054906101000a900460ff166005811115610571577f4e487b7100000000000000000000000000000000000000000000000000000000600052602160045260246000fd5b60058111156105a9577f4e487b7100000000000000000000000000000000000000000000000000000000600052602160045260246000fd5b815250509050806000015181602001518260400151836060015184608001518560a001518660c00151975097509750975097509750975050919395979092949650565b6000866040516105fc9190612859565b908152602001604051809103902060030160009054906101000a900460ff161561065b576040517f08c379a000000000000000000000000000000000000000000000000000000000815260040161065290612aa4565b60405180910390fd5b600061066685610d9f565b9050600061067383610d9f565b9050600060058111156106af577f4e487b7100000000000000000000000000000000000000000000000000000000600052602160045260246000fd5b8260058111156106e8577f4e487b7100000000000000000000000000000000000000000000000000000000600052602160045260246000fd5b1415610729576040517f08c379a000000000000000000000000000000000000000000000000000000000815260040161072090612ae4565b60405180910390fd5b60006005811115610763577f4e487b7100000000000000000000000000000000000000000000000000000000600052602160045260246000fd5b81600581111561079c577f4e487b7100000000000000000000000000000000000000000000000000000000600052602160045260246000fd5b14156107dd576040517f08c379a00000000000000000000000000000000000000000000000000000000081526004016107d490612b04565b60405180910390fd5b6000806107ea8484610ee4565b9150915060006107f9836121a1565b90506000610806836121a1565b90506040518061010001604052808c8152602001876005811115610853577f4e487b7100000000000000000000000000000000000000000000000000000000600052602160045260246000fd5b81526020018a81526020016001151581526020018381526020018281526020018973ffffffffffffffffffffffffffffffffffffffff1681526020018660058111156108c8577f4e487b7100000000000000000000000000000000000000000000000000000000600052602160045260246000fd5b81525060008d6040516108db9190612859565b90815260200160405180910390206000820151816000019080519060200190610905929190612269565b5060208201518160010160006101000a81548160ff02191690836005811115610957577f4e487b7100000000000000000000000000000000000000000000000000000000600052602160045260246000fd5b02179055506040820151816002019080519060200190610978929190612269565b5060608201518160030160006101000a81548160ff02191690831515021790555060808201518160040190805190602001906109b5929190612269565b5060a08201518160050190805190602001906109d2929190612269565b5060c08201518160060160006101000a81548173ffffffffffffffffffffffffffffffffffffffff021916908373ffffffffffffffffffffffffffffffffffffffff16021790555060e08201518160060160146101000a81548160ff02191690836005811115610a6b577f4e487b7100000000000000000000000000000000000000000000000000000000600052602160045260246000fd5b02179055509050508b604051610a819190612859565b60405180910390207ffe158e8551aa844f5edb0ebcef0b58a904f42a75bcd1aa3d5e087aad9c4b46148c888c86868e8c604051610ac49796959493929190612a19565b60405180910390a2505050505050505050505050565b600081805160208101820180518482526020830160208501208183528095505050505050600091509050806000018054610b1390612ca5565b80601f0160208091040260200160405190810160405280929190818152602001828054610b3f90612ca5565b8015610b8c5780601f10610b6157610100808354040283529160200191610b8c565b820191906000526020600020905b815481529060010190602001808311610b6f57829003601f168201915b5050505050908060010160009054906101000a900460ff1690806002018054610bb490612ca5565b80601f0160208091040260200160405190810160405280929190818152602001828054610be090612ca5565b8015610c2d5780601f10610c0257610100808354040283529160200191610c2d565b820191906000526020600020905b815481529060010190602001808311610c1057829003601f168201915b5050505050908060030160009054906101000a900460ff1690806004018054610c5590612ca5565b80601f0160208091040260200160405190810160405280929190818152602001828054610c8190612ca5565b8015610cce5780601f10610ca357610100808354040283529160200191610cce565b820191906000526020600020905b815481529060010190602001808311610cb157829003601f168201915b505050505090806005018054610ce390612ca5565b80601f0160208091040260200160405190810160405280929190818152602001828054610d0f90612ca5565b8015610d5c5780601f10610d3157610100808354040283529160200191610d5c565b820191906000526020600020905b815481529060010190602001808311610d3f57829003601f168201915b5050505050908060060160009054906101000a900473ffffffffffffffffffffffffffffffffffffffff16908060060160149054906101000a900460ff16905088565b60008082604051602001610db39190612859565b604051602081830303815290604052805190602001209050604051602001610dda906128c4565b60405160208183030381529060405280519060200120811415610e01576001915050610edf565b604051602001610e10906128af565b60405160208183030381529060405280519060200120811415610e37576002915050610edf565b604051602001610e4690612870565b60405160208183030381529060405280519060200120811415610e6d576003915050610edf565b604051602001610e7c9061289a565b60405160208183030381529060405280519060200120811415610ea3576004915050610edf565b604051602001610eb290612885565b60405160208183030381529060405280519060200120811415610ed9576005915050610edf565b60009150505b919050565b60608060608060026005811115610f24577f4e487b7100000000000000000000000000000000000000000000000000000000600052602160045260246000fd5b866005811115610f5d577f4e487b7100000000000000000000000000000000000000000000000000000000600052602160045260246000fd5b148015610fda575060016005811115610f9f577f4e487b7100000000000000000000000000000000000000000000000000000000600052602160045260246000fd5b856005811115610fd8577f4e487b7100000000000000000000000000000000000000000000000000000000600052602160045260246000fd5b145b1561133957600367ffffffffffffffff811115611020577f4e487b7100000000000000000000000000000000000000000000000000000000600052604160045260246000fd5b60405190808252806020026020018201604052801561105357816020015b606081526020019060019003908161103e5790505b5091506040518060400160405280600881526020017f466f673a52454144000000000000000000000000000000000000000000000000815250826000815181106110c6577f4e487b7100000000000000000000000000000000000000000000000000000000600052603260045260246000fd5b60200260200101819052506040518060400160405280600981526020017f466f673a5752495445000000000000000000000000000000000000000000000081525082600181518110611141577f4e487b7100000000000000000000000000000000000000000000000000000000600052603260045260246000fd5b60200260200101819052506040518060400160405280600c81526020017f466f673a5452414e534d49540000000000000000000000000000000000000000815250826002815181106111bc577f4e487b7100000000000000000000000000000000000000000000000000000000600052603260045260246000fd5b6020026020010181905250600267ffffffffffffffff811115611208577f4e487b7100000000000000000000000000000000000000000000000000000000600052604160045260246000fd5b60405190808252806020026020018201604052801561123b57816020015b60608152602001906001900390816112265790505b5090506040518060400160405280600a81526020017f436c6f75643a5245414400000000000000000000000000000000000000000000815250816000815181106112ae577f4e487b7100000000000000000000000000000000000000000000000000000000600052603260045260246000fd5b60200260200101819052506040518060400160405280600d81526020017f436c6f75643a455845435554450000000000000000000000000000000000000081525081600181518110611329577f4e487b7100000000000000000000000000000000000000000000000000000000600052603260045260246000fd5b6020026020010181905250612192565b60036005811115611373577f4e487b7100000000000000000000000000000000000000000000000000000000600052602160045260246000fd5b8660058111156113ac577f4e487b7100000000000000000000000000000000000000000000000000000000600052602160045260246000fd5b1480156114295750600260058111156113ee577f4e487b7100000000000000000000000000000000000000000000000000000000600052602160045260246000fd5b856005811115611427577f4e487b7100000000000000000000000000000000000000000000000000000000600052602160045260246000fd5b145b1561178857600367ffffffffffffffff81111561146f577f4e487b7100000000000000000000000000000000000000000000000000000000600052604160045260246000fd5b6040519080825280602002602001820160405280156114a257816020015b606081526020019060019003908161148d5790505b5091506040518060400160405280600981526020017f456467653a52454144000000000000000000000000000000000000000000000081525082600081518110611515577f4e487b7100000000000000000000000000000000000000000000000000000000600052603260045260246000fd5b60200260200101819052506040518060400160405280600a81526020017f456467653a57524954450000000000000000000000000000000000000000000081525082600181518110611590577f4e487b7100000000000000000000000000000000000000000000000000000000600052603260045260246000fd5b60200260200101819052506040518060400160405280600d81526020017f456467653a5452414e534d4954000000000000000000000000000000000000008152508260028151811061160b577f4e487b7100000000000000000000000000000000000000000000000000000000600052603260045260246000fd5b6020026020010181905250600267ffffffffffffffff811115611657577f4e487b7100000000000000000000000000000000000000000000000000000000600052604160045260246000fd5b60405190808252806020026020018201604052801561168a57816020015b60608152602001906001900390816116755790505b5090506040518060400160405280600881526020017f466f673a52454144000000000000000000000000000000000000000000000000815250816000815181106116fd577f4e487b7100000000000000000000000000000000000000000000000000000000600052603260045260246000fd5b60200260200101819052506040518060400160405280600b81526020017f466f673a4558454355544500000000000000000000000000000000000000000081525081600181518110611778577f4e487b7100000000000000000000000000000000000000000000000000000000600052603260045260246000fd5b6020026020010181905250612191565b600460058111156117c2577f4e487b7100000000000000000000000000000000000000000000000000000000600052602160045260246000fd5b8660058111156117fb577f4e487b7100000000000000000000000000000000000000000000000000000000600052602160045260246000fd5b14801561187857506003600581111561183d577f4e487b7100000000000000000000000000000000000000000000000000000000600052602160045260246000fd5b856005811115611876577f4e487b7100000000000000000000000000000000000000000000000000000000600052602160045260246000fd5b145b15611b5c57600267ffffffffffffffff8111156118be577f4e487b7100000000000000000000000000000000000000000000000000000000600052604160045260246000fd5b6040519080825280602002602001820160405280156118f157816020015b60608152602001906001900390816118dc5790505b5091506040518060400160405280600b81526020017f53656e736f723a5245414400000000000000000000000000000000000000000081525082600081518110611964577f4e487b7100000000000000000000000000000000000000000000000000000000600052603260045260246000fd5b60200260200101819052506040518060400160405280600f81526020017f53656e736f723a5452414e534d49540000000000000000000000000000000000815250826001815181106119df577f4e487b7100000000000000000000000000000000000000000000000000000000600052603260045260246000fd5b6020026020010181905250600267ffffffffffffffff811115611a2b577f4e487b7100000000000000000000000000000000000000000000000000000000600052604160045260246000fd5b604051908082528060200260200182016040528015611a5e57816020015b6060815260200190600190039081611a495790505b5090506040518060400160405280600981526020017f456467653a52454144000000000000000000000000000000000000000000000081525081600081518110611ad1577f4e487b7100000000000000000000000000000000000000000000000000000000600052603260045260246000fd5b60200260200101819052506040518060400160405280600c81526020017f456467653a45584543555445000000000000000000000000000000000000000081525081600181518110611b4c577f4e487b7100000000000000000000000000000000000000000000000000000000600052603260045260246000fd5b6020026020010181905250612190565b600580811115611b95577f4e487b7100000000000000000000000000000000000000000000000000000000600052602160045260246000fd5b866005811115611bce577f4e487b7100000000000000000000000000000000000000000000000000000000600052602160045260246000fd5b148015611c4b575060036005811115611c10577f4e487b7100000000000000000000000000000000000000000000000000000000600052602160045260246000fd5b856005811115611c49577f4e487b7100000000000000000000000000000000000000000000000000000000600052602160045260246000fd5b145b15611faa57600367ffffffffffffffff811115611c91577f4e487b7100000000000000000000000000000000000000000000000000000000600052604160045260246000fd5b604051908082528060200260200182016040528015611cc457816020015b6060815260200190600190039081611caf5790505b5091506040518060400160405280600d81526020017f4163747561746f723a524541440000000000000000000000000000000000000081525082600081518110611d37577f4e487b7100000000000000000000000000000000000000000000000000000000600052603260045260246000fd5b60200260200101819052506040518060400160405280600e81526020017f4163747561746f723a575249544500000000000000000000000000000000000081525082600181518110611db2577f4e487b7100000000000000000000000000000000000000000000000000000000600052603260045260246000fd5b60200260200101819052506040518060400160405280601081526020017f4163747561746f723a455845435554450000000000000000000000000000000081525082600281518110611e2d577f4e487b7100000000000000000000000000000000000000000000000000000000600052603260045260246000fd5b6020026020010181905250600267ffffffffffffffff811115611e79577f4e487b7100000000000000000000000000000000000000000000000000000000600052604160045260246000fd5b604051908082528060200260200182016040528015611eac57816020015b6060815260200190600190039081611e975790505b5090506040518060400160405280600981526020017f456467653a52454144000000000000000000000000000000000000000000000081525081600081518110611f1f577f4e487b7100000000000000000000000000000000000000000000000000000000600052603260045260246000fd5b60200260200101819052506040518060400160405280600c81526020017f456467653a45584543555445000000000000000000000000000000000000000081525081600181518110611f9a577f4e487b7100000000000000000000000000000000000000000000000000000000600052603260045260246000fd5b602002602001018190525061218f565b600167ffffffffffffffff811115611feb577f4e487b7100000000000000000000000000000000000000000000000000000000600052604160045260246000fd5b60405190808252806020026020018201604052801561201e57816020015b60608152602001906001900390816120095790505b5091506040518060400160405280600d81526020017f494e56414c49445f544f4b454e0000000000000000000000000000000000000081525082600081518110612091577f4e487b7100000000000000000000000000000000000000000000000000000000600052603260045260246000fd5b6020026020010181905250600167ffffffffffffffff8111156120dd577f4e487b7100000000000000000000000000000000000000000000000000000000600052604160045260246000fd5b60405190808252806020026020018201604052801561211057816020015b60608152602001906001900390816120fb5790505b5090506040518060400160405280600d81526020017f494e56414c49445f544f4b454e0000000000000000000000000000000000000081525081600081518110612183577f4e487b7100000000000000000000000000000000000000000000000000000000600052603260045260246000fd5b60200260200101819052505b5b5b5b81819350935050509250929050565b60608060005b835181101561225f57818482815181106121ea577f4e487b7100000000000000000000000000000000000000000000000000000000600052603260045260246000fd5b6020026020010151604051602001612203929190612813565b6040516020818303038152906040529150600184516122229190612bc2565b81101561224c578160405160200161223a9190612837565b60405160208183030381529060405291505b808061225790612cd7565b9150506121a7565b5080915050919050565b82805461227590612ca5565b90600052602060002090601f01602090048101928261229757600085556122de565b82601f106122b057805160ff19168380011785556122de565b828001600101855582156122de579182015b828111156122dd5782518255916020019190600101906122c2565b5b5090506122eb91906122ef565b5090565b5b808211156123085760008160009055506001016122f0565b5090565b600061231f61231a84612b55565b612b24565b90508281526020810184848401111561233757600080fd5b612342848285612c63565b509392505050565b60008135905061235981612e01565b92915050565b600082601f83011261237057600080fd5b813561238084826020860161230c565b91505092915050565b60006020828403121561239b57600080fd5b600082013567ffffffffffffffff8111156123b557600080fd5b6123c18482850161235f565b91505092915050565b60008060008060008060c087890312156123e357600080fd5b600087013567ffffffffffffffff8111156123fd57600080fd5b61240989828a0161235f565b965050602087013567ffffffffffffffff81111561242657600080fd5b61243289828a0161235f565b955050604087013567ffffffffffffffff81111561244f57600080fd5b61245b89828a0161235f565b945050606087013567ffffffffffffffff81111561247857600080fd5b61248489828a0161235f565b935050608061249589828a0161234a565b92505060a087013567ffffffffffffffff8111156124b257600080fd5b6124be89828a0161235f565b9150509295509295509295565b6124d481612bf6565b82525050565b6124e381612c08565b82525050565b60006124f482612b85565b6124fe8185612b9b565b935061250e818560208601612c72565b80840191505092915050565b61252381612c51565b82525050565b600061253482612b90565b61253e8185612ba6565b935061254e818560208601612c72565b61255781612ddc565b840191505092915050565b600061256d82612b90565b6125778185612bb7565b9350612587818560208601612c72565b80840191505092915050565b60006125a0600483612bb7565b91507f45646765000000000000000000000000000000000000000000000000000000006000830152600482019050919050565b60006125e0601883612ba6565b91507f4e6f646520616c726561647920726567697374657265642100000000000000006000830152602082019050919050565b6000612620600883612bb7565b91507f4163747561746f720000000000000000000000000000000000000000000000006000830152600882019050919050565b6000612660600683612bb7565b91507f53656e736f7200000000000000000000000000000000000000000000000000006000830152600682019050919050565b60006126a0600183612bb7565b91507f2c000000000000000000000000000000000000000000000000000000000000006000830152600182019050919050565b60006126e0600f83612ba6565b91507f4e6f6465206e6f7420666f756e642100000000000000000000000000000000006000830152602082019050919050565b6000612720600383612bb7565b91507f466f6700000000000000000000000000000000000000000000000000000000006000830152600382019050919050565b6000612760600583612bb7565b91507f436c6f75640000000000000000000000000000000000000000000000000000006000830152600582019050919050565b60006127a0601283612ba6565b91507f496e76616c6964206e6f646520747970652100000000000000000000000000006000830152602082019050919050565b60006127e0602083612ba6565b91507f496e76616c69642072656769737465726564206279206e6f64652074797065216000830152602082019050919050565b600061281f82856124e9565b915061282b8284612562565b91508190509392505050565b600061284382846124e9565b915061284e82612693565b915081905092915050565b60006128658284612562565b915081905092915050565b600061287b82612593565b9150819050919050565b600061289082612613565b9150819050919050565b60006128a582612653565b9150819050919050565b60006128ba82612713565b9150819050919050565b60006128cf82612753565b9150819050919050565b60006020820190506128ee60008301846124da565b92915050565b600060e082019050818103600083015261290e818a612529565b905061291d602083018961251a565b818103604083015261292f8188612529565b905061293e60608301876124da565b81810360808301526129508186612529565b905081810360a08301526129648185612529565b905061297360c08301846124cb565b98975050505050505050565b600061010082019050818103600083015261299a818b612529565b90506129a9602083018a61251a565b81810360408301526129bb8189612529565b90506129ca60608301886124da565b81810360808301526129dc8187612529565b905081810360a08301526129f08186612529565b90506129ff60c08301856124cb565b612a0c60e083018461251a565b9998505050505050505050565b600060e0820190508181036000830152612a33818a612529565b9050612a42602083018961251a565b8181036040830152612a548188612529565b90508181036060830152612a688187612529565b90508181036080830152612a7c8186612529565b9050612a8b60a08301856124cb565b612a9860c083018461251a565b98975050505050505050565b60006020820190508181036000830152612abd816125d3565b9050919050565b60006020820190508181036000830152612add816126d3565b9050919050565b60006020820190508181036000830152612afd81612793565b9050919050565b60006020820190508181036000830152612b1d816127d3565b9050919050565b6000604051905081810181811067ffffffffffffffff82111715612b4b57612b4a612dad565b5b8060405250919050565b600067ffffffffffffffff821115612b7057612b6f612dad565b5b601f19601f8301169050602081019050919050565b600081519050919050565b600081519050919050565b600081905092915050565b600082825260208201905092915050565b600081905092915050565b6000612bcd82612c47565b9150612bd883612c47565b925082821015612beb57612bea612d20565b5b828203905092915050565b6000612c0182612c27565b9050919050565b60008115159050919050565b6000819050612c2282612ded565b919050565b600073ffffffffffffffffffffffffffffffffffffffff82169050919050565b6000819050919050565b6000612c5c82612c14565b9050919050565b82818337600083830152505050565b60005b83811015612c90578082015181840152602081019050612c75565b83811115612c9f576000848401525b50505050565b60006002820490506001821680612cbd57607f821691505b60208210811415612cd157612cd0612d7e565b5b50919050565b6000612ce282612c47565b91507fffffffffffffffffffffffffffffffffffffffffffffffffffffffffffffffff821415612d1557612d14612d20565b5b600182019050919050565b7f4e487b7100000000000000000000000000000000000000000000000000000000600052601160045260246000fd5b7f4e487b7100000000000000000000000000000000000000000000000000000000600052602160045260246000fd5b7f4e487b7100000000000000000000000000000000000000000000000000000000600052602260045260246000fd5b7f4e487b7100000000000000000000000000000000000000000000000000000000600052604160045260246000fd5b6000601f19601f8301169050919050565b60068110612dfe57612dfd612d4f565b5b50565b612e0a81612bf6565b8114612e1557600080fd5b5056fea26469706673582212209162ede5705db781691777410fa988444540a3919e539edb00099664fb24492c64736f6c63430008000033",
  "immutableReferences": {},
  "source": "// SPDX-License-Identifier: MIT\npragma solidity ^0.8.0;\n\ncontract NodeRegistry {\n    \n    enum NodeType { Unknown, Cloud, Fog, Edge, Sensor, Actuator } // Define possible node types\n\n    struct IoTNode {\n        string nodeName;\n        NodeType nodeType;\n        string publicKey;\n        bool isRegistered;\n        // We store the tokens as a single string (joined with commas)\n        string senderCapabilityToken;\n        string receiverCapabilityToken;\n        address registeredBy;\n        NodeType registeredByNodeType;\n    }\n\n    mapping(string => IoTNode) public iotNodes;\n    \n    // Updated event: tokens are now a single string each.\n    event NodeRegistered(\n        string indexed nodeId,\n        string nodeName,\n        NodeType nodeType,\n        string publicKey,\n        string senderCapabilityToken,\n        string receiverCapabilityToken,\n        address registeredBy,\n        NodeType registeredByNodeType \n    );\n    \n    // Helper function to join an array of strings with commas.\n    function joinStringArray(string[] memory arr) internal pure returns (string memory) {\n        bytes memory result;\n        for (uint i = 0; i < arr.length; i++) {\n            result = abi.encodePacked(result, arr[i]);\n            if (i < arr.length - 1) {\n                result = abi.encodePacked(result, \",\");\n            }\n        }\n        return string(result);\n    }\n\n    function registerNode(\n        string memory nodeId,\n        string memory nodeName,\n        string memory nodeTypeStr,\n        string memory publicKey,\n        address registeredBy,\n        string memory registeredByNodeTypeStr\n    ) public {\n        require(!iotNodes[nodeId].isRegistered, \"Node already registered!\");\n\n        NodeType nodeType = getNodeType(nodeTypeStr);\n        NodeType regByNodeType = getNodeType(registeredByNodeTypeStr);\n        require(nodeType != NodeType.Unknown, \"Invalid node type!\");\n        require(regByNodeType != NodeType.Unknown, \"Invalid registered by node type!\");\n\n        // Get arrays of permissions\n        (string[] memory senderTokens, string[] memory receiverTokens) = generateToken(nodeType, regByNodeType);  \n        // Join the arrays into single strings\n        string memory senderCapabilityToken = joinStringArray(senderTokens);\n        string memory receiverCapabilityToken = joinStringArray(receiverTokens);\n\n        iotNodes[nodeId] = IoTNode({\n            nodeName: nodeName,\n            nodeType: nodeType,\n            publicKey: publicKey,\n            isRegistered: true,\n            senderCapabilityToken: senderCapabilityToken,\n            receiverCapabilityToken: receiverCapabilityToken,\n            registeredBy: registeredBy,\n            registeredByNodeType: regByNodeType\n        });\n\n        emit NodeRegistered(nodeId, nodeName, nodeType, publicKey, senderCapabilityToken, receiverCapabilityToken, registeredBy, regByNodeType);\n    }\n\n    function isNodeRegistered(string memory nodeId) public view returns (bool) {\n        return iotNodes[nodeId].isRegistered;\n    }\n\n    function getNodeDetails(string memory nodeId) \n        public view returns (\n            string memory, \n            NodeType, \n            string memory, \n            bool, \n            string memory, \n            string memory, \n            address\n        ) \n    {\n        require(iotNodes[nodeId].isRegistered, \"Node not found!\");\n        IoTNode memory node = iotNodes[nodeId];\n        return (\n            node.nodeName, \n            node.nodeType, \n            node.publicKey, \n            node.isRegistered, \n            node.senderCapabilityToken, \n            node.receiverCapabilityToken, \n            node.registeredBy\n        );\n    }\n\n    function getNodeType(string memory nodeTypeStr) internal pure returns (NodeType) {\n        bytes32 nodeTypeHash = keccak256(abi.encodePacked(nodeTypeStr));\n\n        if (nodeTypeHash == keccak256(abi.encodePacked(\"Cloud\"))) return NodeType.Cloud;\n        if (nodeTypeHash == keccak256(abi.encodePacked(\"Fog\"))) return NodeType.Fog;\n        if (nodeTypeHash == keccak256(abi.encodePacked(\"Edge\"))) return NodeType.Edge;\n        if (nodeTypeHash == keccak256(abi.encodePacked(\"Sensor\"))) return NodeType.Sensor;\n        if (nodeTypeHash == keccak256(abi.encodePacked(\"Actuator\"))) return NodeType.Actuator;\n\n        return NodeType.Unknown; // Invalid type\n    }\n\n    // Updated generateToken: returns arrays of strings.\n    function generateToken(NodeType nodeType, NodeType registeredByNodeType) \n        internal pure returns (string[] memory, string[] memory) \n    {\n        string[] memory nodeTypePermissions;\n        string[] memory registeredByNodeTypePermissions;\n        \n        if (nodeType == NodeType.Fog && registeredByNodeType == NodeType.Cloud) {\n            nodeTypePermissions = new string[](3);\n            nodeTypePermissions[0] = \"Fog:READ\";\n            nodeTypePermissions[1] = \"Fog:WRITE\";\n            nodeTypePermissions[2] = \"Fog:TRANSMIT\";\n            \n            registeredByNodeTypePermissions = new string[](2);\n            registeredByNodeTypePermissions[0] = \"Cloud:READ\";\n            registeredByNodeTypePermissions[1] = \"Cloud:EXECUTE\";\n        } else if (nodeType == NodeType.Edge && registeredByNodeType == NodeType.Fog) {\n            nodeTypePermissions = new string[](3);\n            nodeTypePermissions[0] = \"Edge:READ\";\n            nodeTypePermissions[1] = \"Edge:WRITE\";\n            nodeTypePermissions[2] = \"Edge:TRANSMIT\";\n            \n            registeredByNodeTypePermissions = new string[](2);\n            registeredByNodeTypePermissions[0] = \"Fog:READ\";\n            registeredByNodeTypePermissions[1] = \"Fog:EXECUTE\";\n        } else if (nodeType == NodeType.Sensor && registeredByNodeType == NodeType.Edge) {\n            nodeTypePermissions = new string[](2);\n            nodeTypePermissions[0] = \"Sensor:READ\";\n            nodeTypePermissions[1] = \"Sensor:TRANSMIT\";\n            \n            registeredByNodeTypePermissions = new string[](2);\n            registeredByNodeTypePermissions[0] = \"Edge:READ\";\n            registeredByNodeTypePermissions[1] = \"Edge:EXECUTE\";\n        } else if (nodeType == NodeType.Actuator && registeredByNodeType == NodeType.Edge) {\n            nodeTypePermissions = new string[](3);\n            nodeTypePermissions[0] = \"Actuator:READ\";\n            nodeTypePermissions[1] = \"Actuator:WRITE\";\n            nodeTypePermissions[2] = \"Actuator:EXECUTE\";\n            \n            registeredByNodeTypePermissions = new string[](2);\n            registeredByNodeTypePermissions[0] = \"Edge:READ\";\n            registeredByNodeTypePermissions[1] = \"Edge:EXECUTE\";\n        } else {\n            nodeTypePermissions = new string[](1);\n            nodeTypePermissions[0] = \"INVALID_TOKEN\";\n            registeredByNodeTypePermissions = new string[](1);\n            registeredByNodeTypePermissions[0] = \"INVALID_TOKEN\";\n        }\n\n        return (nodeTypePermissions, registeredByNodeTypePermissions);\n    }\n}",
  "sourcePath": "/Users/khannmohsin/VSCode_Projects/MyDisIoT_Project/smart_contract_deployment/contracts/NodeRegistry.sol",
  "compiler": {
    "name": "solc",
    "version": "0.8.0+commit.c7dfd78e.Emscripten.clang"
  },
  "schemaVersion": "3.4.16",
  "updatedAt": "2025-03-14T18:30:36.612Z",
  "networkType": "ethereum",
  "devdoc": {
    "kind": "dev",
    "methods": {},
    "version": 1
  },
  "userdoc": {
    "kind": "user",
    "methods": {},
    "version": 1
  }
}