{
  "contractName": "NodeRegistry",
  "abi": [
    {
      "anonymous": false,
      "inputs": [
        {
          "indexed": true,
          "internalType": "string",
          "name": "nodeId",
          "type": "string"
        },
        {
          "indexed": false,
          "internalType": "string",
          "name": "nodeName",
          "type": "string"
        },
        {
          "indexed": false,
          "internalType": "enum NodeRegistry.NodeType",
          "name": "nodeType",
          "type": "uint8"
        },
        {
          "indexed": false,
          "internalType": "string",
          "name": "publicKey",
          "type": "string"
        },
        {
          "indexed": false,
          "internalType": "string",
          "name": "capabilityToken",
          "type": "string"
        }
      ],
      "name": "NodeRegistered",
      "type": "event"
    },
    {
      "inputs": [
        {
          "internalType": "string",
          "name": "",
          "type": "string"
        }
      ],
      "name": "iotNodes",
      "outputs": [
        {
          "internalType": "string",
          "name": "nodeName",
          "type": "string"
        },
        {
          "internalType": "enum NodeRegistry.NodeType",
          "name": "nodeType",
          "type": "uint8"
        },
        {
          "internalType": "string",
          "name": "publicKey",
          "type": "string"
        },
        {
          "internalType": "bool",
          "name": "isRegistered",
          "type": "bool"
        },
        {
          "internalType": "string",
          "name": "capabilityToken",
          "type": "string"
        }
      ],
      "stateMutability": "view",
      "type": "function"
    },
    {
      "inputs": [
        {
          "internalType": "string",
          "name": "nodeId",
          "type": "string"
        },
        {
          "internalType": "string",
          "name": "nodeName",
          "type": "string"
        },
        {
          "internalType": "string",
          "name": "nodeTypeStr",
          "type": "string"
        },
        {
          "internalType": "string",
          "name": "publicKey",
          "type": "string"
        }
      ],
      "name": "registerNode",
      "outputs": [],
      "stateMutability": "nonpayable",
      "type": "function"
    },
    {
      "inputs": [
        {
          "internalType": "string",
          "name": "nodeId",
          "type": "string"
        }
      ],
      "name": "isNodeRegistered",
      "outputs": [
        {
          "internalType": "bool",
          "name": "",
          "type": "bool"
        }
      ],
      "stateMutability": "view",
      "type": "function"
    },
    {
      "inputs": [
        {
          "internalType": "string",
          "name": "nodeId",
          "type": "string"
        }
      ],
      "name": "getNodeDetails",
      "outputs": [
        {
          "internalType": "string",
          "name": "",
          "type": "string"
        },
        {
          "internalType": "enum NodeRegistry.NodeType",
          "name": "",
          "type": "uint8"
        },
        {
          "internalType": "string",
          "name": "",
          "type": "string"
        },
        {
          "internalType": "bool",
          "name": "",
          "type": "bool"
        },
        {
          "internalType": "string",
          "name": "",
          "type": "string"
        }
      ],
      "stateMutability": "view",
      "type": "function"
    }
  ],
  "bytecode": "0x608060405234801561001057600080fd5b506115a8806100206000396000f3fe608060405234801561001057600080fd5b506004361061004c5760003560e01c806325d80f95146100515780633f0e0e4714610081578063e623db46146100b5578063f991dde4146100d1575b600080fd5b61006b60048036038101906100669190610e08565b610105565b60405161007891906111bf565b60405180910390f35b61009b60048036038101906100969190610e08565b61013c565b6040516100ac9594939291906111da565b60405180910390f35b6100cf60048036038101906100ca9190610e49565b610465565b005b6100eb60048036038101906100e69190610e08565b61074d565b6040516100fc9594939291906111da565b60405180910390f35b600080826040516101169190611154565b908152602001604051809103902060030160009054906101000a900460ff169050919050565b606060006060600060606000866040516101569190611154565b908152602001604051809103902060030160009054906101000a900460ff166101b4576040517f08c379a00000000000000000000000000000000000000000000000000000000081526004016101ab906112bc565b60405180910390fd5b600080876040516101c59190611154565b90815260200160405180910390206040518060a00160405290816000820180546101ee906113f7565b80601f016020809104026020016040519081016040528092919081815260200182805461021a906113f7565b80156102675780601f1061023c57610100808354040283529160200191610267565b820191906000526020600020905b81548152906001019060200180831161024a57829003601f168201915b505050505081526020016001820160009054906101000a900460ff1660048111156102bb577f4e487b7100000000000000000000000000000000000000000000000000000000600052602160045260246000fd5b60048111156102f3577f4e487b7100000000000000000000000000000000000000000000000000000000600052602160045260246000fd5b8152602001600282018054610307906113f7565b80601f0160208091040260200160405190810160405280929190818152602001828054610333906113f7565b80156103805780601f1061035557610100808354040283529160200191610380565b820191906000526020600020905b81548152906001019060200180831161036357829003601f168201915b505050505081526020016003820160009054906101000a900460ff161515151581526020016004820180546103b4906113f7565b80601f01602080910402602001604051908101604052809291908181526020018280546103e0906113f7565b801561042d5780601f106104025761010080835404028352916020019161042d565b820191906000526020600020905b81548152906001019060200180831161041057829003601f168201915b505050505081525050905080600001518160200151826040015183606001518460800151955095509550955095505091939590929450565b6000846040516104759190611154565b908152602001604051809103902060030160009054906101000a900460ff16156104d4576040517f08c379a00000000000000000000000000000000000000000000000000000000081526004016104cb9061129c565b60405180910390fd5b60006104df8361094b565b90506000600481111561051b577f4e487b7100000000000000000000000000000000000000000000000000000000600052602160045260246000fd5b816004811115610554577f4e487b7100000000000000000000000000000000000000000000000000000000600052602160045260246000fd5b1415610595576040517f08c379a000000000000000000000000000000000000000000000000000000000815260040161058c906112dc565b60405180910390fd5b60006105a082610a5a565b90506040518060a001604052808681526020018360048111156105ec577f4e487b7100000000000000000000000000000000000000000000000000000000600052602160045260246000fd5b8152602001848152602001600115158152602001828152506000876040516106149190611154565b9081526020016040518091039020600082015181600001908051906020019061063e929190610cfd565b5060208201518160010160006101000a81548160ff02191690836004811115610690577f4e487b7100000000000000000000000000000000000000000000000000000000600052602160045260246000fd5b021790555060408201518160020190805190602001906106b1929190610cfd565b5060608201518160030160006101000a81548160ff02191690831515021790555060808201518160040190805190602001906106ee929190610cfd565b50905050856040516107009190611154565b60405180910390207f53a13cd4bb3e6451d48ffa93c2864d7eb10d3e60b7f632e7e2a1f1d356bbd5b38684868560405161073d9493929190611242565b60405180910390a2505050505050565b600081805160208101820180518482526020830160208501208183528095505050505050600091509050806000018054610786906113f7565b80601f01602080910402602001604051908101604052809291908181526020018280546107b2906113f7565b80156107ff5780601f106107d4576101008083540402835291602001916107ff565b820191906000526020600020905b8154815290600101906020018083116107e257829003601f168201915b5050505050908060010160009054906101000a900460ff1690806002018054610827906113f7565b80601f0160208091040260200160405190810160405280929190818152602001828054610853906113f7565b80156108a05780601f10610875576101008083540402835291602001916108a0565b820191906000526020600020905b81548152906001019060200180831161088357829003601f168201915b5050505050908060030160009054906101000a900460ff16908060040180546108c8906113f7565b80601f01602080910402602001604051908101604052809291908181526020018280546108f4906113f7565b80156109415780601f1061091657610100808354040283529160200191610941565b820191906000526020600020905b81548152906001019060200180831161092457829003601f168201915b5050505050905085565b6000808260405160200161095f9190611154565b604051602081830303815290604052805190602001209050604051602001610986906111aa565b604051602081830303815290604052805190602001208114156109ad576001915050610a55565b6040516020016109bc9061116b565b604051602081830303815290604052805190602001208114156109e3576002915050610a55565b6040516020016109f290611195565b60405160208183030381529060405280519060200120811415610a19576003915050610a55565b604051602001610a2890611180565b60405160208183030381529060405280519060200120811415610a4f576004915050610a55565b60009150505b919050565b606060016004811115610a96577f4e487b7100000000000000000000000000000000000000000000000000000000600052602160045260246000fd5b826004811115610acf577f4e487b7100000000000000000000000000000000000000000000000000000000600052602160045260246000fd5b1415610af557604051806060016040528060268152602001611529602691399050610cf8565b60026004811115610b2f577f4e487b7100000000000000000000000000000000000000000000000000000000600052602160045260246000fd5b826004811115610b68577f4e487b7100000000000000000000000000000000000000000000000000000000600052602160045260246000fd5b1415610b8e576040518060600160405280602581526020016114dc602591399050610cf8565b60036004811115610bc8577f4e487b7100000000000000000000000000000000000000000000000000000000600052602160045260246000fd5b826004811115610c01577f4e487b7100000000000000000000000000000000000000000000000000000000600052602160045260246000fd5b1415610c2757604051806060016040528060288152602001611501602891399050610cf8565b600480811115610c60577f4e487b7100000000000000000000000000000000000000000000000000000000600052602160045260246000fd5b826004811115610c99577f4e487b7100000000000000000000000000000000000000000000000000000000600052602160045260246000fd5b1415610cbf5760405180606001604052806024815260200161154f602491399050610cf8565b6040518060400160405280600d81526020017f494e56414c49445f544f4b454e0000000000000000000000000000000000000081525090505b919050565b828054610d09906113f7565b90600052602060002090601f016020900481019282610d2b5760008555610d72565b82601f10610d4457805160ff1916838001178555610d72565b82800160010185558215610d72579182015b82811115610d71578251825591602001919060010190610d56565b5b509050610d7f9190610d83565b5090565b5b80821115610d9c576000816000905550600101610d84565b5090565b6000610db3610dae8461132d565b6112fc565b905082815260208101848484011115610dcb57600080fd5b610dd68482856113b5565b509392505050565b600082601f830112610def57600080fd5b8135610dff848260208601610da0565b91505092915050565b600060208284031215610e1a57600080fd5b600082013567ffffffffffffffff811115610e3457600080fd5b610e4084828501610dde565b91505092915050565b60008060008060808587031215610e5f57600080fd5b600085013567ffffffffffffffff811115610e7957600080fd5b610e8587828801610dde565b945050602085013567ffffffffffffffff811115610ea257600080fd5b610eae87828801610dde565b935050604085013567ffffffffffffffff811115610ecb57600080fd5b610ed787828801610dde565b925050606085013567ffffffffffffffff811115610ef457600080fd5b610f0087828801610dde565b91505092959194509250565b610f1581611384565b82525050565b610f24816113a3565b82525050565b6000610f358261135d565b610f3f8185611368565b9350610f4f8185602086016113c4565b610f58816114b6565b840191505092915050565b6000610f6e8261135d565b610f788185611379565b9350610f888185602086016113c4565b80840191505092915050565b6000610fa1600483611379565b91507f45646765000000000000000000000000000000000000000000000000000000006000830152600482019050919050565b6000610fe1601883611368565b91507f4e6f646520616c726561647920726567697374657265642100000000000000006000830152602082019050919050565b6000611021600883611379565b91507f4163747561746f720000000000000000000000000000000000000000000000006000830152600882019050919050565b6000611061600683611379565b91507f53656e736f7200000000000000000000000000000000000000000000000000006000830152600682019050919050565b60006110a1600f83611368565b91507f4e6f6465206e6f7420666f756e642100000000000000000000000000000000006000830152602082019050919050565b60006110e1600383611379565b91507f466f6700000000000000000000000000000000000000000000000000000000006000830152600382019050919050565b6000611121601283611368565b91507f496e76616c6964206e6f646520747970652100000000000000000000000000006000830152602082019050919050565b60006111608284610f63565b915081905092915050565b600061117682610f94565b9150819050919050565b600061118b82611014565b9150819050919050565b60006111a082611054565b9150819050919050565b60006111b5826110d4565b9150819050919050565b60006020820190506111d46000830184610f0c565b92915050565b600060a08201905081810360008301526111f48188610f2a565b90506112036020830187610f1b565b81810360408301526112158186610f2a565b90506112246060830185610f0c565b81810360808301526112368184610f2a565b90509695505050505050565b6000608082019050818103600083015261125c8187610f2a565b905061126b6020830186610f1b565b818103604083015261127d8185610f2a565b905081810360608301526112918184610f2a565b905095945050505050565b600060208201905081810360008301526112b581610fd4565b9050919050565b600060208201905081810360008301526112d581611094565b9050919050565b600060208201905081810360008301526112f581611114565b9050919050565b6000604051905081810181811067ffffffffffffffff8211171561132357611322611487565b5b8060405250919050565b600067ffffffffffffffff82111561134857611347611487565b5b601f19601f8301169050602081019050919050565b600081519050919050565b600082825260208201905092915050565b600081905092915050565b60008115159050919050565b600081905061139e826114c7565b919050565b60006113ae82611390565b9050919050565b82818337600083830152505050565b60005b838110156113e25780820151818401526020810190506113c7565b838111156113f1576000848401525b50505050565b6000600282049050600182168061140f57607f821691505b6020821081141561142357611422611458565b5b50919050565b7f4e487b7100000000000000000000000000000000000000000000000000000000600052602160045260246000fd5b7f4e487b7100000000000000000000000000000000000000000000000000000000600052602260045260246000fd5b7f4e487b7100000000000000000000000000000000000000000000000000000000600052604160045260246000fd5b6000601f19601f8301169050919050565b600581106114d8576114d7611429565b5b5056fe544f4b454e5f454447453a2043616e2070726f636573732064617461206c6f63616c6c792e544f4b454e5f53454e534f523a2043616e20636f6c6c65637420616e642073656e6420646174612e544f4b454e5f464f473a2043616e2070726f6365737320616e642073746f726520646174612e544f4b454e5f4143545541544f523a2043616e206578656375746520616374696f6e732ea264697066735822122002d1ca886b8e7dbe9cf7dbe11cf9532629f2fb8fc8a061166acec84366159d8c64736f6c63430008000033",
  "immutableReferences": {},
  "source": "// SPDX-License-Identifier: MIT\npragma solidity ^0.8.0;\n\ncontract NodeRegistry {\n    \n    enum NodeType { Unknown, Fog, Edge, Sensor, Actuator } // Define possible node types\n\n    struct IoTNode {\n        string nodeName;\n        NodeType nodeType;\n        string publicKey;\n        bool isRegistered;\n        string capabilityToken;\n    }\n\n    mapping(string => IoTNode) public iotNodes;\n    \n    event NodeRegistered(string indexed nodeId, string nodeName, NodeType nodeType, string publicKey, string capabilityToken);\n\n    function registerNode(string memory nodeId, string memory nodeName, string memory nodeTypeStr, string memory publicKey) public {\n        require(!iotNodes[nodeId].isRegistered, \"Node already registered!\");\n\n        NodeType nodeType = getNodeType(nodeTypeStr);\n        require(nodeType != NodeType.Unknown, \"Invalid node type!\");\n\n        string memory capabilityToken = generateToken(nodeType);\n\n        iotNodes[nodeId] = IoTNode({\n            nodeName: nodeName,\n            nodeType: nodeType,\n            publicKey: publicKey,\n            isRegistered: true,\n            capabilityToken: capabilityToken\n        });\n\n        emit NodeRegistered(nodeId, nodeName, nodeType, publicKey, capabilityToken);\n    }\n\n    function isNodeRegistered(string memory nodeId) public view returns (bool) {\n        return iotNodes[nodeId].isRegistered;\n    }\n\n    function getNodeDetails(string memory nodeId) public view returns (string memory, NodeType, string memory, bool, string memory) {\n        require(iotNodes[nodeId].isRegistered, \"Node not found!\");\n        IoTNode memory node = iotNodes[nodeId];\n        return (node.nodeName, node.nodeType, node.publicKey, node.isRegistered, node.capabilityToken);\n    }\n\n    function getNodeType(string memory nodeTypeStr) internal pure returns (NodeType) {\n        bytes32 nodeTypeHash = keccak256(abi.encodePacked(nodeTypeStr));\n\n        if (nodeTypeHash == keccak256(abi.encodePacked(\"Fog\"))) return NodeType.Fog;\n        if (nodeTypeHash == keccak256(abi.encodePacked(\"Edge\"))) return NodeType.Edge;\n        if (nodeTypeHash == keccak256(abi.encodePacked(\"Sensor\"))) return NodeType.Sensor;\n        if (nodeTypeHash == keccak256(abi.encodePacked(\"Actuator\"))) return NodeType.Actuator;\n\n        return NodeType.Unknown; // Invalid type\n    }\n\n    function generateToken(NodeType nodeType) internal pure returns (string memory) {\n        if (nodeType == NodeType.Fog) return \"TOKEN_FOG: Can process and store data.\";\n        if (nodeType == NodeType.Edge) return \"TOKEN_EDGE: Can process data locally.\";\n        if (nodeType == NodeType.Sensor) return \"TOKEN_SENSOR: Can collect and send data.\";\n        if (nodeType == NodeType.Actuator) return \"TOKEN_ACTUATOR: Can execute actions.\";\n        \n        return \"INVALID_TOKEN\";\n    }\n}",
  "sourcePath": "/Users/khannmohsin/VSCode_Projects/MyDisIoT_Project/smart_contract_deployment/contracts/NodeRegistry.sol",
  "compiler": {
    "name": "solc",
    "version": "0.8.0+commit.c7dfd78e.Emscripten.clang"
  },
  "schemaVersion": "3.4.16",
  "updatedAt": "2025-03-07T14:23:50.288Z",
  "devdoc": {
    "kind": "dev",
    "methods": {},
    "version": 1
  },
  "userdoc": {
    "kind": "user",
    "methods": {},
    "version": 1
  }
}