{
  "contractName": "NodeRegistry",
  "abi": [
    {
      "anonymous": false,
      "inputs": [
        {
          "indexed": true,
          "internalType": "string",
          "name": "nodeId",
          "type": "string"
        },
        {
          "indexed": false,
          "internalType": "string",
          "name": "nodeName",
          "type": "string"
        },
        {
          "indexed": false,
          "internalType": "enum NodeRegistry.NodeType",
          "name": "nodeType",
          "type": "uint8"
        },
        {
          "indexed": false,
          "internalType": "string",
          "name": "publicKey",
          "type": "string"
        },
        {
          "indexed": false,
          "internalType": "string",
          "name": "capabilityToken",
          "type": "string"
        },
        {
          "indexed": false,
          "internalType": "address",
          "name": "registeredBy",
          "type": "address"
        }
      ],
      "name": "NodeRegistered",
      "type": "event"
    },
    {
      "inputs": [
        {
          "internalType": "string",
          "name": "",
          "type": "string"
        }
      ],
      "name": "iotNodes",
      "outputs": [
        {
          "internalType": "string",
          "name": "nodeName",
          "type": "string"
        },
        {
          "internalType": "enum NodeRegistry.NodeType",
          "name": "nodeType",
          "type": "uint8"
        },
        {
          "internalType": "string",
          "name": "publicKey",
          "type": "string"
        },
        {
          "internalType": "bool",
          "name": "isRegistered",
          "type": "bool"
        },
        {
          "internalType": "string",
          "name": "capabilityToken",
          "type": "string"
        },
        {
          "internalType": "address",
          "name": "registeredBy",
          "type": "address"
        }
      ],
      "stateMutability": "view",
      "type": "function",
      "constant": true
    },
    {
      "inputs": [
        {
          "internalType": "string",
          "name": "nodeId",
          "type": "string"
        },
        {
          "internalType": "string",
          "name": "nodeName",
          "type": "string"
        },
        {
          "internalType": "string",
          "name": "nodeTypeStr",
          "type": "string"
        },
        {
          "internalType": "string",
          "name": "publicKey",
          "type": "string"
        }
      ],
      "name": "registerNode",
      "outputs": [],
      "stateMutability": "nonpayable",
      "type": "function"
    },
    {
      "inputs": [
        {
          "internalType": "string",
          "name": "nodeId",
          "type": "string"
        }
      ],
      "name": "isNodeRegistered",
      "outputs": [
        {
          "internalType": "bool",
          "name": "",
          "type": "bool"
        }
      ],
      "stateMutability": "view",
      "type": "function",
      "constant": true
    },
    {
      "inputs": [
        {
          "internalType": "string",
          "name": "nodeId",
          "type": "string"
        }
      ],
      "name": "getNodeDetails",
      "outputs": [
        {
          "internalType": "string",
          "name": "",
          "type": "string"
        },
        {
          "internalType": "enum NodeRegistry.NodeType",
          "name": "",
          "type": "uint8"
        },
        {
          "internalType": "string",
          "name": "",
          "type": "string"
        },
        {
          "internalType": "bool",
          "name": "",
          "type": "bool"
        },
        {
          "internalType": "string",
          "name": "",
          "type": "string"
        },
        {
          "internalType": "address",
          "name": "",
          "type": "address"
        }
      ],
      "stateMutability": "view",
      "type": "function",
      "constant": true
    }
  ],
  "bytecode": "0x608060405234801561001057600080fd5b506116f0806100206000396000f3fe608060405234801561001057600080fd5b506004361061004c5760003560e01c806325d80f95146100515780633f0e0e4714610081578063e623db46146100b6578063f991dde4146100d2575b600080fd5b61006b60048036038101906100669190610ef3565b610107565b60405161007891906112b9565b60405180910390f35b61009b60048036038101906100969190610ef3565b61013e565b6040516100ad969594939291906112d4565b60405180910390f35b6100d060048036038101906100cb9190610f34565b6104c5565b005b6100ec60048036038101906100e79190610ef3565b610812565b6040516100fe969594939291906112d4565b60405180910390f35b60008082604051610118919061124e565b908152602001604051809103902060030160009054906101000a900460ff169050919050565b6060600060606000606060008087604051610159919061124e565b908152602001604051809103902060030160009054906101000a900460ff166101b7576040517f08c379a00000000000000000000000000000000000000000000000000000000081526004016101ae906113d2565b60405180910390fd5b600080886040516101c8919061124e565b90815260200160405180910390206040518060c00160405290816000820180546101f19061153f565b80601f016020809104026020016040519081016040528092919081815260200182805461021d9061153f565b801561026a5780601f1061023f5761010080835404028352916020019161026a565b820191906000526020600020905b81548152906001019060200180831161024d57829003601f168201915b505050505081526020016001820160009054906101000a900460ff1660048111156102be577f4e487b7100000000000000000000000000000000000000000000000000000000600052602160045260246000fd5b60048111156102f6577f4e487b7100000000000000000000000000000000000000000000000000000000600052602160045260246000fd5b815260200160028201805461030a9061153f565b80601f01602080910402602001604051908101604052809291908181526020018280546103369061153f565b80156103835780601f1061035857610100808354040283529160200191610383565b820191906000526020600020905b81548152906001019060200180831161036657829003601f168201915b505050505081526020016003820160009054906101000a900460ff161515151581526020016004820180546103b79061153f565b80601f01602080910402602001604051908101604052809291908181526020018280546103e39061153f565b80156104305780601f1061040557610100808354040283529160200191610430565b820191906000526020600020905b81548152906001019060200180831161041357829003601f168201915b505050505081526020016005820160009054906101000a900473ffffffffffffffffffffffffffffffffffffffff1673ffffffffffffffffffffffffffffffffffffffff1673ffffffffffffffffffffffffffffffffffffffff16815250509050806000015181602001518260400151836060015184608001518560a001519650965096509650965096505091939550919395565b6000846040516104d5919061124e565b908152602001604051809103902060030160009054906101000a900460ff1615610534576040517f08c379a000000000000000000000000000000000000000000000000000000000815260040161052b906113b2565b60405180910390fd5b600061053f83610a36565b90506000600481111561057b577f4e487b7100000000000000000000000000000000000000000000000000000000600052602160045260246000fd5b8160048111156105b4577f4e487b7100000000000000000000000000000000000000000000000000000000600052602160045260246000fd5b14156105f5576040517f08c379a00000000000000000000000000000000000000000000000000000000081526004016105ec906113f2565b60405180910390fd5b600061060082610b45565b90506040518060c0016040528086815260200183600481111561064c577f4e487b7100000000000000000000000000000000000000000000000000000000600052602160045260246000fd5b81526020018481526020016001151581526020018281526020013373ffffffffffffffffffffffffffffffffffffffff16815250600087604051610690919061124e565b908152602001604051809103902060008201518160000190805190602001906106ba929190610de8565b5060208201518160010160006101000a81548160ff0219169083600481111561070c577f4e487b7100000000000000000000000000000000000000000000000000000000600052602160045260246000fd5b0217905550604082015181600201908051906020019061072d929190610de8565b5060608201518160030160006101000a81548160ff021916908315150217905550608082015181600401908051906020019061076a929190610de8565b5060a08201518160050160006101000a81548173ffffffffffffffffffffffffffffffffffffffff021916908373ffffffffffffffffffffffffffffffffffffffff160217905550905050856040516107c3919061124e565b60405180910390207fb9a24c3926361e0444351df8f454eb11d84c11f098c98ed3c70773db2d80194f868486853360405161080295949392919061134a565b60405180910390a2505050505050565b60008180516020810182018051848252602083016020850120818352809550505050505060009150905080600001805461084b9061153f565b80601f01602080910402602001604051908101604052809291908181526020018280546108779061153f565b80156108c45780601f10610899576101008083540402835291602001916108c4565b820191906000526020600020905b8154815290600101906020018083116108a757829003601f168201915b5050505050908060010160009054906101000a900460ff16908060020180546108ec9061153f565b80601f01602080910402602001604051908101604052809291908181526020018280546109189061153f565b80156109655780601f1061093a57610100808354040283529160200191610965565b820191906000526020600020905b81548152906001019060200180831161094857829003601f168201915b5050505050908060030160009054906101000a900460ff169080600401805461098d9061153f565b80601f01602080910402602001604051908101604052809291908181526020018280546109b99061153f565b8015610a065780601f106109db57610100808354040283529160200191610a06565b820191906000526020600020905b8154815290600101906020018083116109e957829003601f168201915b5050505050908060050160009054906101000a900473ffffffffffffffffffffffffffffffffffffffff16905086565b60008082604051602001610a4a919061124e565b604051602081830303815290604052805190602001209050604051602001610a71906112a4565b60405160208183030381529060405280519060200120811415610a98576001915050610b40565b604051602001610aa790611265565b60405160208183030381529060405280519060200120811415610ace576002915050610b40565b604051602001610add9061128f565b60405160208183030381529060405280519060200120811415610b04576003915050610b40565b604051602001610b139061127a565b60405160208183030381529060405280519060200120811415610b3a576004915050610b40565b60009150505b919050565b606060016004811115610b81577f4e487b7100000000000000000000000000000000000000000000000000000000600052602160045260246000fd5b826004811115610bba577f4e487b7100000000000000000000000000000000000000000000000000000000600052602160045260246000fd5b1415610be057604051806060016040528060268152602001611671602691399050610de3565b60026004811115610c1a577f4e487b7100000000000000000000000000000000000000000000000000000000600052602160045260246000fd5b826004811115610c53577f4e487b7100000000000000000000000000000000000000000000000000000000600052602160045260246000fd5b1415610c7957604051806060016040528060258152602001611624602591399050610de3565b60036004811115610cb3577f4e487b7100000000000000000000000000000000000000000000000000000000600052602160045260246000fd5b826004811115610cec577f4e487b7100000000000000000000000000000000000000000000000000000000600052602160045260246000fd5b1415610d1257604051806060016040528060288152602001611649602891399050610de3565b600480811115610d4b577f4e487b7100000000000000000000000000000000000000000000000000000000600052602160045260246000fd5b826004811115610d84577f4e487b7100000000000000000000000000000000000000000000000000000000600052602160045260246000fd5b1415610daa57604051806060016040528060248152602001611697602491399050610de3565b6040518060400160405280600d81526020017f494e56414c49445f544f4b454e0000000000000000000000000000000000000081525090505b919050565b828054610df49061153f565b90600052602060002090601f016020900481019282610e165760008555610e5d565b82601f10610e2f57805160ff1916838001178555610e5d565b82800160010185558215610e5d579182015b82811115610e5c578251825591602001919060010190610e41565b5b509050610e6a9190610e6e565b5090565b5b80821115610e87576000816000905550600101610e6f565b5090565b6000610e9e610e9984611443565b611412565b905082815260208101848484011115610eb657600080fd5b610ec18482856114fd565b509392505050565b600082601f830112610eda57600080fd5b8135610eea848260208601610e8b565b91505092915050565b600060208284031215610f0557600080fd5b600082013567ffffffffffffffff811115610f1f57600080fd5b610f2b84828501610ec9565b91505092915050565b60008060008060808587031215610f4a57600080fd5b600085013567ffffffffffffffff811115610f6457600080fd5b610f7087828801610ec9565b945050602085013567ffffffffffffffff811115610f8d57600080fd5b610f9987828801610ec9565b935050604085013567ffffffffffffffff811115610fb657600080fd5b610fc287828801610ec9565b925050606085013567ffffffffffffffff811115610fdf57600080fd5b610feb87828801610ec9565b91505092959194509250565b6110008161149a565b82525050565b61100f816114ac565b82525050565b61101e816114eb565b82525050565b600061102f82611473565b611039818561147e565b935061104981856020860161150c565b611052816115fe565b840191505092915050565b600061106882611473565b611072818561148f565b935061108281856020860161150c565b80840191505092915050565b600061109b60048361148f565b91507f45646765000000000000000000000000000000000000000000000000000000006000830152600482019050919050565b60006110db60188361147e565b91507f4e6f646520616c726561647920726567697374657265642100000000000000006000830152602082019050919050565b600061111b60088361148f565b91507f4163747561746f720000000000000000000000000000000000000000000000006000830152600882019050919050565b600061115b60068361148f565b91507f53656e736f7200000000000000000000000000000000000000000000000000006000830152600682019050919050565b600061119b600f8361147e565b91507f4e6f6465206e6f7420666f756e642100000000000000000000000000000000006000830152602082019050919050565b60006111db60038361148f565b91507f466f6700000000000000000000000000000000000000000000000000000000006000830152600382019050919050565b600061121b60128361147e565b91507f496e76616c6964206e6f646520747970652100000000000000000000000000006000830152602082019050919050565b600061125a828461105d565b915081905092915050565b60006112708261108e565b9150819050919050565b60006112858261110e565b9150819050919050565b600061129a8261114e565b9150819050919050565b60006112af826111ce565b9150819050919050565b60006020820190506112ce6000830184611006565b92915050565b600060c08201905081810360008301526112ee8189611024565b90506112fd6020830188611015565b818103604083015261130f8187611024565b905061131e6060830186611006565b81810360808301526113308185611024565b905061133f60a0830184610ff7565b979650505050505050565b600060a08201905081810360008301526113648188611024565b90506113736020830187611015565b81810360408301526113858186611024565b905081810360608301526113998185611024565b90506113a86080830184610ff7565b9695505050505050565b600060208201905081810360008301526113cb816110ce565b9050919050565b600060208201905081810360008301526113eb8161118e565b9050919050565b6000602082019050818103600083015261140b8161120e565b9050919050565b6000604051905081810181811067ffffffffffffffff82111715611439576114386115cf565b5b8060405250919050565b600067ffffffffffffffff82111561145e5761145d6115cf565b5b601f19601f8301169050602081019050919050565b600081519050919050565b600082825260208201905092915050565b600081905092915050565b60006114a5826114cb565b9050919050565b60008115159050919050565b60008190506114c68261160f565b919050565b600073ffffffffffffffffffffffffffffffffffffffff82169050919050565b60006114f6826114b8565b9050919050565b82818337600083830152505050565b60005b8381101561152a57808201518184015260208101905061150f565b83811115611539576000848401525b50505050565b6000600282049050600182168061155757607f821691505b6020821081141561156b5761156a6115a0565b5b50919050565b7f4e487b7100000000000000000000000000000000000000000000000000000000600052602160045260246000fd5b7f4e487b7100000000000000000000000000000000000000000000000000000000600052602260045260246000fd5b7f4e487b7100000000000000000000000000000000000000000000000000000000600052604160045260246000fd5b6000601f19601f8301169050919050565b600581106116205761161f611571565b5b5056fe544f4b454e5f454447453a2043616e2070726f636573732064617461206c6f63616c6c792e544f4b454e5f53454e534f523a2043616e20636f6c6c65637420616e642073656e6420646174612e544f4b454e5f464f473a2043616e2070726f6365737320616e642073746f726520646174612e544f4b454e5f4143545541544f523a2043616e206578656375746520616374696f6e732ea26469706673582212203927d4263ef8ef1f31f95d9400767d7b5b6d18e485458ff6af955898a3cbb43a64736f6c63430008000033",
  "immutableReferences": {},
  "source": "// SPDX-License-Identifier: MIT\npragma solidity ^0.8.0;\n\ncontract NodeRegistry {\n    \n    enum NodeType { Unknown, Fog, Edge, Sensor, Actuator } // Define possible node types\n\n    struct IoTNode {\n        string nodeName;\n        NodeType nodeType;\n        string publicKey;\n        bool isRegistered;\n        string capabilityToken;\n        address registeredBy; //  Ethereum address of the node owner\n    }\n\n    mapping(string => IoTNode) public iotNodes;\n    \n    event NodeRegistered(\n        string indexed nodeId,\n        string nodeName,\n        NodeType nodeType,\n        string publicKey,\n        string capabilityToken,\n        address registeredBy //  Include address in the event\n    );\n\n    function registerNode(\n        string memory nodeId,\n        string memory nodeName,\n        string memory nodeTypeStr,\n        string memory publicKey\n    ) public {\n        require(!iotNodes[nodeId].isRegistered, \"Node already registered!\");\n\n        NodeType nodeType = getNodeType(nodeTypeStr);\n        require(nodeType != NodeType.Unknown, \"Invalid node type!\");\n\n        string memory capabilityToken = generateToken(nodeType);\n\n        iotNodes[nodeId] = IoTNode({\n            nodeName: nodeName,\n            nodeType: nodeType,\n            publicKey: publicKey,\n            isRegistered: true,\n            capabilityToken: capabilityToken,\n            registeredBy: msg.sender //  Save sender's address\n        });\n\n        emit NodeRegistered(nodeId, nodeName, nodeType, publicKey, capabilityToken, msg.sender);\n    }\n\n    function isNodeRegistered(string memory nodeId) public view returns (bool) {\n        return iotNodes[nodeId].isRegistered;\n    }\n\n    function getNodeDetails(string memory nodeId) \n        public view returns (string memory, NodeType, string memory, bool, string memory, address) \n    {\n        require(iotNodes[nodeId].isRegistered, \"Node not found!\");\n        IoTNode memory node = iotNodes[nodeId];\n        return (node.nodeName, node.nodeType, node.publicKey, node.isRegistered, node.capabilityToken, node.registeredBy);\n    }\n\n    function getNodeType(string memory nodeTypeStr) internal pure returns (NodeType) {\n        bytes32 nodeTypeHash = keccak256(abi.encodePacked(nodeTypeStr));\n\n        if (nodeTypeHash == keccak256(abi.encodePacked(\"Fog\"))) return NodeType.Fog;\n        if (nodeTypeHash == keccak256(abi.encodePacked(\"Edge\"))) return NodeType.Edge;\n        if (nodeTypeHash == keccak256(abi.encodePacked(\"Sensor\"))) return NodeType.Sensor;\n        if (nodeTypeHash == keccak256(abi.encodePacked(\"Actuator\"))) return NodeType.Actuator;\n\n        return NodeType.Unknown; // Invalid type\n    }\n\n    function generateToken(NodeType nodeType) internal pure returns (string memory) {\n        if (nodeType == NodeType.Fog) return \"TOKEN_FOG: Can process and store data.\";\n        if (nodeType == NodeType.Edge) return \"TOKEN_EDGE: Can process data locally.\";\n        if (nodeType == NodeType.Sensor) return \"TOKEN_SENSOR: Can collect and send data.\";\n        if (nodeType == NodeType.Actuator) return \"TOKEN_ACTUATOR: Can execute actions.\";\n        \n        return \"INVALID_TOKEN\";\n    }\n}",
  "sourcePath": "/Users/khannmohsin/VSCode_Projects/MyDisIoT_Project/smart_contract_deployment/contracts/NodeRegistry.sol",
  "compiler": {
    "name": "solc",
    "version": "0.8.0+commit.c7dfd78e.Emscripten.clang"
  },
  "schemaVersion": "3.4.16",
  "updatedAt": "2025-03-13T15:53:48.193Z",
  "networkType": "ethereum",
  "devdoc": {
    "kind": "dev",
    "methods": {},
    "version": 1
  },
  "userdoc": {
    "kind": "user",
    "methods": {},
    "version": 1
  }
}