{
  "contractName": "NodeRegistry",
  "abi": [
    {
      "anonymous": false,
      "inputs": [
        {
          "indexed": true,
          "internalType": "string",
          "name": "nodeId",
          "type": "string"
        },
        {
          "indexed": false,
          "internalType": "string",
          "name": "nodeName",
          "type": "string"
        },
        {
          "indexed": false,
          "internalType": "enum NodeRegistry.NodeType",
          "name": "nodeType",
          "type": "uint8"
        },
        {
          "indexed": false,
          "internalType": "string",
          "name": "publicKey",
          "type": "string"
        },
        {
          "indexed": false,
          "internalType": "address",
          "name": "registeredBy",
          "type": "address"
        },
        {
          "indexed": false,
          "internalType": "enum NodeRegistry.NodeType",
          "name": "registeredByNodeType",
          "type": "uint8"
        },
        {
          "indexed": false,
          "internalType": "string",
          "name": "nodeSignature",
          "type": "string"
        }
      ],
      "name": "NodeRegistered",
      "type": "event"
    },
    {
      "anonymous": false,
      "inputs": [
        {
          "indexed": true,
          "internalType": "address",
          "name": "nodeAddress",
          "type": "address"
        },
        {
          "indexed": false,
          "internalType": "string",
          "name": "rpcURL",
          "type": "string"
        }
      ],
      "name": "RpcUrlMapped",
      "type": "event"
    },
    {
      "anonymous": false,
      "inputs": [
        {
          "indexed": false,
          "internalType": "string",
          "name": "fromNodeSignature",
          "type": "string"
        },
        {
          "indexed": false,
          "internalType": "string",
          "name": "toNodeSignature",
          "type": "string"
        }
      ],
      "name": "TokenChecked",
      "type": "event"
    },
    {
      "anonymous": false,
      "inputs": [
        {
          "indexed": false,
          "internalType": "string",
          "name": "fromNodeSignature",
          "type": "string"
        },
        {
          "indexed": false,
          "internalType": "string",
          "name": "toNodeSignature",
          "type": "string"
        },
        {
          "indexed": false,
          "internalType": "string",
          "name": "policy",
          "type": "string"
        },
        {
          "indexed": false,
          "internalType": "uint256",
          "name": "issuedAt",
          "type": "uint256"
        }
      ],
      "name": "TokenIssued",
      "type": "event"
    },
    {
      "anonymous": false,
      "inputs": [
        {
          "indexed": false,
          "internalType": "string",
          "name": "fromNodeSignature",
          "type": "string"
        },
        {
          "indexed": false,
          "internalType": "string",
          "name": "toNodeSignature",
          "type": "string"
        }
      ],
      "name": "TokenRevoked",
      "type": "event"
    },
    {
      "anonymous": false,
      "inputs": [
        {
          "indexed": true,
          "internalType": "address",
          "name": "proposedBy",
          "type": "address"
        },
        {
          "indexed": true,
          "internalType": "address",
          "name": "validator",
          "type": "address"
        }
      ],
      "name": "ValidatorProposed",
      "type": "event"
    },
    {
      "inputs": [
        {
          "internalType": "address",
          "name": "",
          "type": "address"
        }
      ],
      "name": "addressToNodeId",
      "outputs": [
        {
          "internalType": "string",
          "name": "",
          "type": "string"
        }
      ],
      "stateMutability": "view",
      "type": "function",
      "constant": true
    },
    {
      "inputs": [
        {
          "internalType": "bytes32",
          "name": "",
          "type": "bytes32"
        }
      ],
      "name": "capabilityTokens",
      "outputs": [
        {
          "internalType": "string",
          "name": "policy",
          "type": "string"
        },
        {
          "internalType": "uint256",
          "name": "issuedAt",
          "type": "uint256"
        },
        {
          "internalType": "bool",
          "name": "isIssued",
          "type": "bool"
        },
        {
          "internalType": "bool",
          "name": "isRevoked",
          "type": "bool"
        }
      ],
      "stateMutability": "view",
      "type": "function",
      "constant": true
    },
    {
      "inputs": [
        {
          "internalType": "string",
          "name": "",
          "type": "string"
        }
      ],
      "name": "iotNodes",
      "outputs": [
        {
          "internalType": "string",
          "name": "nodeName",
          "type": "string"
        },
        {
          "internalType": "enum NodeRegistry.NodeType",
          "name": "nodeType",
          "type": "uint8"
        },
        {
          "internalType": "string",
          "name": "publicKey",
          "type": "string"
        },
        {
          "internalType": "bool",
          "name": "isRegistered",
          "type": "bool"
        },
        {
          "internalType": "address",
          "name": "registeredBy",
          "type": "address"
        },
        {
          "internalType": "enum NodeRegistry.NodeType",
          "name": "registeredByNodeType",
          "type": "uint8"
        },
        {
          "internalType": "string",
          "name": "nodeSignature",
          "type": "string"
        }
      ],
      "stateMutability": "view",
      "type": "function",
      "constant": true
    },
    {
      "inputs": [
        {
          "internalType": "address",
          "name": "",
          "type": "address"
        }
      ],
      "name": "nodeRpcUrls",
      "outputs": [
        {
          "internalType": "string",
          "name": "",
          "type": "string"
        }
      ],
      "stateMutability": "view",
      "type": "function",
      "constant": true
    },
    {
      "inputs": [
        {
          "internalType": "string",
          "name": "",
          "type": "string"
        }
      ],
      "name": "nodeSignatureToNodeId",
      "outputs": [
        {
          "internalType": "string",
          "name": "",
          "type": "string"
        }
      ],
      "stateMutability": "view",
      "type": "function",
      "constant": true
    },
    {
      "inputs": [
        {
          "internalType": "string",
          "name": "nodeId",
          "type": "string"
        },
        {
          "internalType": "string",
          "name": "nodeName",
          "type": "string"
        },
        {
          "internalType": "string",
          "name": "nodeTypeStr",
          "type": "string"
        },
        {
          "internalType": "string",
          "name": "publicKey",
          "type": "string"
        },
        {
          "internalType": "address",
          "name": "registeredBy",
          "type": "address"
        },
        {
          "internalType": "string",
          "name": "rpcURL",
          "type": "string"
        },
        {
          "internalType": "string",
          "name": "registeredByNodeTypeStr",
          "type": "string"
        },
        {
          "internalType": "string",
          "name": "nodeSignature",
          "type": "string"
        }
      ],
      "name": "registerNode",
      "outputs": [],
      "stateMutability": "nonpayable",
      "type": "function"
    },
    {
      "inputs": [
        {
          "internalType": "string",
          "name": "nodeSignature",
          "type": "string"
        }
      ],
      "name": "isNodeRegistered",
      "outputs": [
        {
          "internalType": "bool",
          "name": "",
          "type": "bool"
        }
      ],
      "stateMutability": "view",
      "type": "function",
      "constant": true
    },
    {
      "inputs": [
        {
          "internalType": "address",
          "name": "validator",
          "type": "address"
        }
      ],
      "name": "proposeValidator",
      "outputs": [],
      "stateMutability": "nonpayable",
      "type": "function"
    },
    {
      "inputs": [
        {
          "internalType": "string",
          "name": "nodeSignature",
          "type": "string"
        }
      ],
      "name": "getNodeDetailsBySignature",
      "outputs": [
        {
          "internalType": "string",
          "name": "",
          "type": "string"
        },
        {
          "internalType": "string",
          "name": "",
          "type": "string"
        },
        {
          "internalType": "enum NodeRegistry.NodeType",
          "name": "",
          "type": "uint8"
        },
        {
          "internalType": "string",
          "name": "",
          "type": "string"
        },
        {
          "internalType": "bool",
          "name": "",
          "type": "bool"
        },
        {
          "internalType": "address",
          "name": "",
          "type": "address"
        },
        {
          "internalType": "string",
          "name": "",
          "type": "string"
        },
        {
          "internalType": "enum NodeRegistry.NodeType",
          "name": "",
          "type": "uint8"
        }
      ],
      "stateMutability": "view",
      "type": "function",
      "constant": true
    },
    {
      "inputs": [
        {
          "internalType": "address",
          "name": "nodeAddress",
          "type": "address"
        }
      ],
      "name": "getNodeDetailsByAddress",
      "outputs": [
        {
          "internalType": "string",
          "name": "",
          "type": "string"
        },
        {
          "internalType": "string",
          "name": "",
          "type": "string"
        },
        {
          "internalType": "enum NodeRegistry.NodeType",
          "name": "",
          "type": "uint8"
        },
        {
          "internalType": "string",
          "name": "",
          "type": "string"
        },
        {
          "internalType": "bool",
          "name": "",
          "type": "bool"
        },
        {
          "internalType": "address",
          "name": "",
          "type": "address"
        },
        {
          "internalType": "string",
          "name": "",
          "type": "string"
        },
        {
          "internalType": "enum NodeRegistry.NodeType",
          "name": "",
          "type": "uint8"
        }
      ],
      "stateMutability": "view",
      "type": "function",
      "constant": true
    },
    {
      "inputs": [
        {
          "internalType": "string",
          "name": "fromNodeSignature",
          "type": "string"
        },
        {
          "internalType": "string",
          "name": "toNodeSignature",
          "type": "string"
        }
      ],
      "name": "issueToken",
      "outputs": [],
      "stateMutability": "nonpayable",
      "type": "function"
    },
    {
      "inputs": [
        {
          "internalType": "string",
          "name": "fromNodeSignature",
          "type": "string"
        },
        {
          "internalType": "string",
          "name": "toNodeSignature",
          "type": "string"
        }
      ],
      "name": "revokeToken",
      "outputs": [],
      "stateMutability": "nonpayable",
      "type": "function"
    },
    {
      "inputs": [
        {
          "internalType": "string",
          "name": "fromNodeSignature",
          "type": "string"
        },
        {
          "internalType": "string",
          "name": "toNodeSignature",
          "type": "string"
        }
      ],
      "name": "getToken",
      "outputs": [
        {
          "internalType": "string",
          "name": "policy",
          "type": "string"
        },
        {
          "internalType": "uint256",
          "name": "issuedAt",
          "type": "uint256"
        },
        {
          "internalType": "bool",
          "name": "isIssued",
          "type": "bool"
        },
        {
          "internalType": "bool",
          "name": "isRevoked",
          "type": "bool"
        }
      ],
      "stateMutability": "view",
      "type": "function",
      "constant": true
    },
    {
      "inputs": [
        {
          "internalType": "string",
          "name": "fromNodeSignature",
          "type": "string"
        },
        {
          "internalType": "string",
          "name": "toNodeSignature",
          "type": "string"
        }
      ],
      "name": "checkToken",
      "outputs": [
        {
          "internalType": "bool",
          "name": "",
          "type": "bool"
        }
      ],
      "stateMutability": "view",
      "type": "function",
      "constant": true
    },
    {
      "inputs": [
        {
          "internalType": "string",
          "name": "fromNodeSignature",
          "type": "string"
        },
        {
          "internalType": "string",
          "name": "toNodeSignature",
          "type": "string"
        },
        {
          "internalType": "uint256",
          "name": "validityPeriodInSeconds",
          "type": "uint256"
        }
      ],
      "name": "isTokenExpired",
      "outputs": [
        {
          "internalType": "bool",
          "name": "",
          "type": "bool"
        }
      ],
      "stateMutability": "view",
      "type": "function",
      "constant": true
    },
    {
      "inputs": [
        {
          "internalType": "string",
          "name": "nodeSignature",
          "type": "string"
        }
      ],
      "name": "isValidator",
      "outputs": [
        {
          "internalType": "bool",
          "name": "",
          "type": "bool"
        }
      ],
      "stateMutability": "view",
      "type": "function",
      "constant": true
    }
  ],
  "bytecode": "0x608060405234801561001057600080fd5b5061428f806100206000396000f3fe608060405234801561001057600080fd5b50600436106101005760003560e01c8063a4b341cd11610097578063e5e1eeea11610066578063e5e1eeea14610302578063ef36d16a14610332578063f934df9114610362578063f991dde41461039957610100565b8063a4b341cd14610260578063a6aaa9c31461027c578063cb2ec25714610298578063ce5539d2146102cf57610100565b80635e86f2b3116100d35780635e86f2b31461019d57806384e6b890146101d05780638d06214114610200578063919bfb701461023057610100565b806324e1e24f1461010557806325d80f9514610121578063430ae6331461015157806345e6ad7114610181575b600080fd5b61011f600480360381019061011a9190613336565b6103cf565b005b61013b600480360381019061013691906132f5565b610530565b6040516101489190613b67565b60405180910390f35b61016b600480360381019061016691906132f5565b61068a565b6040516101789190613b67565b60405180910390f35b61019b60048036038101906101969190613336565b610958565b005b6101b760048036038101906101b291906132cc565b610cc9565b6040516101c79493929190613dc9565b60405180910390f35b6101ea60048036038101906101e591906134fc565b610d9b565b6040516101f79190613b67565b60405180910390f35b61021a600480360381019061021591906132a3565b610efd565b6040516102279190613b82565b60405180910390f35b61024a60048036038101906102459190613336565b610f9d565b6040516102579190613b67565b60405180910390f35b61027a600480360381019061027591906132a3565b6110dc565b005b610296600480360381019061029191906133a2565b6111a9565b005b6102b260048036038101906102ad91906132a3565b61176b565b6040516102c6989796959493929190613cd5565b60405180910390f35b6102e960048036038101906102e49190613336565b611c2a565b6040516102f99493929190613dc9565b60405180910390f35b61031c600480360381019061031791906132f5565b611d78565b6040516103299190613b82565b60405180910390f35b61034c600480360381019061034791906132a3565b611e2e565b6040516103599190613b82565b60405180910390f35b61037c600480360381019061037791906132f5565b611ece565b604051610390989796959493929190613cd5565b60405180910390f35b6103b360048036038101906103ae91906132f5565b61240d565b6040516103c69796959493929190613c1a565b60405180910390f35b600082826040516020016103e4929190613ac3565b6040516020818303038152906040528051906020012090506003600082815260200190815260200160002060020160009054906101000a900460ff1661045f576040517f08c379a000000000000000000000000000000000000000000000000000000000815260040161045690613e75565b60405180910390fd5b6003600082815260200190815260200160002060020160019054906101000a900460ff16156104c3576040517f08c379a00000000000000000000000000000000000000000000000000000000081526004016104ba90613f15565b60405180910390fd5b60016003600083815260200190815260200160002060020160016101000a81548160ff0219169083151502179055507f25b1bdd5e4adffe0572267dad23e6a1af68fbc866a9e62471341243de762e1068383604051610523929190613c9e565b60405180910390a1505050565b6000806001836040516105439190613aac565b9081526020016040518091039020805461055c90614101565b80601f016020809104026020016040519081016040528092919081815260200182805461058890614101565b80156105d55780601f106105aa576101008083540402835291602001916105d5565b820191906000526020600020905b8154815290600101906020018083116105b857829003601f168201915b505050505090506000816040516105ec9190613aac565b908152602001604051809103902060030160009054906101000a900460ff1680156106825750826040516020016106239190613aac565b604051602081830303815290604052805190602001206000826040516106499190613aac565b908152602001604051809103902060040160405160200161066a9190613ae7565b60405160208183030381529060405280519060200120145b915050919050565b60008060018360405161069d9190613aac565b908152602001604051809103902080546106b690614101565b80601f01602080910402602001604051908101604052809291908181526020018280546106e290614101565b801561072f5780601f106107045761010080835404028352916020019161072f565b820191906000526020600020905b81548152906001019060200180831161071257829003601f168201915b505050505090506000816040516107469190613aac565b908152602001604051809103902060030160009054906101000a900460ff1680156107dc57508260405160200161077d9190613aac565b604051602081830303815290604052805190602001206000826040516107a39190613aac565b90815260200160405180910390206004016040516020016107c49190613ae7565b60405160208183030381529060405280519060200120145b61081b576040517f08c379a000000000000000000000000000000000000000000000000000000000815260040161081290613ef5565b60405180910390fd5b6000808260405161082c9190613aac565b908152602001604051809103902060010160009054906101000a900460ff16905060016005811115610887577f4e487b7100000000000000000000000000000000000000000000000000000000600052602160045260246000fd5b8160058111156108c0577f4e487b7100000000000000000000000000000000000000000000000000000000600052602160045260246000fd5b148061093c575060026005811115610901577f4e487b7100000000000000000000000000000000000000000000000000000000600052602160045260246000fd5b81600581111561093a577f4e487b7100000000000000000000000000000000000000000000000000000000600052602160045260246000fd5b145b1561094c57600192505050610953565b6000925050505b919050565b600060018360405161096a9190613aac565b9081526020016040518091039020805461098390614101565b80601f01602080910402602001604051908101604052809291908181526020018280546109af90614101565b80156109fc5780601f106109d1576101008083540402835291602001916109fc565b820191906000526020600020905b8154815290600101906020018083116109df57829003601f168201915b505050505090506000600183604051610a159190613aac565b90815260200160405180910390208054610a2e90614101565b80601f0160208091040260200160405190810160405280929190818152602001828054610a5a90614101565b8015610aa75780601f10610a7c57610100808354040283529160200191610aa7565b820191906000526020600020905b815481529060010190602001808311610a8a57829003601f168201915b5050505050905060008083604051610abf9190613aac565b908152602001604051809103902060010160009054906101000a900460ff16905060008083604051610af19190613aac565b908152602001604051809103902060010160009054906101000a900460ff1690506000610b1e8383612644565b905060008787604051602001610b35929190613ac3565b6040516020818303038152906040528051906020012090506003600082815260200190815260200160002060020160009054906101000a900460ff168015610b9e57506003600082815260200190815260200160002060020160019054906101000a900460ff16155b15610bde576040517f08c379a0000000000000000000000000000000000000000000000000000000008152600401610bd590613e55565b60405180910390fd5b604051806080016040528083815260200142815260200160011515815260200160001515815250600360008381526020019081526020016000206000820151816000019080519060200190610c34929190613159565b506020820151816001015560408201518160020160006101000a81548160ff02191690831515021790555060608201518160020160016101000a81548160ff0219169083151502179055509050507f31f2a9a1648ad524dab76bf973a43a9ef82147d8a007802be67f77b17e16747488888442604051610cb79493929190613d6f565b60405180910390a15050505050505050565b6003602052806000526040600020600091509050806000018054610cec90614101565b80601f0160208091040260200160405190810160405280929190818152602001828054610d1890614101565b8015610d655780601f10610d3a57610100808354040283529160200191610d65565b820191906000526020600020905b815481529060010190602001808311610d4857829003601f168201915b5050505050908060010154908060020160009054906101000a900460ff16908060020160019054906101000a900460ff16905084565b6000808484604051602001610db1929190613ac3565b604051602081830303815290604052805190602001209050600060036000838152602001908152602001600020604051806080016040529081600082018054610df990614101565b80601f0160208091040260200160405190810160405280929190818152602001828054610e2590614101565b8015610e725780601f10610e4757610100808354040283529160200191610e72565b820191906000526020600020905b815481529060010190602001808311610e5557829003601f168201915b50505050508152602001600182015481526020016002820160009054906101000a900460ff161515151581526020016002820160019054906101000a900460ff161515151581525050905080604001511580610ecf575080606001515b15610edf57600192505050610ef6565b838160200151610eef9190613ff2565b4211925050505b9392505050565b60046020528060005260406000206000915090508054610f1c90614101565b80601f0160208091040260200160405190810160405280929190818152602001828054610f4890614101565b8015610f955780601f10610f6a57610100808354040283529160200191610f95565b820191906000526020600020905b815481529060010190602001808311610f7857829003601f168201915b505050505081565b6000808383604051602001610fb3929190613ac3565b604051602081830303815290604052805190602001209050600060036000838152602001908152602001600020604051806080016040529081600082018054610ffb90614101565b80601f016020809104026020016040519081016040528092919081815260200182805461102790614101565b80156110745780601f1061104957610100808354040283529160200191611074565b820191906000526020600020905b81548152906001019060200180831161105757829003601f168201915b50505050508152602001600182015481526020016002820160009054906101000a900460ff161515151581526020016002820160019054906101000a900460ff1615151515815250509050806040015180156110d257508060600151155b9250505092915050565b600073ffffffffffffffffffffffffffffffffffffffff168173ffffffffffffffffffffffffffffffffffffffff16141561114c576040517f08c379a000000000000000000000000000000000000000000000000000000000815260040161114390613e35565b60405180910390fd5b8073ffffffffffffffffffffffffffffffffffffffff163373ffffffffffffffffffffffffffffffffffffffff167f1e88818bc653698bb4bd01c0797cdf0c683be29f1171a3d3c345af8b18d10cfe60405160405180910390a350565b60006001826040516111bb9190613aac565b908152602001604051809103902080546111d490614101565b905014611216576040517f08c379a000000000000000000000000000000000000000000000000000000000815260040161120d90613e15565b60405180910390fd5b876001826040516112279190613aac565b90815260200160405180910390209080519060200190611248929190613159565b50600061125487613014565b9050600061126184613014565b90506000600581111561129d577f4e487b7100000000000000000000000000000000000000000000000000000000600052602160045260246000fd5b8260058111156112d6577f4e487b7100000000000000000000000000000000000000000000000000000000600052602160045260246000fd5b1415611317576040517f08c379a000000000000000000000000000000000000000000000000000000000815260040161130e90613eb5565b60405180910390fd5b60006005811115611351577f4e487b7100000000000000000000000000000000000000000000000000000000600052602160045260246000fd5b81600581111561138a577f4e487b7100000000000000000000000000000000000000000000000000000000600052602160045260246000fd5b14156113cb576040517f08c379a00000000000000000000000000000000000000000000000000000000081526004016113c290613e95565b60405180910390fd5b6040518060e001604052808a8152602001836005811115611415577f4e487b7100000000000000000000000000000000000000000000000000000000600052602160045260246000fd5b81526020018881526020016001151581526020018773ffffffffffffffffffffffffffffffffffffffff16815260200182600581111561147e577f4e487b7100000000000000000000000000000000000000000000000000000000600052602160045260246000fd5b81526020018481525060008b6040516114979190613aac565b908152602001604051809103902060008201518160000190805190602001906114c1929190613159565b5060208201518160010160006101000a81548160ff02191690836005811115611513577f4e487b7100000000000000000000000000000000000000000000000000000000600052602160045260246000fd5b02179055506040820151816002019080519060200190611534929190613159565b5060608201518160030160006101000a81548160ff02191690831515021790555060808201518160030160016101000a81548173ffffffffffffffffffffffffffffffffffffffff021916908373ffffffffffffffffffffffffffffffffffffffff16021790555060a08201518160030160156101000a81548160ff021916908360058111156115ed577f4e487b7100000000000000000000000000000000000000000000000000000000600052602160045260246000fd5b021790555060c082015181600401908051906020019061160e929190613159565b5090505089600260008873ffffffffffffffffffffffffffffffffffffffff1673ffffffffffffffffffffffffffffffffffffffff1681526020019081526020016000209080519060200190611665929190613159565b5084600460008873ffffffffffffffffffffffffffffffffffffffff1673ffffffffffffffffffffffffffffffffffffffff16815260200190815260200160002090805190602001906116b9929190613159565b508573ffffffffffffffffffffffffffffffffffffffff167f4506e6c4aa323a2c7f01c52376e3badd33f3cdad4d027db71b363133e44bf3fe866040516117009190613b82565b60405180910390a2896040516117169190613aac565b60405180910390207f843c0a15fad6e77d44e651864701404af506907aba531b7777bcd396e45b25c68a848a8a868960405161175796959493929190613ba4565b60405180910390a250505050505050505050565b606080600060606000806060600080600260008b73ffffffffffffffffffffffffffffffffffffffff1673ffffffffffffffffffffffffffffffffffffffff16815260200190815260200160002080546117c490614101565b80601f01602080910402602001604051908101604052809291908181526020018280546117f090614101565b801561183d5780601f106118125761010080835404028352916020019161183d565b820191906000526020600020905b81548152906001019060200180831161182057829003601f168201915b505050505090506000815111611888576040517f08c379a000000000000000000000000000000000000000000000000000000000815260040161187f90613ed5565b60405180910390fd5b600080826040516118999190613aac565b90815260200160405180910390206040518060e00160405290816000820180546118c290614101565b80601f01602080910402602001604051908101604052809291908181526020018280546118ee90614101565b801561193b5780601f106119105761010080835404028352916020019161193b565b820191906000526020600020905b81548152906001019060200180831161191e57829003601f168201915b505050505081526020016001820160009054906101000a900460ff16600581111561198f577f4e487b7100000000000000000000000000000000000000000000000000000000600052602160045260246000fd5b60058111156119c7577f4e487b7100000000000000000000000000000000000000000000000000000000600052602160045260246000fd5b81526020016002820180546119db90614101565b80601f0160208091040260200160405190810160405280929190818152602001828054611a0790614101565b8015611a545780601f10611a2957610100808354040283529160200191611a54565b820191906000526020600020905b815481529060010190602001808311611a3757829003601f168201915b505050505081526020016003820160009054906101000a900460ff161515151581526020016003820160019054906101000a900473ffffffffffffffffffffffffffffffffffffffff1673ffffffffffffffffffffffffffffffffffffffff1673ffffffffffffffffffffffffffffffffffffffff1681526020016003820160159054906101000a900460ff166005811115611b19577f4e487b7100000000000000000000000000000000000000000000000000000000600052602160045260246000fd5b6005811115611b51577f4e487b7100000000000000000000000000000000000000000000000000000000600052602160045260246000fd5b8152602001600482018054611b6590614101565b80601f0160208091040260200160405190810160405280929190818152602001828054611b9190614101565b8015611bde5780601f10611bb357610100808354040283529160200191611bde565b820191906000526020600020905b815481529060010190602001808311611bc157829003601f168201915b505050505081525050905081816000015182602001518360400151846060015185608001518660c001518760a00151995099509950995099509950995099505050919395975091939597565b60606000806000808686604051602001611c45929190613ac3565b604051602081830303815290604052805190602001209050600060036000838152602001908152602001600020604051806080016040529081600082018054611c8d90614101565b80601f0160208091040260200160405190810160405280929190818152602001828054611cb990614101565b8015611d065780601f10611cdb57610100808354040283529160200191611d06565b820191906000526020600020905b815481529060010190602001808311611ce957829003601f168201915b50505050508152602001600182015481526020016002820160009054906101000a900460ff161515151581526020016002820160019054906101000a900460ff161515151581525050905080600001518160200151826040015183606001519550955095509550505092959194509250565b6001818051602081018201805184825260208301602085012081835280955050505050506000915090508054611dad90614101565b80601f0160208091040260200160405190810160405280929190818152602001828054611dd990614101565b8015611e265780601f10611dfb57610100808354040283529160200191611e26565b820191906000526020600020905b815481529060010190602001808311611e0957829003601f168201915b505050505081565b60026020528060005260406000206000915090508054611e4d90614101565b80601f0160208091040260200160405190810160405280929190818152602001828054611e7990614101565b8015611ec65780601f10611e9b57610100808354040283529160200191611ec6565b820191906000526020600020905b815481529060010190602001808311611ea957829003601f168201915b505050505081565b60608060006060600080606060008060018a604051611eed9190613aac565b90815260200160405180910390208054611f0690614101565b80601f0160208091040260200160405190810160405280929190818152602001828054611f3290614101565b8015611f7f5780601f10611f5457610100808354040283529160200191611f7f565b820191906000526020600020905b815481529060010190602001808311611f6257829003601f168201915b50505050509050600081604051611f969190613aac565b908152602001604051809103902060030160009054906101000a900460ff16801561202c575089604051602001611fcd9190613aac565b60405160208183030381529060405280519060200120600082604051611ff39190613aac565b90815260200160405180910390206004016040516020016120149190613ae7565b60405160208183030381529060405280519060200120145b61206b576040517f08c379a000000000000000000000000000000000000000000000000000000000815260040161206290613f35565b60405180910390fd5b6000808260405161207c9190613aac565b90815260200160405180910390206040518060e00160405290816000820180546120a590614101565b80601f01602080910402602001604051908101604052809291908181526020018280546120d190614101565b801561211e5780601f106120f35761010080835404028352916020019161211e565b820191906000526020600020905b81548152906001019060200180831161210157829003601f168201915b505050505081526020016001820160009054906101000a900460ff166005811115612172577f4e487b7100000000000000000000000000000000000000000000000000000000600052602160045260246000fd5b60058111156121aa577f4e487b7100000000000000000000000000000000000000000000000000000000600052602160045260246000fd5b81526020016002820180546121be90614101565b80601f01602080910402602001604051908101604052809291908181526020018280546121ea90614101565b80156122375780601f1061220c57610100808354040283529160200191612237565b820191906000526020600020905b81548152906001019060200180831161221a57829003601f168201915b505050505081526020016003820160009054906101000a900460ff161515151581526020016003820160019054906101000a900473ffffffffffffffffffffffffffffffffffffffff1673ffffffffffffffffffffffffffffffffffffffff1673ffffffffffffffffffffffffffffffffffffffff1681526020016003820160159054906101000a900460ff1660058111156122fc577f4e487b7100000000000000000000000000000000000000000000000000000000600052602160045260246000fd5b6005811115612334577f4e487b7100000000000000000000000000000000000000000000000000000000600052602160045260246000fd5b815260200160048201805461234890614101565b80601f016020809104026020016040519081016040528092919081815260200182805461237490614101565b80156123c15780601f10612396576101008083540402835291602001916123c1565b820191906000526020600020905b8154815290600101906020018083116123a457829003601f168201915b505050505081525050905081816000015182602001518360400151846060015185608001518660c001518760a00151995099509950995099509950995099505050919395975091939597565b60008180516020810182018051848252602083016020850120818352809550505050505060009150905080600001805461244690614101565b80601f016020809104026020016040519081016040528092919081815260200182805461247290614101565b80156124bf5780601f10612494576101008083540402835291602001916124bf565b820191906000526020600020905b8154815290600101906020018083116124a257829003601f168201915b5050505050908060010160009054906101000a900460ff16908060020180546124e790614101565b80601f016020809104026020016040519081016040528092919081815260200182805461251390614101565b80156125605780601f1061253557610100808354040283529160200191612560565b820191906000526020600020905b81548152906001019060200180831161254357829003601f168201915b5050505050908060030160009054906101000a900460ff16908060030160019054906101000a900473ffffffffffffffffffffffffffffffffffffffff16908060030160159054906101000a900460ff16908060040180546125c190614101565b80601f01602080910402602001604051908101604052809291908181526020018280546125ed90614101565b801561263a5780601f1061260f5761010080835404028352916020019161263a565b820191906000526020600020905b81548152906001019060200180831161261d57829003601f168201915b5050505050905087565b606060016005811115612680577f4e487b7100000000000000000000000000000000000000000000000000000000600052602160045260246000fd5b8360058111156126b9577f4e487b7100000000000000000000000000000000000000000000000000000000600052602160045260246000fd5b1480156127365750600260058111156126fb577f4e487b7100000000000000000000000000000000000000000000000000000000600052602160045260246000fd5b826005811115612734577f4e487b7100000000000000000000000000000000000000000000000000000000600052602160045260246000fd5b145b15612778576040518060400160405280601581526020017f436c6f75642d3e466f673a524541442c57524954450000000000000000000000815250905061300e565b600160058111156127b2577f4e487b7100000000000000000000000000000000000000000000000000000000600052602160045260246000fd5b8360058111156127eb577f4e487b7100000000000000000000000000000000000000000000000000000000600052602160045260246000fd5b14801561286857506003600581111561282d577f4e487b7100000000000000000000000000000000000000000000000000000000600052602160045260246000fd5b826005811115612866577f4e487b7100000000000000000000000000000000000000000000000000000000600052602160045260246000fd5b145b156128aa576040518060400160405280601081526020017f436c6f75642d3e456467653a5245414400000000000000000000000000000000815250905061300e565b600260058111156128e4577f4e487b7100000000000000000000000000000000000000000000000000000000600052602160045260246000fd5b83600581111561291d577f4e487b7100000000000000000000000000000000000000000000000000000000600052602160045260246000fd5b14801561299a57506001600581111561295f577f4e487b7100000000000000000000000000000000000000000000000000000000600052602160045260246000fd5b826005811115612998577f4e487b7100000000000000000000000000000000000000000000000000000000600052602160045260246000fd5b145b156129dc576040518060400160405280601581526020017f466f672d3e436c6f75643a524541442c57524954450000000000000000000000815250905061300e565b60026005811115612a16577f4e487b7100000000000000000000000000000000000000000000000000000000600052602160045260246000fd5b836005811115612a4f577f4e487b7100000000000000000000000000000000000000000000000000000000600052602160045260246000fd5b148015612acc575060036005811115612a91577f4e487b7100000000000000000000000000000000000000000000000000000000600052602160045260246000fd5b826005811115612aca577f4e487b7100000000000000000000000000000000000000000000000000000000600052602160045260246000fd5b145b15612b0e576040518060400160405280600e81526020017f466f672d3e456467653a52454144000000000000000000000000000000000000815250905061300e565b60036005811115612b48577f4e487b7100000000000000000000000000000000000000000000000000000000600052602160045260246000fd5b836005811115612b81577f4e487b7100000000000000000000000000000000000000000000000000000000600052602160045260246000fd5b148015612bfe575060016005811115612bc3577f4e487b7100000000000000000000000000000000000000000000000000000000600052602160045260246000fd5b826005811115612bfc577f4e487b7100000000000000000000000000000000000000000000000000000000600052602160045260246000fd5b145b15612c40576040518060400160405280601681526020017f456467652d3e436c6f75643a524541442c575249544500000000000000000000815250905061300e565b60036005811115612c7a577f4e487b7100000000000000000000000000000000000000000000000000000000600052602160045260246000fd5b836005811115612cb3577f4e487b7100000000000000000000000000000000000000000000000000000000600052602160045260246000fd5b148015612d30575060026005811115612cf5577f4e487b7100000000000000000000000000000000000000000000000000000000600052602160045260246000fd5b826005811115612d2e577f4e487b7100000000000000000000000000000000000000000000000000000000600052602160045260246000fd5b145b15612d72576040518060400160405280601481526020017f456467652d3e466f673a524541442c5752495445000000000000000000000000815250905061300e565b60046005811115612dac577f4e487b7100000000000000000000000000000000000000000000000000000000600052602160045260246000fd5b836005811115612de5577f4e487b7100000000000000000000000000000000000000000000000000000000600052602160045260246000fd5b148015612e62575060036005811115612e27577f4e487b7100000000000000000000000000000000000000000000000000000000600052602160045260246000fd5b826005811115612e60577f4e487b7100000000000000000000000000000000000000000000000000000000600052602160045260246000fd5b145b15612ea4576040518060400160405280601781526020017f53656e736f722d3e456467653a524541442c5752495445000000000000000000815250905061300e565b600580811115612edd577f4e487b7100000000000000000000000000000000000000000000000000000000600052602160045260246000fd5b836005811115612f16577f4e487b7100000000000000000000000000000000000000000000000000000000600052602160045260246000fd5b148015612f93575060026005811115612f58577f4e487b7100000000000000000000000000000000000000000000000000000000600052602160045260246000fd5b826005811115612f91577f4e487b7100000000000000000000000000000000000000000000000000000000600052602160045260246000fd5b145b15612fd5576040518060400160405280601881526020017f4163747561746f722d3e466f673a524541442c57524954450000000000000000815250905061300e565b6040518060400160405280600981526020017f4e4f20504f4c494359000000000000000000000000000000000000000000000081525090505b92915050565b600080826040516020016130289190613aac565b60405160208183030381529060405280519060200120905060405160200161304f90613b52565b60405160208183030381529060405280519060200120811415613076576001915050613154565b60405160200161308590613b3d565b604051602081830303815290604052805190602001208114156130ac576002915050613154565b6040516020016130bb90613afe565b604051602081830303815290604052805190602001208114156130e2576003915050613154565b6040516020016130f190613b28565b60405160208183030381529060405280519060200120811415613118576004915050613154565b60405160200161312790613b13565b6040516020818303038152906040528051906020012081141561314e576005915050613154565b60009150505b919050565b82805461316590614101565b90600052602060002090601f01602090048101928261318757600085556131ce565b82601f106131a057805160ff19168380011785556131ce565b828001600101855582156131ce579182015b828111156131cd5782518255916020019190600101906131b2565b5b5090506131db91906131df565b5090565b5b808211156131f85760008160009055506001016131e0565b5090565b600061320f61320a84613f86565b613f55565b90508281526020810184848401111561322757600080fd5b6132328482856140bf565b509392505050565b60008135905061324981614214565b92915050565b60008135905061325e8161422b565b92915050565b600082601f83011261327557600080fd5b81356132858482602086016131fc565b91505092915050565b60008135905061329d81614242565b92915050565b6000602082840312156132b557600080fd5b60006132c38482850161323a565b91505092915050565b6000602082840312156132de57600080fd5b60006132ec8482850161324f565b91505092915050565b60006020828403121561330757600080fd5b600082013567ffffffffffffffff81111561332157600080fd5b61332d84828501613264565b91505092915050565b6000806040838503121561334957600080fd5b600083013567ffffffffffffffff81111561336357600080fd5b61336f85828601613264565b925050602083013567ffffffffffffffff81111561338c57600080fd5b61339885828601613264565b9150509250929050565b600080600080600080600080610100898b0312156133bf57600080fd5b600089013567ffffffffffffffff8111156133d957600080fd5b6133e58b828c01613264565b985050602089013567ffffffffffffffff81111561340257600080fd5b61340e8b828c01613264565b975050604089013567ffffffffffffffff81111561342b57600080fd5b6134378b828c01613264565b965050606089013567ffffffffffffffff81111561345457600080fd5b6134608b828c01613264565b95505060806134718b828c0161323a565b94505060a089013567ffffffffffffffff81111561348e57600080fd5b61349a8b828c01613264565b93505060c089013567ffffffffffffffff8111156134b757600080fd5b6134c38b828c01613264565b92505060e089013567ffffffffffffffff8111156134e057600080fd5b6134ec8b828c01613264565b9150509295985092959890939650565b60008060006060848603121561351157600080fd5b600084013567ffffffffffffffff81111561352b57600080fd5b61353786828701613264565b935050602084013567ffffffffffffffff81111561355457600080fd5b61356086828701613264565b92505060406135718682870161328e565b9150509250925092565b61358481614048565b82525050565b6135938161405a565b82525050565b6135a2816140ad565b82525050565b60006135b382613fcb565b6135bd8185613fd6565b93506135cd8185602086016140ce565b6135d6816141ef565b840191505092915050565b60006135ec82613fcb565b6135f68185613fe7565b93506136068185602086016140ce565b80840191505092915050565b6000815461361f81614101565b6136298186613fe7565b94506001821660008114613644576001811461365557613688565b60ff19831686528186019350613688565b61365e85613fb6565b60005b8381101561368057815481890152600182019150602081019050613661565b838801955050505b50505092915050565b600061369e600483613fe7565b91507f45646765000000000000000000000000000000000000000000000000000000006000830152600482019050919050565b60006136de601883613fd6565b91507f4e6f646520616c726561647920726567697374657265642100000000000000006000830152602082019050919050565b600061371e600883613fe7565b91507f4163747561746f720000000000000000000000000000000000000000000000006000830152600882019050919050565b600061375e601983613fd6565b91507f496e76616c69642076616c696461746f722061646472657373000000000000006000830152602082019050919050565b600061379e601f83613fd6565b91507f546f6b656e20616c72656164792069737375656420616e6420616374697665006000830152602082019050919050565b60006137de600683613fe7565b91507f53656e736f7200000000000000000000000000000000000000000000000000006000830152600682019050919050565b600061381e601083613fd6565b91507f546f6b656e206e6f7420697373756564000000000000000000000000000000006000830152602082019050919050565b600061385e602083613fd6565b91507f496e76616c696420726567697374657265642d6279206e6f64652074797065216000830152602082019050919050565b600061389e600383613fe7565b91507f466f6700000000000000000000000000000000000000000000000000000000006000830152600382019050919050565b60006138de600583613fe7565b91507f436c6f75640000000000000000000000000000000000000000000000000000006000830152600582019050919050565b600061391e601283613fd6565b91507f496e76616c6964206e6f646520747970652100000000000000000000000000006000830152602082019050919050565b600061395e601683613fd6565b91507f41646472657373206e6f742072656769737465726564000000000000000000006000830152602082019050919050565b600061399e602383613fd6565b91507f4e6f6465206e6f7420666f756e64206f7220696e76616c6964207369676e617460008301527f75726500000000000000000000000000000000000000000000000000000000006020830152604082019050919050565b6000613a04601583613fd6565b91507f546f6b656e20616c7265616479207265766f6b656400000000000000000000006000830152602082019050919050565b6000613a44602f83613fd6565b91507f4e6f206d61746368696e67206e6f64652072656769737465726564207769746860008301527f2074686973207369676e617475726500000000000000000000000000000000006020830152604082019050919050565b613aa6816140a3565b82525050565b6000613ab882846135e1565b915081905092915050565b6000613acf82856135e1565b9150613adb82846135e1565b91508190509392505050565b6000613af38284613612565b915081905092915050565b6000613b0982613691565b9150819050919050565b6000613b1e82613711565b9150819050919050565b6000613b33826137d1565b9150819050919050565b6000613b4882613891565b9150819050919050565b6000613b5d826138d1565b9150819050919050565b6000602082019050613b7c600083018461358a565b92915050565b60006020820190508181036000830152613b9c81846135a8565b905092915050565b600060c0820190508181036000830152613bbe81896135a8565b9050613bcd6020830188613599565b8181036040830152613bdf81876135a8565b9050613bee606083018661357b565b613bfb6080830185613599565b81810360a0830152613c0d81846135a8565b9050979650505050505050565b600060e0820190508181036000830152613c34818a6135a8565b9050613c436020830189613599565b8181036040830152613c5581886135a8565b9050613c64606083018761358a565b613c71608083018661357b565b613c7e60a0830185613599565b81810360c0830152613c9081846135a8565b905098975050505050505050565b60006040820190508181036000830152613cb881856135a8565b90508181036020830152613ccc81846135a8565b90509392505050565b6000610100820190508181036000830152613cf0818b6135a8565b90508181036020830152613d04818a6135a8565b9050613d136040830189613599565b8181036060830152613d2581886135a8565b9050613d34608083018761358a565b613d4160a083018661357b565b81810360c0830152613d5381856135a8565b9050613d6260e0830184613599565b9998505050505050505050565b60006080820190508181036000830152613d8981876135a8565b90508181036020830152613d9d81866135a8565b90508181036040830152613db181856135a8565b9050613dc06060830184613a9d565b95945050505050565b60006080820190508181036000830152613de381876135a8565b9050613df26020830186613a9d565b613dff604083018561358a565b613e0c606083018461358a565b95945050505050565b60006020820190508181036000830152613e2e816136d1565b9050919050565b60006020820190508181036000830152613e4e81613751565b9050919050565b60006020820190508181036000830152613e6e81613791565b9050919050565b60006020820190508181036000830152613e8e81613811565b9050919050565b60006020820190508181036000830152613eae81613851565b9050919050565b60006020820190508181036000830152613ece81613911565b9050919050565b60006020820190508181036000830152613eee81613951565b9050919050565b60006020820190508181036000830152613f0e81613991565b9050919050565b60006020820190508181036000830152613f2e816139f7565b9050919050565b60006020820190508181036000830152613f4e81613a37565b9050919050565b6000604051905081810181811067ffffffffffffffff82111715613f7c57613f7b6141c0565b5b8060405250919050565b600067ffffffffffffffff821115613fa157613fa06141c0565b5b601f19601f8301169050602081019050919050565b60008190508160005260206000209050919050565b600081519050919050565b600082825260208201905092915050565b600081905092915050565b6000613ffd826140a3565b9150614008836140a3565b9250827fffffffffffffffffffffffffffffffffffffffffffffffffffffffffffffffff0382111561403d5761403c614133565b5b828201905092915050565b600061405382614083565b9050919050565b60008115159050919050565b6000819050919050565b600081905061407e82614200565b919050565b600073ffffffffffffffffffffffffffffffffffffffff82169050919050565b6000819050919050565b60006140b882614070565b9050919050565b82818337600083830152505050565b60005b838110156140ec5780820151818401526020810190506140d1565b838111156140fb576000848401525b50505050565b6000600282049050600182168061411957607f821691505b6020821081141561412d5761412c614191565b5b50919050565b7f4e487b7100000000000000000000000000000000000000000000000000000000600052601160045260246000fd5b7f4e487b7100000000000000000000000000000000000000000000000000000000600052602160045260246000fd5b7f4e487b7100000000000000000000000000000000000000000000000000000000600052602260045260246000fd5b7f4e487b7100000000000000000000000000000000000000000000000000000000600052604160045260246000fd5b6000601f19601f8301169050919050565b6006811061421157614210614162565b5b50565b61421d81614048565b811461422857600080fd5b50565b61423481614066565b811461423f57600080fd5b50565b61424b816140a3565b811461425657600080fd5b5056fea2646970667358221220906c7c0d6050b4daae457c4b282b8096d2f38a0816c99e917fa54c73dba3068764736f6c63430008000033",
  "immutableReferences": {},
  "source": "// SPDX-License-Identifier: MIT\npragma solidity ^0.8.0;\n\ncontract NodeRegistry {\n    \n    enum NodeType { Unknown, Cloud, Fog, Edge, Sensor, Actuator } // Define possible node types\n\n    struct IoTNode {\n        string nodeName;\n        NodeType nodeType;\n        string publicKey;\n        bool isRegistered;\n        // string senderCapabilityToken;\n        // string receiverCapabilityToken;\n        address registeredBy;\n        NodeType registeredByNodeType;\n        string nodeSignature; \n    }\n\n    struct CapabilityToken { \n        string policy;\n        uint256 issuedAt;\n        bool isIssued;\n        bool isRevoked; \n    }\n\n    mapping(string => IoTNode) public iotNodes;\n    mapping(string => string) public nodeSignatureToNodeId;\n    mapping(address => string) public addressToNodeId;\n    mapping(bytes32 => CapabilityToken) public capabilityTokens; \n    mapping(address => string) public nodeRpcUrls;\n\n    // Event to signal validator proposal for off-chain listeners\n    event ValidatorProposed(address indexed proposedBy, address indexed validator); \n    event RpcUrlMapped(address indexed nodeAddress, string rpcURL);\n    \n    // Updated event: tokens are now a single string each.\n    event NodeRegistered(\n        string indexed nodeId,\n        string nodeName,\n        NodeType nodeType,\n        string publicKey,\n        // string senderCapabilityToken,\n        // string receiverCapabilityToken,\n        address registeredBy,\n        NodeType registeredByNodeType,\n        string nodeSignature\n    );\n\n    event TokenIssued( \n        string fromNodeSignature,\n        string toNodeSignature,\n        string policy,\n        uint256 issuedAt\n    );\n\n    event TokenChecked( \n        string fromNodeSignature,\n        string toNodeSignature\n    );\n\n    event TokenRevoked( \n        string fromNodeSignature,\n        string toNodeSignature\n    );\n\n    function registerNode(\n        string memory nodeId,\n        string memory nodeName,\n        string memory nodeTypeStr,\n        string memory publicKey,\n        address registeredBy,\n        string memory rpcURL,\n        string memory registeredByNodeTypeStr,\n        string memory nodeSignature \n    ) public {\n        require(bytes(nodeSignatureToNodeId[nodeSignature]).length == 0, \"Node already registered!\");\n        nodeSignatureToNodeId[nodeSignature] = nodeId;\n        NodeType nodeType = getNodeType(nodeTypeStr);\n        NodeType regByNodeType = getNodeType(registeredByNodeTypeStr);\n        require(nodeType != NodeType.Unknown, \"Invalid node type!\");\n        require(regByNodeType != NodeType.Unknown, \"Invalid registered-by node type!\");\n\n        // (string[] memory senderTokens, string[] memory receiverTokens) = generateToken(nodeType, regByNodeType);\n        // string memory senderCapabilityToken = joinStringArray(senderTokens);\n        // string memory receiverCapabilityToken = joinStringArray(receiverTokens);\n\n        iotNodes[nodeId] = IoTNode({\n            nodeName: nodeName,\n            nodeType: nodeType,\n            publicKey: publicKey,\n            isRegistered: true,\n            // senderCapabilityToken: senderCapabilityToken,\n            // receiverCapabilityToken: receiverCapabilityToken,\n            registeredBy: registeredBy,\n            registeredByNodeType: regByNodeType,\n            nodeSignature: nodeSignature\n        });\n\n        addressToNodeId[registeredBy] = nodeId;\n        nodeRpcUrls[registeredBy] = rpcURL;\n\n        emit RpcUrlMapped(registeredBy, rpcURL);\n        emit NodeRegistered(\n            nodeId,\n            nodeName,\n            nodeType,\n            publicKey,\n            // senderCapabilityToken,\n            // receiverCapabilityToken,\n            registeredBy,\n            regByNodeType,\n            nodeSignature\n        );\n    }\n\n    function isNodeRegistered(string memory nodeSignature) public view returns (bool) {\n        string memory nodeId = nodeSignatureToNodeId[nodeSignature];\n        return (\n            iotNodes[nodeId].isRegistered &&\n            keccak256(abi.encodePacked(iotNodes[nodeId].nodeSignature)) == keccak256(abi.encodePacked(nodeSignature))\n        );\n    }\n\n    function proposeValidator(address validator) public {\n        require(validator != address(0), \"Invalid validator address\");\n        emit ValidatorProposed(msg.sender, validator); \n    }\n\n    function getNodeDetailsBySignature(string memory nodeSignature)\n        public view returns (\n            string memory,\n            string memory,\n            NodeType,\n            string memory,\n            bool,\n            // string memory,\n            // string memory,\n            address,\n            string memory,\n            NodeType\n        )\n    {\n        string memory nodeId = nodeSignatureToNodeId[nodeSignature];\n        require(\n            iotNodes[nodeId].isRegistered &&\n            keccak256(abi.encodePacked(iotNodes[nodeId].nodeSignature)) == keccak256(abi.encodePacked(nodeSignature)),\n            \"No matching node registered with this signature\"\n        );\n\n        IoTNode memory node = iotNodes[nodeId];\n        return (\n            nodeId,\n            node.nodeName,\n            node.nodeType,\n            node.publicKey,\n            node.isRegistered,\n            // node.senderCapabilityToken,\n            // node.receiverCapabilityToken,\n            node.registeredBy,\n            node.nodeSignature,\n            node.registeredByNodeType\n        );\n    }\n\n    function getNodeDetailsByAddress(address nodeAddress)\n        public view returns (\n            string memory,\n            string memory,\n            NodeType,\n            string memory,\n            bool,\n            address,\n            string memory,\n            NodeType\n        )\n    {\n        string memory nodeId = addressToNodeId[nodeAddress];\n        require(bytes(nodeId).length > 0, \"Address not registered\");\n\n        IoTNode memory node = iotNodes[nodeId];\n        return (\n            nodeId,\n            node.nodeName,\n            node.nodeType,\n            node.publicKey,\n            node.isRegistered,\n            node.registeredBy,\n            node.nodeSignature,\n            node.registeredByNodeType\n        );\n    }\n\n    function issueToken(string memory fromNodeSignature, string memory toNodeSignature) public {\n        string memory fromNodeId = nodeSignatureToNodeId[fromNodeSignature];\n        string memory toNodeId = nodeSignatureToNodeId[toNodeSignature];\n\n        // require(iotNodes[fromNodeId].isRegistered, \"Sender not registered\");\n        // require(iotNodes[toNodeId].isRegistered, \"Receiver not registered\");\n\n        NodeType fromType = iotNodes[fromNodeId].nodeType;\n        NodeType toType = iotNodes[toNodeId].nodeType;\n\n        string memory policy = getPolicyString(fromType, toType);\n\n        bytes32 tokenId = keccak256(abi.encodePacked(fromNodeSignature, toNodeSignature));\n\n        // Modify this block to allow reissuing if previously revoked\n        if (capabilityTokens[tokenId].isIssued && !capabilityTokens[tokenId].isRevoked) {\n            revert(\"Token already issued and active\");\n        }\n\n        capabilityTokens[tokenId] = CapabilityToken({\n            policy: policy,\n            issuedAt: block.timestamp,\n            isIssued: true,\n            isRevoked: false \n        });\n\n        emit TokenIssued(fromNodeSignature, toNodeSignature, policy, block.timestamp);\n    }\n\n    function revokeToken(string memory fromNodeSignature, string memory toNodeSignature) public { \n        bytes32 tokenId = keccak256(abi.encodePacked(fromNodeSignature, toNodeSignature));\n        require(capabilityTokens[tokenId].isIssued, \"Token not issued\");\n        require(!capabilityTokens[tokenId].isRevoked, \"Token already revoked\");\n\n        capabilityTokens[tokenId].isRevoked = true;\n        emit TokenRevoked(fromNodeSignature, toNodeSignature);\n    }\n\n    function getToken(string memory fromNodeSignature, string memory toNodeSignature)\n        public view returns (string memory policy, uint256 issuedAt, bool isIssued, bool isRevoked)\n    {\n        bytes32 tokenId = keccak256(abi.encodePacked(fromNodeSignature, toNodeSignature));\n        CapabilityToken memory token = capabilityTokens[tokenId];\n        return (token.policy, token.issuedAt, token.isIssued, token.isRevoked);\n    }\n\n    function checkToken(string memory fromNodeSignature, string memory toNodeSignature) public view returns (bool) {\n        bytes32 tokenId = keccak256(abi.encodePacked(fromNodeSignature, toNodeSignature));\n        CapabilityToken memory token = capabilityTokens[tokenId];\n        return (token.isIssued && !token.isRevoked);\n    }\n\n    function isTokenExpired(string memory fromNodeSignature, string memory toNodeSignature, uint256 validityPeriodInSeconds)\n        public view returns (bool) \n    {\n        bytes32 tokenId = keccak256(abi.encodePacked(fromNodeSignature, toNodeSignature));\n        CapabilityToken memory token = capabilityTokens[tokenId];\n        if (!token.isIssued || token.isRevoked) {\n            return true;\n        }\n        return (block.timestamp > token.issuedAt + validityPeriodInSeconds);\n    }\n\n    \n\n    function getPolicyString(NodeType from, NodeType to) internal pure returns (string memory) { \n        if (from == NodeType.Cloud && to == NodeType.Fog) {\n            return \"Cloud->Fog:READ,WRITE\";\n        } else if (from == NodeType.Cloud && to == NodeType.Edge) {\n            return \"Cloud->Edge:READ\";\n\n        } else if (from == NodeType.Fog && to == NodeType.Cloud) {\n            return \"Fog->Cloud:READ,WRITE\";\n        } else if (from == NodeType.Fog && to == NodeType.Edge) {\n            return \"Fog->Edge:READ\";\n\n        } else if (from == NodeType.Edge && to == NodeType.Cloud) {\n            return \"Edge->Cloud:READ,WRITE\";\n        } else if (from == NodeType.Edge && to == NodeType.Fog) {\n            return \"Edge->Fog:READ,WRITE\";\n\n\n        } else if (from == NodeType.Sensor && to == NodeType.Edge) {\n            return \"Sensor->Edge:READ,WRITE\";\n  \n\n        } else if (from == NodeType.Actuator && to == NodeType.Fog) {\n            return \"Actuator->Fog:READ,WRITE\";\n\n        } else \n        return \"NO POLICY\"; // Default policy\n    }\n\n\n    function getNodeType(string memory nodeTypeStr) internal pure returns (NodeType) {\n        bytes32 nodeTypeHash = keccak256(abi.encodePacked(nodeTypeStr));\n\n        if (nodeTypeHash == keccak256(abi.encodePacked(\"Cloud\"))) return NodeType.Cloud;\n        if (nodeTypeHash == keccak256(abi.encodePacked(\"Fog\"))) return NodeType.Fog;\n        if (nodeTypeHash == keccak256(abi.encodePacked(\"Edge\"))) return NodeType.Edge;\n        if (nodeTypeHash == keccak256(abi.encodePacked(\"Sensor\"))) return NodeType.Sensor;\n        if (nodeTypeHash == keccak256(abi.encodePacked(\"Actuator\"))) return NodeType.Actuator;\n\n        return NodeType.Unknown; // Invalid type\n    }\n\n    // Helper function to join an array of strings with commas.\n    function joinStringArray(string[] memory arr) internal pure returns (string memory) {\n        bytes memory result;\n        for (uint i = 0; i < arr.length; i++) {\n            result = abi.encodePacked(result, arr[i]);\n            if (i < arr.length - 1) {\n                result = abi.encodePacked(result, \",\");\n            }\n        }\n        return string(result);\n    }\n\n    function isValidator(string memory nodeSignature) public view returns (bool) {\n        string memory nodeId = nodeSignatureToNodeId[nodeSignature];\n        require(\n            iotNodes[nodeId].isRegistered &&\n            keccak256(abi.encodePacked(iotNodes[nodeId].nodeSignature)) == keccak256(abi.encodePacked(nodeSignature)),\n            \"Node not found or invalid signature\"\n        );\n\n        NodeType nodeType = iotNodes[nodeId].nodeType;\n\n        if (nodeType == NodeType.Cloud || nodeType == NodeType.Fog) {\n            return true;\n        }\n\n        return false;\n    }\n\n}",
  "sourcePath": "/Users/khannmohsin/VSCode_Projects/MyDisIoT_Project/Node_cloud/smart_contract_deployment/contracts/NodeRegistry.sol",
  "compiler": {
    "name": "solc",
    "version": "0.8.0+commit.c7dfd78e.Emscripten.clang"
  },
  "schemaVersion": "3.4.16",
  "updatedAt": "2025-04-22T22:40:31.183Z",
  "networkType": "ethereum",
  "devdoc": {
    "kind": "dev",
    "methods": {},
    "version": 1
  },
  "userdoc": {
    "kind": "user",
    "methods": {},
    "version": 1
  }
}