{
  "contractName": "NodeRegistry",
  "abi": [
    {
      "anonymous": false,
      "inputs": [
        {
          "indexed": true,
          "internalType": "string",
          "name": "nodeId",
          "type": "string"
        },
        {
          "indexed": false,
          "internalType": "string",
          "name": "nodeName",
          "type": "string"
        },
        {
          "indexed": false,
          "internalType": "enum NodeRegistry.NodeType",
          "name": "nodeType",
          "type": "uint8"
        },
        {
          "indexed": false,
          "internalType": "string",
          "name": "publicKey",
          "type": "string"
        },
        {
          "indexed": false,
          "internalType": "string",
          "name": "senderCapabilityToken",
          "type": "string"
        },
        {
          "indexed": false,
          "internalType": "string",
          "name": "receiverCapabilityToken",
          "type": "string"
        },
        {
          "indexed": false,
          "internalType": "address",
          "name": "registeredBy",
          "type": "address"
        },
        {
          "indexed": false,
          "internalType": "enum NodeRegistry.NodeType",
          "name": "registeredByNodeType",
          "type": "uint8"
        }
      ],
      "name": "NodeRegistered",
      "type": "event"
    },
    {
      "inputs": [
        {
          "internalType": "string",
          "name": "",
          "type": "string"
        }
      ],
      "name": "iotNodes",
      "outputs": [
        {
          "internalType": "string",
          "name": "nodeName",
          "type": "string"
        },
        {
          "internalType": "enum NodeRegistry.NodeType",
          "name": "nodeType",
          "type": "uint8"
        },
        {
          "internalType": "string",
          "name": "publicKey",
          "type": "string"
        },
        {
          "internalType": "bool",
          "name": "isRegistered",
          "type": "bool"
        },
        {
          "internalType": "string",
          "name": "senderCapabilityToken",
          "type": "string"
        },
        {
          "internalType": "string",
          "name": "receiverCapabilityToken",
          "type": "string"
        },
        {
          "internalType": "address",
          "name": "registeredBy",
          "type": "address"
        },
        {
          "internalType": "enum NodeRegistry.NodeType",
          "name": "registeredByNodeType",
          "type": "uint8"
        }
      ],
      "stateMutability": "view",
      "type": "function",
      "constant": true
    },
    {
      "inputs": [
        {
          "internalType": "string",
          "name": "nodeId",
          "type": "string"
        },
        {
          "internalType": "string",
          "name": "nodeName",
          "type": "string"
        },
        {
          "internalType": "string",
          "name": "nodeTypeStr",
          "type": "string"
        },
        {
          "internalType": "string",
          "name": "publicKey",
          "type": "string"
        },
        {
          "internalType": "address",
          "name": "registeredBy",
          "type": "address"
        },
        {
          "internalType": "string",
          "name": "registeredByNodeTypeStr",
          "type": "string"
        }
      ],
      "name": "registerNode",
      "outputs": [],
      "stateMutability": "nonpayable",
      "type": "function"
    },
    {
      "inputs": [
        {
          "internalType": "string",
          "name": "nodeId",
          "type": "string"
        }
      ],
      "name": "isNodeRegistered",
      "outputs": [
        {
          "internalType": "bool",
          "name": "",
          "type": "bool"
        }
      ],
      "stateMutability": "view",
      "type": "function",
      "constant": true
    },
    {
      "inputs": [
        {
          "internalType": "string",
          "name": "nodeId",
          "type": "string"
        }
      ],
      "name": "getNodeDetails",
      "outputs": [
        {
          "internalType": "string",
          "name": "",
          "type": "string"
        },
        {
          "internalType": "enum NodeRegistry.NodeType",
          "name": "",
          "type": "uint8"
        },
        {
          "internalType": "string",
          "name": "",
          "type": "string"
        },
        {
          "internalType": "bool",
          "name": "",
          "type": "bool"
        },
        {
          "internalType": "string",
          "name": "",
          "type": "string"
        },
        {
          "internalType": "string",
          "name": "",
          "type": "string"
        },
        {
          "internalType": "address",
          "name": "",
          "type": "address"
        }
      ],
      "stateMutability": "view",
      "type": "function",
      "constant": true
    }
  ],
  "bytecode": "0x608060405234801561001057600080fd5b50611f5a806100206000396000f3fe608060405234801561001057600080fd5b506004361061004c5760003560e01c806325d80f95146100515780633f0e0e4714610081578063a04b0bc1146100b7578063f991dde4146100d3575b600080fd5b61006b60048036038101906100669190611618565b61010a565b6040516100789190611ab1565b60405180910390f35b61009b60048036038101906100969190611618565b610141565b6040516100ae9796959493929190611acc565b60405180910390f35b6100d160048036038101906100cc9190611659565b6105ec565b005b6100ed60048036038101906100e89190611618565b610abe565b604051610101989796959493929190611b57565b60405180910390f35b6000808260405161011b9190611a31565b908152602001604051809103902060030160009054906101000a900460ff169050919050565b60606000606060006060806000808860405161015d9190611a31565b908152602001604051809103902060030160009054906101000a900460ff166101bb576040517f08c379a00000000000000000000000000000000000000000000000000000000081526004016101b290611c9c565b60405180910390fd5b600080896040516101cc9190611a31565b9081526020016040518091039020604051806101000160405290816000820180546101f690611e29565b80601f016020809104026020016040519081016040528092919081815260200182805461022290611e29565b801561026f5780601f106102445761010080835404028352916020019161026f565b820191906000526020600020905b81548152906001019060200180831161025257829003601f168201915b505050505081526020016001820160009054906101000a900460ff1660058111156102c3577f4e487b7100000000000000000000000000000000000000000000000000000000600052602160045260246000fd5b60058111156102fb577f4e487b7100000000000000000000000000000000000000000000000000000000600052602160045260246000fd5b815260200160028201805461030f90611e29565b80601f016020809104026020016040519081016040528092919081815260200182805461033b90611e29565b80156103885780601f1061035d57610100808354040283529160200191610388565b820191906000526020600020905b81548152906001019060200180831161036b57829003601f168201915b505050505081526020016003820160009054906101000a900460ff161515151581526020016004820180546103bc90611e29565b80601f01602080910402602001604051908101604052809291908181526020018280546103e890611e29565b80156104355780601f1061040a57610100808354040283529160200191610435565b820191906000526020600020905b81548152906001019060200180831161041857829003601f168201915b5050505050815260200160058201805461044e90611e29565b80601f016020809104026020016040519081016040528092919081815260200182805461047a90611e29565b80156104c75780601f1061049c576101008083540402835291602001916104c7565b820191906000526020600020905b8154815290600101906020018083116104aa57829003601f168201915b505050505081526020016006820160009054906101000a900473ffffffffffffffffffffffffffffffffffffffff1673ffffffffffffffffffffffffffffffffffffffff1673ffffffffffffffffffffffffffffffffffffffff1681526020016006820160149054906101000a900460ff166005811115610571577f4e487b7100000000000000000000000000000000000000000000000000000000600052602160045260246000fd5b60058111156105a9577f4e487b7100000000000000000000000000000000000000000000000000000000600052602160045260246000fd5b815250509050806000015181602001518260400151836060015184608001518560a001518660c00151975097509750975097509750975050919395979092949650565b6000866040516105fc9190611a31565b908152602001604051809103902060030160009054906101000a900460ff161561065b576040517f08c379a000000000000000000000000000000000000000000000000000000000815260040161065290611c7c565b60405180910390fd5b600061066685610d83565b9050600061067383610d83565b9050600060058111156106af577f4e487b7100000000000000000000000000000000000000000000000000000000600052602160045260246000fd5b8260058111156106e8577f4e487b7100000000000000000000000000000000000000000000000000000000600052602160045260246000fd5b1415610729576040517f08c379a000000000000000000000000000000000000000000000000000000000815260040161072090611cbc565b60405180910390fd5b60006005811115610763577f4e487b7100000000000000000000000000000000000000000000000000000000600052602160045260246000fd5b81600581111561079c577f4e487b7100000000000000000000000000000000000000000000000000000000600052602160045260246000fd5b14156107dd576040517f08c379a00000000000000000000000000000000000000000000000000000000081526004016107d490611cdc565b60405180910390fd5b6000806107ea8484610ec8565b915091506040518061010001604052808a8152602001856005811115610839577f4e487b7100000000000000000000000000000000000000000000000000000000600052602160045260246000fd5b81526020018881526020016001151581526020018381526020018281526020018773ffffffffffffffffffffffffffffffffffffffff1681526020018460058111156108ae577f4e487b7100000000000000000000000000000000000000000000000000000000600052602160045260246000fd5b81525060008b6040516108c19190611a31565b908152602001604051809103902060008201518160000190805190602001906108eb9291906114f8565b5060208201518160010160006101000a81548160ff0219169083600581111561093d577f4e487b7100000000000000000000000000000000000000000000000000000000600052602160045260246000fd5b0217905550604082015181600201908051906020019061095e9291906114f8565b5060608201518160030160006101000a81548160ff021916908315150217905550608082015181600401908051906020019061099b9291906114f8565b5060a08201518160050190805190602001906109b89291906114f8565b5060c08201518160060160006101000a81548173ffffffffffffffffffffffffffffffffffffffff021916908373ffffffffffffffffffffffffffffffffffffffff16021790555060e08201518160060160146101000a81548160ff02191690836005811115610a51577f4e487b7100000000000000000000000000000000000000000000000000000000600052602160045260246000fd5b021790555090505089604051610a679190611a31565b60405180910390207ffe158e8551aa844f5edb0ebcef0b58a904f42a75bcd1aa3d5e087aad9c4b46148a868a86868c8a604051610aaa9796959493929190611bf1565b60405180910390a250505050505050505050565b600081805160208101820180518482526020830160208501208183528095505050505050600091509050806000018054610af790611e29565b80601f0160208091040260200160405190810160405280929190818152602001828054610b2390611e29565b8015610b705780601f10610b4557610100808354040283529160200191610b70565b820191906000526020600020905b815481529060010190602001808311610b5357829003601f168201915b5050505050908060010160009054906101000a900460ff1690806002018054610b9890611e29565b80601f0160208091040260200160405190810160405280929190818152602001828054610bc490611e29565b8015610c115780601f10610be657610100808354040283529160200191610c11565b820191906000526020600020905b815481529060010190602001808311610bf457829003601f168201915b5050505050908060030160009054906101000a900460ff1690806004018054610c3990611e29565b80601f0160208091040260200160405190810160405280929190818152602001828054610c6590611e29565b8015610cb25780601f10610c8757610100808354040283529160200191610cb2565b820191906000526020600020905b815481529060010190602001808311610c9557829003601f168201915b505050505090806005018054610cc790611e29565b80601f0160208091040260200160405190810160405280929190818152602001828054610cf390611e29565b8015610d405780601f10610d1557610100808354040283529160200191610d40565b820191906000526020600020905b815481529060010190602001808311610d2357829003601f168201915b5050505050908060060160009054906101000a900473ffffffffffffffffffffffffffffffffffffffff16908060060160149054906101000a900460ff16905088565b60008082604051602001610d979190611a31565b604051602081830303815290604052805190602001209050604051602001610dbe90611a9c565b60405160208183030381529060405280519060200120811415610de5576001915050610ec3565b604051602001610df490611a87565b60405160208183030381529060405280519060200120811415610e1b576002915050610ec3565b604051602001610e2a90611a48565b60405160208183030381529060405280519060200120811415610e51576003915050610ec3565b604051602001610e6090611a72565b60405160208183030381529060405280519060200120811415610e87576004915050610ec3565b604051602001610e9690611a5d565b60405160208183030381529060405280519060200120811415610ebd576005915050610ec3565b60009150505b919050565b60608060608060026005811115610f08577f4e487b7100000000000000000000000000000000000000000000000000000000600052602160045260246000fd5b866005811115610f41577f4e487b7100000000000000000000000000000000000000000000000000000000600052602160045260246000fd5b148015610fbe575060016005811115610f83577f4e487b7100000000000000000000000000000000000000000000000000000000600052602160045260246000fd5b856005811115610fbc577f4e487b7100000000000000000000000000000000000000000000000000000000600052602160045260246000fd5b145b15611038576040518060400160405280601381526020017f524541442c57524954452c5452414e534d49540000000000000000000000000081525091506040518060400160405280600c81526020017f524541442c45584543555445000000000000000000000000000000000000000081525090506114e9565b60036005811115611072577f4e487b7100000000000000000000000000000000000000000000000000000000600052602160045260246000fd5b8660058111156110ab577f4e487b7100000000000000000000000000000000000000000000000000000000600052602160045260246000fd5b1480156111285750600260058111156110ed577f4e487b7100000000000000000000000000000000000000000000000000000000600052602160045260246000fd5b856005811115611126577f4e487b7100000000000000000000000000000000000000000000000000000000600052602160045260246000fd5b145b156111a2576040518060400160405280601381526020017f524541442c57524954452c5452414e534d49540000000000000000000000000081525091506040518060400160405280600c81526020017f524541442c45584543555445000000000000000000000000000000000000000081525090506114e8565b600460058111156111dc577f4e487b7100000000000000000000000000000000000000000000000000000000600052602160045260246000fd5b866005811115611215577f4e487b7100000000000000000000000000000000000000000000000000000000600052602160045260246000fd5b148015611292575060036005811115611257577f4e487b7100000000000000000000000000000000000000000000000000000000600052602160045260246000fd5b856005811115611290577f4e487b7100000000000000000000000000000000000000000000000000000000600052602160045260246000fd5b145b1561130c576040518060400160405280600d81526020017f524541442c5452414e534d49540000000000000000000000000000000000000081525091506040518060400160405280600c81526020017f524541442c45584543555445000000000000000000000000000000000000000081525090506114e7565b600580811115611345577f4e487b7100000000000000000000000000000000000000000000000000000000600052602160045260246000fd5b86600581111561137e577f4e487b7100000000000000000000000000000000000000000000000000000000600052602160045260246000fd5b1480156113fb5750600360058111156113c0577f4e487b7100000000000000000000000000000000000000000000000000000000600052602160045260246000fd5b8560058111156113f9577f4e487b7100000000000000000000000000000000000000000000000000000000600052602160045260246000fd5b145b15611475576040518060400160405280601281526020017f524541442c57524954452c45584543555445000000000000000000000000000081525091506040518060400160405280600c81526020017f524541442c45584543555445000000000000000000000000000000000000000081525090506114e6565b6040518060400160405280600d81526020017f494e56414c49445f544f4b454e0000000000000000000000000000000000000081525091506040518060400160405280600d81526020017f494e56414c49445f544f4b454e0000000000000000000000000000000000000081525090505b5b5b5b81819350935050509250929050565b82805461150490611e29565b90600052602060002090601f016020900481019282611526576000855561156d565b82601f1061153f57805160ff191683800117855561156d565b8280016001018555821561156d579182015b8281111561156c578251825591602001919060010190611551565b5b50905061157a919061157e565b5090565b5b8082111561159757600081600090555060010161157f565b5090565b60006115ae6115a984611d2d565b611cfc565b9050828152602081018484840111156115c657600080fd5b6115d1848285611de7565b509392505050565b6000813590506115e881611f0d565b92915050565b600082601f8301126115ff57600080fd5b813561160f84826020860161159b565b91505092915050565b60006020828403121561162a57600080fd5b600082013567ffffffffffffffff81111561164457600080fd5b611650848285016115ee565b91505092915050565b60008060008060008060c0878903121561167257600080fd5b600087013567ffffffffffffffff81111561168c57600080fd5b61169889828a016115ee565b965050602087013567ffffffffffffffff8111156116b557600080fd5b6116c189828a016115ee565b955050604087013567ffffffffffffffff8111156116de57600080fd5b6116ea89828a016115ee565b945050606087013567ffffffffffffffff81111561170757600080fd5b61171389828a016115ee565b935050608061172489828a016115d9565b92505060a087013567ffffffffffffffff81111561174157600080fd5b61174d89828a016115ee565b9150509295509295509295565b61176381611d84565b82525050565b61177281611d96565b82525050565b61178181611dd5565b82525050565b600061179282611d5d565b61179c8185611d68565b93506117ac818560208601611df6565b6117b581611ee8565b840191505092915050565b60006117cb82611d5d565b6117d58185611d79565b93506117e5818560208601611df6565b80840191505092915050565b60006117fe600483611d79565b91507f45646765000000000000000000000000000000000000000000000000000000006000830152600482019050919050565b600061183e601883611d68565b91507f4e6f646520616c726561647920726567697374657265642100000000000000006000830152602082019050919050565b600061187e600883611d79565b91507f4163747561746f720000000000000000000000000000000000000000000000006000830152600882019050919050565b60006118be600683611d79565b91507f53656e736f7200000000000000000000000000000000000000000000000000006000830152600682019050919050565b60006118fe600f83611d68565b91507f4e6f6465206e6f7420666f756e642100000000000000000000000000000000006000830152602082019050919050565b600061193e600383611d79565b91507f466f6700000000000000000000000000000000000000000000000000000000006000830152600382019050919050565b600061197e600583611d79565b91507f436c6f75640000000000000000000000000000000000000000000000000000006000830152600582019050919050565b60006119be601283611d68565b91507f496e76616c6964206e6f646520747970652100000000000000000000000000006000830152602082019050919050565b60006119fe602083611d68565b91507f496e76616c69642072656769737465726564206279206e6f64652074797065216000830152602082019050919050565b6000611a3d82846117c0565b915081905092915050565b6000611a53826117f1565b9150819050919050565b6000611a6882611871565b9150819050919050565b6000611a7d826118b1565b9150819050919050565b6000611a9282611931565b9150819050919050565b6000611aa782611971565b9150819050919050565b6000602082019050611ac66000830184611769565b92915050565b600060e0820190508181036000830152611ae6818a611787565b9050611af56020830189611778565b8181036040830152611b078188611787565b9050611b166060830187611769565b8181036080830152611b288186611787565b905081810360a0830152611b3c8185611787565b9050611b4b60c083018461175a565b98975050505050505050565b6000610100820190508181036000830152611b72818b611787565b9050611b81602083018a611778565b8181036040830152611b938189611787565b9050611ba26060830188611769565b8181036080830152611bb48187611787565b905081810360a0830152611bc88186611787565b9050611bd760c083018561175a565b611be460e0830184611778565b9998505050505050505050565b600060e0820190508181036000830152611c0b818a611787565b9050611c1a6020830189611778565b8181036040830152611c2c8188611787565b90508181036060830152611c408187611787565b90508181036080830152611c548186611787565b9050611c6360a083018561175a565b611c7060c0830184611778565b98975050505050505050565b60006020820190508181036000830152611c9581611831565b9050919050565b60006020820190508181036000830152611cb5816118f1565b9050919050565b60006020820190508181036000830152611cd5816119b1565b9050919050565b60006020820190508181036000830152611cf5816119f1565b9050919050565b6000604051905081810181811067ffffffffffffffff82111715611d2357611d22611eb9565b5b8060405250919050565b600067ffffffffffffffff821115611d4857611d47611eb9565b5b601f19601f8301169050602081019050919050565b600081519050919050565b600082825260208201905092915050565b600081905092915050565b6000611d8f82611db5565b9050919050565b60008115159050919050565b6000819050611db082611ef9565b919050565b600073ffffffffffffffffffffffffffffffffffffffff82169050919050565b6000611de082611da2565b9050919050565b82818337600083830152505050565b60005b83811015611e14578082015181840152602081019050611df9565b83811115611e23576000848401525b50505050565b60006002820490506001821680611e4157607f821691505b60208210811415611e5557611e54611e8a565b5b50919050565b7f4e487b7100000000000000000000000000000000000000000000000000000000600052602160045260246000fd5b7f4e487b7100000000000000000000000000000000000000000000000000000000600052602260045260246000fd5b7f4e487b7100000000000000000000000000000000000000000000000000000000600052604160045260246000fd5b6000601f19601f8301169050919050565b60068110611f0a57611f09611e5b565b5b50565b611f1681611d84565b8114611f2157600080fd5b5056fea2646970667358221220ac469163b7bec864990665158131206972078fffcc5fa68b4da43306690d628864736f6c63430008000033",
  "immutableReferences": {},
  "source": "// SPDX-License-Identifier: MIT\npragma solidity ^0.8.0;\n\ncontract NodeRegistry {\n    \n    enum NodeType { Unknown, Cloud, Fog, Edge, Sensor, Actuator } // Define possible node types\n\n    struct IoTNode {\n        string nodeName;\n        NodeType nodeType;\n        string publicKey;\n        bool isRegistered;\n        string senderCapabilityToken;\n        string receiverCapabilityToken;\n        address registeredBy;\n        NodeType registeredByNodeType;\n    }\n\n    mapping(string => IoTNode) public iotNodes;\n    \n    event NodeRegistered(\n        string indexed nodeId,\n        string nodeName,\n        NodeType nodeType,\n        string publicKey,\n        string senderCapabilityToken,\n        string receiverCapabilityToken,\n        address registeredBy,\n        NodeType registeredByNodeType \n    );\n\n    // Now the function accepts six parameters.\n    // The 5th parameter is the address of the registrant.\n    // The 6th parameter is the string representing the registrant's node type.\n    function registerNode(\n        string memory nodeId,\n        string memory nodeName,\n        string memory nodeTypeStr,\n        string memory publicKey,\n        address registeredBy,\n        string memory registeredByNodeTypeStr\n    ) public {\n        require(!iotNodes[nodeId].isRegistered, \"Node already registered!\");\n\n        NodeType nodeType = getNodeType(nodeTypeStr);\n        NodeType regByNodeType = getNodeType(registeredByNodeTypeStr);\n        require(nodeType != NodeType.Unknown, \"Invalid node type!\");\n        require(regByNodeType != NodeType.Unknown, \"Invalid registered by node type!\");\n\n        (string memory senderCapabilityToken, string memory receiverCapabilityToken) = generateToken(nodeType, regByNodeType);  \n\n        iotNodes[nodeId] = IoTNode({\n            nodeName: nodeName,\n            nodeType: nodeType,\n            publicKey: publicKey,\n            isRegistered: true,\n            senderCapabilityToken: senderCapabilityToken,\n            receiverCapabilityToken: receiverCapabilityToken,\n            registeredBy: registeredBy,\n            registeredByNodeType: regByNodeType\n        });\n\n        emit NodeRegistered(nodeId, nodeName, nodeType, publicKey, senderCapabilityToken, receiverCapabilityToken, registeredBy, regByNodeType);\n    }\n\n    function isNodeRegistered(string memory nodeId) public view returns (bool) {\n        return iotNodes[nodeId].isRegistered;\n    }\n\n    function getNodeDetails(string memory nodeId) \n        public view returns (string memory, NodeType, string memory, bool, string memory, string memory, address) \n    {\n        require(iotNodes[nodeId].isRegistered, \"Node not found!\");\n        IoTNode memory node = iotNodes[nodeId];\n        return (node.nodeName, node.nodeType, node.publicKey, node.isRegistered, node.senderCapabilityToken, node.receiverCapabilityToken, node.registeredBy);\n    }\n\n    function getNodeType(string memory nodeTypeStr) internal pure returns (NodeType) {\n        bytes32 nodeTypeHash = keccak256(abi.encodePacked(nodeTypeStr));\n\n        if (nodeTypeHash == keccak256(abi.encodePacked(\"Cloud\"))) return NodeType.Cloud;\n        if (nodeTypeHash == keccak256(abi.encodePacked(\"Fog\"))) return NodeType.Fog;\n        if (nodeTypeHash == keccak256(abi.encodePacked(\"Edge\"))) return NodeType.Edge;\n        if (nodeTypeHash == keccak256(abi.encodePacked(\"Sensor\"))) return NodeType.Sensor;\n        if (nodeTypeHash == keccak256(abi.encodePacked(\"Actuator\"))) return NodeType.Actuator;\n\n        return NodeType.Unknown; // Invalid type\n    }\n\n    function generateToken(NodeType nodeType, NodeType registeredByNodeType) \n        internal pure returns (string memory, string memory) \n    {\n        string memory nodeTypePermissions;\n        string memory registeredByNodeTypePermissions;\n\n        if (nodeType == NodeType.Fog && registeredByNodeType == NodeType.Cloud) {\n            nodeTypePermissions = \"READ,WRITE,TRANSMIT\";\n            registeredByNodeTypePermissions = \"READ,EXECUTE\";\n        } else if (nodeType == NodeType.Edge && registeredByNodeType == NodeType.Fog) {\n            nodeTypePermissions = \"READ,WRITE,TRANSMIT\";\n            registeredByNodeTypePermissions = \"READ,EXECUTE\";\n        } else if (nodeType == NodeType.Sensor && registeredByNodeType == NodeType.Edge) {\n            nodeTypePermissions = \"READ,TRANSMIT\";\n            registeredByNodeTypePermissions = \"READ,EXECUTE\";\n        } else if (nodeType == NodeType.Actuator && registeredByNodeType == NodeType.Edge) {\n            nodeTypePermissions = \"READ,WRITE,EXECUTE\";\n            registeredByNodeTypePermissions = \"READ,EXECUTE\";\n        } else {\n            nodeTypePermissions = \"INVALID_TOKEN\";\n            registeredByNodeTypePermissions = \"INVALID_TOKEN\";\n        }\n\n        return (nodeTypePermissions, registeredByNodeTypePermissions);\n    }\n}",
  "sourcePath": "/Users/khannmohsin/VSCode_Projects/MyDisIoT_Project/smart_contract_deployment/contracts/NodeRegistry.sol",
  "compiler": {
    "name": "solc",
    "version": "0.8.0+commit.c7dfd78e.Emscripten.clang"
  },
  "schemaVersion": "3.4.16",
  "updatedAt": "2025-03-14T17:59:54.946Z",
  "networkType": "ethereum",
  "devdoc": {
    "kind": "dev",
    "methods": {},
    "version": 1
  },
  "userdoc": {
    "kind": "user",
    "methods": {},
    "version": 1
  }
}