{
  "contractName": "FogNodeRegistry",
  "abi": [
    {
      "anonymous": false,
      "inputs": [
        {
          "indexed": true,
          "internalType": "string",
          "name": "fogId",
          "type": "string"
        },
        {
          "indexed": false,
          "internalType": "string",
          "name": "nodeName",
          "type": "string"
        },
        {
          "indexed": false,
          "internalType": "string",
          "name": "nodeType",
          "type": "string"
        },
        {
          "indexed": false,
          "internalType": "string",
          "name": "publicKey",
          "type": "string"
        }
      ],
      "name": "FogNodeRegistered",
      "type": "event"
    },
    {
      "inputs": [
        {
          "internalType": "string",
          "name": "",
          "type": "string"
        }
      ],
      "name": "fogNodes",
      "outputs": [
        {
          "internalType": "string",
          "name": "nodeName",
          "type": "string"
        },
        {
          "internalType": "string",
          "name": "nodeType",
          "type": "string"
        },
        {
          "internalType": "string",
          "name": "publicKey",
          "type": "string"
        },
        {
          "internalType": "bool",
          "name": "isRegistered",
          "type": "bool"
        }
      ],
      "stateMutability": "view",
      "type": "function",
      "constant": true
    },
    {
      "inputs": [
        {
          "internalType": "string",
          "name": "fogId",
          "type": "string"
        },
        {
          "internalType": "string",
          "name": "nodeName",
          "type": "string"
        },
        {
          "internalType": "string",
          "name": "nodeType",
          "type": "string"
        },
        {
          "internalType": "string",
          "name": "publicKey",
          "type": "string"
        }
      ],
      "name": "registerFogNode",
      "outputs": [],
      "stateMutability": "nonpayable",
      "type": "function"
    },
    {
      "inputs": [
        {
          "internalType": "string",
          "name": "fogId",
          "type": "string"
        }
      ],
      "name": "isFogNodeRegistered",
      "outputs": [
        {
          "internalType": "bool",
          "name": "",
          "type": "bool"
        }
      ],
      "stateMutability": "view",
      "type": "function",
      "constant": true
    },
    {
      "inputs": [
        {
          "internalType": "string",
          "name": "fogId",
          "type": "string"
        }
      ],
      "name": "getFogNode",
      "outputs": [
        {
          "internalType": "string",
          "name": "",
          "type": "string"
        },
        {
          "internalType": "string",
          "name": "",
          "type": "string"
        },
        {
          "internalType": "string",
          "name": "",
          "type": "string"
        },
        {
          "internalType": "bool",
          "name": "",
          "type": "bool"
        }
      ],
      "stateMutability": "view",
      "type": "function",
      "constant": true
    }
  ],
  "bytecode": "0x608060405234801561001057600080fd5b50610d09806100206000396000f3fe608060405234801561001057600080fd5b506004361061004c5760003560e01c806387f91b26146100515780639fada14f14610081578063bb12e010146100b4578063fa35eb53146100e7575b600080fd5b61006b60048036038101906100669190610847565b610103565b6040516100789190610a5b565b60405180910390f35b61009b60048036038101906100969190610847565b61013a565b6040516100ab9493929190610ac2565b60405180910390f35b6100ce60048036038101906100c99190610847565b6103cf565b6040516100de9493929190610ac2565b60405180910390f35b61010160048036038101906100fc9190610888565b6105ba565b005b600080826040516101149190610a44565b908152602001604051809103902060030160009054906101000a900460ff169050919050565b6060806060600080856040516101509190610a44565b908152602001604051809103902060030160009054906101000a900460ff166101ae576040517f08c379a00000000000000000000000000000000000000000000000000000000081526004016101a590610b3c565b60405180910390fd5b600080866040516101bf9190610a44565b90815260200160405180910390206040518060800160405290816000820180546101e890610c32565b80601f016020809104026020016040519081016040528092919081815260200182805461021490610c32565b80156102615780601f1061023657610100808354040283529160200191610261565b820191906000526020600020905b81548152906001019060200180831161024457829003601f168201915b5050505050815260200160018201805461027a90610c32565b80601f01602080910402602001604051908101604052809291908181526020018280546102a690610c32565b80156102f35780601f106102c8576101008083540402835291602001916102f3565b820191906000526020600020905b8154815290600101906020018083116102d657829003601f168201915b5050505050815260200160028201805461030c90610c32565b80601f016020809104026020016040519081016040528092919081815260200182805461033890610c32565b80156103855780601f1061035a57610100808354040283529160200191610385565b820191906000526020600020905b81548152906001019060200180831161036857829003601f168201915b505050505081526020016003820160009054906101000a900460ff161515151581525050905080600001518160200151826040015183606001519450945094509450509193509193565b60008180516020810182018051848252602083016020850120818352809550505050505060009150905080600001805461040890610c32565b80601f016020809104026020016040519081016040528092919081815260200182805461043490610c32565b80156104815780601f1061045657610100808354040283529160200191610481565b820191906000526020600020905b81548152906001019060200180831161046457829003601f168201915b50505050509080600101805461049690610c32565b80601f01602080910402602001604051908101604052809291908181526020018280546104c290610c32565b801561050f5780601f106104e45761010080835404028352916020019161050f565b820191906000526020600020905b8154815290600101906020018083116104f257829003601f168201915b50505050509080600201805461052490610c32565b80601f016020809104026020016040519081016040528092919081815260200182805461055090610c32565b801561059d5780601f106105725761010080835404028352916020019161059d565b820191906000526020600020905b81548152906001019060200180831161058057829003601f168201915b5050505050908060030160009054906101000a900460ff16905084565b6000846040516105ca9190610a44565b908152602001604051809103902060030160009054906101000a900460ff1615610629576040517f08c379a000000000000000000000000000000000000000000000000000000000815260040161062090610b1c565b60405180910390fd5b60405180608001604052808481526020018381526020018281526020016001151581525060008560405161065d9190610a44565b9081526020016040518091039020600082015181600001908051906020019061068792919061073c565b5060208201518160010190805190602001906106a492919061073c565b5060408201518160020190805190602001906106c192919061073c565b5060608201518160030160006101000a81548160ff021916908315150217905550905050836040516106f39190610a44565b60405180910390207fa9a13483b86996e1406aca7e217b38168d5b1cc5887477fa9b53132cdf39f05184848460405161072e93929190610a76565b60405180910390a250505050565b82805461074890610c32565b90600052602060002090601f01602090048101928261076a57600085556107b1565b82601f1061078357805160ff19168380011785556107b1565b828001600101855582156107b1579182015b828111156107b0578251825591602001919060010190610795565b5b5090506107be91906107c2565b5090565b5b808211156107db5760008160009055506001016107c3565b5090565b60006107f26107ed84610b8d565b610b5c565b90508281526020810184848401111561080a57600080fd5b610815848285610bf0565b509392505050565b600082601f83011261082e57600080fd5b813561083e8482602086016107df565b91505092915050565b60006020828403121561085957600080fd5b600082013567ffffffffffffffff81111561087357600080fd5b61087f8482850161081d565b91505092915050565b6000806000806080858703121561089e57600080fd5b600085013567ffffffffffffffff8111156108b857600080fd5b6108c48782880161081d565b945050602085013567ffffffffffffffff8111156108e157600080fd5b6108ed8782880161081d565b935050604085013567ffffffffffffffff81111561090a57600080fd5b6109168782880161081d565b925050606085013567ffffffffffffffff81111561093357600080fd5b61093f8782880161081d565b91505092959194509250565b61095481610be4565b82525050565b600061096582610bbd565b61096f8185610bc8565b935061097f818560208601610bff565b61098881610cc2565b840191505092915050565b600061099e82610bbd565b6109a88185610bd9565b93506109b8818560208601610bff565b80840191505092915050565b60006109d1601c83610bc8565b91507f466f67204e6f646520616c7265616479207265676973746572656421000000006000830152602082019050919050565b6000610a11601383610bc8565b91507f466f67204e6f6465206e6f7420666f756e6421000000000000000000000000006000830152602082019050919050565b6000610a508284610993565b915081905092915050565b6000602082019050610a70600083018461094b565b92915050565b60006060820190508181036000830152610a90818661095a565b90508181036020830152610aa4818561095a565b90508181036040830152610ab8818461095a565b9050949350505050565b60006080820190508181036000830152610adc818761095a565b90508181036020830152610af0818661095a565b90508181036040830152610b04818561095a565b9050610b13606083018461094b565b95945050505050565b60006020820190508181036000830152610b35816109c4565b9050919050565b60006020820190508181036000830152610b5581610a04565b9050919050565b6000604051905081810181811067ffffffffffffffff82111715610b8357610b82610c93565b5b8060405250919050565b600067ffffffffffffffff821115610ba857610ba7610c93565b5b601f19601f8301169050602081019050919050565b600081519050919050565b600082825260208201905092915050565b600081905092915050565b60008115159050919050565b82818337600083830152505050565b60005b83811015610c1d578082015181840152602081019050610c02565b83811115610c2c576000848401525b50505050565b60006002820490506001821680610c4a57607f821691505b60208210811415610c5e57610c5d610c64565b5b50919050565b7f4e487b7100000000000000000000000000000000000000000000000000000000600052602260045260246000fd5b7f4e487b7100000000000000000000000000000000000000000000000000000000600052604160045260246000fd5b6000601f19601f830116905091905056fea264697066735822122016fb42bec681ef045914c06f4bbc69c321e2a06983aeec285e0f7f92be1023e164736f6c63430008000033",
  "immutableReferences": {},
  "source": "// SPDX-License-Identifier: MIT\npragma solidity ^0.8.0;\n\ncontract FogNodeRegistry {\n    \n    struct FogNode {\n        string nodeName;\n        string nodeType;\n        string publicKey;\n        bool isRegistered;\n    }\n\n    mapping(string => FogNode) public fogNodes;\n    \n    event FogNodeRegistered(string indexed fogId, string nodeName, string nodeType, string publicKey);\n\n    function registerFogNode(string memory fogId, string memory nodeName, string memory nodeType, string memory publicKey) public {\n        require(!fogNodes[fogId].isRegistered, \"Fog Node already registered!\");\n\n        fogNodes[fogId] = FogNode({\n            nodeName: nodeName,\n            nodeType: nodeType,\n            publicKey: publicKey,\n            isRegistered: true\n        });\n\n        emit FogNodeRegistered(fogId, nodeName, nodeType, publicKey);\n    }\n\n    function isFogNodeRegistered(string memory fogId) public view returns (bool) {\n        return fogNodes[fogId].isRegistered;\n    }\n\n    function getFogNode(string memory fogId) public view returns (string memory, string memory, string memory, bool) {\n        require(fogNodes[fogId].isRegistered, \"Fog Node not found!\");\n        FogNode memory node = fogNodes[fogId];\n        return (node.nodeName, node.nodeType, node.publicKey, node.isRegistered);\n    }\n}",
  "sourcePath": "/Users/khannmohsin/VSCode Projects/MyDisIoT Project/contracts/FogNodeRegistry.sol",
  "compiler": {
    "name": "solc",
    "version": "0.8.0+commit.c7dfd78e.Emscripten.clang"
  },
  "schemaVersion": "3.4.16",
  "updatedAt": "2025-03-03T18:16:25.731Z",
  "networkType": "ethereum",
  "devdoc": {
    "kind": "dev",
    "methods": {},
    "version": 1
  },
  "userdoc": {
    "kind": "user",
    "methods": {},
    "version": 1
  }
}